{
  "transactions": [
    {
      "hash": "0x534088142adfb435f2f5b7bae6d4a7edc5253519c1c31b84fb9a6e3d1d49e93f",
      "transactionType": "CREATE",
      "contractName": "PoolSwapTest",
      "contractAddress": "0x47e2fd55a1d27cb322533c9b0c2aeacb36d58c72",
      "function": null,
      "arguments": [
        "0x05E73354cFDd6745C338b50BcFDfA3Aa6fA03408"
      ],
      "transaction": {
        "from": "0x747481ae081a6e4e28c989eef25bc53def899ea7",
        "gas": "0x1bd43a",
        "value": "0x0",
        "input": "0x60a0604052348015600e575f80fd5b50604051611921380380611921833981016040819052602b91603b565b6001600160a01b03166080526066565b5f60208284031215604a575f80fd5b81516001600160a01b0381168114605f575f80fd5b9392505050565b6080516118666100bb5f395f8181606e0152818160d7015281816101ee01528181610300015281816109bb01528181610a1401528181610a9101528181610ae501528181610c030152610c3601526118665ff3fe608060405260043610610033575f3560e01c80632229d0b414610037578063481c6a751461005d57806391dd7346146100a8575b5f80fd5b61004a61004536600461140f565b6100d4565b6040519081526020015b60405180910390f35b348015610068575f80fd5b506100907f000000000000000000000000000000000000000000000000000000000000000081565b6040516001600160a01b039091168152602001610054565b3480156100b3575f80fd5b506100c76100c2366004611480565b6101e1565b604051610054919061151c565b5f7f00000000000000000000000000000000000000000000000000000000000000006001600160a01b03166348c894916040518060a00160405280336001600160a01b03168152602001868152602001888152602001878152602001858152506040516020016101449190611535565b6040516020818303038152906040526040518263ffffffff1660e01b815260040161016f919061151c565b5f604051808303815f875af115801561018a573d5f803e3d5ffd5b505050506040513d5f823e601f3d908101601f191682016040526101b19190810190611615565b8060200190518101906101c4919061168a565b90504780156101d8576101d85f3383610b37565b50949350505050565b6060336001600160a01b037f00000000000000000000000000000000000000000000000000000000000000001614610217575f80fd5b5f610224838501856116a1565b90505f61023c82604001515f0151835f015130610bdc565b925050505f610257836040015160200151845f015130610bdc565b92505050815f146102af5760405162461bcd60e51b815260206004820152601e60248201527f64656c74614265666f726530206973206e6f7420657175616c20746f2030000060448201526064015b60405180910390fd5b80156102fd5760405162461bcd60e51b815260206004820152601e60248201527f64656c74614265666f726531206973206e6f7420657175616c20746f2030000060448201526064016102a6565b5f7f00000000000000000000000000000000000000000000000000000000000000006001600160a01b031663f3cd914c8560400151866060015187608001516040518463ffffffff1660e01b815260040161035a93929190611759565b6020604051808303815f875af1158015610376573d5f803e3d5ffd5b505050506040513d601f19601f8201168201806040525081019061039a919061168a565b90505f6103b285604001515f0151865f015130610bdc565b925050505f6103cd866040015160200151875f015130610bdc565b9250505085606001515f0151156106c7575f86606001516020015112156105565785606001516020015182121561047c5760405162461bcd60e51b815260206004820152604760248201527f64656c7461416674657230206973206e6f742067726561746572207468616e2060448201527f6f7220657175616c20746f20646174612e706172616d732e616d6f756e7453706064820152661958da599a595960ca1b608482015260a4016102a6565b816104878460801d90565b600f0b146104eb5760405162461bcd60e51b815260206004820152602b60248201527f64656c74612e616d6f756e74302829206973206e6f7420657175616c20746f2060448201526a064656c74614166746572360ac1b60648201526084016102a6565b5f8112156105515760405162461bcd60e51b815260206004820152602d60248201527f64656c7461416674657231206973206e6f742067726561746572207468616e2060448201526c06f7220657175616c20746f203609c1b60648201526084016102a6565b6109ab565b5f8213156105cc5760405162461bcd60e51b815260206004820152602d60248201527f64656c7461416674657230206973206e6f74206c657373207468616e206f722060448201527f657175616c20746f207a65726f0000000000000000000000000000000000000060648201526084016102a6565b806105d784600f0b90565b600f0b1461063b5760405162461bcd60e51b815260206004820152602b60248201527f64656c74612e616d6f756e74312829206973206e6f7420657175616c20746f2060448201526a64656c746141667465723160a81b60648201526084016102a6565b8560600151602001518113156105515760405162461bcd60e51b8152602060048201526044602482018190527f64656c7461416674657231206973206e6f74206c657373207468616e206f7220908201527f657175616c20746f20646174612e706172616d732e616d6f756e745370656369606482015263199a595960e21b608482015260a4016102a6565b5f866060015160200151121561083a578560600151602001518112156107655760405162461bcd60e51b815260206004820152604760248201527f64656c7461416674657231206973206e6f742067726561746572207468616e2060448201527f6f7220657175616c20746f20646174612e706172616d732e616d6f756e7453706064820152661958da599a595960ca1b608482015260a4016102a6565b8061077084600f0b90565b600f0b146107d45760405162461bcd60e51b815260206004820152602b60248201527f64656c74612e616d6f756e74312829206973206e6f7420657175616c20746f2060448201526a64656c746141667465723160a81b60648201526084016102a6565b5f8212156105515760405162461bcd60e51b815260206004820152602d60248201527f64656c7461416674657230206973206e6f742067726561746572207468616e2060448201526c06f7220657175616c20746f203609c1b60648201526084016102a6565b5f8113156108b05760405162461bcd60e51b815260206004820152602a60248201527f64656c7461416674657231206973206e6f74206c657373207468616e206f722060448201527f657175616c20746f20300000000000000000000000000000000000000000000060648201526084016102a6565b816108bb8460801d90565b600f0b1461091f5760405162461bcd60e51b815260206004820152602b60248201527f64656c74612e616d6f756e74302829206973206e6f7420657175616c20746f2060448201526a064656c74614166746572360ac1b60648201526084016102a6565b8560600151602001518213156109ab5760405162461bcd60e51b8152602060048201526044602482018190527f64656c7461416674657230206973206e6f74206c657373207468616e206f7220908201527f657175616c20746f20646174612e706172616d732e616d6f756e745370656369606482015263199a595960e21b608482015260a4016102a6565b5f821215610a04578551610a04907f0000000000000000000000000000000000000000000000000000000000000000906109e4856117ef565b6020808b0151015160408b0151516001600160a01b031693929190610c68565b5f811215610a69578551610a69907f000000000000000000000000000000000000000000000000000000000000000090610a3d846117ef565b8960200151602001518a60400151602001516001600160a01b0316610c6890949392919063ffffffff16565b5f821315610ab9578551602087015151604088015151610ab9926001600160a01b03909116917f000000000000000000000000000000000000000000000000000000000000000091908690610f34565b5f811315610b0d57855160208088015151604089015190910151610b0d926001600160a01b03909116917f000000000000000000000000000000000000000000000000000000000000000091908590610f34565b60408051602081018590520160405160208183030381529060405296505050505050505b92915050565b5f6001600160a01b038416610b6c575f805f8085875af1905080610b6757610b67835f633d2cec6f60e21b611006565b610bd6565b60405163a9059cbb60e01b81526001600160a01b038416600482015282602482015260205f6044835f895af13d15601f3d1160015f511416171691505f81525f60208201525f60408201525080610bd657610bd68463a9059cbb60e01b633c9fd93960e21b611006565b50505050565b5f8080610bf26001600160a01b0387168661107e565b9250610c276001600160a01b0387167f000000000000000000000000000000000000000000000000000000000000000061107e565b9150610c5d6001600160a01b037f000000000000000000000000000000000000000000000000000000000000000016858861110d565b905093509350939050565b8015610cfd57836001600160a01b031663f5298aca84610c97886001600160a01b03166001600160a01b031690565b6040516001600160e01b031960e085901b1681526001600160a01b0390921660048301526024820152604481018590526064015b5f604051808303815f87803b158015610ce2575f80fd5b505af1158015610cf4573d5f803e3d5ffd5b50505050610f2d565b6001600160a01b038516610d7457836001600160a01b03166311da60b4836040518263ffffffff1660e01b815260040160206040518083038185885af1158015610d49573d5f803e3d5ffd5b50505050506040513d601f19601f82011682018060405250810190610d6e919061168a565b50610f2d565b604051632961046560e21b81526001600160a01b03868116600483015285169063a5841194906024015f604051808303815f87803b158015610db4575f80fd5b505af1158015610dc6573d5f803e3d5ffd5b505050506001600160a01b0383163014610e58576040516323b872dd60e01b81526001600160a01b0384811660048301528581166024830152604482018490528616906323b872dd906064016020604051808303815f875af1158015610e2e573d5f803e3d5ffd5b505050506040513d601f19601f82011682018060405250810190610e529190611815565b50610eca565b60405163a9059cbb60e01b81526001600160a01b0385811660048301526024820184905286169063a9059cbb906044016020604051808303815f875af1158015610ea4573d5f803e3d5ffd5b505050506040513d601f19601f82011682018060405250810190610ec89190611815565b505b836001600160a01b03166311da60b46040518163ffffffff1660e01b81526004016020604051808303815f875af1158015610f07573d5f803e3d5ffd5b505050506040513d601f19601f82011682018060405250810190610f2b919061168a565b505b5050505050565b80610f7657604051630b0d9c0960e01b81526001600160a01b038681166004830152848116602483015260448201849052851690630b0d9c0990606401610ccb565b836001600160a01b031663156e29f684610f9f886001600160a01b03166001600160a01b031690565b6040516001600160e01b031960e085901b1681526001600160a01b0390921660048301526024820152604481018590526064015f604051808303815f87803b158015610fe9575f80fd5b505af1158015610ffb573d5f803e3d5ffd5b505050505050505050565b6040516390bfb86560e01b8082526001600160a01b03851660048301526001600160e01b031984166024830152608060448301526020601f3d018190040260a0810160648401523d608484015290913d5f60a483013e60048260a4018201526001600160e01b031984168260c4018201528160e40181fd5b5f6001600160a01b03831661109e57506001600160a01b03811631610b31565b6040516370a0823160e01b81526001600160a01b0383811660048301528416906370a0823190602401602060405180830381865afa1580156110e2573d5f803e3d5ffd5b505050506040513d601f19601f82011682018060405250810190611106919061168a565b9050610b31565b5f806001600160a01b0384165f526001600160a01b03831660205260405f209050846001600160a01b031663f135baaa826040518263ffffffff1660e01b815260040161115c91815260200190565b602060405180830381865afa158015611177573d5f803e3d5ffd5b505050506040513d601f19601f8201168201806040525081019061119b919061168a565b95945050505050565b634e487b7160e01b5f52604160045260245ffd5b60405160a0810167ffffffffffffffff811182821017156111db576111db6111a4565b60405290565b604051601f8201601f1916810167ffffffffffffffff8111828210171561120a5761120a6111a4565b604052919050565b6001600160a01b0381168114611226575f80fd5b50565b803561123481611212565b919050565b5f60a08284031215611249575f80fd5b6112516111b8565b9050813561125e81611212565b8152602082013561126e81611212565b6020820152604082013562ffffff81168114611288575f80fd5b60408201526060820135600281900b81146112a1575f80fd5b60608201526112b260808301611229565b608082015292915050565b8015158114611226575f80fd5b5f606082840312156112da575f80fd5b6040516060810167ffffffffffffffff811182821017156112fd576112fd6111a4565b604052905080823561130e816112bd565b815260208381013590820152604083013561132881611212565b6040919091015292915050565b5f60408284031215611345575f80fd5b6040805190810167ffffffffffffffff81118282101715611368576113686111a4565b6040529050808235611379816112bd565b81526020830135611389816112bd565b6020919091015292915050565b5f67ffffffffffffffff8211156113af576113af6111a4565b50601f01601f191660200190565b5f82601f8301126113cc575f80fd5b81356113df6113da82611396565b6111e1565b8181528460208386010111156113f3575f80fd5b816020850160208301375f918101602001919091529392505050565b5f805f806101608587031215611423575f80fd5b61142d8686611239565b935061143c8660a087016112ca565b925061144c866101008701611335565b915061014085013567ffffffffffffffff811115611468575f80fd5b611474878288016113bd565b91505092959194509250565b5f8060208385031215611491575f80fd5b823567ffffffffffffffff8111156114a7575f80fd5b8301601f810185136114b7575f80fd5b803567ffffffffffffffff8111156114cd575f80fd5b8560208284010111156114de575f80fd5b6020919091019590945092505050565b5f81518084528060208401602086015e5f602082860101526020601f19601f83011685010191505092915050565b602081525f61152e60208301846114ee565b9392505050565b602081526001600160a01b0382511660208201525f60208301518051151560408401526020810151151560608401525060408301516115c560808401826001600160a01b0381511682526001600160a01b03602082015116602083015262ffffff6040820151166040830152606081015160020b60608301526001600160a01b0360808201511660808301525050565b506060830151805115156101208401526020810151610140840152604001516001600160a01b031661016083015260808301516101808084015261160d6101a08401826114ee565b949350505050565b5f60208284031215611625575f80fd5b815167ffffffffffffffff81111561163b575f80fd5b8201601f8101841361164b575f80fd5b80516116596113da82611396565b81815285602083850101111561166d575f80fd5b8160208401602083015e5f91810160200191909152949350505050565b5f6020828403121561169a575f80fd5b5051919050565b5f602082840312156116b1575f80fd5b813567ffffffffffffffff8111156116c7575f80fd5b820161018081850312156116d9575f80fd5b6116e16111b8565b81356116ec81611212565b81526116fb8560208401611335565b602082015261170d8560608401611239565b60408201526117208561010084016112ca565b606082015261016082013567ffffffffffffffff81111561173f575f80fd5b61174b868285016113bd565b608083015250949350505050565b6117b181856001600160a01b0381511682526001600160a01b03602082015116602083015262ffffff6040820151166040830152606081015160020b60608301526001600160a01b0360808201511660808301525050565b8251151560a0820152602083015160c082015260408301516001600160a01b031660e08201526101206101008201525f61119b6101208301846114ee565b5f600160ff1b820161180f57634e487b7160e01b5f52601160045260245ffd5b505f0390565b5f60208284031215611825575f80fd5b815161152e816112bd56fea26469706673582212209226fde5bda9e164e3cef99258d39b821d9d3fd06ca9d8335a2b5b8994b5b20664736f6c634300081a003300000000000000000000000005e73354cfdd6745c338b50bcfdfa3aa6fa03408",
        "nonce": "0x89",
        "chainId": "0x14a34"
      },
      "additionalContracts": [],
      "isFixedGasLimit": false
    },
    {
      "hash": "0xde782afde059298cf256e76ac8325e05f5d8fa00f4d22a3aef79979ecb0976d6",
      "transactionType": "CREATE",
      "contractName": "Vault",
      "contractAddress": "0x8c45cbf71af067019a62fcfccec749df567c9313",
      "function": null,
      "arguments": null,
      "transaction": {
        "from": "0x747481ae081a6e4e28c989eef25bc53def899ea7",
        "gas": "0x10e26c",
        "value": "0x0",
        "input": "0x6080604052348015600e575f80fd5b503380603357604051631e4fbdf760e01b81525f600482015260240160405180910390fd5b603a81603f565b50608e565b5f80546001600160a01b038381166001600160a01b0319831681178455604051919092169283917f8be0079c531659141344cd1fd0a4f28419497f9722a3daafe3b4186f6b6457e09190a35050565b610df88061009b5f395ff3fe608060405234801561000f575f80fd5b50600436106100b9575f3560e01c8063b6a7ebd611610072578063f1e27e1911610058578063f1e27e19146101ef578063f2fde38b14610202578063f34cc3a214610215575f80fd5b8063b6a7ebd6146101c9578063dc2f0167146101dc575f80fd5b80638593c5aa116100a25780638593c5aa1461016a5780638da5cb5b1461017d578063b443cb77146101a1575f80fd5b8063072b0521146100bd578063715018a614610160575b5f80fd5b61011b6100cb3660046109cc565b600260208181525f9384526040808520909152918352912080546001820154918301546001600160a01b03918216938383169362ffffff600160a01b82041693600160b81b90910490910b911685565b604080516001600160a01b039687168152948616602086015262ffffff9093169284019290925260020b606083015291909116608082015260a0015b60405180910390f35b610168610228565b005b610168610178366004610a03565b61023b565b5f546001600160a01b03165b6040516001600160a01b039091168152602001610157565b6101896101af366004610a78565b60016020525f90815260409020546001600160a01b031681565b6101896101d7366004610aa5565b6105be565b6101686101ea366004610aa5565b6105fa565b6101686101fd366004610ac6565b610747565b610168610210366004610b0b565b610852565b610168610223366004610b26565b61088f565b61023061090d565b6102395f610939565b565b61024361090d565b80515f126102985760405162461bcd60e51b815260206004820181905260248201527f416d6f756e74206d7573742062652067726561746572207468616e207a65726f60448201526064015b60405180910390fd5b60208101516001600160a01b03166102f25760405162461bcd60e51b815260206004820152601f60248201527f526563656976657220616464726573732063616e6e6f74206265207a65726f00604482015260640161028f565b60408101516001600160a01b031661034c5760405162461bcd60e51b815260206004820152601c60248201527f4465736972656420746f6b656e2063616e6e6f74206265207a65726f00000000604482015260640161028f565b5f8061037073096b36810d4e9243318f0cd4c18a2dbd1661470c8460400151610988565b6001600160a01b038281165f90815260026020818152604080842086861685528252808420815160a08082018452825488168252600180840154808a168488015262ffffff600160a01b82041684870152600160b81b9004870b60608401529290950154871660808201529384208552909152909120549395509193509091168061040e576040516353378eb560e01b815260040160405180910390fd5b5f6001600160a01b03851673096b36810d4e9243318f0cd4c18a2dbd1661470c14610439575f61043c565b60015b90505f60405180606001604052808315158152602001885f015161045f90610b78565b81526020018361048d57610488600173fffd8963efd1fc6a506488495d951d5263988d26610b92565b61049d565b61049d6401000276a36001610bb7565b6001600160a01b039081169091526020808a01516040805163fc53bd0f60e01b81528551151560048201528386015160248201528186015185166044820152918416606483015288518416608483015291880151831660a48201529087015162ffffff1660c4820152606087015160020b60e48201526080870151821661010482015291925084169063fc53bd0f90610124015f604051808303815f87803b158015610547575f80fd5b505af1158015610559573d5f803e3d5ffd5b5050505086604001516001600160a01b031687602001516001600160a01b03167ff548beeeb9b7f008329ce8c926bbaeaabf1e75efc445b116bba1ab918c584100895f01516040516105ad91815260200190565b60405180910390a350505050505050565b5f6001816105db6105d436869003860186610bf4565b60a0902090565b815260208101919091526040015f20546001600160a01b031692915050565b61060261090d565b5f6106156105d436849003840184610bf4565b90505f61062860a0840160808501610b0b565b90508161069d5760405162461bcd60e51b815260206004820152602a60248201527f52616d70486f6f6b56313a20506f6f6c4b657920706f6f6c49642063616e6e6f60448201527f7420626520656d70747900000000000000000000000000000000000000000000606482015260840161028f565b6001600160a01b0381166107195760405162461bcd60e51b815260206004820152602760248201527f52616d70486f6f6b56313a20486f6f6b20616464726573732063616e6e6f742060448201527f6265207a65726f00000000000000000000000000000000000000000000000000606482015260840161028f565b5f9182526001602052604090912080546001600160a01b0319166001600160a01b0390921691909117905550565b61074f61090d565b6001600160a01b0383161580159061076f57506001600160a01b03821615155b6107bb5760405162461bcd60e51b815260206004820152601e60248201527f546f6b656e206164647265737365732063616e6e6f74206265207a65726f0000604482015260640161028f565b5f6107ce6105d436849003840184610bf4565b0361081b5760405162461bcd60e51b815260206004820152601c60248201527f506f6f6c4b657920746f49642063616e6e6f7420626520656d70747900000000604482015260640161028f565b6001600160a01b038084165f908152600260209081526040808320938616835292905220819061084b8282610c98565b5050505050565b61085a61090d565b6001600160a01b03811661088357604051631e4fbdf760e01b81525f600482015260240161028f565b61088c81610939565b50565b61089761090d565b60405163095ea7b360e01b81526001600160a01b0383811660048301526024820183905284169063095ea7b3906044016020604051808303815f875af11580156108e3573d5f803e3d5ffd5b505050506040513d601f19601f820116820180604052508101906109079190610da3565b50505050565b5f546001600160a01b031633146102395760405163118cdaa760e01b815233600482015260240161028f565b5f80546001600160a01b038381166001600160a01b0319831681178455604051919092169283917f8be0079c531659141344cd1fd0a4f28419497f9722a3daafe3b4186f6b6457e09190a35050565b5f80826001600160a01b0316846001600160a01b0316106109aa5782846109ad565b83835b915091509250929050565b6001600160a01b038116811461088c575f80fd5b5f80604083850312156109dd575f80fd5b82356109e8816109b8565b915060208301356109f8816109b8565b809150509250929050565b5f6060828403128015610a14575f80fd5b506040516060810167ffffffffffffffff81118282101715610a4457634e487b7160e01b5f52604160045260245ffd5b604052823581526020830135610a59816109b8565b60208201526040830135610a6c816109b8565b60408201529392505050565b5f60208284031215610a88575f80fd5b5035919050565b5f60a08284031215610a9f575f80fd5b50919050565b5f60a08284031215610ab5575f80fd5b610abf8383610a8f565b9392505050565b5f805f60e08486031215610ad8575f80fd5b8335610ae3816109b8565b92506020840135610af3816109b8565b9150610b028560408601610a8f565b90509250925092565b5f60208284031215610b1b575f80fd5b8135610abf816109b8565b5f805f60608486031215610b38575f80fd5b8335610b43816109b8565b92506020840135610b53816109b8565b929592945050506040919091013590565b634e487b7160e01b5f52601160045260245ffd5b5f600160ff1b8201610b8c57610b8c610b64565b505f0390565b6001600160a01b038281168282160390811115610bb157610bb1610b64565b92915050565b6001600160a01b038181168382160190811115610bb157610bb1610b64565b62ffffff8116811461088c575f80fd5b8060020b811461088c575f80fd5b5f60a0828403128015610c05575f80fd5b5060405160a0810167ffffffffffffffff81118282101715610c3557634e487b7160e01b5f52604160045260245ffd5b6040528235610c43816109b8565b81526020830135610c53816109b8565b60208201526040830135610c6681610bd6565b60408201526060830135610c7981610be6565b60608201526080830135610c8c816109b8565b60808201529392505050565b8135610ca3816109b8565b81546001600160a01b0319166001600160a01b03821617825550600181016020830135610ccf816109b8565b81546001600160a01b0319166001600160a01b038216178255506040830135610cf781610bd6565b81546060850135610d0781610be6565b8060b81b79ffffff00000000000000000000000000000000000000000000001676ffffff00000000000000000000000000000000000000008460a01b167fffffffffffff000000000000ffffffffffffffffffffffffffffffffffffffff841617178455505050505f6080830135610d7e816109b8565b6002830180546001600160a01b0319166001600160a01b038316179055905080610907565b5f60208284031215610db3575f80fd5b81518015158114610abf575f80fdfea2646970667358221220ff3af80087c8be83870aa478ea7328bb7b517485f980aa431eef9c16a82d3ca264736f6c634300081a0033",
        "nonce": "0x8a",
        "chainId": "0x14a34"
      },
      "additionalContracts": [],
      "isFixedGasLimit": false
    },
    {
      "hash": "0x5effc9c9f766513d967c35620e0cb73840d871f64bf2d2503881431067658f49",
      "transactionType": "CALL",
      "contractName": null,
      "contractAddress": "0x096b36810d4e9243318f0cd4c18a2dbd1661470c",
      "function": "mint(address,uint256)",
      "arguments": [
        "0x8C45cBf71Af067019A62fCfccEc749dF567C9313",
        "20000000000"
      ],
      "transaction": {
        "from": "0x747481ae081a6e4e28c989eef25bc53def899ea7",
        "to": "0x096b36810d4e9243318f0cd4c18a2dbd1661470c",
        "gas": "0x12527",
        "value": "0x0",
        "input": "0x40c10f190000000000000000000000008c45cbf71af067019a62fcfccec749df567c931300000000000000000000000000000000000000000000000000000004a817c800",
        "nonce": "0x8b",
        "chainId": "0x14a34"
      },
      "additionalContracts": [],
      "isFixedGasLimit": false
    },
    {
      "hash": "0x7d09ccbefb71a8769e3b46e5f56e7a344cedb38a3b5a2755c5b72f53b3a06e1f",
      "transactionType": "CREATE2",
      "contractName": "RampHookV1",
      "contractAddress": "0xa11c7faf1b89b9173b5d7137591ccb51d2f96088",
      "function": null,
      "arguments": [
        "0x05E73354cFDd6745C338b50BcFDfA3Aa6fA03408",
        "0x8C45cBf71Af067019A62fCfccEc749dF567C9313"
      ],
      "transaction": {
        "from": "0x747481ae081a6e4e28c989eef25bc53def899ea7",
        "to": "0x4e59b44847b379578588920ca78fbf26c0b4956c",
        "gas": "0x309214",
        "value": "0x0",
        "input": "0x0000000000000000000000000000000000000000000000000000000000009d4660a060405234801561000f575f80fd5b50604051612c09380380612c0983398101604081905261002e916103b6565b6001600160a01b0382166080523382610046306100fb565b506001600160a01b03811661007557604051631e4fbdf760e01b81525f60048201526024015b60405180910390fd5b61007e816101ee565b506001600160a01b0381166100d55760405162461bcd60e51b815260206004820152601c60248201527f5661756c7420616464726573732063616e6e6f74206265207a65726f00000000604482015260640161006c565b600180546001600160a01b0319166001600160a01b0392909216919091179055506103ee565b6101eb816101e6604080516101c0810182525f80825260208201819052918101829052606081018290526080810182905260a0810182905260c0810182905260e08101829052610100810182905261012081018290526101408101829052610160810182905261018081018290526101a081019190915250604080516101c08101825260018082525f60208301819052928201839052606082018390526080820183905260a0820183905260c0820181905260e0820183905261010082018390526101208201839052610140820152610160810182905261018081018290526101a081019190915290565b61023d565b50565b5f80546001600160a01b038381166001600160a01b0319831681178455604051919092169283917f8be0079c531659141344cd1fd0a4f28419497f9722a3daafe3b4186f6b6457e09190a35050565b80511515612000831615151415806102615750602081015115156110008316151514155b806102785750604081015115156108008316151514155b8061028f5750606081015115156104008316151514155b806102a65750608081015115156102008316151514155b806102bd575060a081015115156101008316151514155b806102d3575060c0810151151560808316151514155b806102e9575060e0810151151560408316151514155b806103005750610100810151151560208316151514155b806103175750610120810151151560108316151514155b8061032e5750610140810151151560088316151514155b806103455750610160810151151560048316151514155b8061035c5750610180810151151560028316151514155b8061037357506101a0810151151560018316151514155b1561038957610389630732d7b560e51b8361038d565b5050565b815f526001600160a01b03811660045260245ffd5b6001600160a01b03811681146101eb575f80fd5b5f80604083850312156103c7575f80fd5b82516103d2816103a2565b60208401519092506103e3816103a2565b809150509250929050565b6080516127856104845f395f8181610423015281816104aa0152818161056501528181610660015281816106c90152818161073c01528181610876015281816108bd015281816109100152818161095a01528181610a0a01528181610a7101528181610b1501528181610c6f01528181610e5901528181611a8201528181611ab801528181611b030152611b4d01526127855ff3fe608060405234801561000f575f80fd5b506004361061016e575f3560e01c80639f063efc116100d2578063dc4c90d311610088578063e916acaf11610063578063e916acaf14610458578063f2fde38b14610478578063fc53bd0f1461048b575f80fd5b8063dc4c90d31461041e578063dc98354e14610445578063e1b4af69146102f6575f80fd5b8063b6a8b0fa116100b8578063b6a8b0fa146102f6578063bccd45c314610309578063c4e833ce1461032a575f80fd5b80639f063efc1461022e578063b47b2fb1146102c0575f80fd5b80636c2bbe7e11610127578063715018a61161010d578063715018a6146102745780638da5cb5b1461027c57806391dd7346146102a0575f80fd5b80636c2bbe7e1461022e5780636fe7e6eb14610261575f80fd5b806341918c8b1161015757806341918c8b146101a3578063575e24b4146101db5780636817031b14610219575f80fd5b806321d0ee7014610172578063259982e514610172575b5f80fd5b610185610180366004611cc9565b61049e565b6040516001600160e01b031990911681526020015b60405180910390f35b6101b66101b1366004611d4d565b6104ff565b604080519384526001600160a01b03909216602084015215159082015260600161019a565b6101ee6101e9366004611d92565b610557565b604080516001600160e01b03199094168452602084019290925262ffffff169082015260600161019a565b61022c610227366004611dec565b6105c1565b005b61024161023c366004611e07565b610653565b604080516001600160e01b0319909316835260208301919091520161019a565b61018561026f366004611ea8565b6106bd565b61022c61071c565b5f546001600160a01b03165b6040516001600160a01b03909116815260200161019a565b6102b36102ae366004611eff565b61072f565b60405161019a9190611f6c565b6102d36102ce366004611f7e565b6109fd565b604080516001600160e01b03199093168352600f9190910b60208301520161019a565b610185610304366004611fff565b610a65565b61031c610317366004612059565b610ac8565b60405190815260200161019a565b610411604080516101c0810182525f80825260208201819052918101829052606081018290526080810182905260a0810182905260c0810182905260e08101829052610100810182905261012081018290526101408101829052610160810182905261018081018290526101a081019190915250604080516101c08101825260018082525f60208301819052928201839052606082018390526080820183905260a0820183905260c0820181905260e0820183905261010082018390526101208201839052610140820152610160810182905261018081018290526101a081019190915290565b60405161019a9190612072565b6102887f000000000000000000000000000000000000000000000000000000000000000081565b610185610453366004612193565b610b09565b61046b6104663660046121da565b610b66565b60405161019a9190612208565b61022c610486366004611dec565b610c05565b61022c610499366004612271565b610c42565b5f336001600160a01b037f000000000000000000000000000000000000000000000000000000000000000016146104e85760405163570c108560e11b815260040160405180910390fd5b6104f58686868686610e15565b9695505050505050565b6002602052825f5260405f20602052815f5260405f208181548110610522575f80fd5b5f918252602090912060029091020180546001909101549093506001600160a01b0381169250600160a01b900460ff16905083565b5f8080336001600160a01b037f000000000000000000000000000000000000000000000000000000000000000016146105a35760405163570c108560e11b815260040160405180910390fd5b6105b08888888888610e2f565b925092509250955095509592505050565b6105c9610f29565b6001600160a01b0381166106245760405162461bcd60e51b815260206004820152601c60248201527f5661756c7420616464726573732063616e6e6f74206265207a65726f0000000060448201526064015b60405180910390fd5b6001805473ffffffffffffffffffffffffffffffffffffffff19166001600160a01b0392909216919091179055565b5f80336001600160a01b037f0000000000000000000000000000000000000000000000000000000000000000161461069e5760405163570c108560e11b815260040160405180910390fd5b6106ad89898989898989610f55565b9150915097509795505050505050565b5f336001600160a01b037f000000000000000000000000000000000000000000000000000000000000000016146107075760405163570c108560e11b815260040160405180910390fd5b61071385858585610e15565b95945050505050565b610724610f29565b61072d5f610f70565b565b6060336001600160a01b037f0000000000000000000000000000000000000000000000000000000000000000161461077a5760405163570c108560e11b815260040160405180910390fd5b5f6107878385018561240e565b90505f815f015190505f826020015190505f836040015190505f846060015190505f604051806060016040528086602001516107c2906124a6565b81526001600160a01b03861660208201525f604090910181905260a08420919250600291815260208082019290925260409081015f90812088511515825283528181208054600181810183559183529184902085516002909302019182559284015192018054918401511515600160a01b027fffffffffffffffffffffff0000000000000000000000000000000000000000009092166001600160a01b0390931692909217179055845115610905576108b87f00000000000000000000000000000000000000000000000000000000000000008487602001516108a4906124a6565b85516001600160a01b03169291905f610fcc565b6109007f00000000000000000000000000000000000000000000000000000000000000003087602001516108eb906124a6565b85516001600160a01b03169291906001611298565b6109a0565b84516109a0576109557f000000000000000000000000000000000000000000000000000000000000000084876020015161093e906124a6565b60208601516001600160a01b03169291905f610fcc565b6109a07f0000000000000000000000000000000000000000000000000000000000000000308760200151610988906124a6565b60208601516001600160a01b03169291906001611298565b84516020808701516040805193151584526001600160a01b0388169284019290925282820152517f32390d5447acc889d66164838bc6061f524a7670217497daa2b4548673d38c239181900360600190a150505050505092915050565b5f80336001600160a01b037f00000000000000000000000000000000000000000000000000000000000000001614610a485760405163570c108560e11b815260040160405180910390fd5b610a56888888888888610f55565b91509150965096945050505050565b5f336001600160a01b037f00000000000000000000000000000000000000000000000000000000000000001614610aaf5760405163570c108560e11b815260040160405180910390fd5b610abd878787878787610e15565b979650505050505050565b5f80610ad38361136a565b90505f610ae96001600160a01b038316806124c0565b905060c0610aff82670de0b6b3a76400006124c0565b901c949350505050565b5f336001600160a01b037f00000000000000000000000000000000000000000000000000000000000000001614610b535760405163570c108560e11b815260040160405180910390fd5b610b5e84848461162f565b949350505050565b5f82815260026020908152604080832084151584528252808320805482518185028101850190935280835260609492939192909184015b82821015610bf8575f8481526020908190206040805160608101825260028602909201805483526001908101546001600160a01b03811684860152600160a01b900460ff161515918301919091529083529092019101610b9d565b5050505090505b92915050565b610c0d610f29565b6001600160a01b038116610c3657604051631e4fbdf760e01b81525f600482015260240161061b565b610c3f81610f70565b50565b6001546001600160a01b03163314610c6d5760405163012ea06560e41b815260040160405180910390fd5b7f00000000000000000000000000000000000000000000000000000000000000006001600160a01b03166348c89491604051806080016040528086803603810190610cb891906124d7565b81526001600160a01b0386166020820152336040820152606001610ce1368690038601866124f1565b9052604051610da291906020015f610140820190508251805115158352602081015160208401526001600160a01b036040820151166040840152506001600160a01b0360208401511660608301526001600160a01b03604084015116608083015260608301516001600160a01b0381511660a08401526001600160a01b0360208201511660c084015262ffffff60408201511660e0840152606081015160020b6101008401526001600160a01b036080820151166101208401525092915050565b6040516020818303038152906040526040518263ffffffff1660e01b8152600401610dcd9190611f6c565b5f604051808303815f875af1158015610de8573d5f803e3d5ffd5b505050506040513d5f823e601f3d908101601f19168201604052610e0f919081019061250b565b50505050565b5f604051630a85dc2960e01b815260040160405180910390fd5b5f808080610e7f610e4f610e48368b90038b018b6124f1565b60a0902090565b6001600160a01b037f00000000000000000000000000000000000000000000000000000000000000001690611682565b50509150505f610e8e82610ac8565b9050610ecf6040518060400160405280601d81526020017f4573746f20657320656c2070726563696f206465206c6120706f6f6c3a00000081525082611734565b5f610ee6610ee060208b01356124a6565b83611792565b9050610f0a60405180606001604052806023815260200161272d60239139826117b7565b610f158a8a83611811565b955095509550505050955095509592505050565b5f546001600160a01b0316331461072d5760405163118cdaa760e01b815233600482015260240161061b565b5f80604051630a85dc2960e01b815260040160405180910390fd5b5f80546001600160a01b0383811673ffffffffffffffffffffffffffffffffffffffff19831681178455604051919092169283917f8be0079c531659141344cd1fd0a4f28419497f9722a3daafe3b4186f6b6457e09190a35050565b801561106157836001600160a01b031663f5298aca84610ffb886001600160a01b03166001600160a01b031690565b6040516001600160e01b031960e085901b1681526001600160a01b0390921660048301526024820152604481018590526064015b5f604051808303815f87803b158015611046575f80fd5b505af1158015611058573d5f803e3d5ffd5b50505050611291565b6001600160a01b0385166110d857836001600160a01b03166311da60b4836040518263ffffffff1660e01b815260040160206040518083038185885af11580156110ad573d5f803e3d5ffd5b50505050506040513d601f19601f820116820180604052508101906110d2919061259f565b50611291565b604051632961046560e21b81526001600160a01b03868116600483015285169063a5841194906024015f604051808303815f87803b158015611118575f80fd5b505af115801561112a573d5f803e3d5ffd5b505050506001600160a01b03831630146111bc576040516323b872dd60e01b81526001600160a01b0384811660048301528581166024830152604482018490528616906323b872dd906064016020604051808303815f875af1158015611192573d5f803e3d5ffd5b505050506040513d601f19601f820116820180604052508101906111b691906125b6565b5061122e565b60405163a9059cbb60e01b81526001600160a01b0385811660048301526024820184905286169063a9059cbb906044016020604051808303815f875af1158015611208573d5f803e3d5ffd5b505050506040513d601f19601f8201168201806040525081019061122c91906125b6565b505b836001600160a01b03166311da60b46040518163ffffffff1660e01b81526004016020604051808303815f875af115801561126b573d5f803e3d5ffd5b505050506040513d601f19601f8201168201806040525081019061128f919061259f565b505b5050505050565b806112da57604051630b0d9c0960e01b81526001600160a01b038681166004830152848116602483015260448201849052851690630b0d9c099060640161102f565b836001600160a01b031663156e29f684611303886001600160a01b03166001600160a01b031690565b6040516001600160e01b031960e085901b1681526001600160a01b0390921660048301526024820152604481018590526064015f604051808303815f87803b15801561134d575f80fd5b505af115801561135f573d5f803e3d5ffd5b505050505050505050565b60020b5f60ff82901d80830118620d89e8811115611393576113936345c3193d60e11b846119ff565b7001fffcb933bd6fad37aa2d162d1a59400160018216027001000000000000000000000000000000001860028216156113dc576ffff97272373d413259a46990580e213a0260801c5b60048216156113fb576ffff2e50f5f656932ef12357cf3c7fdcc0260801c5b600882161561141a576fffe5caca7e10e4e61c3624eaa0941cd00260801c5b6010821615611439576fffcb9843d60f6159c9db58835c9266440260801c5b6020821615611458576fff973b41fa98c081472e6896dfb254c00260801c5b6040821615611477576fff2ea16466c96a3843ec78b326b528610260801c5b6080821615611496576ffe5dee046a99a2a811c461f1969c30530260801c5b6101008216156114b6576ffcbe86c7900a88aedcffc83b479aa3a40260801c5b6102008216156114d6576ff987a7253ac413176f2b074cf7815e540260801c5b6104008216156114f6576ff3392b0822b70005940c7a398e4b70f30260801c5b610800821615611516576fe7159475a2c29b7443b29c7fa6e889d90260801c5b611000821615611536576fd097f3bdfd2022b8845ad8f792aa58250260801c5b612000821615611556576fa9f746462d870fdf8a65dc1f90e061e50260801c5b614000821615611576576f70d869a156d2a1b890bb3df62baf32f70260801c5b618000821615611596576f31be135f97d08fd981231505542fcfa60260801c5b620100008216156115b7576f09aa508b5b7a84e1c677de54f3e99bc90260801c5b620200008216156115d7576e5d6af8dedb81196699c329225ee6040260801c5b620400008216156115f6576d2216e584f5fa1ea926041bedfe980260801c5b62080000821615611613576b048a170391f7dc42444e8fa20260801c5b5f84131561161f575f19045b63ffffffff0160201c9392505050565b5f61165561164360608501604086016125d1565b62ffffff1662ffffff16628000001490565b6116725760405163424cea8b60e01b815260040160405180910390fd5b50636e4c1aa760e11b9392505050565b5f805f805f61169086611a0e565b604051631e2eaeaf60e01b8152600481018290529091505f906001600160a01b03891690631e2eaeaf90602401602060405180830381865afa1580156116d8573d5f803e3d5ffd5b505050506040513d601f19601f820116820180604052508101906116fc919061259f565b90506001600160a01b03811695508060a01c60020b945062ffffff8160b81c16935062ffffff8160d01c169250505092959194509250565b61178e828260405160240161174a9291906125ea565b60408051601f198184030181529190526020810180517bffffffffffffffffffffffffffffffffffffffffffffffffffffffff16632d839cb360e21b179052611a4a565b5050565b5f670de0b6b3a76400006117a6838561260b565b6117b0919061263a565b9392505050565b61178e82826040516024016117cd9291906125ea565b60408051601f198184030181529190526020810180517bffffffffffffffffffffffffffffffffffffffffffffffffffffffff16631e53134760e11b179052611a4a565b5f80808060028161182a610e48368b90038b018b6124f1565b81526020019081526020015f205f875f01602081019061184a9190612672565b15815260208101919091526040015f9081209150859080805b84548110801561187257505f84135b156119a7575f85828154811061188a5761188a61268d565b905f5260205f20906002020190508060010160149054906101000a900460ff16156118b55750611997565b5f85825f015413156118c757856118ca565b81545b90505f8b6118db60208f01356124a6565b6118e5908461260b565b6118ef919061263a565b90506119348e80360381019061190591906124f1565b8e5f0160208101906119179190612672565b83611921866124a6565b60018801546001600160a01b0316611a53565b61193e81876126a1565b955061194a82866126c8565b945061195682886126c8565b965081835f015413611993576001830180547fffffffffffffffffffffff00ffffffffffffffffffffffffffffffffffffffff16600160a01b1790555b5050505b6119a0816126e7565b9050611863565b505f82156119c4576001600160801b038216608084901b176119c6565b5f5b90505f83156119d75761ea606119db565b6113885b6315d7892d60e21b9d929c5061ffff1662400000179a509098505050505050505050565b815f528060020b60045260245ffd5b6040515f90611a2d908390600690602001918252602082015260400190565b604051602081830303815290604052805190602001209050919050565b610c3f81611c2b565b5f8085611a665760208701518751611a6e565b865160208801515b9092509050611ab36001600160a01b0383167f0000000000000000000000000000000000000000000000000000000000000000306001600160801b0389166001611298565b611afe7f000000000000000000000000000000000000000000000000000000000000000030611ae1876126ff565b6001600160a01b0385169291906001600160801b03166001610fcc565b611b487f000000000000000000000000000000000000000000000000000000000000000030611b2c876126ff565b6001600160a01b0386169291906001600160801b03165f611298565b611b937f000000000000000000000000000000000000000000000000000000000000000030611b76876126ff565b6001600160a01b0386169291906001600160801b03166001610fcc565b6001600160a01b03821663a9059cbb84611bac876126ff565b6040516001600160e01b031960e085901b1681526001600160a01b0390921660048301526001600160801b031660248201526044016020604051808303815f875af1158015611bfd573d5f803e3d5ffd5b505050506040513d601f19601f82011682018060405250810190611c2191906125b6565b5050505050505050565b5f6a636f6e736f6c652e6c6f6790505f80835160208501845afa505050565b6001600160a01b0381168114610c3f575f80fd5b5f60a08284031215611c6e575f80fd5b50919050565b5f60808284031215611c6e575f80fd5b5f8083601f840112611c94575f80fd5b50813567ffffffffffffffff811115611cab575f80fd5b602083019150836020828501011115611cc2575f80fd5b9250929050565b5f805f805f6101608688031215611cde575f80fd5b8535611ce981611c4a565b9450611cf88760208801611c5e565b9350611d078760c08801611c74565b925061014086013567ffffffffffffffff811115611d23575f80fd5b611d2f88828901611c84565b969995985093965092949392505050565b8015158114610c3f575f80fd5b5f805f60608486031215611d5f575f80fd5b833592506020840135611d7181611d40565b929592945050506040919091013590565b5f60608284031215611c6e575f80fd5b5f805f805f6101408688031215611da7575f80fd5b8535611db281611c4a565b9450611dc18760208801611c5e565b9350611dd08760c08801611d82565b925061012086013567ffffffffffffffff811115611d23575f80fd5b5f60208284031215611dfc575f80fd5b81356117b081611c4a565b5f805f805f805f6101a0888a031215611e1e575f80fd5b8735611e2981611c4a565b9650611e388960208a01611c5e565b9550611e478960c08a01611c74565b94506101408801359350610160880135925061018088013567ffffffffffffffff811115611e73575f80fd5b611e7f8a828b01611c84565b989b979a50959850939692959293505050565b8035600281900b8114611ea3575f80fd5b919050565b5f805f806101008587031215611ebc575f80fd5b8435611ec781611c4a565b9350611ed68660208701611c5e565b925060c0850135611ee681611c4a565b9150611ef460e08601611e92565b905092959194509250565b5f8060208385031215611f10575f80fd5b823567ffffffffffffffff811115611f26575f80fd5b611f3285828601611c84565b90969095509350505050565b5f81518084528060208401602086015e5f602082860101526020601f19601f83011685010191505092915050565b602081525f6117b06020830184611f3e565b5f805f805f806101608789031215611f94575f80fd5b8635611f9f81611c4a565b9550611fae8860208901611c5e565b9450611fbd8860c08901611d82565b9350610120870135925061014087013567ffffffffffffffff811115611fe1575f80fd5b611fed89828a01611c84565b979a9699509497509295939492505050565b5f805f805f806101208789031215612015575f80fd5b863561202081611c4a565b955061202f8860208901611c5e565b945060c0870135935060e0870135925061010087013567ffffffffffffffff811115611fe1575f80fd5b5f60208284031215612069575f80fd5b6117b082611e92565b8151151581526101c081016020830151612090602084018215159052565b5060408301516120a4604084018215159052565b5060608301516120b8606084018215159052565b5060808301516120cc608084018215159052565b5060a08301516120e060a084018215159052565b5060c08301516120f460c084018215159052565b5060e083015161210860e084018215159052565b5061010083015161211e61010084018215159052565b5061012083015161213461012084018215159052565b5061014083015161214a61014084018215159052565b5061016083015161216061016084018215159052565b5061018083015161217661018084018215159052565b506101a083015161218c6101a084018215159052565b5092915050565b5f805f60e084860312156121a5575f80fd5b83356121b081611c4a565b92506121bf8560208601611c5e565b915060c08401356121cf81611c4a565b809150509250925092565b5f80604083850312156121eb575f80fd5b8235915060208301356121fd81611d40565b809150509250929050565b602080825282518282018190525f918401906040840190835b81811015612266578351805184526001600160a01b03602082015116602085015260408101511515604085015250606083019250602084019350600181019050612221565b509095945050505050565b5f805f6101208486031215612284575f80fd5b61228e8585611d82565b9250606084013561229e81611c4a565b91506122ad8560808601611c5e565b90509250925092565b634e487b7160e01b5f52604160045260245ffd5b604051601f8201601f1916810167ffffffffffffffff811182821017156122f3576122f36122b6565b604052919050565b5f6060828403121561230b575f80fd5b6040516060810167ffffffffffffffff8111828210171561232e5761232e6122b6565b604052905080823561233f81611d40565b815260208381013590820152604083013561235981611c4a565b6040919091015292915050565b803562ffffff81168114611ea3575f80fd5b5f60a08284031215612388575f80fd5b60405160a0810167ffffffffffffffff811182821017156123ab576123ab6122b6565b60405290508082356123bc81611c4a565b815260208301356123cc81611c4a565b60208201526123dd60408401612366565b60408201526123ee60608401611e92565b6060820152608083013561240181611c4a565b6080919091015292915050565b5f610140828403128015612420575f80fd5b506040516080810167ffffffffffffffff81118282101715612444576124446122b6565b60405261245184846122fb565b8152606083013561246181611c4a565b6020820152608083013561247481611c4a565b60408201526124868460a08501612378565b60608201529392505050565b634e487b7160e01b5f52601160045260245ffd5b5f600160ff1b82016124ba576124ba612492565b505f0390565b8082028115828204841417610bff57610bff612492565b5f606082840312156124e7575f80fd5b6117b083836122fb565b5f60a08284031215612501575f80fd5b6117b08383612378565b5f6020828403121561251b575f80fd5b815167ffffffffffffffff811115612531575f80fd5b8201601f81018413612541575f80fd5b805167ffffffffffffffff81111561255b5761255b6122b6565b61256e601f8201601f19166020016122ca565b818152856020838501011115612582575f80fd5b8160208401602083015e5f91810160200191909152949350505050565b5f602082840312156125af575f80fd5b5051919050565b5f602082840312156125c6575f80fd5b81516117b081611d40565b5f602082840312156125e1575f80fd5b6117b082612366565b604081525f6125fc6040830185611f3e565b90508260208301529392505050565b8082025f8212600160ff1b8414161561262657612626612492565b8181058314821517610bff57610bff612492565b5f8261265457634e487b7160e01b5f52601260045260245ffd5b600160ff1b82145f198414161561266d5761266d612492565b500590565b5f60208284031215612682575f80fd5b81356117b081611d40565b634e487b7160e01b5f52603260045260245ffd5b8082018281125f8312801582168215821617156126c0576126c0612492565b505092915050565b8181035f83128015838313168383128216171561218c5761218c612492565b5f600182016126f8576126f8612492565b5060010190565b5f81600f0b6f7fffffffffffffffffffffffffffffff19810361272457612724612492565b5f039291505056fe4573746f20657320656c2065787065637465644f75747075742064656c20737761703aa26469706673582212207f4abdcea32d4bcbe68ac563afdf606861bb03675cd2ed9dda830a9f8a0e6fe764736f6c634300081a003300000000000000000000000005e73354cfdd6745c338b50bcfdfa3aa6fa034080000000000000000000000008c45cbf71af067019a62fcfccec749df567c9313",
        "nonce": "0x8c",
        "chainId": "0x14a34"
      },
      "additionalContracts": [],
      "isFixedGasLimit": false
    },
    {
      "hash": "0xc1bdc76d706d00522aa37e1aa14bae636f3a64d8dc29c21842827a1e3b96e5a0",
      "transactionType": "CALL",
      "contractName": null,
      "contractAddress": "0x096b36810d4e9243318f0cd4c18a2dbd1661470c",
      "function": "approve(address,uint256)",
      "arguments": [
        "0x000000000022D473030F116dDEE9F6B43aC78BA3",
        "115792089237316195423570985008687907853269984665640564039457584007913129639935"
      ],
      "transaction": {
        "from": "0x747481ae081a6e4e28c989eef25bc53def899ea7",
        "to": "0x096b36810d4e9243318f0cd4c18a2dbd1661470c",
        "gas": "0x10a75",
        "value": "0x0",
        "input": "0x095ea7b3000000000000000000000000000000000022d473030f116ddee9f6b43ac78ba3ffffffffffffffffffffffffffffffffffffffffffffffffffffffffffffffff",
        "nonce": "0x8d",
        "chainId": "0x14a34"
      },
      "additionalContracts": [],
      "isFixedGasLimit": false
    },
    {
      "hash": "0x228d9eb1e440a02746e6301c0f5a46e2fc24a10d90fa059dca240d9b193a9134",
      "transactionType": "CALL",
      "contractName": null,
      "contractAddress": "0x000000000022d473030f116ddee9f6b43ac78ba3",
      "function": "approve(address,address,uint160,uint48)",
      "arguments": [
        "0x096b36810d4E9243318f0Cd4C18a2dbd1661470C",
        "0x4B2C77d209D3405F41a037Ec6c77F7F5b8e2ca80",
        "1461501637330902918203684832716283019655932542975",
        "281474976710655"
      ],
      "transaction": {
        "from": "0x747481ae081a6e4e28c989eef25bc53def899ea7",
        "to": "0x000000000022d473030f116ddee9f6b43ac78ba3",
        "gas": "0x1112d",
        "value": "0x0",
        "input": "0x87517c45000000000000000000000000096b36810d4e9243318f0cd4c18a2dbd1661470c0000000000000000000000004b2c77d209d3405f41a037ec6c77f7f5b8e2ca80000000000000000000000000ffffffffffffffffffffffffffffffffffffffff0000000000000000000000000000000000000000000000000000ffffffffffff",
        "nonce": "0x8e",
        "chainId": "0x14a34"
      },
      "additionalContracts": [],
      "isFixedGasLimit": false
    },
    {
      "hash": "0x9ff796e0c4a9244c85ae9cfb7a135f3aa26d9c411aa8c87fe5941187cc858512",
      "transactionType": "CALL",
      "contractName": null,
      "contractAddress": "0xc3726b8054f88fd63f9268c0ab21667083d01414",
      "function": "approve(address,uint256)",
      "arguments": [
        "0x000000000022D473030F116dDEE9F6B43aC78BA3",
        "115792089237316195423570985008687907853269984665640564039457584007913129639935"
      ],
      "transaction": {
        "from": "0x747481ae081a6e4e28c989eef25bc53def899ea7",
        "to": "0xc3726b8054f88fd63f9268c0ab21667083d01414",
        "gas": "0x10a75",
        "value": "0x0",
        "input": "0x095ea7b3000000000000000000000000000000000022d473030f116ddee9f6b43ac78ba3ffffffffffffffffffffffffffffffffffffffffffffffffffffffffffffffff",
        "nonce": "0x8f",
        "chainId": "0x14a34"
      },
      "additionalContracts": [],
      "isFixedGasLimit": false
    },
    {
      "hash": "0x715ce1e1f12a9943b4dfa6e7270bee3afc913b8352f49e52865685afbe3e545a",
      "transactionType": "CALL",
      "contractName": null,
      "contractAddress": "0x000000000022d473030f116ddee9f6b43ac78ba3",
      "function": "approve(address,address,uint160,uint48)",
      "arguments": [
        "0xC3726B8054f88FD63F9268c0ab21667083D01414",
        "0x4B2C77d209D3405F41a037Ec6c77F7F5b8e2ca80",
        "1461501637330902918203684832716283019655932542975",
        "281474976710655"
      ],
      "transaction": {
        "from": "0x747481ae081a6e4e28c989eef25bc53def899ea7",
        "to": "0x000000000022d473030f116ddee9f6b43ac78ba3",
        "gas": "0x1112d",
        "value": "0x0",
        "input": "0x87517c45000000000000000000000000c3726b8054f88fd63f9268c0ab21667083d014140000000000000000000000004b2c77d209d3405f41a037ec6c77f7f5b8e2ca80000000000000000000000000ffffffffffffffffffffffffffffffffffffffff0000000000000000000000000000000000000000000000000000ffffffffffff",
        "nonce": "0x90",
        "chainId": "0x14a34"
      },
      "additionalContracts": [],
      "isFixedGasLimit": false
    },
    {
      "hash": "0x0850e16a82502e1ae9b64016c71b96de6b4b4e573a7300b3f04705097752ed5f",
      "transactionType": "CALL",
      "contractName": null,
      "contractAddress": "0x4b2c77d209d3405f41a037ec6c77f7f5b8e2ca80",
      "function": "multicall(bytes[])",
      "arguments": [
        "[0xf7020405000000000000000000000000096b36810d4e9243318f0cd4c18a2dbd1661470c000000000000000000000000c3726b8054f88fd63f9268c0ab21667083d0141400000000000000000000000000000000000000000000000000000000008000000000000000000000000000000000000000000000000000000000000000000001000000000000000000000000a11c7faf1b89b9173b5d7137591ccb51d2f960880000000000000000000000000000000000000000fffda4e576dc2efd959f7ca400000000000000000000000000000000000000000000000000000000000000e00000000000000000000000000000000000000000000000000000000000000000, 0xdd46508f00000000000000000000000000000000000000000000000000000000000000400000000000000000000000000000000000000000000000000000000068599f700000000000000000000000000000000000000000000000000000000000000400000000000000000000000000000000000000000000000000000000000000004000000000000000000000000000000000000000000000000000000000000000800000000000000000000000000000000000000000000000000000000000000004020d14140000000000000000000000000000000000000000000000000000000000000000000000000000000000000000000000000000000000000000000000040000000000000000000000000000000000000000000000000000000000000080000000000000000000000000000000000000000000000000000000000000024000000000000000000000000000000000000000000000000000000000000002a0000000000000000000000000000000000000000000000000000000000000030000000000000000000000000000000000000000000000000000000000000001a0000000000000000000000000096b36810d4e9243318f0cd4c18a2dbd1661470c000000000000000000000000c3726b8054f88fd63f9268c0ab21667083d0141400000000000000000000000000000000000000000000000000000000008000000000000000000000000000000000000000000000000000000000000000000001000000000000000000000000a11c7faf1b89b9173b5d7137591ccb51d2f96088fffffffffffffffffffffffffffffffffffffffffffffffffffffffffffffd1100000000000000000000000000000000000000000000000000000000000002ed000000000000000000000000000000000000000000000000000002786ad1c1ec000000000000000000000000000000000000000000000000000000174876e801000000000000000000000000000000000000000000000000000000174876e801000000000000000000000000747481ae081a6e4e28c989eef25bc53def899ea7000000000000000000000000000000000000000000000000000000000000018000000000000000000000000000000000000000000000000000000000000000000000000000000000000000000000000000000000000000000000000000000040000000000000000000000000096b36810d4e9243318f0cd4c18a2dbd1661470c000000000000000000000000c3726b8054f88fd63f9268c0ab21667083d014140000000000000000000000000000000000000000000000000000000000000040000000000000000000000000096b36810d4e9243318f0cd4c18a2dbd1661470c000000000000000000000000747481ae081a6e4e28c989eef25bc53def899ea70000000000000000000000000000000000000000000000000000000000000040000000000000000000000000c3726b8054f88fd63f9268c0ab21667083d01414000000000000000000000000747481ae081a6e4e28c989eef25bc53def899ea7]"
      ],
      "transaction": {
        "from": "0x747481ae081a6e4e28c989eef25bc53def899ea7",
        "to": "0x4b2c77d209d3405f41a037ec6c77f7f5b8e2ca80",
        "gas": "0xa9503",
        "value": "0x0",
        "input": "0xac9650d800000000000000000000000000000000000000000000000000000000000000200000000000000000000000000000000000000000000000000000000000000002000000000000000000000000000000000000000000000000000000000000004000000000000000000000000000000000000000000000000000000000000001800000000000000000000000000000000000000000000000000000000000000104f7020405000000000000000000000000096b36810d4e9243318f0cd4c18a2dbd1661470c000000000000000000000000c3726b8054f88fd63f9268c0ab21667083d0141400000000000000000000000000000000000000000000000000000000008000000000000000000000000000000000000000000000000000000000000000000001000000000000000000000000a11c7faf1b89b9173b5d7137591ccb51d2f960880000000000000000000000000000000000000000fffda4e576dc2efd959f7ca400000000000000000000000000000000000000000000000000000000000000e00000000000000000000000000000000000000000000000000000000000000000000000000000000000000000000000000000000000000000000000000000000000000000000000000000000000000000000000000000000000000464dd46508f00000000000000000000000000000000000000000000000000000000000000400000000000000000000000000000000000000000000000000000000068599f700000000000000000000000000000000000000000000000000000000000000400000000000000000000000000000000000000000000000000000000000000004000000000000000000000000000000000000000000000000000000000000000800000000000000000000000000000000000000000000000000000000000000004020d14140000000000000000000000000000000000000000000000000000000000000000000000000000000000000000000000000000000000000000000000040000000000000000000000000000000000000000000000000000000000000080000000000000000000000000000000000000000000000000000000000000024000000000000000000000000000000000000000000000000000000000000002a0000000000000000000000000000000000000000000000000000000000000030000000000000000000000000000000000000000000000000000000000000001a0000000000000000000000000096b36810d4e9243318f0cd4c18a2dbd1661470c000000000000000000000000c3726b8054f88fd63f9268c0ab21667083d0141400000000000000000000000000000000000000000000000000000000008000000000000000000000000000000000000000000000000000000000000000000001000000000000000000000000a11c7faf1b89b9173b5d7137591ccb51d2f96088fffffffffffffffffffffffffffffffffffffffffffffffffffffffffffffd1100000000000000000000000000000000000000000000000000000000000002ed000000000000000000000000000000000000000000000000000002786ad1c1ec000000000000000000000000000000000000000000000000000000174876e801000000000000000000000000000000000000000000000000000000174876e801000000000000000000000000747481ae081a6e4e28c989eef25bc53def899ea7000000000000000000000000000000000000000000000000000000000000018000000000000000000000000000000000000000000000000000000000000000000000000000000000000000000000000000000000000000000000000000000040000000000000000000000000096b36810d4e9243318f0cd4c18a2dbd1661470c000000000000000000000000c3726b8054f88fd63f9268c0ab21667083d014140000000000000000000000000000000000000000000000000000000000000040000000000000000000000000096b36810d4e9243318f0cd4c18a2dbd1661470c000000000000000000000000747481ae081a6e4e28c989eef25bc53def899ea70000000000000000000000000000000000000000000000000000000000000040000000000000000000000000c3726b8054f88fd63f9268c0ab21667083d01414000000000000000000000000747481ae081a6e4e28c989eef25bc53def899ea700000000000000000000000000000000000000000000000000000000",
        "nonce": "0x91",
        "chainId": "0x14a34"
      },
      "additionalContracts": [],
      "isFixedGasLimit": false
    },
    {
      "hash": "0xd17edd111928ebf083acdf170e4b78dbd5c8c014174fe0d07b8e988299893e0d",
      "transactionType": "CALL",
      "contractName": "Vault",
      "contractAddress": "0x8c45cbf71af067019a62fcfccec749df567c9313",
      "function": "setWhiteListRampHook((address,address,uint24,int24,address))",
      "arguments": [
        "(0x096b36810d4E9243318f0Cd4C18a2dbd1661470C, 0xC3726B8054f88FD63F9268c0ab21667083D01414, 8388608, 1, 0xA11C7Faf1b89B9173B5d7137591Ccb51D2F96088)"
      ],
      "transaction": {
        "from": "0x747481ae081a6e4e28c989eef25bc53def899ea7",
        "to": "0x8c45cbf71af067019a62fcfccec749df567c9313",
        "gas": "0x10389",
        "value": "0x0",
        "input": "0xdc2f0167000000000000000000000000096b36810d4e9243318f0cd4c18a2dbd1661470c000000000000000000000000c3726b8054f88fd63f9268c0ab21667083d0141400000000000000000000000000000000000000000000000000000000008000000000000000000000000000000000000000000000000000000000000000000001000000000000000000000000a11c7faf1b89b9173b5d7137591ccb51d2f96088",
        "nonce": "0x92",
        "chainId": "0x14a34"
      },
      "additionalContracts": [],
      "isFixedGasLimit": false
    },
    {
      "hash": "0xc6e3b58f721cfafd29c2fcb9a2d0aaa770267d8c2f2b6e0a7986c65ff7478107",
      "transactionType": "CALL",
      "contractName": "Vault",
      "contractAddress": "0x8c45cbf71af067019a62fcfccec749df567c9313",
      "function": "setPoolKey(address,address,(address,address,uint24,int24,address))",
      "arguments": [
        "0x096b36810d4E9243318f0Cd4C18a2dbd1661470C",
        "0xC3726B8054f88FD63F9268c0ab21667083D01414",
        "(0x096b36810d4E9243318f0Cd4C18a2dbd1661470C, 0xC3726B8054f88FD63F9268c0ab21667083D01414, 8388608, 1, 0xA11C7Faf1b89B9173B5d7137591Ccb51D2F96088)"
      ],
      "transaction": {
        "from": "0x747481ae081a6e4e28c989eef25bc53def899ea7",
        "to": "0x8c45cbf71af067019a62fcfccec749df567c9313",
        "gas": "0x21906",
        "value": "0x0",
        "input": "0xf1e27e19000000000000000000000000096b36810d4e9243318f0cd4c18a2dbd1661470c000000000000000000000000c3726b8054f88fd63f9268c0ab21667083d01414000000000000000000000000096b36810d4e9243318f0cd4c18a2dbd1661470c000000000000000000000000c3726b8054f88fd63f9268c0ab21667083d0141400000000000000000000000000000000000000000000000000000000008000000000000000000000000000000000000000000000000000000000000000000001000000000000000000000000a11c7faf1b89b9173b5d7137591ccb51d2f96088",
        "nonce": "0x93",
        "chainId": "0x14a34"
      },
      "additionalContracts": [],
      "isFixedGasLimit": false
    }
  ],
  "receipts": [
    {
      "status": "0x1",
      "cumulativeGasUsed": "0x71dc99",
      "logs": [],
      "logsBloom": "0x00000000000000000000000000000000000000000000000000000000000000000000000000000000000000000000000000000000000000000000000000000000000000000000000000000000000000000000000000000000000000000000000000000000000000000000000000000000000000000000000000000000000000000000000000000000000000000000000000000000000000000000000000000000000000000000000000000000000000000000000000000000000000000000000000000000000000000000000000000000000000000000000000000000000000000000000000000000000000000000000000000000000000000000000000000000",
      "type": "0x2",
      "transactionHash": "0x534088142adfb435f2f5b7bae6d4a7edc5253519c1c31b84fb9a6e3d1d49e93f",
      "transactionIndex": "0xe",
      "blockHash": "0xf6be575432085bfbac499d764b905336bc5a4b9c513bbe4c7bb92cb1e0b661ba",
      "blockNumber": "0x1a31945",
      "gasUsed": "0x15682d",
      "effectiveGasPrice": "0xb06",
      "from": "0x747481ae081a6e4e28c989eef25bc53def899ea7",
      "to": null,
      "contractAddress": "0x47e2fd55a1d27cb322533c9b0c2aeacb36d58c72",
      "l1BaseFeeScalar": "0x44d",
      "l1BlobBaseFee": "0x1",
      "l1BlobBaseFeeScalar": "0xa118b",
      "l1Fee": "0x6965e84ac",
      "l1GasPrice": "0x20748fe5",
      "l1GasUsed": "0xb859"
    },
    {
      "status": "0x1",
      "cumulativeGasUsed": "0x7ed98a",
      "logs": [
        {
          "address": "0x8c45cbf71af067019a62fcfccec749df567c9313",
          "topics": [
            "0x8be0079c531659141344cd1fd0a4f28419497f9722a3daafe3b4186f6b6457e0",
            "0x0000000000000000000000000000000000000000000000000000000000000000",
            "0x000000000000000000000000747481ae081a6e4e28c989eef25bc53def899ea7"
          ],
          "data": "0x",
          "blockHash": "0xf6be575432085bfbac499d764b905336bc5a4b9c513bbe4c7bb92cb1e0b661ba",
          "blockNumber": "0x1a31945",
          "blockTimestamp": "0x6859916a",
          "transactionHash": "0xde782afde059298cf256e76ac8325e05f5d8fa00f4d22a3aef79979ecb0976d6",
          "transactionIndex": "0xf",
          "logIndex": "0xab",
          "removed": false
        }
      ],
      "logsBloom": "0x00000000000000000000000000000000000000000000000000800000000000000000000000000000000000000000000000000000000000000000000000000000000000000000000000000000000040000001000000000000000000000000000000000000020000000000000000000800000000000000000000000000000000400000000000000000000000000000000000010000000000000000000000000000000000000000000000000000000008000000000000000000000000020000000000000000000000000000000000000000000000000000000000000000008020080000000000000000000000000000000000000000000000000000000000000000",
      "type": "0x2",
      "transactionHash": "0xde782afde059298cf256e76ac8325e05f5d8fa00f4d22a3aef79979ecb0976d6",
      "transactionIndex": "0xf",
      "blockHash": "0xf6be575432085bfbac499d764b905336bc5a4b9c513bbe4c7bb92cb1e0b661ba",
      "blockNumber": "0x1a31945",
      "gasUsed": "0xcfcf1",
      "effectiveGasPrice": "0xb06",
      "from": "0x747481ae081a6e4e28c989eef25bc53def899ea7",
      "to": null,
      "contractAddress": "0x8c45cbf71af067019a62fcfccec749df567c9313",
      "l1BaseFeeScalar": "0x44d",
      "l1BlobBaseFee": "0x1",
      "l1BlobBaseFeeScalar": "0xa118b",
      "l1Fee": "0x4dfcf49b2",
      "l1GasPrice": "0x20748fe5",
      "l1GasUsed": "0x8868"
    },
    {
      "status": "0x1",
      "cumulativeGasUsed": "0x7fa1fd",
      "logs": [
        {
          "address": "0x096b36810d4e9243318f0cd4c18a2dbd1661470c",
          "topics": [
            "0xddf252ad1be2c89b69c2b068fc378daa952ba7f163c4a11628f55a4df523b3ef",
            "0x0000000000000000000000000000000000000000000000000000000000000000",
            "0x0000000000000000000000008c45cbf71af067019a62fcfccec749df567c9313"
          ],
          "data": "0x00000000000000000000000000000000000000000000000000000004a817c800",
          "blockHash": "0xf6be575432085bfbac499d764b905336bc5a4b9c513bbe4c7bb92cb1e0b661ba",
          "blockNumber": "0x1a31945",
          "blockTimestamp": "0x6859916a",
          "transactionHash": "0x5effc9c9f766513d967c35620e0cb73840d871f64bf2d2503881431067658f49",
          "transactionIndex": "0x10",
          "logIndex": "0xac",
          "removed": false
        }
      ],
      "logsBloom": "0x00000000000000010000000000000000000000000000000000000000000000000000000000000000000080000000000000000000000000000000000000000800000000000000000000000008000000000000000000000000000000000000000000000000020000000000000000000800002000000000000000000010000000000000000000000000000000000000000000000000000000000000000000000000000000000000000000000000000000000000000000000000000000000000000000000002000000000000000000000100000000000000000000000000000060000000000000000000000000000000000000000000000000000000000000000000",
      "type": "0x2",
      "transactionHash": "0x5effc9c9f766513d967c35620e0cb73840d871f64bf2d2503881431067658f49",
      "transactionIndex": "0x10",
      "blockHash": "0xf6be575432085bfbac499d764b905336bc5a4b9c513bbe4c7bb92cb1e0b661ba",
      "blockNumber": "0x1a31945",
      "gasUsed": "0xc873",
      "effectiveGasPrice": "0xb06",
      "from": "0x747481ae081a6e4e28c989eef25bc53def899ea7",
      "to": "0x096b36810d4e9243318f0cd4c18a2dbd1661470c",
      "contractAddress": null,
      "l1BaseFeeScalar": "0x44d",
      "l1BlobBaseFee": "0x1",
      "l1BlobBaseFeeScalar": "0xa118b",
      "l1Fee": "0x392c5d2d",
      "l1GasPrice": "0x20748fe5",
      "l1GasUsed": "0x640"
    },
    {
      "status": "0x1",
      "cumulativeGasUsed": "0xc0dcf5",
      "logs": [
        {
          "address": "0xa11c7faf1b89b9173b5d7137591ccb51d2f96088",
          "topics": [
            "0x8be0079c531659141344cd1fd0a4f28419497f9722a3daafe3b4186f6b6457e0",
            "0x0000000000000000000000000000000000000000000000000000000000000000",
            "0x0000000000000000000000004e59b44847b379578588920ca78fbf26c0b4956c"
          ],
          "data": "0x",
          "blockHash": "0xf6be575432085bfbac499d764b905336bc5a4b9c513bbe4c7bb92cb1e0b661ba",
          "blockNumber": "0x1a31945",
          "blockTimestamp": "0x6859916a",
          "transactionHash": "0x7d09ccbefb71a8769e3b46e5f56e7a344cedb38a3b5a2755c5b72f53b3a06e1f",
          "transactionIndex": "0x14",
          "logIndex": "0xf7",
          "removed": false
        }
      ],
      "logsBloom": "0x00000000000000000000000000000000000000000000000000800000000000000000000000000000000000000000000000000000000000000000000000000000000000000000000000000000000000000001000000000000000000000000000000000000020000000000000020000800000000000000000000000100000000400000000000000000000000000000000000000000001000000000000000000000000000000001000000000000002000000000000000000000000000000000000000000000000000000000000000000000000000000000000000000000000020000000000000000000000000000000000080000000000000000000000000000000",
      "type": "0x2",
      "transactionHash": "0x7d09ccbefb71a8769e3b46e5f56e7a344cedb38a3b5a2755c5b72f53b3a06e1f",
      "transactionIndex": "0x14",
      "blockHash": "0xf6be575432085bfbac499d764b905336bc5a4b9c513bbe4c7bb92cb1e0b661ba",
      "blockNumber": "0x1a31945",
      "gasUsed": "0x232a0d",
      "effectiveGasPrice": "0xb06",
      "from": "0x747481ae081a6e4e28c989eef25bc53def899ea7",
      "to": "0x4e59b44847b379578588920ca78fbf26c0b4956c",
      "contractAddress": null,
      "l1BaseFeeScalar": "0x44d",
      "l1BlobBaseFee": "0x1",
      "l1BlobBaseFeeScalar": "0xa118b",
      "l1Fee": "0xd1b7a5536",
      "l1GasPrice": "0x20748fe5",
      "l1GasUsed": "0x16ecf"
    },
    {
      "status": "0x1",
      "cumulativeGasUsed": "0xc19327",
      "logs": [
        {
          "address": "0x096b36810d4e9243318f0cd4c18a2dbd1661470c",
          "topics": [
            "0x8c5be1e5ebec7d5bd14f71427d1e84f3dd0314c0f7b2291e5b200ac8c7c3b925",
            "0x000000000000000000000000747481ae081a6e4e28c989eef25bc53def899ea7",
            "0x000000000000000000000000000000000022d473030f116ddee9f6b43ac78ba3"
          ],
          "data": "0xffffffffffffffffffffffffffffffffffffffffffffffffffffffffffffffff",
          "blockHash": "0xf6be575432085bfbac499d764b905336bc5a4b9c513bbe4c7bb92cb1e0b661ba",
          "blockNumber": "0x1a31945",
          "blockTimestamp": "0x6859916a",
          "transactionHash": "0xc1bdc76d706d00522aa37e1aa14bae636f3a64d8dc29c21842827a1e3b96e5a0",
          "transactionIndex": "0x15",
          "logIndex": "0xf8",
          "removed": false
        }
      ],
      "logsBloom": "0x00000000000000010000000000000000000000000000000000000000000000000000000000000000000000000000000000000000800000000000000000200000000000000000000000004000000000000000000000000800000000000000000000000000000000000000000000000000002000000000000000000000000000000000000000000000000000000000000000010000000000000000000000000000020000000000000000000000000008000000000000000000000000000000000000000000000000000000000000000100000000000000000000000000000000080010000000000000000000000000000000000000000000000000000000000000",
      "type": "0x2",
      "transactionHash": "0xc1bdc76d706d00522aa37e1aa14bae636f3a64d8dc29c21842827a1e3b96e5a0",
      "transactionIndex": "0x15",
      "blockHash": "0xf6be575432085bfbac499d764b905336bc5a4b9c513bbe4c7bb92cb1e0b661ba",
      "blockNumber": "0x1a31945",
      "gasUsed": "0xb632",
      "effectiveGasPrice": "0xb06",
      "from": "0x747481ae081a6e4e28c989eef25bc53def899ea7",
      "to": "0x096b36810d4e9243318f0cd4c18a2dbd1661470c",
      "contractAddress": null,
      "l1BaseFeeScalar": "0x44d",
      "l1BlobBaseFee": "0x1",
      "l1BlobBaseFeeScalar": "0xa118b",
      "l1Fee": "0x392c5d2d",
      "l1GasPrice": "0x20748fe5",
      "l1GasUsed": "0x640"
    },
    {
      "status": "0x1",
      "cumulativeGasUsed": "0xc24df1",
      "logs": [
        {
          "address": "0x000000000022d473030f116ddee9f6b43ac78ba3",
          "topics": [
            "0xda9fa7c1b00402c17d0161b249b1ab8bbec047c5a52207b9c112deffd817036b",
            "0x000000000000000000000000747481ae081a6e4e28c989eef25bc53def899ea7",
            "0x000000000000000000000000096b36810d4e9243318f0cd4c18a2dbd1661470c",
            "0x0000000000000000000000004b2c77d209d3405f41a037ec6c77f7f5b8e2ca80"
          ],
          "data": "0x000000000000000000000000ffffffffffffffffffffffffffffffffffffffff0000000000000000000000000000000000000000000000000000ffffffffffff",
          "blockHash": "0xf6be575432085bfbac499d764b905336bc5a4b9c513bbe4c7bb92cb1e0b661ba",
          "blockNumber": "0x1a31945",
          "blockTimestamp": "0x6859916a",
          "transactionHash": "0x228d9eb1e440a02746e6301c0f5a46e2fc24a10d90fa059dca240d9b193a9134",
          "transactionIndex": "0x16",
          "logIndex": "0xf9",
          "removed": false
        }
      ],
      "logsBloom": "0x00010000000000010000000000000000000000000000000000000000000000000000000000000000000000000000000000000000000000000008000010080000000000000000000000000000000000000000000020200000000000000000000000000000000000000000000000000000000000000000000000000000000000000020000000000000000000000000000000010000000000000000000000000000000000000000000000000000000008000000000000000000800000080000000000000000000000000000000000000000000000000000000040000000000000080000000000000000000000000000000000000000000000000000000000000400",
      "type": "0x2",
      "transactionHash": "0x228d9eb1e440a02746e6301c0f5a46e2fc24a10d90fa059dca240d9b193a9134",
      "transactionIndex": "0x16",
      "blockHash": "0xf6be575432085bfbac499d764b905336bc5a4b9c513bbe4c7bb92cb1e0b661ba",
      "blockNumber": "0x1a31945",
      "gasUsed": "0xbaca",
      "effectiveGasPrice": "0xb06",
      "from": "0x747481ae081a6e4e28c989eef25bc53def899ea7",
      "to": "0x000000000022d473030f116ddee9f6b43ac78ba3",
      "contractAddress": null,
      "l1BaseFeeScalar": "0x44d",
      "l1BlobBaseFee": "0x1",
      "l1BlobBaseFeeScalar": "0xa118b",
      "l1Fee": "0x3fa6b8fa",
      "l1GasPrice": "0x20748fe5",
      "l1GasUsed": "0x6f5"
    },
    {
      "status": "0x1",
      "cumulativeGasUsed": "0xc30423",
      "logs": [
        {
          "address": "0xc3726b8054f88fd63f9268c0ab21667083d01414",
          "topics": [
            "0x8c5be1e5ebec7d5bd14f71427d1e84f3dd0314c0f7b2291e5b200ac8c7c3b925",
            "0x000000000000000000000000747481ae081a6e4e28c989eef25bc53def899ea7",
            "0x000000000000000000000000000000000022d473030f116ddee9f6b43ac78ba3"
          ],
          "data": "0xffffffffffffffffffffffffffffffffffffffffffffffffffffffffffffffff",
          "blockHash": "0xf6be575432085bfbac499d764b905336bc5a4b9c513bbe4c7bb92cb1e0b661ba",
          "blockNumber": "0x1a31945",
          "blockTimestamp": "0x6859916a",
          "transactionHash": "0x9ff796e0c4a9244c85ae9cfb7a135f3aa26d9c411aa8c87fe5941187cc858512",
          "transactionIndex": "0x17",
          "logIndex": "0xfa",
          "removed": false
        }
      ],
      "logsBloom": "0x00000000000000000000000000000000000000000000000000000000000000000000000000000000000000000000000000000000800000000000000000200000000000000000000000004000000000000000000000000800000000000000000000000400000000000008000000000000000000000000000000000000000000000000000000000000000000000000000000010000000000000000000000000008020000000000000000000000000008000000000000000000000000000000000000000000000000000000000000000000000000000000000000000000000000080010000000000000000000000000000000000000000000000000000000000000",
      "type": "0x2",
      "transactionHash": "0x9ff796e0c4a9244c85ae9cfb7a135f3aa26d9c411aa8c87fe5941187cc858512",
      "transactionIndex": "0x17",
      "blockHash": "0xf6be575432085bfbac499d764b905336bc5a4b9c513bbe4c7bb92cb1e0b661ba",
      "blockNumber": "0x1a31945",
      "gasUsed": "0xb632",
      "effectiveGasPrice": "0xb06",
      "from": "0x747481ae081a6e4e28c989eef25bc53def899ea7",
      "to": "0xc3726b8054f88fd63f9268c0ab21667083d01414",
      "contractAddress": null,
      "l1BaseFeeScalar": "0x44d",
      "l1BlobBaseFee": "0x1",
      "l1BlobBaseFeeScalar": "0xa118b",
      "l1Fee": "0x392c5d2d",
      "l1GasPrice": "0x20748fe5",
      "l1GasUsed": "0x640"
    },
    {
      "status": "0x1",
      "cumulativeGasUsed": "0xc3beed",
      "logs": [
        {
          "address": "0x000000000022d473030f116ddee9f6b43ac78ba3",
          "topics": [
            "0xda9fa7c1b00402c17d0161b249b1ab8bbec047c5a52207b9c112deffd817036b",
            "0x000000000000000000000000747481ae081a6e4e28c989eef25bc53def899ea7",
            "0x000000000000000000000000c3726b8054f88fd63f9268c0ab21667083d01414",
            "0x0000000000000000000000004b2c77d209d3405f41a037ec6c77f7f5b8e2ca80"
          ],
          "data": "0x000000000000000000000000ffffffffffffffffffffffffffffffffffffffff0000000000000000000000000000000000000000000000000000ffffffffffff",
          "blockHash": "0xf6be575432085bfbac499d764b905336bc5a4b9c513bbe4c7bb92cb1e0b661ba",
          "blockNumber": "0x1a31945",
          "blockTimestamp": "0x6859916a",
          "transactionHash": "0x715ce1e1f12a9943b4dfa6e7270bee3afc913b8352f49e52865685afbe3e545a",
          "transactionIndex": "0x18",
          "logIndex": "0xfb",
          "removed": false
        }
      ],
      "logsBloom": "0x00010000000000010000000000000000000000000000000000000000000000000000000000000000000000000000020000000000000000000008000010080000000000000000000000000000000000000000000000000000000000000000000000000000000000000000000000000000000000000000000000000000000000000020000000000000000000000000000000010000000040000000000000000000000000000000000000000000000008000000000000000000000000080000000000000000010000000000000000000000000000000000000040000000000000080000000000000000000000000000000000000000000000000000000000000400",
      "type": "0x2",
      "transactionHash": "0x715ce1e1f12a9943b4dfa6e7270bee3afc913b8352f49e52865685afbe3e545a",
      "transactionIndex": "0x18",
      "blockHash": "0xf6be575432085bfbac499d764b905336bc5a4b9c513bbe4c7bb92cb1e0b661ba",
      "blockNumber": "0x1a31945",
      "gasUsed": "0xbaca",
      "effectiveGasPrice": "0xb06",
      "from": "0x747481ae081a6e4e28c989eef25bc53def899ea7",
      "to": "0x000000000022d473030f116ddee9f6b43ac78ba3",
      "contractAddress": null,
      "l1BaseFeeScalar": "0x44d",
      "l1BlobBaseFee": "0x1",
      "l1BlobBaseFeeScalar": "0xa118b",
      "l1Fee": "0x3fa6b8fa",
      "l1GasPrice": "0x20748fe5",
      "l1GasUsed": "0x6f5"
    },
    {
      "status": "0x1",
      "cumulativeGasUsed": "0xcafb3e",
      "logs": [
        {
          "address": "0x05e73354cfdd6745c338b50bcfdfa3aa6fa03408",
          "topics": [
            "0xdd466e674ea557f56295e2d0218a125ea4b4f0f6f3307b95f85e6110838d6438",
            "0x3e7638d5e29a1349206663ee3ad808803424390874598e075cec31fed954ddcb",
            "0x000000000000000000000000096b36810d4e9243318f0cd4c18a2dbd1661470c",
            "0x000000000000000000000000c3726b8054f88fd63f9268c0ab21667083d01414"
          ],
          "data": "0x00000000000000000000000000000000000000000000000000000000008000000000000000000000000000000000000000000000000000000000000000000001000000000000000000000000a11c7faf1b89b9173b5d7137591ccb51d2f960880000000000000000000000000000000000000000fffda4e576dc2efd959f7ca4ffffffffffffffffffffffffffffffffffffffffffffffffffffffffffffffff",
          "blockHash": "0xf6be575432085bfbac499d764b905336bc5a4b9c513bbe4c7bb92cb1e0b661ba",
          "blockNumber": "0x1a31945",
          "blockTimestamp": "0x6859916a",
          "transactionHash": "0x0850e16a82502e1ae9b64016c71b96de6b4b4e573a7300b3f04705097752ed5f",
          "transactionIndex": "0x19",
          "logIndex": "0xfc",
          "removed": false
        },
        {
          "address": "0x4b2c77d209d3405f41a037ec6c77f7f5b8e2ca80",
          "topics": [
            "0xddf252ad1be2c89b69c2b068fc378daa952ba7f163c4a11628f55a4df523b3ef",
            "0x0000000000000000000000000000000000000000000000000000000000000000",
            "0x000000000000000000000000747481ae081a6e4e28c989eef25bc53def899ea7",
            "0x000000000000000000000000000000000000000000000000000000000000070c"
          ],
          "data": "0x",
          "blockHash": "0xf6be575432085bfbac499d764b905336bc5a4b9c513bbe4c7bb92cb1e0b661ba",
          "blockNumber": "0x1a31945",
          "blockTimestamp": "0x6859916a",
          "transactionHash": "0x0850e16a82502e1ae9b64016c71b96de6b4b4e573a7300b3f04705097752ed5f",
          "transactionIndex": "0x19",
          "logIndex": "0xfd",
          "removed": false
        },
        {
          "address": "0x05e73354cfdd6745c338b50bcfdfa3aa6fa03408",
          "topics": [
            "0xf208f4912782fd25c7f114ca3723a2d5dd6f3bcc3ac8db5af63baa85f711d5ec",
            "0x3e7638d5e29a1349206663ee3ad808803424390874598e075cec31fed954ddcb",
            "0x0000000000000000000000004b2c77d209d3405f41a037ec6c77f7f5b8e2ca80"
          ],
          "data": "0xfffffffffffffffffffffffffffffffffffffffffffffffffffffffffffffd1100000000000000000000000000000000000000000000000000000000000002ed000000000000000000000000000000000000000000000000000002786ad1c1ec000000000000000000000000000000000000000000000000000000000000070c",
          "blockHash": "0xf6be575432085bfbac499d764b905336bc5a4b9c513bbe4c7bb92cb1e0b661ba",
          "blockNumber": "0x1a31945",
          "blockTimestamp": "0x6859916a",
          "transactionHash": "0x0850e16a82502e1ae9b64016c71b96de6b4b4e573a7300b3f04705097752ed5f",
          "transactionIndex": "0x19",
          "logIndex": "0xfe",
          "removed": false
        },
        {
          "address": "0x096b36810d4e9243318f0cd4c18a2dbd1661470c",
          "topics": [
            "0xddf252ad1be2c89b69c2b068fc378daa952ba7f163c4a11628f55a4df523b3ef",
            "0x000000000000000000000000747481ae081a6e4e28c989eef25bc53def899ea7",
            "0x00000000000000000000000005e73354cfdd6745c338b50bcfdfa3aa6fa03408"
          ],
          "data": "0x000000000000000000000000000000000000000000000000000000174482e094",
          "blockHash": "0xf6be575432085bfbac499d764b905336bc5a4b9c513bbe4c7bb92cb1e0b661ba",
          "blockNumber": "0x1a31945",
          "blockTimestamp": "0x6859916a",
          "transactionHash": "0x0850e16a82502e1ae9b64016c71b96de6b4b4e573a7300b3f04705097752ed5f",
          "transactionIndex": "0x19",
          "logIndex": "0xff",
          "removed": false
        },
        {
          "address": "0xc3726b8054f88fd63f9268c0ab21667083d01414",
          "topics": [
            "0xddf252ad1be2c89b69c2b068fc378daa952ba7f163c4a11628f55a4df523b3ef",
            "0x000000000000000000000000747481ae081a6e4e28c989eef25bc53def899ea7",
            "0x00000000000000000000000005e73354cfdd6745c338b50bcfdfa3aa6fa03408"
          ],
          "data": "0x000000000000000000000000000000000000000000000000000000174876e800",
          "blockHash": "0xf6be575432085bfbac499d764b905336bc5a4b9c513bbe4c7bb92cb1e0b661ba",
          "blockNumber": "0x1a31945",
          "blockTimestamp": "0x6859916a",
          "transactionHash": "0x0850e16a82502e1ae9b64016c71b96de6b4b4e573a7300b3f04705097752ed5f",
          "transactionIndex": "0x19",
          "logIndex": "0x100",
          "removed": false
        }
      ],
      "logsBloom": "0x00000000000000010000000000000200000000000000000000000004000000000100000100000000000000000000020000000000000000400008000010000800000000000010200000000008000000000000000020300000000000008000000000000400020000000008000000000800002000000000000000000010000000000000000005000018000000000000000000010001000040000000000000200008000004000000000000000000000008008000000000000000800000000000000000000002011000000000000000000100000000000000000000000000000020080000000000000000000000000800000004000000000000000000000000000000",
      "type": "0x2",
      "transactionHash": "0x0850e16a82502e1ae9b64016c71b96de6b4b4e573a7300b3f04705097752ed5f",
      "transactionIndex": "0x19",
      "blockHash": "0xf6be575432085bfbac499d764b905336bc5a4b9c513bbe4c7bb92cb1e0b661ba",
      "blockNumber": "0x1a31945",
      "gasUsed": "0x73c51",
      "effectiveGasPrice": "0xb06",
      "from": "0x747481ae081a6e4e28c989eef25bc53def899ea7",
      "to": "0x4b2c77d209d3405f41a037ec6c77f7f5b8e2ca80",
      "contractAddress": null,
      "l1BaseFeeScalar": "0x44d",
      "l1BlobBaseFee": "0x1",
      "l1BlobBaseFeeScalar": "0xa118b",
      "l1Fee": "0xc236fb63",
      "l1GasPrice": "0x20748fe5",
      "l1GasUsed": "0x153b"
    },
    {
      "status": "0x1",
      "cumulativeGasUsed": "0xcbb725",
      "logs": [],
      "logsBloom": "0x00000000000000000000000000000000000000000000000000000000000000000000000000000000000000000000000000000000000000000000000000000000000000000000000000000000000000000000000000000000000000000000000000000000000000000000000000000000000000000000000000000000000000000000000000000000000000000000000000000000000000000000000000000000000000000000000000000000000000000000000000000000000000000000000000000000000000000000000000000000000000000000000000000000000000000000000000000000000000000000000000000000000000000000000000000000",
      "type": "0x2",
      "transactionHash": "0xd17edd111928ebf083acdf170e4b78dbd5c8c014174fe0d07b8e988299893e0d",
      "transactionIndex": "0x1a",
      "blockHash": "0xf6be575432085bfbac499d764b905336bc5a4b9c513bbe4c7bb92cb1e0b661ba",
      "blockNumber": "0x1a31945",
      "gasUsed": "0xbbe7",
      "effectiveGasPrice": "0xb06",
      "from": "0x747481ae081a6e4e28c989eef25bc53def899ea7",
      "to": "0x8c45cbf71af067019a62fcfccec749df567c9313",
      "contractAddress": null,
      "l1BaseFeeScalar": "0x44d",
      "l1BlobBaseFee": "0x1",
      "l1BlobBaseFeeScalar": "0xa118b",
      "l1Fee": "0x4b9b8d5b",
      "l1GasPrice": "0x20748fe5",
      "l1GasUsed": "0x843"
    },
    {
      "status": "0x1",
      "cumulativeGasUsed": "0xeaf628",
      "logs": [],
      "logsBloom": "0x00000000000000000000000000000000000000000000000000000000000000000000000000000000000000000000000000000000000000000000000000000000000000000000000000000000000000000000000000000000000000000000000000000000000000000000000000000000000000000000000000000000000000000000000000000000000000000000000000000000000000000000000000000000000000000000000000000000000000000000000000000000000000000000000000000000000000000000000000000000000000000000000000000000000000000000000000000000000000000000000000000000000000000000000000000000",
      "type": "0x2",
      "transactionHash": "0xc6e3b58f721cfafd29c2fcb9a2d0aaa770267d8c2f2b6e0a7986c65ff7478107",
      "transactionIndex": "0x1f",
      "blockHash": "0x8db71b86a0daa4a0a7601d08cff84c30fa3c557c0a0f6181eff67376a941579d",
      "blockNumber": "0x1a31945",
      "gasUsed": "0x16f33",
      "effectiveGasPrice": "0xb06",
      "from": "0x747481ae081a6e4e28c989eef25bc53def899ea7",
      "to": "0x8c45cbf71af067019a62fcfccec749df567c9313",
      "contractAddress": null,
      "l1BaseFeeScalar": "0x44d",
      "l1BlobBaseFee": "0x1",
      "l1BlobBaseFeeScalar": "0xa118b",
      "l1Fee": "0x4e7a26bb",
      "l1GasPrice": "0x20748fe5",
      "l1GasUsed": "0x894"
    }
  ],
  "libraries": [],
  "pending": [],
  "returns": {},
  "timestamp": 1750700393,
  "chain": 84532,
  "commit": "38a295e"
}