{
  "transactions": [
    {
      "hash": "0xcef4678c7a65de950aee6865d98f1925d1ce48ff9e382553b8a23f3002ca48fc",
      "transactionType": "CREATE",
      "contractName": "PoolSwapTest",
      "contractAddress": "0xe533ec97f9395b8219f5cfde8580c1faa3909d1a",
      "function": null,
      "arguments": [
        "0x05E73354cFDd6745C338b50BcFDfA3Aa6fA03408"
      ],
      "transaction": {
        "from": "0x747481ae081a6e4e28c989eef25bc53def899ea7",
        "gas": "0x1bd43a",
        "value": "0x0",
        "input": "0x60a0604052348015600e575f80fd5b50604051611921380380611921833981016040819052602b91603b565b6001600160a01b03166080526066565b5f60208284031215604a575f80fd5b81516001600160a01b0381168114605f575f80fd5b9392505050565b6080516118666100bb5f395f8181606e0152818160d7015281816101ee01528181610300015281816109bb01528181610a1401528181610a9101528181610ae501528181610c030152610c3601526118665ff3fe608060405260043610610033575f3560e01c80632229d0b414610037578063481c6a751461005d57806391dd7346146100a8575b5f80fd5b61004a61004536600461140f565b6100d4565b6040519081526020015b60405180910390f35b348015610068575f80fd5b506100907f000000000000000000000000000000000000000000000000000000000000000081565b6040516001600160a01b039091168152602001610054565b3480156100b3575f80fd5b506100c76100c2366004611480565b6101e1565b604051610054919061151c565b5f7f00000000000000000000000000000000000000000000000000000000000000006001600160a01b03166348c894916040518060a00160405280336001600160a01b03168152602001868152602001888152602001878152602001858152506040516020016101449190611535565b6040516020818303038152906040526040518263ffffffff1660e01b815260040161016f919061151c565b5f604051808303815f875af115801561018a573d5f803e3d5ffd5b505050506040513d5f823e601f3d908101601f191682016040526101b19190810190611615565b8060200190518101906101c4919061168a565b90504780156101d8576101d85f3383610b37565b50949350505050565b6060336001600160a01b037f00000000000000000000000000000000000000000000000000000000000000001614610217575f80fd5b5f610224838501856116a1565b90505f61023c82604001515f0151835f015130610bdc565b925050505f610257836040015160200151845f015130610bdc565b92505050815f146102af5760405162461bcd60e51b815260206004820152601e60248201527f64656c74614265666f726530206973206e6f7420657175616c20746f2030000060448201526064015b60405180910390fd5b80156102fd5760405162461bcd60e51b815260206004820152601e60248201527f64656c74614265666f726531206973206e6f7420657175616c20746f2030000060448201526064016102a6565b5f7f00000000000000000000000000000000000000000000000000000000000000006001600160a01b031663f3cd914c8560400151866060015187608001516040518463ffffffff1660e01b815260040161035a93929190611759565b6020604051808303815f875af1158015610376573d5f803e3d5ffd5b505050506040513d601f19601f8201168201806040525081019061039a919061168a565b90505f6103b285604001515f0151865f015130610bdc565b925050505f6103cd866040015160200151875f015130610bdc565b9250505085606001515f0151156106c7575f86606001516020015112156105565785606001516020015182121561047c5760405162461bcd60e51b815260206004820152604760248201527f64656c7461416674657230206973206e6f742067726561746572207468616e2060448201527f6f7220657175616c20746f20646174612e706172616d732e616d6f756e7453706064820152661958da599a595960ca1b608482015260a4016102a6565b816104878460801d90565b600f0b146104eb5760405162461bcd60e51b815260206004820152602b60248201527f64656c74612e616d6f756e74302829206973206e6f7420657175616c20746f2060448201526a064656c74614166746572360ac1b60648201526084016102a6565b5f8112156105515760405162461bcd60e51b815260206004820152602d60248201527f64656c7461416674657231206973206e6f742067726561746572207468616e2060448201526c06f7220657175616c20746f203609c1b60648201526084016102a6565b6109ab565b5f8213156105cc5760405162461bcd60e51b815260206004820152602d60248201527f64656c7461416674657230206973206e6f74206c657373207468616e206f722060448201527f657175616c20746f207a65726f0000000000000000000000000000000000000060648201526084016102a6565b806105d784600f0b90565b600f0b1461063b5760405162461bcd60e51b815260206004820152602b60248201527f64656c74612e616d6f756e74312829206973206e6f7420657175616c20746f2060448201526a64656c746141667465723160a81b60648201526084016102a6565b8560600151602001518113156105515760405162461bcd60e51b8152602060048201526044602482018190527f64656c7461416674657231206973206e6f74206c657373207468616e206f7220908201527f657175616c20746f20646174612e706172616d732e616d6f756e745370656369606482015263199a595960e21b608482015260a4016102a6565b5f866060015160200151121561083a578560600151602001518112156107655760405162461bcd60e51b815260206004820152604760248201527f64656c7461416674657231206973206e6f742067726561746572207468616e2060448201527f6f7220657175616c20746f20646174612e706172616d732e616d6f756e7453706064820152661958da599a595960ca1b608482015260a4016102a6565b8061077084600f0b90565b600f0b146107d45760405162461bcd60e51b815260206004820152602b60248201527f64656c74612e616d6f756e74312829206973206e6f7420657175616c20746f2060448201526a64656c746141667465723160a81b60648201526084016102a6565b5f8212156105515760405162461bcd60e51b815260206004820152602d60248201527f64656c7461416674657230206973206e6f742067726561746572207468616e2060448201526c06f7220657175616c20746f203609c1b60648201526084016102a6565b5f8113156108b05760405162461bcd60e51b815260206004820152602a60248201527f64656c7461416674657231206973206e6f74206c657373207468616e206f722060448201527f657175616c20746f20300000000000000000000000000000000000000000000060648201526084016102a6565b816108bb8460801d90565b600f0b1461091f5760405162461bcd60e51b815260206004820152602b60248201527f64656c74612e616d6f756e74302829206973206e6f7420657175616c20746f2060448201526a064656c74614166746572360ac1b60648201526084016102a6565b8560600151602001518213156109ab5760405162461bcd60e51b8152602060048201526044602482018190527f64656c7461416674657230206973206e6f74206c657373207468616e206f7220908201527f657175616c20746f20646174612e706172616d732e616d6f756e745370656369606482015263199a595960e21b608482015260a4016102a6565b5f821215610a04578551610a04907f0000000000000000000000000000000000000000000000000000000000000000906109e4856117ef565b6020808b0151015160408b0151516001600160a01b031693929190610c68565b5f811215610a69578551610a69907f000000000000000000000000000000000000000000000000000000000000000090610a3d846117ef565b8960200151602001518a60400151602001516001600160a01b0316610c6890949392919063ffffffff16565b5f821315610ab9578551602087015151604088015151610ab9926001600160a01b03909116917f000000000000000000000000000000000000000000000000000000000000000091908690610f34565b5f811315610b0d57855160208088015151604089015190910151610b0d926001600160a01b03909116917f000000000000000000000000000000000000000000000000000000000000000091908590610f34565b60408051602081018590520160405160208183030381529060405296505050505050505b92915050565b5f6001600160a01b038416610b6c575f805f8085875af1905080610b6757610b67835f633d2cec6f60e21b611006565b610bd6565b60405163a9059cbb60e01b81526001600160a01b038416600482015282602482015260205f6044835f895af13d15601f3d1160015f511416171691505f81525f60208201525f60408201525080610bd657610bd68463a9059cbb60e01b633c9fd93960e21b611006565b50505050565b5f8080610bf26001600160a01b0387168661107e565b9250610c276001600160a01b0387167f000000000000000000000000000000000000000000000000000000000000000061107e565b9150610c5d6001600160a01b037f000000000000000000000000000000000000000000000000000000000000000016858861110d565b905093509350939050565b8015610cfd57836001600160a01b031663f5298aca84610c97886001600160a01b03166001600160a01b031690565b6040516001600160e01b031960e085901b1681526001600160a01b0390921660048301526024820152604481018590526064015b5f604051808303815f87803b158015610ce2575f80fd5b505af1158015610cf4573d5f803e3d5ffd5b50505050610f2d565b6001600160a01b038516610d7457836001600160a01b03166311da60b4836040518263ffffffff1660e01b815260040160206040518083038185885af1158015610d49573d5f803e3d5ffd5b50505050506040513d601f19601f82011682018060405250810190610d6e919061168a565b50610f2d565b604051632961046560e21b81526001600160a01b03868116600483015285169063a5841194906024015f604051808303815f87803b158015610db4575f80fd5b505af1158015610dc6573d5f803e3d5ffd5b505050506001600160a01b0383163014610e58576040516323b872dd60e01b81526001600160a01b0384811660048301528581166024830152604482018490528616906323b872dd906064016020604051808303815f875af1158015610e2e573d5f803e3d5ffd5b505050506040513d601f19601f82011682018060405250810190610e529190611815565b50610eca565b60405163a9059cbb60e01b81526001600160a01b0385811660048301526024820184905286169063a9059cbb906044016020604051808303815f875af1158015610ea4573d5f803e3d5ffd5b505050506040513d601f19601f82011682018060405250810190610ec89190611815565b505b836001600160a01b03166311da60b46040518163ffffffff1660e01b81526004016020604051808303815f875af1158015610f07573d5f803e3d5ffd5b505050506040513d601f19601f82011682018060405250810190610f2b919061168a565b505b5050505050565b80610f7657604051630b0d9c0960e01b81526001600160a01b038681166004830152848116602483015260448201849052851690630b0d9c0990606401610ccb565b836001600160a01b031663156e29f684610f9f886001600160a01b03166001600160a01b031690565b6040516001600160e01b031960e085901b1681526001600160a01b0390921660048301526024820152604481018590526064015f604051808303815f87803b158015610fe9575f80fd5b505af1158015610ffb573d5f803e3d5ffd5b505050505050505050565b6040516390bfb86560e01b8082526001600160a01b03851660048301526001600160e01b031984166024830152608060448301526020601f3d018190040260a0810160648401523d608484015290913d5f60a483013e60048260a4018201526001600160e01b031984168260c4018201528160e40181fd5b5f6001600160a01b03831661109e57506001600160a01b03811631610b31565b6040516370a0823160e01b81526001600160a01b0383811660048301528416906370a0823190602401602060405180830381865afa1580156110e2573d5f803e3d5ffd5b505050506040513d601f19601f82011682018060405250810190611106919061168a565b9050610b31565b5f806001600160a01b0384165f526001600160a01b03831660205260405f209050846001600160a01b031663f135baaa826040518263ffffffff1660e01b815260040161115c91815260200190565b602060405180830381865afa158015611177573d5f803e3d5ffd5b505050506040513d601f19601f8201168201806040525081019061119b919061168a565b95945050505050565b634e487b7160e01b5f52604160045260245ffd5b60405160a0810167ffffffffffffffff811182821017156111db576111db6111a4565b60405290565b604051601f8201601f1916810167ffffffffffffffff8111828210171561120a5761120a6111a4565b604052919050565b6001600160a01b0381168114611226575f80fd5b50565b803561123481611212565b919050565b5f60a08284031215611249575f80fd5b6112516111b8565b9050813561125e81611212565b8152602082013561126e81611212565b6020820152604082013562ffffff81168114611288575f80fd5b60408201526060820135600281900b81146112a1575f80fd5b60608201526112b260808301611229565b608082015292915050565b8015158114611226575f80fd5b5f606082840312156112da575f80fd5b6040516060810167ffffffffffffffff811182821017156112fd576112fd6111a4565b604052905080823561130e816112bd565b815260208381013590820152604083013561132881611212565b6040919091015292915050565b5f60408284031215611345575f80fd5b6040805190810167ffffffffffffffff81118282101715611368576113686111a4565b6040529050808235611379816112bd565b81526020830135611389816112bd565b6020919091015292915050565b5f67ffffffffffffffff8211156113af576113af6111a4565b50601f01601f191660200190565b5f82601f8301126113cc575f80fd5b81356113df6113da82611396565b6111e1565b8181528460208386010111156113f3575f80fd5b816020850160208301375f918101602001919091529392505050565b5f805f806101608587031215611423575f80fd5b61142d8686611239565b935061143c8660a087016112ca565b925061144c866101008701611335565b915061014085013567ffffffffffffffff811115611468575f80fd5b611474878288016113bd565b91505092959194509250565b5f8060208385031215611491575f80fd5b823567ffffffffffffffff8111156114a7575f80fd5b8301601f810185136114b7575f80fd5b803567ffffffffffffffff8111156114cd575f80fd5b8560208284010111156114de575f80fd5b6020919091019590945092505050565b5f81518084528060208401602086015e5f602082860101526020601f19601f83011685010191505092915050565b602081525f61152e60208301846114ee565b9392505050565b602081526001600160a01b0382511660208201525f60208301518051151560408401526020810151151560608401525060408301516115c560808401826001600160a01b0381511682526001600160a01b03602082015116602083015262ffffff6040820151166040830152606081015160020b60608301526001600160a01b0360808201511660808301525050565b506060830151805115156101208401526020810151610140840152604001516001600160a01b031661016083015260808301516101808084015261160d6101a08401826114ee565b949350505050565b5f60208284031215611625575f80fd5b815167ffffffffffffffff81111561163b575f80fd5b8201601f8101841361164b575f80fd5b80516116596113da82611396565b81815285602083850101111561166d575f80fd5b8160208401602083015e5f91810160200191909152949350505050565b5f6020828403121561169a575f80fd5b5051919050565b5f602082840312156116b1575f80fd5b813567ffffffffffffffff8111156116c7575f80fd5b820161018081850312156116d9575f80fd5b6116e16111b8565b81356116ec81611212565b81526116fb8560208401611335565b602082015261170d8560608401611239565b60408201526117208561010084016112ca565b606082015261016082013567ffffffffffffffff81111561173f575f80fd5b61174b868285016113bd565b608083015250949350505050565b6117b181856001600160a01b0381511682526001600160a01b03602082015116602083015262ffffff6040820151166040830152606081015160020b60608301526001600160a01b0360808201511660808301525050565b8251151560a0820152602083015160c082015260408301516001600160a01b031660e08201526101206101008201525f61119b6101208301846114ee565b5f600160ff1b820161180f57634e487b7160e01b5f52601160045260245ffd5b505f0390565b5f60208284031215611825575f80fd5b815161152e816112bd56fea26469706673582212209226fde5bda9e164e3cef99258d39b821d9d3fd06ca9d8335a2b5b8994b5b20664736f6c634300081a003300000000000000000000000005e73354cfdd6745c338b50bcfdfa3aa6fa03408",
        "nonce": "0x6d",
        "chainId": "0x14a34"
      },
      "additionalContracts": [],
      "isFixedGasLimit": false
    },
    {
      "hash": "0xc6869b1f04cc4cb9a6717f44d7f9487ae6179282e57d49587056f16c5cee09ea",
      "transactionType": "CREATE",
      "contractName": "Vault",
      "contractAddress": "0xeb945006ee1c509b0134661fab1d8cce5414286f",
      "function": null,
      "arguments": null,
      "transaction": {
        "from": "0x747481ae081a6e4e28c989eef25bc53def899ea7",
        "gas": "0x10e27c",
        "value": "0x0",
        "input": "0x6080604052348015600e575f80fd5b503380603357604051631e4fbdf760e01b81525f600482015260240160405180910390fd5b603a81603f565b50608e565b5f80546001600160a01b038381166001600160a01b0319831681178455604051919092169283917f8be0079c531659141344cd1fd0a4f28419497f9722a3daafe3b4186f6b6457e09190a35050565b610df88061009b5f395ff3fe608060405234801561000f575f80fd5b50600436106100b9575f3560e01c8063b6a7ebd611610072578063f1e27e1911610058578063f1e27e19146101ef578063f2fde38b14610202578063f34cc3a214610215575f80fd5b8063b6a7ebd6146101c9578063dc2f0167146101dc575f80fd5b80638593c5aa116100a25780638593c5aa1461016a5780638da5cb5b1461017d578063b443cb77146101a1575f80fd5b8063072b0521146100bd578063715018a614610160575b5f80fd5b61011b6100cb3660046109cc565b600260208181525f9384526040808520909152918352912080546001820154918301546001600160a01b03918216938383169362ffffff600160a01b82041693600160b81b90910490910b911685565b604080516001600160a01b039687168152948616602086015262ffffff9093169284019290925260020b606083015291909116608082015260a0015b60405180910390f35b610168610228565b005b610168610178366004610a03565b61023b565b5f546001600160a01b03165b6040516001600160a01b039091168152602001610157565b6101896101af366004610a78565b60016020525f90815260409020546001600160a01b031681565b6101896101d7366004610aa5565b6105be565b6101686101ea366004610aa5565b6105fa565b6101686101fd366004610ac6565b610747565b610168610210366004610b0b565b610852565b610168610223366004610b26565b61088f565b61023061090d565b6102395f610939565b565b61024361090d565b80515f126102985760405162461bcd60e51b815260206004820181905260248201527f416d6f756e74206d7573742062652067726561746572207468616e207a65726f60448201526064015b60405180910390fd5b60208101516001600160a01b03166102f25760405162461bcd60e51b815260206004820152601f60248201527f526563656976657220616464726573732063616e6e6f74206265207a65726f00604482015260640161028f565b60408101516001600160a01b031661034c5760405162461bcd60e51b815260206004820152601c60248201527f4465736972656420746f6b656e2063616e6e6f74206265207a65726f00000000604482015260640161028f565b5f8061037073c20f3fe19a33572d68bcb835504862966c0222608460400151610988565b6001600160a01b038281165f90815260026020818152604080842086861685528252808420815160a08082018452825488168252600180840154808a168488015262ffffff600160a01b82041684870152600160b81b9004870b60608401529290950154871660808201529384208552909152909120549395509193509091168061040e576040516353378eb560e01b815260040160405180910390fd5b5f6001600160a01b03851673c20f3fe19a33572d68bcb835504862966c02226014610439575f61043c565b60015b90505f60405180606001604052808315158152602001885f015161045f90610b78565b81526020018361048d57610488600173fffd8963efd1fc6a506488495d951d5263988d26610b92565b61049d565b61049d6401000276a36001610bb7565b6001600160a01b039081169091526020808a01516040805163fc53bd0f60e01b81528551151560048201528386015160248201528186015185166044820152918416606483015288518416608483015291880151831660a48201529087015162ffffff1660c4820152606087015160020b60e48201526080870151821661010482015291925084169063fc53bd0f90610124015f604051808303815f87803b158015610547575f80fd5b505af1158015610559573d5f803e3d5ffd5b5050505086604001516001600160a01b031687602001516001600160a01b03167ff548beeeb9b7f008329ce8c926bbaeaabf1e75efc445b116bba1ab918c584100895f01516040516105ad91815260200190565b60405180910390a350505050505050565b5f6001816105db6105d436869003860186610bf4565b60a0902090565b815260208101919091526040015f20546001600160a01b031692915050565b61060261090d565b5f6106156105d436849003840184610bf4565b90505f61062860a0840160808501610b0b565b90508161069d5760405162461bcd60e51b815260206004820152602a60248201527f52616d70486f6f6b56313a20506f6f6c4b657920706f6f6c49642063616e6e6f60448201527f7420626520656d70747900000000000000000000000000000000000000000000606482015260840161028f565b6001600160a01b0381166107195760405162461bcd60e51b815260206004820152602760248201527f52616d70486f6f6b56313a20486f6f6b20616464726573732063616e6e6f742060448201527f6265207a65726f00000000000000000000000000000000000000000000000000606482015260840161028f565b5f9182526001602052604090912080546001600160a01b0319166001600160a01b0390921691909117905550565b61074f61090d565b6001600160a01b0383161580159061076f57506001600160a01b03821615155b6107bb5760405162461bcd60e51b815260206004820152601e60248201527f546f6b656e206164647265737365732063616e6e6f74206265207a65726f0000604482015260640161028f565b5f6107ce6105d436849003840184610bf4565b0361081b5760405162461bcd60e51b815260206004820152601c60248201527f506f6f6c4b657920746f49642063616e6e6f7420626520656d70747900000000604482015260640161028f565b6001600160a01b038084165f908152600260209081526040808320938616835292905220819061084b8282610c98565b5050505050565b61085a61090d565b6001600160a01b03811661088357604051631e4fbdf760e01b81525f600482015260240161028f565b61088c81610939565b50565b61089761090d565b60405163095ea7b360e01b81526001600160a01b0383811660048301526024820183905284169063095ea7b3906044016020604051808303815f875af11580156108e3573d5f803e3d5ffd5b505050506040513d601f19601f820116820180604052508101906109079190610da3565b50505050565b5f546001600160a01b031633146102395760405163118cdaa760e01b815233600482015260240161028f565b5f80546001600160a01b038381166001600160a01b0319831681178455604051919092169283917f8be0079c531659141344cd1fd0a4f28419497f9722a3daafe3b4186f6b6457e09190a35050565b5f80826001600160a01b0316846001600160a01b0316106109aa5782846109ad565b83835b915091509250929050565b6001600160a01b038116811461088c575f80fd5b5f80604083850312156109dd575f80fd5b82356109e8816109b8565b915060208301356109f8816109b8565b809150509250929050565b5f6060828403128015610a14575f80fd5b506040516060810167ffffffffffffffff81118282101715610a4457634e487b7160e01b5f52604160045260245ffd5b604052823581526020830135610a59816109b8565b60208201526040830135610a6c816109b8565b60408201529392505050565b5f60208284031215610a88575f80fd5b5035919050565b5f60a08284031215610a9f575f80fd5b50919050565b5f60a08284031215610ab5575f80fd5b610abf8383610a8f565b9392505050565b5f805f60e08486031215610ad8575f80fd5b8335610ae3816109b8565b92506020840135610af3816109b8565b9150610b028560408601610a8f565b90509250925092565b5f60208284031215610b1b575f80fd5b8135610abf816109b8565b5f805f60608486031215610b38575f80fd5b8335610b43816109b8565b92506020840135610b53816109b8565b929592945050506040919091013590565b634e487b7160e01b5f52601160045260245ffd5b5f600160ff1b8201610b8c57610b8c610b64565b505f0390565b6001600160a01b038281168282160390811115610bb157610bb1610b64565b92915050565b6001600160a01b038181168382160190811115610bb157610bb1610b64565b62ffffff8116811461088c575f80fd5b8060020b811461088c575f80fd5b5f60a0828403128015610c05575f80fd5b5060405160a0810167ffffffffffffffff81118282101715610c3557634e487b7160e01b5f52604160045260245ffd5b6040528235610c43816109b8565b81526020830135610c53816109b8565b60208201526040830135610c6681610bd6565b60408201526060830135610c7981610be6565b60608201526080830135610c8c816109b8565b60808201529392505050565b8135610ca3816109b8565b81546001600160a01b0319166001600160a01b03821617825550600181016020830135610ccf816109b8565b81546001600160a01b0319166001600160a01b038216178255506040830135610cf781610bd6565b81546060850135610d0781610be6565b8060b81b79ffffff00000000000000000000000000000000000000000000001676ffffff00000000000000000000000000000000000000008460a01b167fffffffffffff000000000000ffffffffffffffffffffffffffffffffffffffff841617178455505050505f6080830135610d7e816109b8565b6002830180546001600160a01b0319166001600160a01b038316179055905080610907565b5f60208284031215610db3575f80fd5b81518015158114610abf575f80fdfea2646970667358221220dd2159cde87c0fe91f702616ba36477980f78c660f884a4bd24251f3da81f27f64736f6c634300081a0033",
        "nonce": "0x6e",
        "chainId": "0x14a34"
      },
      "additionalContracts": [],
      "isFixedGasLimit": false
    },
    {
      "hash": "0xf2f26190aeaaa6dbdcbd88c199020dc3a1a156f2b892d555548923aeb4bdea61",
      "transactionType": "CREATE2",
      "contractName": "RampHookV1",
      "contractAddress": "0x66a14a7ca6b70624e4648cf3b684bbd30a406088",
      "function": null,
      "arguments": [
        "0x05E73354cFDd6745C338b50BcFDfA3Aa6fA03408",
        "0xeb945006Ee1C509B0134661FaB1d8cCE5414286f"
      ],
      "transaction": {
        "from": "0x747481ae081a6e4e28c989eef25bc53def899ea7",
        "to": "0x4e59b44847b379578588920ca78fbf26c0b4956c",
        "gas": "0x33797e",
        "value": "0x0",
        "input": "0x0000000000000000000000000000000000000000000000000000000000004cea60a060405234801561000f575f80fd5b50604051612c14380380612c1483398101604081905261002e916103b6565b6001600160a01b0382166080523382610046306100fb565b506001600160a01b03811661007557604051631e4fbdf760e01b81525f60048201526024015b60405180910390fd5b61007e816101ee565b506001600160a01b0381166100d55760405162461bcd60e51b815260206004820152601c60248201527f5661756c7420616464726573732063616e6e6f74206265207a65726f00000000604482015260640161006c565b600180546001600160a01b0319166001600160a01b0392909216919091179055506103ee565b6101eb816101e6604080516101c0810182525f80825260208201819052918101829052606081018290526080810182905260a0810182905260c0810182905260e08101829052610100810182905261012081018290526101408101829052610160810182905261018081018290526101a081019190915250604080516101c08101825260018082525f60208301819052928201839052606082018390526080820183905260a0820183905260c0820181905260e0820183905261010082018390526101208201839052610140820152610160810182905261018081018290526101a081019190915290565b61023d565b50565b5f80546001600160a01b038381166001600160a01b0319831681178455604051919092169283917f8be0079c531659141344cd1fd0a4f28419497f9722a3daafe3b4186f6b6457e09190a35050565b80511515612000831615151415806102615750602081015115156110008316151514155b806102785750604081015115156108008316151514155b8061028f5750606081015115156104008316151514155b806102a65750608081015115156102008316151514155b806102bd575060a081015115156101008316151514155b806102d3575060c0810151151560808316151514155b806102e9575060e0810151151560408316151514155b806103005750610100810151151560208316151514155b806103175750610120810151151560108316151514155b8061032e5750610140810151151560088316151514155b806103455750610160810151151560048316151514155b8061035c5750610180810151151560028316151514155b8061037357506101a0810151151560018316151514155b1561038957610389630732d7b560e51b8361038d565b5050565b815f526001600160a01b03811660045260245ffd5b6001600160a01b03811681146101eb575f80fd5b5f80604083850312156103c7575f80fd5b82516103d2816103a2565b60208401519092506103e3816103a2565b809150509250929050565b6080516127906104845f395f8181610423015281816104aa0152818161056501528181610660015281816106c90152818161073c01528181610876015281816108bd015281816109100152818161095a01528181610a0a01528181610a7101528181610b1f01528181610c7901528181610e6301528181611a7201528181611aa801528181611af30152611b3d01526127905ff3fe608060405234801561000f575f80fd5b506004361061016e575f3560e01c80639f063efc116100d2578063dc4c90d311610088578063e916acaf11610063578063e916acaf14610458578063f2fde38b14610478578063fc53bd0f1461048b575f80fd5b8063dc4c90d31461041e578063dc98354e14610445578063e1b4af69146102f6575f80fd5b8063b6a8b0fa116100b8578063b6a8b0fa146102f6578063bccd45c314610309578063c4e833ce1461032a575f80fd5b80639f063efc1461022e578063b47b2fb1146102c0575f80fd5b80636c2bbe7e11610127578063715018a61161010d578063715018a6146102745780638da5cb5b1461027c57806391dd7346146102a0575f80fd5b80636c2bbe7e1461022e5780636fe7e6eb14610261575f80fd5b806341918c8b1161015757806341918c8b146101a3578063575e24b4146101db5780636817031b14610219575f80fd5b806321d0ee7014610172578063259982e514610172575b5f80fd5b610185610180366004611cb9565b61049e565b6040516001600160e01b031990911681526020015b60405180910390f35b6101b66101b1366004611d3d565b6104ff565b604080519384526001600160a01b03909216602084015215159082015260600161019a565b6101ee6101e9366004611d82565b610557565b604080516001600160e01b03199094168452602084019290925262ffffff169082015260600161019a565b61022c610227366004611ddc565b6105c1565b005b61024161023c366004611df7565b610653565b604080516001600160e01b0319909316835260208301919091520161019a565b61018561026f366004611e98565b6106bd565b61022c61071c565b5f546001600160a01b03165b6040516001600160a01b03909116815260200161019a565b6102b36102ae366004611eef565b61072f565b60405161019a9190611f5c565b6102d36102ce366004611f6e565b6109fd565b604080516001600160e01b03199093168352600f9190910b60208301520161019a565b610185610304366004611fef565b610a65565b61031c610317366004612049565b610ac8565b60405190815260200161019a565b610411604080516101c0810182525f80825260208201819052918101829052606081018290526080810182905260a0810182905260c0810182905260e08101829052610100810182905261012081018290526101408101829052610160810182905261018081018290526101a081019190915250604080516101c08101825260018082525f60208301819052928201839052606082018390526080820183905260a0820183905260c0820181905260e0820183905261010082018390526101208201839052610140820152610160810182905261018081018290526101a081019190915290565b60405161019a9190612062565b6102887f000000000000000000000000000000000000000000000000000000000000000081565b610185610453366004612183565b610b13565b61046b6104663660046121ca565b610b70565b60405161019a91906121f8565b61022c610486366004611ddc565b610c0f565b61022c610499366004612261565b610c4c565b5f336001600160a01b037f000000000000000000000000000000000000000000000000000000000000000016146104e85760405163570c108560e11b815260040160405180910390fd5b6104f58686868686610e1f565b9695505050505050565b6002602052825f5260405f20602052815f5260405f208181548110610522575f80fd5b5f918252602090912060029091020180546001909101549093506001600160a01b0381169250600160a01b900460ff16905083565b5f8080336001600160a01b037f000000000000000000000000000000000000000000000000000000000000000016146105a35760405163570c108560e11b815260040160405180910390fd5b6105b08888888888610e39565b925092509250955095509592505050565b6105c9610f33565b6001600160a01b0381166106245760405162461bcd60e51b815260206004820152601c60248201527f5661756c7420616464726573732063616e6e6f74206265207a65726f0000000060448201526064015b60405180910390fd5b6001805473ffffffffffffffffffffffffffffffffffffffff19166001600160a01b0392909216919091179055565b5f80336001600160a01b037f0000000000000000000000000000000000000000000000000000000000000000161461069e5760405163570c108560e11b815260040160405180910390fd5b6106ad89898989898989610f5f565b9150915097509795505050505050565b5f336001600160a01b037f000000000000000000000000000000000000000000000000000000000000000016146107075760405163570c108560e11b815260040160405180910390fd5b61071385858585610e1f565b95945050505050565b610724610f33565b61072d5f610f7a565b565b6060336001600160a01b037f0000000000000000000000000000000000000000000000000000000000000000161461077a5760405163570c108560e11b815260040160405180910390fd5b5f610787838501856123fe565b90505f815f015190505f826020015190505f836040015190505f846060015190505f604051806060016040528086602001516107c290612496565b81526001600160a01b03861660208201525f604090910181905260a08420919250600291815260208082019290925260409081015f90812088511515825283528181208054600181810183559183529184902085516002909302019182559284015192018054918401511515600160a01b027fffffffffffffffffffffff0000000000000000000000000000000000000000009092166001600160a01b0390931692909217179055845115610905576108b87f00000000000000000000000000000000000000000000000000000000000000008487602001516108a490612496565b85516001600160a01b03169291905f610fd6565b6109007f00000000000000000000000000000000000000000000000000000000000000003087602001516108eb90612496565b85516001600160a01b031692919060016112a2565b6109a0565b84516109a0576109557f000000000000000000000000000000000000000000000000000000000000000084876020015161093e90612496565b60208601516001600160a01b03169291905f610fd6565b6109a07f000000000000000000000000000000000000000000000000000000000000000030876020015161098890612496565b60208601516001600160a01b031692919060016112a2565b84516020808701516040805193151584526001600160a01b0388169284019290925282820152517f32390d5447acc889d66164838bc6061f524a7670217497daa2b4548673d38c239181900360600190a150505050505092915050565b5f80336001600160a01b037f00000000000000000000000000000000000000000000000000000000000000001614610a485760405163570c108560e11b815260040160405180910390fd5b610a56888888888888610f5f565b91509150965096945050505050565b5f336001600160a01b037f00000000000000000000000000000000000000000000000000000000000000001614610aaf5760405163570c108560e11b815260040160405180910390fd5b610abd878787878787610e1f565b979650505050505050565b5f80610ad383611374565b90507801000000000000000000000000000000000000000000000000610b026001600160a01b038316806124b0565b610b0c91906124db565b9392505050565b5f336001600160a01b037f00000000000000000000000000000000000000000000000000000000000000001614610b5d5760405163570c108560e11b815260040160405180910390fd5b610b68848484611639565b949350505050565b5f82815260026020908152604080832084151584528252808320805482518185028101850190935280835260609492939192909184015b82821015610c02575f8481526020908190206040805160608101825260028602909201805483526001908101546001600160a01b03811684860152600160a01b900460ff161515918301919091529083529092019101610ba7565b5050505090505b92915050565b610c17610f33565b6001600160a01b038116610c4057604051631e4fbdf760e01b81525f600482015260240161061b565b610c4981610f7a565b50565b6001546001600160a01b03163314610c775760405163012ea06560e41b815260040160405180910390fd5b7f00000000000000000000000000000000000000000000000000000000000000006001600160a01b03166348c89491604051806080016040528086803603810190610cc291906124ee565b81526001600160a01b0386166020820152336040820152606001610ceb36869003860186612508565b9052604051610dac91906020015f610140820190508251805115158352602081015160208401526001600160a01b036040820151166040840152506001600160a01b0360208401511660608301526001600160a01b03604084015116608083015260608301516001600160a01b0381511660a08401526001600160a01b0360208201511660c084015262ffffff60408201511660e0840152606081015160020b6101008401526001600160a01b036080820151166101208401525092915050565b6040516020818303038152906040526040518263ffffffff1660e01b8152600401610dd79190611f5c565b5f604051808303815f875af1158015610df2573d5f803e3d5ffd5b505050506040513d5f823e601f3d908101601f19168201604052610e199190810190612522565b50505050565b5f604051630a85dc2960e01b815260040160405180910390fd5b5f808080610e89610e59610e52368b90038b018b612508565b60a0902090565b6001600160a01b037f0000000000000000000000000000000000000000000000000000000000000000169061168c565b50509150505f610e9882610ac8565b9050610ed96040518060400160405280601d81526020017f4573746f20657320656c2070726563696f206465206c6120706f6f6c3a0000008152508261173e565b5f610ef0610eea60208b0135612496565b8361179c565b9050610f1460405180606001604052806023815260200161273860239139826117a7565b610f1f8a8a83611801565b955095509550505050955095509592505050565b5f546001600160a01b0316331461072d5760405163118cdaa760e01b815233600482015260240161061b565b5f80604051630a85dc2960e01b815260040160405180910390fd5b5f80546001600160a01b0383811673ffffffffffffffffffffffffffffffffffffffff19831681178455604051919092169283917f8be0079c531659141344cd1fd0a4f28419497f9722a3daafe3b4186f6b6457e09190a35050565b801561106b57836001600160a01b031663f5298aca84611005886001600160a01b03166001600160a01b031690565b6040516001600160e01b031960e085901b1681526001600160a01b0390921660048301526024820152604481018590526064015b5f604051808303815f87803b158015611050575f80fd5b505af1158015611062573d5f803e3d5ffd5b5050505061129b565b6001600160a01b0385166110e257836001600160a01b03166311da60b4836040518263ffffffff1660e01b815260040160206040518083038185885af11580156110b7573d5f803e3d5ffd5b50505050506040513d601f19601f820116820180604052508101906110dc91906125b6565b5061129b565b604051632961046560e21b81526001600160a01b03868116600483015285169063a5841194906024015f604051808303815f87803b158015611122575f80fd5b505af1158015611134573d5f803e3d5ffd5b505050506001600160a01b03831630146111c6576040516323b872dd60e01b81526001600160a01b0384811660048301528581166024830152604482018490528616906323b872dd906064016020604051808303815f875af115801561119c573d5f803e3d5ffd5b505050506040513d601f19601f820116820180604052508101906111c091906125cd565b50611238565b60405163a9059cbb60e01b81526001600160a01b0385811660048301526024820184905286169063a9059cbb906044016020604051808303815f875af1158015611212573d5f803e3d5ffd5b505050506040513d601f19601f8201168201806040525081019061123691906125cd565b505b836001600160a01b03166311da60b46040518163ffffffff1660e01b81526004016020604051808303815f875af1158015611275573d5f803e3d5ffd5b505050506040513d601f19601f8201168201806040525081019061129991906125b6565b505b5050505050565b806112e457604051630b0d9c0960e01b81526001600160a01b038681166004830152848116602483015260448201849052851690630b0d9c0990606401611039565b836001600160a01b031663156e29f68461130d886001600160a01b03166001600160a01b031690565b6040516001600160e01b031960e085901b1681526001600160a01b0390921660048301526024820152604481018590526064015f604051808303815f87803b158015611357575f80fd5b505af1158015611369573d5f803e3d5ffd5b505050505050505050565b60020b5f60ff82901d80830118620d89e881111561139d5761139d6345c3193d60e11b846119ef565b7001fffcb933bd6fad37aa2d162d1a59400160018216027001000000000000000000000000000000001860028216156113e6576ffff97272373d413259a46990580e213a0260801c5b6004821615611405576ffff2e50f5f656932ef12357cf3c7fdcc0260801c5b6008821615611424576fffe5caca7e10e4e61c3624eaa0941cd00260801c5b6010821615611443576fffcb9843d60f6159c9db58835c9266440260801c5b6020821615611462576fff973b41fa98c081472e6896dfb254c00260801c5b6040821615611481576fff2ea16466c96a3843ec78b326b528610260801c5b60808216156114a0576ffe5dee046a99a2a811c461f1969c30530260801c5b6101008216156114c0576ffcbe86c7900a88aedcffc83b479aa3a40260801c5b6102008216156114e0576ff987a7253ac413176f2b074cf7815e540260801c5b610400821615611500576ff3392b0822b70005940c7a398e4b70f30260801c5b610800821615611520576fe7159475a2c29b7443b29c7fa6e889d90260801c5b611000821615611540576fd097f3bdfd2022b8845ad8f792aa58250260801c5b612000821615611560576fa9f746462d870fdf8a65dc1f90e061e50260801c5b614000821615611580576f70d869a156d2a1b890bb3df62baf32f70260801c5b6180008216156115a0576f31be135f97d08fd981231505542fcfa60260801c5b620100008216156115c1576f09aa508b5b7a84e1c677de54f3e99bc90260801c5b620200008216156115e1576e5d6af8dedb81196699c329225ee6040260801c5b62040000821615611600576d2216e584f5fa1ea926041bedfe980260801c5b6208000082161561161d576b048a170391f7dc42444e8fa20260801c5b5f841315611629575f19045b63ffffffff0160201c9392505050565b5f61165f61164d60608501604086016125e8565b62ffffff1662ffffff16628000001490565b61167c5760405163424cea8b60e01b815260040160405180910390fd5b50636e4c1aa760e11b9392505050565b5f805f805f61169a866119fe565b604051631e2eaeaf60e01b8152600481018290529091505f906001600160a01b03891690631e2eaeaf90602401602060405180830381865afa1580156116e2573d5f803e3d5ffd5b505050506040513d601f19601f8201168201806040525081019061170691906125b6565b90506001600160a01b03811695508060a01c60020b945062ffffff8160b81c16935062ffffff8160d01c169250505092959194509250565b6117988282604051602401611754929190612601565b60408051601f198184030181529190526020810180517bffffffffffffffffffffffffffffffffffffffffffffffffffffffff16632d839cb360e21b179052611a3a565b5050565b5f610b0c8284612622565b61179882826040516024016117bd929190612601565b60408051601f198184030181529190526020810180517bffffffffffffffffffffffffffffffffffffffffffffffffffffffff16631e53134760e11b179052611a3a565b5f80808060028161181a610e52368b90038b018b612508565b81526020019081526020015f205f875f01602081019061183a9190612651565b15815260208101919091526040015f9081209150859080805b84548110801561186257505f84135b15611997575f85828154811061187a5761187a61266c565b905f5260205f20906002020190508060010160149054906101000a900460ff16156118a55750611987565b5f85825f015413156118b757856118ba565b81545b90505f8b6118cb60208f0135612496565b6118d59084612622565b6118df9190612680565b90506119248e8036038101906118f59190612508565b8e5f0160208101906119079190612651565b8361191186612496565b60018801546001600160a01b0316611a43565b61192e81876126ac565b955061193a82866126d3565b945061194682886126d3565b965081835f015413611983576001830180547fffffffffffffffffffffff00ffffffffffffffffffffffffffffffffffffffff16600160a01b1790555b5050505b611990816126f2565b9050611853565b505f82156119b4576001600160801b038216608084901b176119b6565b5f5b90505f83156119c75761ea606119cb565b6113885b6315d7892d60e21b9d929c5061ffff1662400000179a509098505050505050505050565b815f528060020b60045260245ffd5b6040515f90611a1d908390600690602001918252602082015260400190565b604051602081830303815290604052805190602001209050919050565b610c4981611c1b565b5f8085611a565760208701518751611a5e565b865160208801515b9092509050611aa36001600160a01b0383167f0000000000000000000000000000000000000000000000000000000000000000306001600160801b03891660016112a2565b611aee7f000000000000000000000000000000000000000000000000000000000000000030611ad18761270a565b6001600160a01b0385169291906001600160801b03166001610fd6565b611b387f000000000000000000000000000000000000000000000000000000000000000030611b1c8761270a565b6001600160a01b0386169291906001600160801b03165f6112a2565b611b837f000000000000000000000000000000000000000000000000000000000000000030611b668761270a565b6001600160a01b0386169291906001600160801b03166001610fd6565b6001600160a01b03821663a9059cbb84611b9c8761270a565b6040516001600160e01b031960e085901b1681526001600160a01b0390921660048301526001600160801b031660248201526044016020604051808303815f875af1158015611bed573d5f803e3d5ffd5b505050506040513d601f19601f82011682018060405250810190611c1191906125cd565b5050505050505050565b5f6a636f6e736f6c652e6c6f6790505f80835160208501845afa505050565b6001600160a01b0381168114610c49575f80fd5b5f60a08284031215611c5e575f80fd5b50919050565b5f60808284031215611c5e575f80fd5b5f8083601f840112611c84575f80fd5b50813567ffffffffffffffff811115611c9b575f80fd5b602083019150836020828501011115611cb2575f80fd5b9250929050565b5f805f805f6101608688031215611cce575f80fd5b8535611cd981611c3a565b9450611ce88760208801611c4e565b9350611cf78760c08801611c64565b925061014086013567ffffffffffffffff811115611d13575f80fd5b611d1f88828901611c74565b969995985093965092949392505050565b8015158114610c49575f80fd5b5f805f60608486031215611d4f575f80fd5b833592506020840135611d6181611d30565b929592945050506040919091013590565b5f60608284031215611c5e575f80fd5b5f805f805f6101408688031215611d97575f80fd5b8535611da281611c3a565b9450611db18760208801611c4e565b9350611dc08760c08801611d72565b925061012086013567ffffffffffffffff811115611d13575f80fd5b5f60208284031215611dec575f80fd5b8135610b0c81611c3a565b5f805f805f805f6101a0888a031215611e0e575f80fd5b8735611e1981611c3a565b9650611e288960208a01611c4e565b9550611e378960c08a01611c64565b94506101408801359350610160880135925061018088013567ffffffffffffffff811115611e63575f80fd5b611e6f8a828b01611c74565b989b979a50959850939692959293505050565b8035600281900b8114611e93575f80fd5b919050565b5f805f806101008587031215611eac575f80fd5b8435611eb781611c3a565b9350611ec68660208701611c4e565b925060c0850135611ed681611c3a565b9150611ee460e08601611e82565b905092959194509250565b5f8060208385031215611f00575f80fd5b823567ffffffffffffffff811115611f16575f80fd5b611f2285828601611c74565b90969095509350505050565b5f81518084528060208401602086015e5f602082860101526020601f19601f83011685010191505092915050565b602081525f610b0c6020830184611f2e565b5f805f805f806101608789031215611f84575f80fd5b8635611f8f81611c3a565b9550611f9e8860208901611c4e565b9450611fad8860c08901611d72565b9350610120870135925061014087013567ffffffffffffffff811115611fd1575f80fd5b611fdd89828a01611c74565b979a9699509497509295939492505050565b5f805f805f806101208789031215612005575f80fd5b863561201081611c3a565b955061201f8860208901611c4e565b945060c0870135935060e0870135925061010087013567ffffffffffffffff811115611fd1575f80fd5b5f60208284031215612059575f80fd5b610b0c82611e82565b8151151581526101c081016020830151612080602084018215159052565b506040830151612094604084018215159052565b5060608301516120a8606084018215159052565b5060808301516120bc608084018215159052565b5060a08301516120d060a084018215159052565b5060c08301516120e460c084018215159052565b5060e08301516120f860e084018215159052565b5061010083015161210e61010084018215159052565b5061012083015161212461012084018215159052565b5061014083015161213a61014084018215159052565b5061016083015161215061016084018215159052565b5061018083015161216661018084018215159052565b506101a083015161217c6101a084018215159052565b5092915050565b5f805f60e08486031215612195575f80fd5b83356121a081611c3a565b92506121af8560208601611c4e565b915060c08401356121bf81611c3a565b809150509250925092565b5f80604083850312156121db575f80fd5b8235915060208301356121ed81611d30565b809150509250929050565b602080825282518282018190525f918401906040840190835b81811015612256578351805184526001600160a01b03602082015116602085015260408101511515604085015250606083019250602084019350600181019050612211565b509095945050505050565b5f805f6101208486031215612274575f80fd5b61227e8585611d72565b9250606084013561228e81611c3a565b915061229d8560808601611c4e565b90509250925092565b634e487b7160e01b5f52604160045260245ffd5b604051601f8201601f1916810167ffffffffffffffff811182821017156122e3576122e36122a6565b604052919050565b5f606082840312156122fb575f80fd5b6040516060810167ffffffffffffffff8111828210171561231e5761231e6122a6565b604052905080823561232f81611d30565b815260208381013590820152604083013561234981611c3a565b6040919091015292915050565b803562ffffff81168114611e93575f80fd5b5f60a08284031215612378575f80fd5b60405160a0810167ffffffffffffffff8111828210171561239b5761239b6122a6565b60405290508082356123ac81611c3a565b815260208301356123bc81611c3a565b60208201526123cd60408401612356565b60408201526123de60608401611e82565b606082015260808301356123f181611c3a565b6080919091015292915050565b5f610140828403128015612410575f80fd5b506040516080810167ffffffffffffffff81118282101715612434576124346122a6565b60405261244184846122eb565b8152606083013561245181611c3a565b6020820152608083013561246481611c3a565b60408201526124768460a08501612368565b60608201529392505050565b634e487b7160e01b5f52601160045260245ffd5b5f600160ff1b82016124aa576124aa612482565b505f0390565b8082028115828204841417610c0957610c09612482565b634e487b7160e01b5f52601260045260245ffd5b5f826124e9576124e96124c7565b500490565b5f606082840312156124fe575f80fd5b610b0c83836122eb565b5f60a08284031215612518575f80fd5b610b0c8383612368565b5f60208284031215612532575f80fd5b815167ffffffffffffffff811115612548575f80fd5b8201601f81018413612558575f80fd5b805167ffffffffffffffff811115612572576125726122a6565b612585601f8201601f19166020016122ba565b818152856020838501011115612599575f80fd5b8160208401602083015e5f91810160200191909152949350505050565b5f602082840312156125c6575f80fd5b5051919050565b5f602082840312156125dd575f80fd5b8151610b0c81611d30565b5f602082840312156125f8575f80fd5b610b0c82612356565b604081525f6126136040830185611f2e565b90508260208301529392505050565b8082025f8212600160ff1b8414161561263d5761263d612482565b8181058314821517610c0957610c09612482565b5f60208284031215612661575f80fd5b8135610b0c81611d30565b634e487b7160e01b5f52603260045260245ffd5b5f8261268e5761268e6124c7565b600160ff1b82145f19841416156126a7576126a7612482565b500590565b8082018281125f8312801582168215821617156126cb576126cb612482565b505092915050565b8181035f83128015838313168383128216171561217c5761217c612482565b5f6001820161270357612703612482565b5060010190565b5f81600f0b6f7fffffffffffffffffffffffffffffff19810361272f5761272f612482565b5f039291505056fe4573746f20657320656c2065787065637465644f75747075742064656c20737761703aa264697066735822122032ab2dbde474a71b16cc43a06ff4dd6dca19396b9aa675060f202ee4e253936364736f6c634300081a003300000000000000000000000005e73354cfdd6745c338b50bcfdfa3aa6fa03408000000000000000000000000eb945006ee1c509b0134661fab1d8cce5414286f",
        "nonce": "0x6f",
        "chainId": "0x14a34"
      },
      "additionalContracts": [],
      "isFixedGasLimit": false
    },
    {
      "hash": "0x82aff6dc2496b36027acaf3cb2afeb595f37b76556fd5cc045d4611e74c24fe8",
      "transactionType": "CALL",
      "contractName": null,
      "contractAddress": "0xc20f3fe19a33572d68bcb835504862966c022260",
      "function": "approve(address,uint256)",
      "arguments": [
        "0x000000000022D473030F116dDEE9F6B43aC78BA3",
        "115792089237316195423570985008687907853269984665640564039457584007913129639935"
      ],
      "transaction": {
        "from": "0x747481ae081a6e4e28c989eef25bc53def899ea7",
        "to": "0xc20f3fe19a33572d68bcb835504862966c022260",
        "gas": "0x10a75",
        "value": "0x0",
        "input": "0x095ea7b3000000000000000000000000000000000022d473030f116ddee9f6b43ac78ba3ffffffffffffffffffffffffffffffffffffffffffffffffffffffffffffffff",
        "nonce": "0x70",
        "chainId": "0x14a34"
      },
      "additionalContracts": [],
      "isFixedGasLimit": false
    },
    {
      "hash": "0xa9f4d4abf57f2dfcdd777651f2dbcd03560c06468a60e9468c8aeb0fb2a43a42",
      "transactionType": "CALL",
      "contractName": null,
      "contractAddress": "0x000000000022d473030f116ddee9f6b43ac78ba3",
      "function": "approve(address,address,uint160,uint48)",
      "arguments": [
        "0xC20f3Fe19A33572D68Bcb835504862966C022260",
        "0x4B2C77d209D3405F41a037Ec6c77F7F5b8e2ca80",
        "1461501637330902918203684832716283019655932542975",
        "281474976710655"
      ],
      "transaction": {
        "from": "0x747481ae081a6e4e28c989eef25bc53def899ea7",
        "to": "0x000000000022d473030f116ddee9f6b43ac78ba3",
        "gas": "0x1112d",
        "value": "0x0",
        "input": "0x87517c45000000000000000000000000c20f3fe19a33572d68bcb835504862966c0222600000000000000000000000004b2c77d209d3405f41a037ec6c77f7f5b8e2ca80000000000000000000000000ffffffffffffffffffffffffffffffffffffffff0000000000000000000000000000000000000000000000000000ffffffffffff",
        "nonce": "0x71",
        "chainId": "0x14a34"
      },
      "additionalContracts": [],
      "isFixedGasLimit": false
    },
    {
      "hash": "0x01c0096272da06b565e6d730992794b832997a14f453a21832ef93eab249a61e",
      "transactionType": "CALL",
      "contractName": null,
      "contractAddress": "0xed2d4b60ffb50f7fc6997ea31912604605639fe0",
      "function": "approve(address,uint256)",
      "arguments": [
        "0x000000000022D473030F116dDEE9F6B43aC78BA3",
        "115792089237316195423570985008687907853269984665640564039457584007913129639935"
      ],
      "transaction": {
        "from": "0x747481ae081a6e4e28c989eef25bc53def899ea7",
        "to": "0xed2d4b60ffb50f7fc6997ea31912604605639fe0",
        "gas": "0x10a75",
        "value": "0x0",
        "input": "0x095ea7b3000000000000000000000000000000000022d473030f116ddee9f6b43ac78ba3ffffffffffffffffffffffffffffffffffffffffffffffffffffffffffffffff",
        "nonce": "0x72",
        "chainId": "0x14a34"
      },
      "additionalContracts": [],
      "isFixedGasLimit": false
    },
    {
      "hash": "0x42baa5791ef08b245075961d37e24b049b4541d0a41b2020001a13d7bb2a0580",
      "transactionType": "CALL",
      "contractName": null,
      "contractAddress": "0x000000000022d473030f116ddee9f6b43ac78ba3",
      "function": "approve(address,address,uint160,uint48)",
      "arguments": [
        "0xED2d4B60FFB50F7fc6997ea31912604605639FE0",
        "0x4B2C77d209D3405F41a037Ec6c77F7F5b8e2ca80",
        "1461501637330902918203684832716283019655932542975",
        "281474976710655"
      ],
      "transaction": {
        "from": "0x747481ae081a6e4e28c989eef25bc53def899ea7",
        "to": "0x000000000022d473030f116ddee9f6b43ac78ba3",
        "gas": "0x1112d",
        "value": "0x0",
        "input": "0x87517c45000000000000000000000000ed2d4b60ffb50f7fc6997ea31912604605639fe00000000000000000000000004b2c77d209d3405f41a037ec6c77f7f5b8e2ca80000000000000000000000000ffffffffffffffffffffffffffffffffffffffff0000000000000000000000000000000000000000000000000000ffffffffffff",
        "nonce": "0x73",
        "chainId": "0x14a34"
      },
      "additionalContracts": [],
      "isFixedGasLimit": false
    },
    {
      "hash": "0x9b734cd8332f74d46320725c94edc6732c20bc8d6b37bf66254656c4794d65b6",
      "transactionType": "CALL",
      "contractName": null,
      "contractAddress": "0x4b2c77d209d3405f41a037ec6c77f7f5b8e2ca80",
      "function": "multicall(bytes[])",
      "arguments": [
        "[0xf7020405000000000000000000000000c20f3fe19a33572d68bcb835504862966c022260000000000000000000000000ed2d4b60ffb50f7fc6997ea31912604605639fe00000000000000000000000000000000000000000000000000000000000800000000000000000000000000000000000000000000000000000000000000000000100000000000000000000000066a14a7ca6b70624e4648cf3b684bbd30a4060880000000000000000000000000000000000000000fffc2359a81bfc73e82b189600000000000000000000000000000000000000000000000000000000000000e00000000000000000000000000000000000000000000000000000000000000000, 0xdd46508f0000000000000000000000000000000000000000000000000000000000000040000000000000000000000000000000000000000000000000000000006859845a0000000000000000000000000000000000000000000000000000000000000400000000000000000000000000000000000000000000000000000000000000004000000000000000000000000000000000000000000000000000000000000000800000000000000000000000000000000000000000000000000000000000000004020d14140000000000000000000000000000000000000000000000000000000000000000000000000000000000000000000000000000000000000000000000040000000000000000000000000000000000000000000000000000000000000080000000000000000000000000000000000000000000000000000000000000024000000000000000000000000000000000000000000000000000000000000002a0000000000000000000000000000000000000000000000000000000000000030000000000000000000000000000000000000000000000000000000000000001a0000000000000000000000000c20f3fe19a33572d68bcb835504862966c022260000000000000000000000000ed2d4b60ffb50f7fc6997ea31912604605639fe00000000000000000000000000000000000000000000000000000000000800000000000000000000000000000000000000000000000000000000000000000000100000000000000000000000066a14a7ca6b70624e4648cf3b684bbd30a406088fffffffffffffffffffffffffffffffffffffffffffffffffffffffffffffd1000000000000000000000000000000000000000000000000000000000000002ec00000000000000000000000000000000000000000000000000000277fc31c39f000000000000000000000000000000000000000000000000000000174876e801000000000000000000000000000000000000000000000000000000174876e801000000000000000000000000747481ae081a6e4e28c989eef25bc53def899ea7000000000000000000000000000000000000000000000000000000000000018000000000000000000000000000000000000000000000000000000000000000000000000000000000000000000000000000000000000000000000000000000040000000000000000000000000c20f3fe19a33572d68bcb835504862966c022260000000000000000000000000ed2d4b60ffb50f7fc6997ea31912604605639fe00000000000000000000000000000000000000000000000000000000000000040000000000000000000000000c20f3fe19a33572d68bcb835504862966c022260000000000000000000000000747481ae081a6e4e28c989eef25bc53def899ea70000000000000000000000000000000000000000000000000000000000000040000000000000000000000000ed2d4b60ffb50f7fc6997ea31912604605639fe0000000000000000000000000747481ae081a6e4e28c989eef25bc53def899ea7]"
      ],
      "transaction": {
        "from": "0x747481ae081a6e4e28c989eef25bc53def899ea7",
        "to": "0x4b2c77d209d3405f41a037ec6c77f7f5b8e2ca80",
        "gas": "0xa94a5",
        "value": "0x0",
        "input": "0xac9650d800000000000000000000000000000000000000000000000000000000000000200000000000000000000000000000000000000000000000000000000000000002000000000000000000000000000000000000000000000000000000000000004000000000000000000000000000000000000000000000000000000000000001800000000000000000000000000000000000000000000000000000000000000104f7020405000000000000000000000000c20f3fe19a33572d68bcb835504862966c022260000000000000000000000000ed2d4b60ffb50f7fc6997ea31912604605639fe00000000000000000000000000000000000000000000000000000000000800000000000000000000000000000000000000000000000000000000000000000000100000000000000000000000066a14a7ca6b70624e4648cf3b684bbd30a4060880000000000000000000000000000000000000000fffc2359a81bfc73e82b189600000000000000000000000000000000000000000000000000000000000000e00000000000000000000000000000000000000000000000000000000000000000000000000000000000000000000000000000000000000000000000000000000000000000000000000000000000000000000000000000000000000464dd46508f0000000000000000000000000000000000000000000000000000000000000040000000000000000000000000000000000000000000000000000000006859845a0000000000000000000000000000000000000000000000000000000000000400000000000000000000000000000000000000000000000000000000000000004000000000000000000000000000000000000000000000000000000000000000800000000000000000000000000000000000000000000000000000000000000004020d14140000000000000000000000000000000000000000000000000000000000000000000000000000000000000000000000000000000000000000000000040000000000000000000000000000000000000000000000000000000000000080000000000000000000000000000000000000000000000000000000000000024000000000000000000000000000000000000000000000000000000000000002a0000000000000000000000000000000000000000000000000000000000000030000000000000000000000000000000000000000000000000000000000000001a0000000000000000000000000c20f3fe19a33572d68bcb835504862966c022260000000000000000000000000ed2d4b60ffb50f7fc6997ea31912604605639fe00000000000000000000000000000000000000000000000000000000000800000000000000000000000000000000000000000000000000000000000000000000100000000000000000000000066a14a7ca6b70624e4648cf3b684bbd30a406088fffffffffffffffffffffffffffffffffffffffffffffffffffffffffffffd1000000000000000000000000000000000000000000000000000000000000002ec00000000000000000000000000000000000000000000000000000277fc31c39f000000000000000000000000000000000000000000000000000000174876e801000000000000000000000000000000000000000000000000000000174876e801000000000000000000000000747481ae081a6e4e28c989eef25bc53def899ea7000000000000000000000000000000000000000000000000000000000000018000000000000000000000000000000000000000000000000000000000000000000000000000000000000000000000000000000000000000000000000000000040000000000000000000000000c20f3fe19a33572d68bcb835504862966c022260000000000000000000000000ed2d4b60ffb50f7fc6997ea31912604605639fe00000000000000000000000000000000000000000000000000000000000000040000000000000000000000000c20f3fe19a33572d68bcb835504862966c022260000000000000000000000000747481ae081a6e4e28c989eef25bc53def899ea70000000000000000000000000000000000000000000000000000000000000040000000000000000000000000ed2d4b60ffb50f7fc6997ea31912604605639fe0000000000000000000000000747481ae081a6e4e28c989eef25bc53def899ea700000000000000000000000000000000000000000000000000000000",
        "nonce": "0x74",
        "chainId": "0x14a34"
      },
      "additionalContracts": [],
      "isFixedGasLimit": false
    },
    {
      "hash": "0xf21cabdf66af4ca01c35d42e57918ac70cb72cb6ec0a1b114841c72839242e45",
      "transactionType": "CALL",
      "contractName": "Vault",
      "contractAddress": "0xeb945006ee1c509b0134661fab1d8cce5414286f",
      "function": "setWhiteListRampHook((address,address,uint24,int24,address))",
      "arguments": [
        "(0xC20f3Fe19A33572D68Bcb835504862966C022260, 0xED2d4B60FFB50F7fc6997ea31912604605639FE0, 8388608, 1, 0x66A14a7cA6B70624e4648cf3B684bBD30a406088)"
      ],
      "transaction": {
        "from": "0x747481ae081a6e4e28c989eef25bc53def899ea7",
        "to": "0xeb945006ee1c509b0134661fab1d8cce5414286f",
        "gas": "0x10389",
        "value": "0x0",
        "input": "0xdc2f0167000000000000000000000000c20f3fe19a33572d68bcb835504862966c022260000000000000000000000000ed2d4b60ffb50f7fc6997ea31912604605639fe00000000000000000000000000000000000000000000000000000000000800000000000000000000000000000000000000000000000000000000000000000000100000000000000000000000066a14a7ca6b70624e4648cf3b684bbd30a406088",
        "nonce": "0x75",
        "chainId": "0x14a34"
      },
      "additionalContracts": [],
      "isFixedGasLimit": false
    },
    {
      "hash": "0x0e1daa2b2dd957c23a2267efdd2236a851ae9dc58f165d0ca2ca7087640053d4",
      "transactionType": "CALL",
      "contractName": "Vault",
      "contractAddress": "0xeb945006ee1c509b0134661fab1d8cce5414286f",
      "function": "setPoolKey(address,address,(address,address,uint24,int24,address))",
      "arguments": [
        "0xC20f3Fe19A33572D68Bcb835504862966C022260",
        "0xED2d4B60FFB50F7fc6997ea31912604605639FE0",
        "(0xC20f3Fe19A33572D68Bcb835504862966C022260, 0xED2d4B60FFB50F7fc6997ea31912604605639FE0, 8388608, 1, 0x66A14a7cA6B70624e4648cf3B684bBD30a406088)"
      ],
      "transaction": {
        "from": "0x747481ae081a6e4e28c989eef25bc53def899ea7",
        "to": "0xeb945006ee1c509b0134661fab1d8cce5414286f",
        "gas": "0x21906",
        "value": "0x0",
        "input": "0xf1e27e19000000000000000000000000c20f3fe19a33572d68bcb835504862966c022260000000000000000000000000ed2d4b60ffb50f7fc6997ea31912604605639fe0000000000000000000000000c20f3fe19a33572d68bcb835504862966c022260000000000000000000000000ed2d4b60ffb50f7fc6997ea31912604605639fe00000000000000000000000000000000000000000000000000000000000800000000000000000000000000000000000000000000000000000000000000000000100000000000000000000000066a14a7ca6b70624e4648cf3b684bbd30a406088",
        "nonce": "0x76",
        "chainId": "0x14a34"
      },
      "additionalContracts": [],
      "isFixedGasLimit": false
    },
    {
      "hash": "0x555153c28c7e74ea662fc508126b7b1200d5289da7ed7b7f0737c64fc3a644e9",
      "transactionType": "CALL",
      "contractName": null,
      "contractAddress": "0xc20f3fe19a33572d68bcb835504862966c022260",
      "function": "mint(address,uint256)",
      "arguments": [
        "0xeb945006Ee1C509B0134661FaB1d8cCE5414286f",
        "20000000000"
      ],
      "transaction": {
        "from": "0x747481ae081a6e4e28c989eef25bc53def899ea7",
        "to": "0xc20f3fe19a33572d68bcb835504862966c022260",
        "gas": "0x12527",
        "value": "0x0",
        "input": "0x40c10f19000000000000000000000000eb945006ee1c509b0134661fab1d8cce5414286f00000000000000000000000000000000000000000000000000000004a817c800",
        "nonce": "0x77",
        "chainId": "0x14a34"
      },
      "additionalContracts": [],
      "isFixedGasLimit": false
    },
    {
      "hash": "0xb23b6ec1ea32a463bafcb1ecd234a10ce5c25a145f45125a0c8727181246afc6",
      "transactionType": "CALL",
      "contractName": "Vault",
      "contractAddress": "0xeb945006ee1c509b0134661fab1d8cce5414286f",
      "function": "approveHook(address,address,uint256)",
      "arguments": [
        "0xC20f3Fe19A33572D68Bcb835504862966C022260",
        "0x66A14a7cA6B70624e4648cf3B684bBD30a406088",
        "400000000"
      ],
      "transaction": {
        "from": "0x747481ae081a6e4e28c989eef25bc53def899ea7",
        "to": "0xeb945006ee1c509b0134661fab1d8cce5414286f",
        "gas": "0x11a31",
        "value": "0x0",
        "input": "0xf34cc3a2000000000000000000000000c20f3fe19a33572d68bcb835504862966c02226000000000000000000000000066a14a7ca6b70624e4648cf3b684bbd30a4060880000000000000000000000000000000000000000000000000000000017d78400",
        "nonce": "0x78",
        "chainId": "0x14a34"
      },
      "additionalContracts": [],
      "isFixedGasLimit": false
    },
    {
      "hash": "0x6913cf30f845d38ea6e30281e872dd00f3c2991e36f507fb335ff8fa4b58cceb",
      "transactionType": "CALL",
      "contractName": "Vault",
      "contractAddress": "0xeb945006ee1c509b0134661fab1d8cce5414286f",
      "function": "approveHook(address,address,uint256)",
      "arguments": [
        "0xC20f3Fe19A33572D68Bcb835504862966C022260",
        "0x66A14a7cA6B70624e4648cf3B684bBD30a406088",
        "400000000"
      ],
      "transaction": {
        "from": "0x747481ae081a6e4e28c989eef25bc53def899ea7",
        "to": "0xeb945006ee1c509b0134661fab1d8cce5414286f",
        "gas": "0xb91b",
        "value": "0x0",
        "input": "0xf34cc3a2000000000000000000000000c20f3fe19a33572d68bcb835504862966c02226000000000000000000000000066a14a7ca6b70624e4648cf3b684bbd30a4060880000000000000000000000000000000000000000000000000000000017d78400",
        "nonce": "0x79",
        "chainId": "0x14a34"
      },
      "additionalContracts": [],
      "isFixedGasLimit": false
    },
    {
      "hash": "0x53447c9d1b719a1f2035aa5d252786370b86283ec3b7f124204fa2ced9ef70dc",
      "transactionType": "CALL",
      "contractName": "Vault",
      "contractAddress": "0xeb945006ee1c509b0134661fab1d8cce5414286f",
      "function": "onramp((int256,address,address))",
      "arguments": [
        "(200000000, 0x747481ae081A6e4E28c989eEf25Bc53DeF899Ea7, 0xED2d4B60FFB50F7fc6997ea31912604605639FE0)"
      ],
      "transaction": {
        "from": "0x747481ae081a6e4e28c989eef25bc53def899ea7",
        "to": "0xeb945006ee1c509b0134661fab1d8cce5414286f",
        "gas": "0x3a8f4",
        "value": "0x0",
        "input": "0x8593c5aa000000000000000000000000000000000000000000000000000000000bebc200000000000000000000000000747481ae081a6e4e28c989eef25bc53def899ea7000000000000000000000000ed2d4b60ffb50f7fc6997ea31912604605639fe0",
        "nonce": "0x7a",
        "chainId": "0x14a34"
      },
      "additionalContracts": [],
      "isFixedGasLimit": false
    },
    {
      "hash": "0xa68740ef3154a1bf7e39867666c4d651d7769ad4e2f5e35a0ccf9d5fa2efeff9",
      "transactionType": "CALL",
      "contractName": "Vault",
      "contractAddress": "0xeb945006ee1c509b0134661fab1d8cce5414286f",
      "function": "onramp((int256,address,address))",
      "arguments": [
        "(200000000, 0x747481ae081A6e4E28c989eEf25Bc53DeF899Ea7, 0xED2d4B60FFB50F7fc6997ea31912604605639FE0)"
      ],
      "transaction": {
        "from": "0x747481ae081a6e4e28c989eef25bc53def899ea7",
        "to": "0xeb945006ee1c509b0134661fab1d8cce5414286f",
        "gas": "0x2d687",
        "value": "0x0",
        "input": "0x8593c5aa000000000000000000000000000000000000000000000000000000000bebc200000000000000000000000000747481ae081a6e4e28c989eef25bc53def899ea7000000000000000000000000ed2d4b60ffb50f7fc6997ea31912604605639fe0",
        "nonce": "0x7b",
        "chainId": "0x14a34"
      },
      "additionalContracts": [],
      "isFixedGasLimit": false
    },
    {
      "hash": "0x84f2744b0b4290bd4bb6edd22135c17eb58f306da2c3ce94def1cb4cb3a92341",
      "transactionType": "CALL",
      "contractName": null,
      "contractAddress": "0xc20f3fe19a33572d68bcb835504862966c022260",
      "function": "approve(address,uint256)",
      "arguments": [
        "0xE533Ec97f9395B8219F5CfdE8580c1fAA3909d1A",
        "400000000"
      ],
      "transaction": {
        "from": "0x747481ae081a6e4e28c989eef25bc53def899ea7",
        "to": "0xc20f3fe19a33572d68bcb835504862966c022260",
        "gas": "0x108d0",
        "value": "0x0",
        "input": "0x095ea7b3000000000000000000000000e533ec97f9395b8219f5cfde8580c1faa3909d1a0000000000000000000000000000000000000000000000000000000017d78400",
        "nonce": "0x7c",
        "chainId": "0x14a34"
      },
      "additionalContracts": [],
      "isFixedGasLimit": false
    },
    {
      "hash": "0x2b1999460095ed3f7ec5a0d6696ee05dee0bee1f3114f3d10a77d6f6c12d5d3c",
      "transactionType": "CALL",
      "contractName": "PoolSwapTest",
      "contractAddress": "0xe533ec97f9395b8219f5cfde8580c1faa3909d1a",
      "function": "swap((address,address,uint24,int24,address),(bool,int256,uint160),(bool,bool),bytes)",
      "arguments": [
        "(0xC20f3Fe19A33572D68Bcb835504862966C022260, 0xED2d4B60FFB50F7fc6997ea31912604605639FE0, 8388608, 1, 0x66A14a7cA6B70624e4648cf3B684bBD30a406088)",
        "(true, -400000000, 4295128740)",
        "(false, false)",
        "0x"
      ],
      "transaction": {
        "from": "0x747481ae081a6e4e28c989eef25bc53def899ea7",
        "to": "0xe533ec97f9395b8219f5cfde8580c1faa3909d1a",
        "gas": "0x32fe8",
        "value": "0x0",
        "input": "0x2229d0b4000000000000000000000000c20f3fe19a33572d68bcb835504862966c022260000000000000000000000000ed2d4b60ffb50f7fc6997ea31912604605639fe00000000000000000000000000000000000000000000000000000000000800000000000000000000000000000000000000000000000000000000000000000000100000000000000000000000066a14a7ca6b70624e4648cf3b684bbd30a4060880000000000000000000000000000000000000000000000000000000000000001ffffffffffffffffffffffffffffffffffffffffffffffffffffffffe8287c0000000000000000000000000000000000000000000000000000000001000276a40000000000000000000000000000000000000000000000000000000000000000000000000000000000000000000000000000000000000000000000000000000000000000000000000000000000000000000000000000000000000000000001600000000000000000000000000000000000000000000000000000000000000000",
        "nonce": "0x7d",
        "chainId": "0x14a34"
      },
      "additionalContracts": [],
      "isFixedGasLimit": false
    }
  ],
  "receipts": [
    {
      "status": "0x1",
      "cumulativeGasUsed": "0x59dfcf",
      "logs": [],
      "logsBloom": "0x00000000000000000000000000000000000000000000000000000000000000000000000000000000000000000000000000000000000000000000000000000000000000000000000000000000000000000000000000000000000000000000000000000000000000000000000000000000000000000000000000000000000000000000000000000000000000000000000000000000000000000000000000000000000000000000000000000000000000000000000000000000000000000000000000000000000000000000000000000000000000000000000000000000000000000000000000000000000000000000000000000000000000000000000000000000",
      "type": "0x2",
      "transactionHash": "0xcef4678c7a65de950aee6865d98f1925d1ce48ff9e382553b8a23f3002ca48fc",
      "transactionIndex": "0x12",
      "blockHash": "0x2859434ae9bf98127ac689a4687e3740e1efd0c21f9dce6f14b6ff79db77383d",
      "blockNumber": "0x1a30bbb",
      "gasUsed": "0x15682d",
      "effectiveGasPrice": "0x1b4f",
      "from": "0x747481ae081a6e4e28c989eef25bc53def899ea7",
      "to": null,
      "contractAddress": "0xe533ec97f9395b8219f5cfde8580c1faa3909d1a",
      "l1BaseFeeScalar": "0x44d",
      "l1BlobBaseFee": "0x1",
      "l1BlobBaseFeeScalar": "0xa118b",
      "l1Fee": "0x67d685d4f",
      "l1GasPrice": "0x1ffbe6bd",
      "l1GasUsed": "0xb84b"
    },
    {
      "status": "0x1",
      "cumulativeGasUsed": "0x66dccc",
      "logs": [
        {
          "address": "0xeb945006ee1c509b0134661fab1d8cce5414286f",
          "topics": [
            "0x8be0079c531659141344cd1fd0a4f28419497f9722a3daafe3b4186f6b6457e0",
            "0x0000000000000000000000000000000000000000000000000000000000000000",
            "0x000000000000000000000000747481ae081a6e4e28c989eef25bc53def899ea7"
          ],
          "data": "0x",
          "blockHash": "0x2859434ae9bf98127ac689a4687e3740e1efd0c21f9dce6f14b6ff79db77383d",
          "blockNumber": "0x1a30bbb",
          "blockTimestamp": "0x68597656",
          "transactionHash": "0xc6869b1f04cc4cb9a6717f44d7f9487ae6179282e57d49587056f16c5cee09ea",
          "transactionIndex": "0x13",
          "logIndex": "0x62",
          "removed": false
        }
      ],
      "logsBloom": "0x00000000000000000000000000000000000000000010000000800000000004000000000000000000000000000000000000000000000000000000000000000000000000000000000000000000000000000001000000000000000004000000000000000000020000000000000000000800000000000000000000000000000000400000000000000000000000000000000000010000000000000000000000000000000000000000000000000000000008000000000000000000000000000000000000000000000000000000000000000000000000000000000000000000000020080000000000000000000000000000000000000000000000000000000000000000",
      "type": "0x2",
      "transactionHash": "0xc6869b1f04cc4cb9a6717f44d7f9487ae6179282e57d49587056f16c5cee09ea",
      "transactionIndex": "0x13",
      "blockHash": "0x2859434ae9bf98127ac689a4687e3740e1efd0c21f9dce6f14b6ff79db77383d",
      "blockNumber": "0x1a30bbb",
      "gasUsed": "0xcfcfd",
      "effectiveGasPrice": "0x1b4f",
      "from": "0x747481ae081a6e4e28c989eef25bc53def899ea7",
      "to": null,
      "contractAddress": "0xeb945006ee1c509b0134661fab1d8cce5414286f",
      "l1BaseFeeScalar": "0x44d",
      "l1BlobBaseFee": "0x1",
      "l1BlobBaseFeeScalar": "0xa118b",
      "l1Fee": "0x4cd3796aa",
      "l1GasPrice": "0x1ffbe6bd",
      "l1GasUsed": "0x885a"
    },
    {
      "status": "0x1",
      "cumulativeGasUsed": "0x8a0f0d",
      "logs": [
        {
          "address": "0x66a14a7ca6b70624e4648cf3b684bbd30a406088",
          "topics": [
            "0x8be0079c531659141344cd1fd0a4f28419497f9722a3daafe3b4186f6b6457e0",
            "0x0000000000000000000000000000000000000000000000000000000000000000",
            "0x0000000000000000000000004e59b44847b379578588920ca78fbf26c0b4956c"
          ],
          "data": "0x",
          "blockHash": "0x2859434ae9bf98127ac689a4687e3740e1efd0c21f9dce6f14b6ff79db77383d",
          "blockNumber": "0x1a30bbb",
          "blockTimestamp": "0x68597656",
          "transactionHash": "0xf2f26190aeaaa6dbdcbd88c199020dc3a1a156f2b892d555548923aeb4bdea61",
          "transactionIndex": "0x14",
          "logIndex": "0x63",
          "removed": false
        }
      ],
      "logsBloom": "0x00000000000000000000000000000000000000000000000000800000080000000000000000000000000000000000000000000000000000400000000000000000000000000000000000000000000000000001000000000000000000000000000000000000020000000000000000000800000000000000000000000000000000400000000000000000000000000000000400000000001000000000000000000000000000000001000000000000000000000000000000000000000000000000000000000000000000000000000000000000000000000000000000000000000020000000000000000000000000000000000080000000000000000000000000000000",
      "type": "0x2",
      "transactionHash": "0xf2f26190aeaaa6dbdcbd88c199020dc3a1a156f2b892d555548923aeb4bdea61",
      "transactionIndex": "0x14",
      "blockHash": "0x2859434ae9bf98127ac689a4687e3740e1efd0c21f9dce6f14b6ff79db77383d",
      "blockNumber": "0x1a30bbb",
      "gasUsed": "0x233241",
      "effectiveGasPrice": "0x1b4f",
      "from": "0x747481ae081a6e4e28c989eef25bc53def899ea7",
      "to": "0x4e59b44847b379578588920ca78fbf26c0b4956c",
      "contractAddress": "0x66a14a7ca6b70624e4648cf3b684bbd30a406088",
      "l1BaseFeeScalar": "0x44d",
      "l1BlobBaseFee": "0x1",
      "l1BlobBaseFeeScalar": "0xa118b",
      "l1Fee": "0xcee0c1797",
      "l1GasPrice": "0x1ffbe6bd",
      "l1GasUsed": "0x16f2d"
    },
    {
      "status": "0x1",
      "cumulativeGasUsed": "0x8ac53f",
      "logs": [
        {
          "address": "0xc20f3fe19a33572d68bcb835504862966c022260",
          "topics": [
            "0x8c5be1e5ebec7d5bd14f71427d1e84f3dd0314c0f7b2291e5b200ac8c7c3b925",
            "0x000000000000000000000000747481ae081a6e4e28c989eef25bc53def899ea7",
            "0x000000000000000000000000000000000022d473030f116ddee9f6b43ac78ba3"
          ],
          "data": "0xffffffffffffffffffffffffffffffffffffffffffffffffffffffffffffffff",
          "blockHash": "0x2859434ae9bf98127ac689a4687e3740e1efd0c21f9dce6f14b6ff79db77383d",
          "blockNumber": "0x1a30bbb",
          "blockTimestamp": "0x68597656",
          "transactionHash": "0x82aff6dc2496b36027acaf3cb2afeb595f37b76556fd5cc045d4611e74c24fe8",
          "transactionIndex": "0x15",
          "logIndex": "0x64",
          "removed": false
        }
      ],
      "logsBloom": "0x00000000000000000000000000000000000000000000000008000000000000000000000000000000000000000000000000000000800000000000000000200000000000000000000000004800000000000000000000000800000000000000000000000000000000000000000000000000000000000000000000000000000000000000000000000800000000000000000000010000000000000000000000000000020000000000000000000000000008000000000000000000000000000000000000000000000000000000000000000000000000000000000000000000000000080010000000000000000000000000000000000000000000000000000000000000",
      "type": "0x2",
      "transactionHash": "0x82aff6dc2496b36027acaf3cb2afeb595f37b76556fd5cc045d4611e74c24fe8",
      "transactionIndex": "0x15",
      "blockHash": "0x2859434ae9bf98127ac689a4687e3740e1efd0c21f9dce6f14b6ff79db77383d",
      "blockNumber": "0x1a30bbb",
      "gasUsed": "0xb632",
      "effectiveGasPrice": "0x1b4f",
      "from": "0x747481ae081a6e4e28c989eef25bc53def899ea7",
      "to": "0xc20f3fe19a33572d68bcb835504862966c022260",
      "contractAddress": null,
      "l1BaseFeeScalar": "0x44d",
      "l1BlobBaseFee": "0x1",
      "l1BlobBaseFeeScalar": "0xa118b",
      "l1Fee": "0x3857ced7",
      "l1GasPrice": "0x1ffbe6bd",
      "l1GasUsed": "0x640"
    },
    {
      "status": "0x1",
      "cumulativeGasUsed": "0x8b8009",
      "logs": [
        {
          "address": "0x000000000022d473030f116ddee9f6b43ac78ba3",
          "topics": [
            "0xda9fa7c1b00402c17d0161b249b1ab8bbec047c5a52207b9c112deffd817036b",
            "0x000000000000000000000000747481ae081a6e4e28c989eef25bc53def899ea7",
            "0x000000000000000000000000c20f3fe19a33572d68bcb835504862966c022260",
            "0x0000000000000000000000004b2c77d209d3405f41a037ec6c77f7f5b8e2ca80"
          ],
          "data": "0x000000000000000000000000ffffffffffffffffffffffffffffffffffffffff0000000000000000000000000000000000000000000000000000ffffffffffff",
          "blockHash": "0x2859434ae9bf98127ac689a4687e3740e1efd0c21f9dce6f14b6ff79db77383d",
          "blockNumber": "0x1a30bbb",
          "blockTimestamp": "0x68597656",
          "transactionHash": "0xa9f4d4abf57f2dfcdd777651f2dbcd03560c06468a60e9468c8aeb0fb2a43a42",
          "transactionIndex": "0x16",
          "logIndex": "0x65",
          "removed": false
        }
      ],
      "logsBloom": "0x00010000000000010000000000000000000000000000000000000000000000100000000000000000000000000000000000000000000000000008000010080000000004000000000000000000000000000000000000000000000000000000000000000000000000000000000000000000000000000000000000000000000000000020000000000000000000000000000000010000000000000000000000000000000000000000000000000000000008000000000000000000000000080000000000000000000000000000000000000000000000000000000040000000000000080000000000000000000000000000000000000000000000000000000800000400",
      "type": "0x2",
      "transactionHash": "0xa9f4d4abf57f2dfcdd777651f2dbcd03560c06468a60e9468c8aeb0fb2a43a42",
      "transactionIndex": "0x16",
      "blockHash": "0x2859434ae9bf98127ac689a4687e3740e1efd0c21f9dce6f14b6ff79db77383d",
      "blockNumber": "0x1a30bbb",
      "gasUsed": "0xbaca",
      "effectiveGasPrice": "0x1b4f",
      "from": "0x747481ae081a6e4e28c989eef25bc53def899ea7",
      "to": "0x000000000022d473030f116ddee9f6b43ac78ba3",
      "contractAddress": null,
      "l1BaseFeeScalar": "0x44d",
      "l1BlobBaseFee": "0x1",
      "l1BlobBaseFeeScalar": "0xa118b",
      "l1Fee": "0x3e416d8e",
      "l1GasPrice": "0x1ffbe6bd",
      "l1GasUsed": "0x6e7"
    },
    {
      "status": "0x1",
      "cumulativeGasUsed": "0x9367b9",
      "logs": [
        {
          "address": "0xed2d4b60ffb50f7fc6997ea31912604605639fe0",
          "topics": [
            "0x8c5be1e5ebec7d5bd14f71427d1e84f3dd0314c0f7b2291e5b200ac8c7c3b925",
            "0x000000000000000000000000747481ae081a6e4e28c989eef25bc53def899ea7",
            "0x000000000000000000000000000000000022d473030f116ddee9f6b43ac78ba3"
          ],
          "data": "0xffffffffffffffffffffffffffffffffffffffffffffffffffffffffffffffff",
          "blockHash": "0x2859434ae9bf98127ac689a4687e3740e1efd0c21f9dce6f14b6ff79db77383d",
          "blockNumber": "0x1a30bbb",
          "blockTimestamp": "0x68597656",
          "transactionHash": "0x01c0096272da06b565e6d730992794b832997a14f453a21832ef93eab249a61e",
          "transactionIndex": "0x1a",
          "logIndex": "0x75",
          "removed": false
        }
      ],
      "logsBloom": "0x00000000000000000000000000000000000000000000000000000000000000000000000000000000000000000000000000000000810000000000000000200000000000000000000000004000000000000000000000000800000000000000000000000000000000000000000000000000000000000000000000000000000000000000000000000000000000000000010000010000000000000000000000000000020000000000000000000000000008000000000000000000000000000000000000000000000000000000000000000000000000000000000000000000000000080010000000000000000000000000000000000000000001000000000000000000",
      "type": "0x2",
      "transactionHash": "0x01c0096272da06b565e6d730992794b832997a14f453a21832ef93eab249a61e",
      "transactionIndex": "0x1a",
      "blockHash": "0x2859434ae9bf98127ac689a4687e3740e1efd0c21f9dce6f14b6ff79db77383d",
      "blockNumber": "0x1a30bbb",
      "gasUsed": "0xb632",
      "effectiveGasPrice": "0x1b4f",
      "from": "0x747481ae081a6e4e28c989eef25bc53def899ea7",
      "to": "0xed2d4b60ffb50f7fc6997ea31912604605639fe0",
      "contractAddress": null,
      "l1BaseFeeScalar": "0x44d",
      "l1BlobBaseFee": "0x1",
      "l1BlobBaseFeeScalar": "0xa118b",
      "l1Fee": "0x3857ced7",
      "l1GasPrice": "0x1ffbe6bd",
      "l1GasUsed": "0x640"
    },
    {
      "status": "0x1",
      "cumulativeGasUsed": "0x942283",
      "logs": [
        {
          "address": "0x000000000022d473030f116ddee9f6b43ac78ba3",
          "topics": [
            "0xda9fa7c1b00402c17d0161b249b1ab8bbec047c5a52207b9c112deffd817036b",
            "0x000000000000000000000000747481ae081a6e4e28c989eef25bc53def899ea7",
            "0x000000000000000000000000ed2d4b60ffb50f7fc6997ea31912604605639fe0",
            "0x0000000000000000000000004b2c77d209d3405f41a037ec6c77f7f5b8e2ca80"
          ],
          "data": "0x000000000000000000000000ffffffffffffffffffffffffffffffffffffffff0000000000000000000000000000000000000000000000000000ffffffffffff",
          "blockHash": "0x2859434ae9bf98127ac689a4687e3740e1efd0c21f9dce6f14b6ff79db77383d",
          "blockNumber": "0x1a30bbb",
          "blockTimestamp": "0x68597656",
          "transactionHash": "0x42baa5791ef08b245075961d37e24b049b4541d0a41b2020001a13d7bb2a0580",
          "transactionIndex": "0x1b",
          "logIndex": "0x76",
          "removed": false
        }
      ],
      "logsBloom": "0x00010000000000010000000000000004000000000000000000000000000000000000000000000000000000000000000000000000000000000008000010080000000000000000000000000000000000000000000000000000000000000000000000000000000000000000000000000000000000000000000000000000000000000020000000400000000000000000000000010000000000000000000000000000000000000000000000000000000008000000000000000000000000080000000000000000000000000000000000000002000000000000000040000000000000080000000000000000000000000000000000000000000000000000000000000400",
      "type": "0x2",
      "transactionHash": "0x42baa5791ef08b245075961d37e24b049b4541d0a41b2020001a13d7bb2a0580",
      "transactionIndex": "0x1b",
      "blockHash": "0x2859434ae9bf98127ac689a4687e3740e1efd0c21f9dce6f14b6ff79db77383d",
      "blockNumber": "0x1a30bbb",
      "gasUsed": "0xbaca",
      "effectiveGasPrice": "0x1b4f",
      "from": "0x747481ae081a6e4e28c989eef25bc53def899ea7",
      "to": "0x000000000022d473030f116ddee9f6b43ac78ba3",
      "contractAddress": null,
      "l1BaseFeeScalar": "0x44d",
      "l1BlobBaseFee": "0x1",
      "l1BlobBaseFeeScalar": "0xa118b",
      "l1Fee": "0x3e416d8e",
      "l1GasPrice": "0x1ffbe6bd",
      "l1GasUsed": "0x6e7"
    },
    {
      "status": "0x1",
      "cumulativeGasUsed": "0x9b5e94",
      "logs": [
        {
          "address": "0x05e73354cfdd6745c338b50bcfdfa3aa6fa03408",
          "topics": [
            "0xdd466e674ea557f56295e2d0218a125ea4b4f0f6f3307b95f85e6110838d6438",
            "0x5b26c0e8bcb94e7db8dede6750b39e3b245b055562fa03449e97c981dbac3f0c",
            "0x000000000000000000000000c20f3fe19a33572d68bcb835504862966c022260",
            "0x000000000000000000000000ed2d4b60ffb50f7fc6997ea31912604605639fe0"
          ],
          "data": "0x0000000000000000000000000000000000000000000000000000000000800000000000000000000000000000000000000000000000000000000000000000000100000000000000000000000066a14a7ca6b70624e4648cf3b684bbd30a4060880000000000000000000000000000000000000000fffc2359a81bfc73e82b1896fffffffffffffffffffffffffffffffffffffffffffffffffffffffffffffffe",
          "blockHash": "0x2859434ae9bf98127ac689a4687e3740e1efd0c21f9dce6f14b6ff79db77383d",
          "blockNumber": "0x1a30bbb",
          "blockTimestamp": "0x68597656",
          "transactionHash": "0x9b734cd8332f74d46320725c94edc6732c20bc8d6b37bf66254656c4794d65b6",
          "transactionIndex": "0x1c",
          "logIndex": "0x77",
          "removed": false
        },
        {
          "address": "0x4b2c77d209d3405f41a037ec6c77f7f5b8e2ca80",
          "topics": [
            "0xddf252ad1be2c89b69c2b068fc378daa952ba7f163c4a11628f55a4df523b3ef",
            "0x0000000000000000000000000000000000000000000000000000000000000000",
            "0x000000000000000000000000747481ae081a6e4e28c989eef25bc53def899ea7",
            "0x0000000000000000000000000000000000000000000000000000000000000708"
          ],
          "data": "0x",
          "blockHash": "0x2859434ae9bf98127ac689a4687e3740e1efd0c21f9dce6f14b6ff79db77383d",
          "blockNumber": "0x1a30bbb",
          "blockTimestamp": "0x68597656",
          "transactionHash": "0x9b734cd8332f74d46320725c94edc6732c20bc8d6b37bf66254656c4794d65b6",
          "transactionIndex": "0x1c",
          "logIndex": "0x78",
          "removed": false
        },
        {
          "address": "0x05e73354cfdd6745c338b50bcfdfa3aa6fa03408",
          "topics": [
            "0xf208f4912782fd25c7f114ca3723a2d5dd6f3bcc3ac8db5af63baa85f711d5ec",
            "0x5b26c0e8bcb94e7db8dede6750b39e3b245b055562fa03449e97c981dbac3f0c",
            "0x0000000000000000000000004b2c77d209d3405f41a037ec6c77f7f5b8e2ca80"
          ],
          "data": "0xfffffffffffffffffffffffffffffffffffffffffffffffffffffffffffffd1000000000000000000000000000000000000000000000000000000000000002ec00000000000000000000000000000000000000000000000000000277fc31c39f0000000000000000000000000000000000000000000000000000000000000708",
          "blockHash": "0x2859434ae9bf98127ac689a4687e3740e1efd0c21f9dce6f14b6ff79db77383d",
          "blockNumber": "0x1a30bbb",
          "blockTimestamp": "0x68597656",
          "transactionHash": "0x9b734cd8332f74d46320725c94edc6732c20bc8d6b37bf66254656c4794d65b6",
          "transactionIndex": "0x1c",
          "logIndex": "0x79",
          "removed": false
        },
        {
          "address": "0xc20f3fe19a33572d68bcb835504862966c022260",
          "topics": [
            "0xddf252ad1be2c89b69c2b068fc378daa952ba7f163c4a11628f55a4df523b3ef",
            "0x000000000000000000000000747481ae081a6e4e28c989eef25bc53def899ea7",
            "0x00000000000000000000000005e73354cfdd6745c338b50bcfdfa3aa6fa03408"
          ],
          "data": "0x000000000000000000000000000000000000000000000000000000173c5e1a60",
          "blockHash": "0x2859434ae9bf98127ac689a4687e3740e1efd0c21f9dce6f14b6ff79db77383d",
          "blockNumber": "0x1a30bbb",
          "blockTimestamp": "0x68597656",
          "transactionHash": "0x9b734cd8332f74d46320725c94edc6732c20bc8d6b37bf66254656c4794d65b6",
          "transactionIndex": "0x1c",
          "logIndex": "0x7a",
          "removed": false
        },
        {
          "address": "0xed2d4b60ffb50f7fc6997ea31912604605639fe0",
          "topics": [
            "0xddf252ad1be2c89b69c2b068fc378daa952ba7f163c4a11628f55a4df523b3ef",
            "0x000000000000000000000000747481ae081a6e4e28c989eef25bc53def899ea7",
            "0x00000000000000000000000005e73354cfdd6745c338b50bcfdfa3aa6fa03408"
          ],
          "data": "0x000000000000000000000000000000000000000000000000000000174876e800",
          "blockHash": "0x2859434ae9bf98127ac689a4687e3740e1efd0c21f9dce6f14b6ff79db77383d",
          "blockNumber": "0x1a30bbb",
          "blockTimestamp": "0x68597656",
          "transactionHash": "0x9b734cd8332f74d46320725c94edc6732c20bc8d6b37bf66254656c4794d65b6",
          "transactionIndex": "0x1c",
          "logIndex": "0x7b",
          "removed": false
        }
      ],
      "logsBloom": "0x00000000000000010000000000000004000080000000000008000000000000100100000100000000000000000000000000000000010000000008000010000800000204000010000000000808400000000000000000100000000000008000000000000000020000000000000000000800008000000000000000000010000000000000000005400808000000000000010000010001000000000000000000200000000004000000000000400000000008000000000000000000000000000000000000000002001000000000000000000002000000000000000000000000000020080000000000000000000000000800000804000000000001000000000800000000",
      "type": "0x2",
      "transactionHash": "0x9b734cd8332f74d46320725c94edc6732c20bc8d6b37bf66254656c4794d65b6",
      "transactionIndex": "0x1c",
      "blockHash": "0x2859434ae9bf98127ac689a4687e3740e1efd0c21f9dce6f14b6ff79db77383d",
      "blockNumber": "0x1a30bbb",
      "gasUsed": "0x73c11",
      "effectiveGasPrice": "0x1b4f",
      "from": "0x747481ae081a6e4e28c989eef25bc53def899ea7",
      "to": "0x4b2c77d209d3405f41a037ec6c77f7f5b8e2ca80",
      "contractAddress": null,
      "l1BaseFeeScalar": "0x44d",
      "l1BlobBaseFee": "0x1",
      "l1BlobBaseFeeScalar": "0xa118b",
      "l1Fee": "0xbe73a138",
      "l1GasPrice": "0x1ffbe6bd",
      "l1GasUsed": "0x1520"
    },
    {
      "status": "0x1",
      "cumulativeGasUsed": "0x9c1a7b",
      "logs": [],
      "logsBloom": "0x00000000000000000000000000000000000000000000000000000000000000000000000000000000000000000000000000000000000000000000000000000000000000000000000000000000000000000000000000000000000000000000000000000000000000000000000000000000000000000000000000000000000000000000000000000000000000000000000000000000000000000000000000000000000000000000000000000000000000000000000000000000000000000000000000000000000000000000000000000000000000000000000000000000000000000000000000000000000000000000000000000000000000000000000000000000",
      "type": "0x2",
      "transactionHash": "0xf21cabdf66af4ca01c35d42e57918ac70cb72cb6ec0a1b114841c72839242e45",
      "transactionIndex": "0x1d",
      "blockHash": "0x2859434ae9bf98127ac689a4687e3740e1efd0c21f9dce6f14b6ff79db77383d",
      "blockNumber": "0x1a30bbb",
      "gasUsed": "0xbbe7",
      "effectiveGasPrice": "0x1b4f",
      "from": "0x747481ae081a6e4e28c989eef25bc53def899ea7",
      "to": "0xeb945006ee1c509b0134661fab1d8cce5414286f",
      "contractAddress": null,
      "l1BaseFeeScalar": "0x44d",
      "l1BlobBaseFee": "0x1",
      "l1BlobBaseFeeScalar": "0xa118b",
      "l1Fee": "0x4a09ce8a",
      "l1GasPrice": "0x1ffbe6bd",
      "l1GasUsed": "0x836"
    },
    {
      "status": "0x1",
      "cumulativeGasUsed": "0x9d89ae",
      "logs": [],
      "logsBloom": "0x00000000000000000000000000000000000000000000000000000000000000000000000000000000000000000000000000000000000000000000000000000000000000000000000000000000000000000000000000000000000000000000000000000000000000000000000000000000000000000000000000000000000000000000000000000000000000000000000000000000000000000000000000000000000000000000000000000000000000000000000000000000000000000000000000000000000000000000000000000000000000000000000000000000000000000000000000000000000000000000000000000000000000000000000000000000",
      "type": "0x2",
      "transactionHash": "0x0e1daa2b2dd957c23a2267efdd2236a851ae9dc58f165d0ca2ca7087640053d4",
      "transactionIndex": "0x1e",
      "blockHash": "0x2859434ae9bf98127ac689a4687e3740e1efd0c21f9dce6f14b6ff79db77383d",
      "blockNumber": "0x1a30bbb",
      "gasUsed": "0x16f33",
      "effectiveGasPrice": "0x1b4f",
      "from": "0x747481ae081a6e4e28c989eef25bc53def899ea7",
      "to": "0xeb945006ee1c509b0134661fab1d8cce5414286f",
      "contractAddress": null,
      "l1BaseFeeScalar": "0x44d",
      "l1BlobBaseFee": "0x1",
      "l1BlobBaseFeeScalar": "0xa118b",
      "l1Fee": "0x4cddbcdb",
      "l1GasPrice": "0x1ffbe6bd",
      "l1GasUsed": "0x886"
    },
    {
      "status": "0x1",
      "cumulativeGasUsed": "0xa8e111",
      "logs": [
        {
          "address": "0xc20f3fe19a33572d68bcb835504862966c022260",
          "topics": [
            "0xddf252ad1be2c89b69c2b068fc378daa952ba7f163c4a11628f55a4df523b3ef",
            "0x0000000000000000000000000000000000000000000000000000000000000000",
            "0x000000000000000000000000eb945006ee1c509b0134661fab1d8cce5414286f"
          ],
          "data": "0x00000000000000000000000000000000000000000000000000000004a817c800",
          "blockHash": "0x2859434ae9bf98127ac689a4687e3740e1efd0c21f9dce6f14b6ff79db77383d",
          "blockNumber": "0x1a30bbb",
          "blockTimestamp": "0x68597656",
          "transactionHash": "0x555153c28c7e74ea662fc508126b7b1200d5289da7ed7b7f0737c64fc3a644e9",
          "transactionIndex": "0x21",
          "logIndex": "0x92",
          "removed": false
        }
      ],
      "logsBloom": "0x00000000000000000000000000008000000000000000000008000000000000000000000000000000000000000000000000000000000000000000000000000000000000000000000000000808000000000002000000000000000000000000000000000000020000000000000000000800000000000000000000000010000000000000000000000800000000000000000000000000000000000000000000000000000000000000000000000000000000000000000000000000000000000000000000000002000000000000000000010000000000000000000000000000000020000000000000000000000000000000000000000000000000000000000000000000",
      "type": "0x2",
      "transactionHash": "0x555153c28c7e74ea662fc508126b7b1200d5289da7ed7b7f0737c64fc3a644e9",
      "transactionIndex": "0x21",
      "blockHash": "0x2859434ae9bf98127ac689a4687e3740e1efd0c21f9dce6f14b6ff79db77383d",
      "blockNumber": "0x1a30bbb",
      "gasUsed": "0xc873",
      "effectiveGasPrice": "0x1b4f",
      "from": "0x747481ae081a6e4e28c989eef25bc53def899ea7",
      "to": "0xc20f3fe19a33572d68bcb835504862966c022260",
      "contractAddress": null,
      "l1BaseFeeScalar": "0x44d",
      "l1BlobBaseFee": "0x1",
      "l1BlobBaseFeeScalar": "0xa118b",
      "l1Fee": "0x3857ced7",
      "l1GasPrice": "0x1ffbe6bd",
      "l1GasUsed": "0x640"
    },
    {
      "status": "0x1",
      "cumulativeGasUsed": "0xa9ad5f",
      "logs": [
        {
          "address": "0xc20f3fe19a33572d68bcb835504862966c022260",
          "topics": [
            "0x8c5be1e5ebec7d5bd14f71427d1e84f3dd0314c0f7b2291e5b200ac8c7c3b925",
            "0x000000000000000000000000eb945006ee1c509b0134661fab1d8cce5414286f",
            "0x00000000000000000000000066a14a7ca6b70624e4648cf3b684bbd30a406088"
          ],
          "data": "0x0000000000000000000000000000000000000000000000000000000017d78400",
          "blockHash": "0x2859434ae9bf98127ac689a4687e3740e1efd0c21f9dce6f14b6ff79db77383d",
          "blockNumber": "0x1a30bbb",
          "blockTimestamp": "0x68597656",
          "transactionHash": "0xb23b6ec1ea32a463bafcb1ecd234a10ce5c25a145f45125a0c8727181246afc6",
          "transactionIndex": "0x22",
          "logIndex": "0x93",
          "removed": false
        }
      ],
      "logsBloom": "0x00000000000400000000000000008000000000000000000008000000000000000000000000000000000000000000000000000000000000000000000000210000000000000000000000000800000000000002000000000000000000000000000000000000000000000000000000000000000000000000000000000000000000000000000000000800000000000000000000000002000000000000000000000000020000000000000000000000000000000000000000000000000000000000000000000000000000000000000000010000000000000000000000000000000000000010000000000000000000000000000000000000000000000000000000000000",
      "type": "0x2",
      "transactionHash": "0xb23b6ec1ea32a463bafcb1ecd234a10ce5c25a145f45125a0c8727181246afc6",
      "transactionIndex": "0x22",
      "blockHash": "0x2859434ae9bf98127ac689a4687e3740e1efd0c21f9dce6f14b6ff79db77383d",
      "blockNumber": "0x1a30bbb",
      "gasUsed": "0xcc4e",
      "effectiveGasPrice": "0x1b4f",
      "from": "0x747481ae081a6e4e28c989eef25bc53def899ea7",
      "to": "0xeb945006ee1c509b0134661fab1d8cce5414286f",
      "contractAddress": null,
      "l1BaseFeeScalar": "0x44d",
      "l1BlobBaseFee": "0x1",
      "l1BlobBaseFeeScalar": "0xa118b",
      "l1Fee": "0x3be626f6",
      "l1GasPrice": "0x1ffbe6bd",
      "l1GasUsed": "0x6a4"
    },
    {
      "status": "0x1",
      "cumulativeGasUsed": "0xaa2bf1",
      "logs": [
        {
          "address": "0xc20f3fe19a33572d68bcb835504862966c022260",
          "topics": [
            "0x8c5be1e5ebec7d5bd14f71427d1e84f3dd0314c0f7b2291e5b200ac8c7c3b925",
            "0x000000000000000000000000eb945006ee1c509b0134661fab1d8cce5414286f",
            "0x00000000000000000000000066a14a7ca6b70624e4648cf3b684bbd30a406088"
          ],
          "data": "0x0000000000000000000000000000000000000000000000000000000017d78400",
          "blockHash": "0x2859434ae9bf98127ac689a4687e3740e1efd0c21f9dce6f14b6ff79db77383d",
          "blockNumber": "0x1a30bbb",
          "blockTimestamp": "0x68597656",
          "transactionHash": "0x6913cf30f845d38ea6e30281e872dd00f3c2991e36f507fb335ff8fa4b58cceb",
          "transactionIndex": "0x23",
          "logIndex": "0x94",
          "removed": false
        }
      ],
      "logsBloom": "0x00000000000400000000000000008000000000000000000008000000000000000000000000000000000000000000000000000000000000000000000000210000000000000000000000000800000000000002000000000000000000000000000000000000000000000000000000000000000000000000000000000000000000000000000000000800000000000000000000000002000000000000000000000000020000000000000000000000000000000000000000000000000000000000000000000000000000000000000000010000000000000000000000000000000000000010000000000000000000000000000000000000000000000000000000000000",
      "type": "0x2",
      "transactionHash": "0x6913cf30f845d38ea6e30281e872dd00f3c2991e36f507fb335ff8fa4b58cceb",
      "transactionIndex": "0x23",
      "blockHash": "0x2859434ae9bf98127ac689a4687e3740e1efd0c21f9dce6f14b6ff79db77383d",
      "blockNumber": "0x1a30bbb",
      "gasUsed": "0x7e92",
      "effectiveGasPrice": "0x1b4f",
      "from": "0x747481ae081a6e4e28c989eef25bc53def899ea7",
      "to": "0xeb945006ee1c509b0134661fab1d8cce5414286f",
      "contractAddress": null,
      "l1BaseFeeScalar": "0x44d",
      "l1BlobBaseFee": "0x1",
      "l1BlobBaseFeeScalar": "0xa118b",
      "l1Fee": "0x3b6d7f3d",
      "l1GasPrice": "0x1ffbe6bd",
      "l1GasUsed": "0x697"
    },
    {
      "status": "0x1",
      "cumulativeGasUsed": "0xacd248",
      "logs": [
        {
          "address": "0xc20f3fe19a33572d68bcb835504862966c022260",
          "topics": [
            "0xddf252ad1be2c89b69c2b068fc378daa952ba7f163c4a11628f55a4df523b3ef",
            "0x000000000000000000000000eb945006ee1c509b0134661fab1d8cce5414286f",
            "0x00000000000000000000000005e73354cfdd6745c338b50bcfdfa3aa6fa03408"
          ],
          "data": "0x000000000000000000000000000000000000000000000000000000000bebc200",
          "blockHash": "0x2859434ae9bf98127ac689a4687e3740e1efd0c21f9dce6f14b6ff79db77383d",
          "blockNumber": "0x1a30bbb",
          "blockTimestamp": "0x68597656",
          "transactionHash": "0x53447c9d1b719a1f2035aa5d252786370b86283ec3b7f124204fa2ced9ef70dc",
          "transactionIndex": "0x24",
          "logIndex": "0x95",
          "removed": false
        },
        {
          "address": "0x05e73354cfdd6745c338b50bcfdfa3aa6fa03408",
          "topics": [
            "0x1b3d7edb2e9c0b0e7c525b20aaaef0f5940d2ed71663c7d39266ecafac728859",
            "0x0000000000000000000000000000000000000000000000000000000000000000",
            "0x00000000000000000000000066a14a7ca6b70624e4648cf3b684bbd30a406088",
            "0x000000000000000000000000c20f3fe19a33572d68bcb835504862966c022260"
          ],
          "data": "0x00000000000000000000000066a14a7ca6b70624e4648cf3b684bbd30a406088000000000000000000000000000000000000000000000000000000000bebc200",
          "blockHash": "0x2859434ae9bf98127ac689a4687e3740e1efd0c21f9dce6f14b6ff79db77383d",
          "blockNumber": "0x1a30bbb",
          "blockTimestamp": "0x68597656",
          "transactionHash": "0x53447c9d1b719a1f2035aa5d252786370b86283ec3b7f124204fa2ced9ef70dc",
          "transactionIndex": "0x24",
          "logIndex": "0x96",
          "removed": false
        },
        {
          "address": "0x66a14a7ca6b70624e4648cf3b684bbd30a406088",
          "topics": [
            "0x32390d5447acc889d66164838bc6061f524a7670217497daa2b4548673d38c23"
          ],
          "data": "0x0000000000000000000000000000000000000000000000000000000000000001000000000000000000000000747481ae081a6e4e28c989eef25bc53def899ea7fffffffffffffffffffffffffffffffffffffffffffffffffffffffff4143e00",
          "blockHash": "0x2859434ae9bf98127ac689a4687e3740e1efd0c21f9dce6f14b6ff79db77383d",
          "blockNumber": "0x1a30bbb",
          "blockTimestamp": "0x68597656",
          "transactionHash": "0x53447c9d1b719a1f2035aa5d252786370b86283ec3b7f124204fa2ced9ef70dc",
          "transactionIndex": "0x24",
          "logIndex": "0x97",
          "removed": false
        },
        {
          "address": "0xeb945006ee1c509b0134661fab1d8cce5414286f",
          "topics": [
            "0xf548beeeb9b7f008329ce8c926bbaeaabf1e75efc445b116bba1ab918c584100",
            "0x000000000000000000000000747481ae081a6e4e28c989eef25bc53def899ea7",
            "0x000000000000000000000000ed2d4b60ffb50f7fc6997ea31912604605639fe0"
          ],
          "data": "0x000000000000000000000000000000000000000000000000000000000bebc200",
          "blockHash": "0x2859434ae9bf98127ac689a4687e3740e1efd0c21f9dce6f14b6ff79db77383d",
          "blockNumber": "0x1a30bbb",
          "blockTimestamp": "0x68597656",
          "transactionHash": "0x53447c9d1b719a1f2035aa5d252786370b86283ec3b7f124204fa2ced9ef70dc",
          "transactionIndex": "0x24",
          "logIndex": "0x98",
          "removed": false
        }
      ],
      "logsBloom": "0x00200000000400000000000000008084000000000010000008000000080004100000000100000000000000000200000000000000000000400000000000010000000004000010000000000808000104000002000000100000020004000000000000000000020000000000000000000800000000000000000000000010000000000000000004400800000000000000000400010002000000000000000000000000000000000000000000000000000028000000000000000000000000000000000200000002001000000000000000010002000000000000000000000000000020080000000000000000000000000800000000000000000000000000000804000000",
      "type": "0x2",
      "transactionHash": "0x53447c9d1b719a1f2035aa5d252786370b86283ec3b7f124204fa2ced9ef70dc",
      "transactionIndex": "0x24",
      "blockHash": "0x2859434ae9bf98127ac689a4687e3740e1efd0c21f9dce6f14b6ff79db77383d",
      "blockNumber": "0x1a30bbb",
      "gasUsed": "0x2a657",
      "effectiveGasPrice": "0x1b4f",
      "from": "0x747481ae081a6e4e28c989eef25bc53def899ea7",
      "to": "0xeb945006ee1c509b0134661fab1d8cce5414286f",
      "contractAddress": null,
      "l1BaseFeeScalar": "0x44d",
      "l1BlobBaseFee": "0x1",
      "l1BlobBaseFeeScalar": "0xa118b",
      "l1Fee": "0x3a038815",
      "l1GasPrice": "0x1ffbe6bd",
      "l1GasUsed": "0x66f"
    },
    {
      "status": "0x1",
      "cumulativeGasUsed": "0xaee047",
      "logs": [
        {
          "address": "0xc20f3fe19a33572d68bcb835504862966c022260",
          "topics": [
            "0xddf252ad1be2c89b69c2b068fc378daa952ba7f163c4a11628f55a4df523b3ef",
            "0x000000000000000000000000eb945006ee1c509b0134661fab1d8cce5414286f",
            "0x00000000000000000000000005e73354cfdd6745c338b50bcfdfa3aa6fa03408"
          ],
          "data": "0x000000000000000000000000000000000000000000000000000000000bebc200",
          "blockHash": "0x2859434ae9bf98127ac689a4687e3740e1efd0c21f9dce6f14b6ff79db77383d",
          "blockNumber": "0x1a30bbb",
          "blockTimestamp": "0x68597656",
          "transactionHash": "0xa68740ef3154a1bf7e39867666c4d651d7769ad4e2f5e35a0ccf9d5fa2efeff9",
          "transactionIndex": "0x25",
          "logIndex": "0x99",
          "removed": false
        },
        {
          "address": "0x05e73354cfdd6745c338b50bcfdfa3aa6fa03408",
          "topics": [
            "0x1b3d7edb2e9c0b0e7c525b20aaaef0f5940d2ed71663c7d39266ecafac728859",
            "0x0000000000000000000000000000000000000000000000000000000000000000",
            "0x00000000000000000000000066a14a7ca6b70624e4648cf3b684bbd30a406088",
            "0x000000000000000000000000c20f3fe19a33572d68bcb835504862966c022260"
          ],
          "data": "0x00000000000000000000000066a14a7ca6b70624e4648cf3b684bbd30a406088000000000000000000000000000000000000000000000000000000000bebc200",
          "blockHash": "0x2859434ae9bf98127ac689a4687e3740e1efd0c21f9dce6f14b6ff79db77383d",
          "blockNumber": "0x1a30bbb",
          "blockTimestamp": "0x68597656",
          "transactionHash": "0xa68740ef3154a1bf7e39867666c4d651d7769ad4e2f5e35a0ccf9d5fa2efeff9",
          "transactionIndex": "0x25",
          "logIndex": "0x9a",
          "removed": false
        },
        {
          "address": "0x66a14a7ca6b70624e4648cf3b684bbd30a406088",
          "topics": [
            "0x32390d5447acc889d66164838bc6061f524a7670217497daa2b4548673d38c23"
          ],
          "data": "0x0000000000000000000000000000000000000000000000000000000000000001000000000000000000000000747481ae081a6e4e28c989eef25bc53def899ea7fffffffffffffffffffffffffffffffffffffffffffffffffffffffff4143e00",
          "blockHash": "0x2859434ae9bf98127ac689a4687e3740e1efd0c21f9dce6f14b6ff79db77383d",
          "blockNumber": "0x1a30bbb",
          "blockTimestamp": "0x68597656",
          "transactionHash": "0xa68740ef3154a1bf7e39867666c4d651d7769ad4e2f5e35a0ccf9d5fa2efeff9",
          "transactionIndex": "0x25",
          "logIndex": "0x9b",
          "removed": false
        },
        {
          "address": "0xeb945006ee1c509b0134661fab1d8cce5414286f",
          "topics": [
            "0xf548beeeb9b7f008329ce8c926bbaeaabf1e75efc445b116bba1ab918c584100",
            "0x000000000000000000000000747481ae081a6e4e28c989eef25bc53def899ea7",
            "0x000000000000000000000000ed2d4b60ffb50f7fc6997ea31912604605639fe0"
          ],
          "data": "0x000000000000000000000000000000000000000000000000000000000bebc200",
          "blockHash": "0x2859434ae9bf98127ac689a4687e3740e1efd0c21f9dce6f14b6ff79db77383d",
          "blockNumber": "0x1a30bbb",
          "blockTimestamp": "0x68597656",
          "transactionHash": "0xa68740ef3154a1bf7e39867666c4d651d7769ad4e2f5e35a0ccf9d5fa2efeff9",
          "transactionIndex": "0x25",
          "logIndex": "0x9c",
          "removed": false
        }
      ],
      "logsBloom": "0x00200000000400000000000000008084000000000010000008000000080004100000000100000000000000000200000000000000000000400000000000010000000004000010000000000808000104000002000000100000020004000000000000000000020000000000000000000800000000000000000000000010000000000000000004400800000000000000000400010002000000000000000000000000000000000000000000000000000028000000000000000000000000000000000200000002001000000000000000010002000000000000000000000000000020080000000000000000000000000800000000000000000000000000000804000000",
      "type": "0x2",
      "transactionHash": "0xa68740ef3154a1bf7e39867666c4d651d7769ad4e2f5e35a0ccf9d5fa2efeff9",
      "transactionIndex": "0x25",
      "blockHash": "0x2859434ae9bf98127ac689a4687e3740e1efd0c21f9dce6f14b6ff79db77383d",
      "blockNumber": "0x1a30bbb",
      "gasUsed": "0x20dff",
      "effectiveGasPrice": "0x1b4f",
      "from": "0x747481ae081a6e4e28c989eef25bc53def899ea7",
      "to": "0xeb945006ee1c509b0134661fab1d8cce5414286f",
      "contractAddress": null,
      "l1BaseFeeScalar": "0x44d",
      "l1BlobBaseFee": "0x1",
      "l1BlobBaseFeeScalar": "0xa118b",
      "l1Fee": "0x3a038815",
      "l1GasPrice": "0x1ffbe6bd",
      "l1GasUsed": "0x66f"
    },
    {
      "status": "0x1",
      "cumulativeGasUsed": "0xaf9559",
      "logs": [
        {
          "address": "0xc20f3fe19a33572d68bcb835504862966c022260",
          "topics": [
            "0x8c5be1e5ebec7d5bd14f71427d1e84f3dd0314c0f7b2291e5b200ac8c7c3b925",
            "0x000000000000000000000000747481ae081a6e4e28c989eef25bc53def899ea7",
            "0x000000000000000000000000e533ec97f9395b8219f5cfde8580c1faa3909d1a"
          ],
          "data": "0x0000000000000000000000000000000000000000000000000000000017d78400",
          "blockHash": "0x2859434ae9bf98127ac689a4687e3740e1efd0c21f9dce6f14b6ff79db77383d",
          "blockNumber": "0x1a30bbb",
          "blockTimestamp": "0x68597656",
          "transactionHash": "0x84f2744b0b4290bd4bb6edd22135c17eb58f306da2c3ce94def1cb4cb3a92341",
          "transactionIndex": "0x26",
          "logIndex": "0x9d",
          "removed": false
        }
      ],
      "logsBloom": "0x00000000000002000000000000000000000000000000000008000000000000000000000000000000000000000000000000000000000000000000000000200000000000000000000000000800000000000000000000000000000000000000000000000000000000000000000000000000000000000000000000000000000000000000000000000800000200000000000000010000000000000000000000000000020000000000000000000000000008000000000000000000000000000000000000000000000000000000000000000000000000000000000000000000000000080010000000000000400000000000000000000000000000000000000000000000",
      "type": "0x2",
      "transactionHash": "0x84f2744b0b4290bd4bb6edd22135c17eb58f306da2c3ce94def1cb4cb3a92341",
      "transactionIndex": "0x26",
      "blockHash": "0x2859434ae9bf98127ac689a4687e3740e1efd0c21f9dce6f14b6ff79db77383d",
      "blockNumber": "0x1a30bbb",
      "gasUsed": "0xb512",
      "effectiveGasPrice": "0x1b4f",
      "from": "0x747481ae081a6e4e28c989eef25bc53def899ea7",
      "to": "0xc20f3fe19a33572d68bcb835504862966c022260",
      "contractAddress": null,
      "l1BaseFeeScalar": "0x44d",
      "l1BlobBaseFee": "0x1",
      "l1BlobBaseFeeScalar": "0xa118b",
      "l1Fee": "0x3857ced7",
      "l1GasPrice": "0x1ffbe6bd",
      "l1GasUsed": "0x640"
    },
    {
      "status": "0x1",
      "cumulativeGasUsed": "0x16e382",
      "logs": [
        {
          "address": "0x05e73354cfdd6745c338b50bcfdfa3aa6fa03408",
          "topics": [
            "0x40e9cecb9f5f1f1c5b9c97dec2917b7ee92e57ba5563708daca94dd84ad7112f",
            "0x5b26c0e8bcb94e7db8dede6750b39e3b245b055562fa03449e97c981dbac3f0c",
            "0x000000000000000000000000e533ec97f9395b8219f5cfde8580c1faa3909d1a"
          ],
          "data": "0xffffffffffffffffffffffffffffffffffffffffffffffffffffffffe8287c000000000000000000000000000000000000000000000000000000000017b764630000000000000000000000000000000000000000fff287fe89c0384c5367008b00000000000000000000000000000000000000000000000000000277fc31c39ffffffffffffffffffffffffffffffffffffffffffffffffffffffffffffffffb0000000000000000000000000000000000000000000000000000000000001388",
          "blockHash": "0xe93616d7bb71d9f7b9d491f7662f90da643d3b1193e666e0387f12d6758eacdf",
          "blockNumber": "0x1a30bbc",
          "blockTimestamp": "0x68597658",
          "transactionHash": "0x2b1999460095ed3f7ec5a0d6696ee05dee0bee1f3114f3d10a77d6f6c12d5d3c",
          "transactionIndex": "0xa",
          "logIndex": "0x23",
          "removed": false
        },
        {
          "address": "0xc20f3fe19a33572d68bcb835504862966c022260",
          "topics": [
            "0xddf252ad1be2c89b69c2b068fc378daa952ba7f163c4a11628f55a4df523b3ef",
            "0x000000000000000000000000747481ae081a6e4e28c989eef25bc53def899ea7",
            "0x00000000000000000000000005e73354cfdd6745c338b50bcfdfa3aa6fa03408"
          ],
          "data": "0x0000000000000000000000000000000000000000000000000000000017d78400",
          "blockHash": "0xe93616d7bb71d9f7b9d491f7662f90da643d3b1193e666e0387f12d6758eacdf",
          "blockNumber": "0x1a30bbc",
          "blockTimestamp": "0x68597658",
          "transactionHash": "0x2b1999460095ed3f7ec5a0d6696ee05dee0bee1f3114f3d10a77d6f6c12d5d3c",
          "transactionIndex": "0xa",
          "logIndex": "0x24",
          "removed": false
        },
        {
          "address": "0xed2d4b60ffb50f7fc6997ea31912604605639fe0",
          "topics": [
            "0xddf252ad1be2c89b69c2b068fc378daa952ba7f163c4a11628f55a4df523b3ef",
            "0x00000000000000000000000005e73354cfdd6745c338b50bcfdfa3aa6fa03408",
            "0x000000000000000000000000747481ae081a6e4e28c989eef25bc53def899ea7"
          ],
          "data": "0x0000000000000000000000000000000000000000000000000000000017b76463",
          "blockHash": "0xe93616d7bb71d9f7b9d491f7662f90da643d3b1193e666e0387f12d6758eacdf",
          "blockNumber": "0x1a30bbc",
          "blockTimestamp": "0x68597658",
          "transactionHash": "0x2b1999460095ed3f7ec5a0d6696ee05dee0bee1f3114f3d10a77d6f6c12d5d3c",
          "transactionIndex": "0xa",
          "logIndex": "0x25",
          "removed": false
        }
      ],
      "logsBloom": "0x00000000000002000000000000000000000000000000000008000000000000000000000100000000000000000000000000000000050000000000000000000000000200000010000000000808000000000000000000100020000000000000000000000000000000000000000000000000000000000000000000000010000000000000000004000800000200000000010000010000000000000000000000000000000000000000000000400000000008000000000000000000000000000000000000000002001000000000000000000000000000000000000000000000000000080000000000000000404000000800000800000000000001000000000000000000",
      "type": "0x2",
      "transactionHash": "0x2b1999460095ed3f7ec5a0d6696ee05dee0bee1f3114f3d10a77d6f6c12d5d3c",
      "transactionIndex": "0xa",
      "blockHash": "0xe93616d7bb71d9f7b9d491f7662f90da643d3b1193e666e0387f12d6758eacdf",
      "blockNumber": "0x1a30bbc",
      "gasUsed": "0x24eb4",
      "effectiveGasPrice": "0x1b4f",
      "from": "0x747481ae081a6e4e28c989eef25bc53def899ea7",
      "to": "0xe533ec97f9395b8219f5cfde8580c1faa3909d1a",
      "contractAddress": null,
      "l1BaseFeeScalar": "0x44d",
      "l1BlobBaseFee": "0x1",
      "l1BlobBaseFeeScalar": "0xa118b",
      "l1Fee": "0x5ce40350",
      "l1GasPrice": "0x1ffbe6bd",
      "l1GasUsed": "0xa4d"
    }
  ],
  "libraries": [],
  "pending": [],
  "returns": {},
  "timestamp": 1750693520,
  "chain": 84532,
  "commit": "38a295e"
}