{
  "transactions": [
    {
      "hash": "0x993637ed076337b9a58e805fdd5d312d585e08c40f3aa62709a7baabf532dbab",
      "transactionType": "CREATE",
      "contractName": "MockERC20",
      "contractAddress": "0x51f6983a5f0602b10ca772bfb50eaffa1822cb98",
      "function": null,
      "arguments": [
        "MockUSDT",
        "USDTm",
        "6"
      ],
      "transaction": {
        "from": "0xf39fd6e51aad88f6f4ce6ab8827279cfffb92266",
        "gas": "0xf1500",
        "value": "0x0",
        "input": "0x60e060405234801561000f575f80fd5b50604051610f9d380380610f9d83398101604081905261002e916101a1565b8282825f61003c84826102a2565b50600161004983826102a2565b5060ff81166080524660a05261005d61006c565b60c052506103cd945050505050565b5f7f8b73c3c69bb8fe3d512ecc4cf759cc79239f7b179b0ffacaa9a75d522b39400f5f60405161009c919061035c565b6040805191829003822060208301939093528101919091527fc89efdaa54c0f20c7adf612882df0950f5a951637e0307cdcb4c672f298b8bc660608201524660808201523060a082015260c00160405160208183030381529060405280519060200120905090565b634e487b7160e01b5f52604160045260245ffd5b5f82601f830112610127575f80fd5b81516001600160401b0381111561014057610140610104565b604051601f8201601f19908116603f011681016001600160401b038111828210171561016e5761016e610104565b604052818152838201602001851015610185575f80fd5b8160208501602083015e5f918101602001919091529392505050565b5f805f606084860312156101b3575f80fd5b83516001600160401b038111156101c8575f80fd5b6101d486828701610118565b602086015190945090506001600160401b038111156101f1575f80fd5b6101fd86828701610118565b925050604084015160ff81168114610213575f80fd5b809150509250925092565b600181811c9082168061023257607f821691505b60208210810361025057634e487b7160e01b5f52602260045260245ffd5b50919050565b601f82111561029d57805f5260205f20601f840160051c8101602085101561027b5750805b601f840160051c820191505b8181101561029a575f8155600101610287565b50505b505050565b81516001600160401b038111156102bb576102bb610104565b6102cf816102c9845461021e565b84610256565b6020601f821160018114610301575f83156102ea5750848201515b5f19600385901b1c1916600184901b17845561029a565b5f84815260208120601f198516915b828110156103305787850151825560209485019460019092019101610310565b508482101561034d57868401515f19600387901b60f8161c191681555b50505050600190811b01905550565b5f8083546103698161021e565b6001821680156103805760018114610395576103c2565b60ff19831686528115158202860193506103c2565b865f5260205f205f5b838110156103ba5781548882015260019091019060200161039e565b505081860193505b509195945050505050565b60805160a05160c051610ba66103f75f395f61046f01525f61043a01525f6101590152610ba65ff3fe608060405234801561000f575f80fd5b50600436106100e5575f3560e01c806370a08231116100885780639dc29fac116100635780639dc29fac146101f0578063a9059cbb14610203578063d505accf14610216578063dd62ed3e14610229575f80fd5b806370a08231146101aa5780637ecebe00146101c957806395d89b41146101e8575f80fd5b806323b872dd116100c357806323b872dd14610141578063313ce567146101545780633644e5151461018d57806340c10f1914610195575f80fd5b806306fdde03146100e9578063095ea7b31461010757806318160ddd1461012a575b5f80fd5b6100f1610253565b6040516100fe91906108f2565b60405180910390f35b61011a610115366004610942565b6102de565b60405190151581526020016100fe565b61013360025481565b6040519081526020016100fe565b61011a61014f36600461096a565b61034a565b61017b7f000000000000000000000000000000000000000000000000000000000000000081565b60405160ff90911681526020016100fe565b610133610437565b6101a86101a3366004610942565b610491565b005b6101336101b83660046109a4565b60036020525f908152604090205481565b6101336101d73660046109a4565b60056020525f908152604090205481565b6100f161049f565b6101a86101fe366004610942565b6104ac565b61011a610211366004610942565b6104b6565b6101a86102243660046109c4565b61052c565b610133610237366004610a31565b600460209081525f928352604080842090915290825290205481565b5f805461025f90610a62565b80601f016020809104026020016040519081016040528092919081815260200182805461028b90610a62565b80156102d65780601f106102ad576101008083540402835291602001916102d6565b820191905f5260205f20905b8154815290600101906020018083116102b957829003601f168201915b505050505081565b335f8181526004602090815260408083206001600160a01b038716808552925280832085905551919290917f8c5be1e5ebec7d5bd14f71427d1e84f3dd0314c0f7b2291e5b200ac8c7c3b925906103389086815260200190565b60405180910390a35060015b92915050565b6001600160a01b0383165f9081526004602090815260408083203384529091528120545f1981146103a35761037f8382610aae565b6001600160a01b0386165f9081526004602090815260408083203384529091529020555b6001600160a01b0385165f90815260036020526040812080548592906103ca908490610aae565b90915550506001600160a01b038085165f81815260036020526040908190208054870190555190918716907fddf252ad1be2c89b69c2b068fc378daa952ba7f163c4a11628f55a4df523b3ef906104249087815260200190565b60405180910390a3506001949350505050565b5f7f0000000000000000000000000000000000000000000000000000000000000000461461046c5761046761077e565b905090565b507f000000000000000000000000000000000000000000000000000000000000000090565b61049b8282610816565b5050565b6001805461025f90610a62565b61049b8282610880565b335f908152600360205260408120805483919083906104d6908490610aae565b90915550506001600160a01b0383165f81815260036020526040908190208054850190555133907fddf252ad1be2c89b69c2b068fc378daa952ba7f163c4a11628f55a4df523b3ef906103389086815260200190565b428410156105815760405162461bcd60e51b815260206004820152601760248201527f5045524d49545f444541444c494e455f4558504952454400000000000000000060448201526064015b60405180910390fd5b5f600161058c610437565b6001600160a01b038a81165f8181526005602090815260409182902080546001810190915582517f6e71edae12b1b97f4d1f60370fef10105fa2faae0126114a169c64845d6126c98184015280840194909452938d166060840152608083018c905260a083019390935260c08083018b90528151808403909101815260e08301909152805192019190912061190160f01b6101008301526101028201929092526101228101919091526101420160408051601f1981840301815282825280516020918201205f84529083018083525260ff871690820152606081018590526080810184905260a0016020604051602081039080840390855afa158015610694573d5f803e3d5ffd5b5050604051601f1901519150506001600160a01b038116158015906106ca5750876001600160a01b0316816001600160a01b0316145b6107165760405162461bcd60e51b815260206004820152600e60248201527f494e56414c49445f5349474e45520000000000000000000000000000000000006044820152606401610578565b6001600160a01b039081165f9081526004602090815260408083208a8516808552908352928190208990555188815291928a16917f8c5be1e5ebec7d5bd14f71427d1e84f3dd0314c0f7b2291e5b200ac8c7c3b925910160405180910390a350505050505050565b5f7f8b73c3c69bb8fe3d512ecc4cf759cc79239f7b179b0ffacaa9a75d522b39400f5f6040516107ae9190610ac1565b6040805191829003822060208301939093528101919091527fc89efdaa54c0f20c7adf612882df0950f5a951637e0307cdcb4c672f298b8bc660608201524660808201523060a082015260c00160405160208183030381529060405280519060200120905090565b8060025f8282546108279190610b5d565b90915550506001600160a01b0382165f818152600360209081526040808320805486019055518481527fddf252ad1be2c89b69c2b068fc378daa952ba7f163c4a11628f55a4df523b3ef91015b60405180910390a35050565b6001600160a01b0382165f90815260036020526040812080548392906108a7908490610aae565b90915550506002805482900390556040518181525f906001600160a01b038416907fddf252ad1be2c89b69c2b068fc378daa952ba7f163c4a11628f55a4df523b3ef90602001610874565b602081525f82518060208401528060208501604085015e5f604082850101526040601f19601f83011684010191505092915050565b80356001600160a01b038116811461093d575f80fd5b919050565b5f8060408385031215610953575f80fd5b61095c83610927565b946020939093013593505050565b5f805f6060848603121561097c575f80fd5b61098584610927565b925061099360208501610927565b929592945050506040919091013590565b5f602082840312156109b4575f80fd5b6109bd82610927565b9392505050565b5f805f805f805f60e0888a0312156109da575f80fd5b6109e388610927565b96506109f160208901610927565b95506040880135945060608801359350608088013560ff81168114610a14575f80fd5b9699959850939692959460a0840135945060c09093013592915050565b5f8060408385031215610a42575f80fd5b610a4b83610927565b9150610a5960208401610927565b90509250929050565b600181811c90821680610a7657607f821691505b602082108103610a9457634e487b7160e01b5f52602260045260245ffd5b50919050565b634e487b7160e01b5f52601160045260245ffd5b8181038181111561034457610344610a9a565b5f8083545f8160011c90506001821680610adc57607f821691505b602082108103610afa57634e487b7160e01b5f52602260045260245ffd5b808015610b0e5760018114610b2357610b51565b60ff1984168752821515830287019450610b51565b5f888152602090205f5b84811015610b4957815489820152600190910190602001610b2d565b505082870194505b50929695505050505050565b8082018082111561034457610344610a9a56fea2646970667358221220a05e34ddb48f52d405fa6fda9fc084c0c8c8c01a5ff05e21be9990d65a0fb21664736f6c634300081a0033000000000000000000000000000000000000000000000000000000000000006000000000000000000000000000000000000000000000000000000000000000a0000000000000000000000000000000000000000000000000000000000000000600000000000000000000000000000000000000000000000000000000000000084d6f636b555344540000000000000000000000000000000000000000000000000000000000000000000000000000000000000000000000000000000000000005555344546d000000000000000000000000000000000000000000000000000000",
        "nonce": "0x638",
        "chainId": "0x2105"
      },
      "additionalContracts": [],
      "isFixedGasLimit": false
    },
    {
      "hash": "0xde3d79b43533de4f9cbd0956bb0a049f3f6cc2599a5391395663401fd8bae81a",
      "transactionType": "CALL",
      "contractName": "MockERC20",
      "contractAddress": "0x51f6983a5f0602b10ca772bfb50eaffa1822cb98",
      "function": "mint(address,uint256)",
      "arguments": [
        "0xf39Fd6e51aad88F6F4ce6aB8827279cffFb92266",
        "1000000000000"
      ],
      "transaction": {
        "from": "0xf39fd6e51aad88f6f4ce6ab8827279cfffb92266",
        "to": "0x51f6983a5f0602b10ca772bfb50eaffa1822cb98",
        "gas": "0x18600",
        "value": "0x0",
        "input": "0x40c10f19000000000000000000000000f39fd6e51aad88f6f4ce6ab8827279cfffb92266000000000000000000000000000000000000000000000000000000e8d4a51000",
        "nonce": "0x639",
        "chainId": "0x2105"
      },
      "additionalContracts": [],
      "isFixedGasLimit": false
    },
    {
      "hash": "0x09578f17f8011071a1b809ba4c834dc41c1ea52f717b51b6654792cfe7748d51",
      "transactionType": "CREATE",
      "contractName": "MockERC20",
      "contractAddress": "0xddac1165475ac243ea39915b62cd0092f24ae931",
      "function": null,
      "arguments": [
        "MockUSDC",
        "USDCm",
        "6"
      ],
      "transaction": {
        "from": "0xf39fd6e51aad88f6f4ce6ab8827279cfffb92266",
        "gas": "0xf1500",
        "value": "0x0",
        "input": "0x60e060405234801561000f575f80fd5b50604051610f9d380380610f9d83398101604081905261002e916101a1565b8282825f61003c84826102a2565b50600161004983826102a2565b5060ff81166080524660a05261005d61006c565b60c052506103cd945050505050565b5f7f8b73c3c69bb8fe3d512ecc4cf759cc79239f7b179b0ffacaa9a75d522b39400f5f60405161009c919061035c565b6040805191829003822060208301939093528101919091527fc89efdaa54c0f20c7adf612882df0950f5a951637e0307cdcb4c672f298b8bc660608201524660808201523060a082015260c00160405160208183030381529060405280519060200120905090565b634e487b7160e01b5f52604160045260245ffd5b5f82601f830112610127575f80fd5b81516001600160401b0381111561014057610140610104565b604051601f8201601f19908116603f011681016001600160401b038111828210171561016e5761016e610104565b604052818152838201602001851015610185575f80fd5b8160208501602083015e5f918101602001919091529392505050565b5f805f606084860312156101b3575f80fd5b83516001600160401b038111156101c8575f80fd5b6101d486828701610118565b602086015190945090506001600160401b038111156101f1575f80fd5b6101fd86828701610118565b925050604084015160ff81168114610213575f80fd5b809150509250925092565b600181811c9082168061023257607f821691505b60208210810361025057634e487b7160e01b5f52602260045260245ffd5b50919050565b601f82111561029d57805f5260205f20601f840160051c8101602085101561027b5750805b601f840160051c820191505b8181101561029a575f8155600101610287565b50505b505050565b81516001600160401b038111156102bb576102bb610104565b6102cf816102c9845461021e565b84610256565b6020601f821160018114610301575f83156102ea5750848201515b5f19600385901b1c1916600184901b17845561029a565b5f84815260208120601f198516915b828110156103305787850151825560209485019460019092019101610310565b508482101561034d57868401515f19600387901b60f8161c191681555b50505050600190811b01905550565b5f8083546103698161021e565b6001821680156103805760018114610395576103c2565b60ff19831686528115158202860193506103c2565b865f5260205f205f5b838110156103ba5781548882015260019091019060200161039e565b505081860193505b509195945050505050565b60805160a05160c051610ba66103f75f395f61046f01525f61043a01525f6101590152610ba65ff3fe608060405234801561000f575f80fd5b50600436106100e5575f3560e01c806370a08231116100885780639dc29fac116100635780639dc29fac146101f0578063a9059cbb14610203578063d505accf14610216578063dd62ed3e14610229575f80fd5b806370a08231146101aa5780637ecebe00146101c957806395d89b41146101e8575f80fd5b806323b872dd116100c357806323b872dd14610141578063313ce567146101545780633644e5151461018d57806340c10f1914610195575f80fd5b806306fdde03146100e9578063095ea7b31461010757806318160ddd1461012a575b5f80fd5b6100f1610253565b6040516100fe91906108f2565b60405180910390f35b61011a610115366004610942565b6102de565b60405190151581526020016100fe565b61013360025481565b6040519081526020016100fe565b61011a61014f36600461096a565b61034a565b61017b7f000000000000000000000000000000000000000000000000000000000000000081565b60405160ff90911681526020016100fe565b610133610437565b6101a86101a3366004610942565b610491565b005b6101336101b83660046109a4565b60036020525f908152604090205481565b6101336101d73660046109a4565b60056020525f908152604090205481565b6100f161049f565b6101a86101fe366004610942565b6104ac565b61011a610211366004610942565b6104b6565b6101a86102243660046109c4565b61052c565b610133610237366004610a31565b600460209081525f928352604080842090915290825290205481565b5f805461025f90610a62565b80601f016020809104026020016040519081016040528092919081815260200182805461028b90610a62565b80156102d65780601f106102ad576101008083540402835291602001916102d6565b820191905f5260205f20905b8154815290600101906020018083116102b957829003601f168201915b505050505081565b335f8181526004602090815260408083206001600160a01b038716808552925280832085905551919290917f8c5be1e5ebec7d5bd14f71427d1e84f3dd0314c0f7b2291e5b200ac8c7c3b925906103389086815260200190565b60405180910390a35060015b92915050565b6001600160a01b0383165f9081526004602090815260408083203384529091528120545f1981146103a35761037f8382610aae565b6001600160a01b0386165f9081526004602090815260408083203384529091529020555b6001600160a01b0385165f90815260036020526040812080548592906103ca908490610aae565b90915550506001600160a01b038085165f81815260036020526040908190208054870190555190918716907fddf252ad1be2c89b69c2b068fc378daa952ba7f163c4a11628f55a4df523b3ef906104249087815260200190565b60405180910390a3506001949350505050565b5f7f0000000000000000000000000000000000000000000000000000000000000000461461046c5761046761077e565b905090565b507f000000000000000000000000000000000000000000000000000000000000000090565b61049b8282610816565b5050565b6001805461025f90610a62565b61049b8282610880565b335f908152600360205260408120805483919083906104d6908490610aae565b90915550506001600160a01b0383165f81815260036020526040908190208054850190555133907fddf252ad1be2c89b69c2b068fc378daa952ba7f163c4a11628f55a4df523b3ef906103389086815260200190565b428410156105815760405162461bcd60e51b815260206004820152601760248201527f5045524d49545f444541444c494e455f4558504952454400000000000000000060448201526064015b60405180910390fd5b5f600161058c610437565b6001600160a01b038a81165f8181526005602090815260409182902080546001810190915582517f6e71edae12b1b97f4d1f60370fef10105fa2faae0126114a169c64845d6126c98184015280840194909452938d166060840152608083018c905260a083019390935260c08083018b90528151808403909101815260e08301909152805192019190912061190160f01b6101008301526101028201929092526101228101919091526101420160408051601f1981840301815282825280516020918201205f84529083018083525260ff871690820152606081018590526080810184905260a0016020604051602081039080840390855afa158015610694573d5f803e3d5ffd5b5050604051601f1901519150506001600160a01b038116158015906106ca5750876001600160a01b0316816001600160a01b0316145b6107165760405162461bcd60e51b815260206004820152600e60248201527f494e56414c49445f5349474e45520000000000000000000000000000000000006044820152606401610578565b6001600160a01b039081165f9081526004602090815260408083208a8516808552908352928190208990555188815291928a16917f8c5be1e5ebec7d5bd14f71427d1e84f3dd0314c0f7b2291e5b200ac8c7c3b925910160405180910390a350505050505050565b5f7f8b73c3c69bb8fe3d512ecc4cf759cc79239f7b179b0ffacaa9a75d522b39400f5f6040516107ae9190610ac1565b6040805191829003822060208301939093528101919091527fc89efdaa54c0f20c7adf612882df0950f5a951637e0307cdcb4c672f298b8bc660608201524660808201523060a082015260c00160405160208183030381529060405280519060200120905090565b8060025f8282546108279190610b5d565b90915550506001600160a01b0382165f818152600360209081526040808320805486019055518481527fddf252ad1be2c89b69c2b068fc378daa952ba7f163c4a11628f55a4df523b3ef91015b60405180910390a35050565b6001600160a01b0382165f90815260036020526040812080548392906108a7908490610aae565b90915550506002805482900390556040518181525f906001600160a01b038416907fddf252ad1be2c89b69c2b068fc378daa952ba7f163c4a11628f55a4df523b3ef90602001610874565b602081525f82518060208401528060208501604085015e5f604082850101526040601f19601f83011684010191505092915050565b80356001600160a01b038116811461093d575f80fd5b919050565b5f8060408385031215610953575f80fd5b61095c83610927565b946020939093013593505050565b5f805f6060848603121561097c575f80fd5b61098584610927565b925061099360208501610927565b929592945050506040919091013590565b5f602082840312156109b4575f80fd5b6109bd82610927565b9392505050565b5f805f805f805f60e0888a0312156109da575f80fd5b6109e388610927565b96506109f160208901610927565b95506040880135945060608801359350608088013560ff81168114610a14575f80fd5b9699959850939692959460a0840135945060c09093013592915050565b5f8060408385031215610a42575f80fd5b610a4b83610927565b9150610a5960208401610927565b90509250929050565b600181811c90821680610a7657607f821691505b602082108103610a9457634e487b7160e01b5f52602260045260245ffd5b50919050565b634e487b7160e01b5f52601160045260245ffd5b8181038181111561034457610344610a9a565b5f8083545f8160011c90506001821680610adc57607f821691505b602082108103610afa57634e487b7160e01b5f52602260045260245ffd5b808015610b0e5760018114610b2357610b51565b60ff1984168752821515830287019450610b51565b5f888152602090205f5b84811015610b4957815489820152600190910190602001610b2d565b505082870194505b50929695505050505050565b8082018082111561034457610344610a9a56fea2646970667358221220a05e34ddb48f52d405fa6fda9fc084c0c8c8c01a5ff05e21be9990d65a0fb21664736f6c634300081a0033000000000000000000000000000000000000000000000000000000000000006000000000000000000000000000000000000000000000000000000000000000a0000000000000000000000000000000000000000000000000000000000000000600000000000000000000000000000000000000000000000000000000000000084d6f636b555344430000000000000000000000000000000000000000000000000000000000000000000000000000000000000000000000000000000000000005555344436d000000000000000000000000000000000000000000000000000000",
        "nonce": "0x63a",
        "chainId": "0x2105"
      },
      "additionalContracts": [],
      "isFixedGasLimit": false
    },
    {
      "hash": "0x4b0f85fa8d783fb1262710892ce12f57d06e4c9f637ab9c3bbc53c194de4c659",
      "transactionType": "CALL",
      "contractName": "MockERC20",
      "contractAddress": "0xddac1165475ac243ea39915b62cd0092f24ae931",
      "function": "mint(address,uint256)",
      "arguments": [
        "0xf39Fd6e51aad88F6F4ce6aB8827279cffFb92266",
        "1000000000000"
      ],
      "transaction": {
        "from": "0xf39fd6e51aad88f6f4ce6ab8827279cfffb92266",
        "to": "0xddac1165475ac243ea39915b62cd0092f24ae931",
        "gas": "0x18600",
        "value": "0x0",
        "input": "0x40c10f19000000000000000000000000f39fd6e51aad88f6f4ce6ab8827279cfffb92266000000000000000000000000000000000000000000000000000000e8d4a51000",
        "nonce": "0x63b",
        "chainId": "0x2105"
      },
      "additionalContracts": [],
      "isFixedGasLimit": false
    },
    {
      "hash": "0x3adc88e291ec51cf9ff3f4463f44b78876e69b954ca618cd4b5856f6e8af17aa",
      "transactionType": "CALL",
      "contractName": "MockERC20",
      "contractAddress": "0xddac1165475ac243ea39915b62cd0092f24ae931",
      "function": "approve(address,uint256)",
      "arguments": [
        "0x000000000022D473030F116dDEE9F6B43aC78BA3",
        "115792089237316195423570985008687907853269984665640564039457584007913129639935"
      ],
      "transaction": {
        "from": "0xf39fd6e51aad88f6f4ce6ab8827279cfffb92266",
        "to": "0xddac1165475ac243ea39915b62cd0092f24ae931",
        "gas": "0x1093b",
        "value": "0x0",
        "input": "0x095ea7b3000000000000000000000000000000000022d473030f116ddee9f6b43ac78ba3ffffffffffffffffffffffffffffffffffffffffffffffffffffffffffffffff",
        "nonce": "0x63c",
        "chainId": "0x2105"
      },
      "additionalContracts": [],
      "isFixedGasLimit": false
    },
    {
      "hash": "0xf8cc19489d1775cac6e80aeecb2f81b1426a82d2db9529476f201349e0876ace",
      "transactionType": "CALL",
      "contractName": null,
      "contractAddress": "0x000000000022d473030f116ddee9f6b43ac78ba3",
      "function": "approve(address,address,uint160,uint48)",
      "arguments": [
        "0xddac1165475aC243Ea39915b62Cd0092f24aE931",
        "0x7C5f5A4bBd8fD63184577525326123B519429bDc",
        "1461501637330902918203684832716283019655932542975",
        "281474976710655"
      ],
      "transaction": {
        "from": "0xf39fd6e51aad88f6f4ce6ab8827279cfffb92266",
        "to": "0x000000000022d473030f116ddee9f6b43ac78ba3",
        "gas": "0x101ee",
        "value": "0x0",
        "input": "0x87517c45000000000000000000000000ddac1165475ac243ea39915b62cd0092f24ae9310000000000000000000000007c5f5a4bbd8fd63184577525326123b519429bdc000000000000000000000000ffffffffffffffffffffffffffffffffffffffff0000000000000000000000000000000000000000000000000000ffffffffffff",
        "nonce": "0x63d",
        "chainId": "0x2105"
      },
      "additionalContracts": [],
      "isFixedGasLimit": false
    },
    {
      "hash": "0xf500c1c5a65051ddd8a22de457ccfe310eec3d114b14dfdb368bdedc24cb3aeb",
      "transactionType": "CALL",
      "contractName": "MockERC20",
      "contractAddress": "0x51f6983a5f0602b10ca772bfb50eaffa1822cb98",
      "function": "approve(address,uint256)",
      "arguments": [
        "0x000000000022D473030F116dDEE9F6B43aC78BA3",
        "115792089237316195423570985008687907853269984665640564039457584007913129639935"
      ],
      "transaction": {
        "from": "0xf39fd6e51aad88f6f4ce6ab8827279cfffb92266",
        "to": "0x51f6983a5f0602b10ca772bfb50eaffa1822cb98",
        "gas": "0x1093b",
        "value": "0x0",
        "input": "0x095ea7b3000000000000000000000000000000000022d473030f116ddee9f6b43ac78ba3ffffffffffffffffffffffffffffffffffffffffffffffffffffffffffffffff",
        "nonce": "0x63e",
        "chainId": "0x2105"
      },
      "additionalContracts": [],
      "isFixedGasLimit": false
    },
    {
      "hash": "0x3190473128afe3a2cb3c1907494f5b16f3ad3a31b365fa8ffb03b3f907029b9b",
      "transactionType": "CALL",
      "contractName": null,
      "contractAddress": "0x000000000022d473030f116ddee9f6b43ac78ba3",
      "function": "approve(address,address,uint160,uint48)",
      "arguments": [
        "0x51f6983a5f0602b10cA772BFB50EaFfA1822Cb98",
        "0x7C5f5A4bBd8fD63184577525326123B519429bDc",
        "1461501637330902918203684832716283019655932542975",
        "281474976710655"
      ],
      "transaction": {
        "from": "0xf39fd6e51aad88f6f4ce6ab8827279cfffb92266",
        "to": "0x000000000022d473030f116ddee9f6b43ac78ba3",
        "gas": "0x1112d",
        "value": "0x0",
        "input": "0x87517c4500000000000000000000000051f6983a5f0602b10ca772bfb50eaffa1822cb980000000000000000000000007c5f5a4bbd8fd63184577525326123b519429bdc000000000000000000000000ffffffffffffffffffffffffffffffffffffffff0000000000000000000000000000000000000000000000000000ffffffffffff",
        "nonce": "0x63f",
        "chainId": "0x2105"
      },
      "additionalContracts": [],
      "isFixedGasLimit": false
    },
    {
      "hash": "0x15b8925de56d744f397913bd8a1734f07e7ef2bb72fa2ef4e4c4431b3938e7bf",
      "transactionType": "CALL",
      "contractName": null,
      "contractAddress": "0x7c5f5a4bbd8fd63184577525326123b519429bdc",
      "function": "multicall(bytes[])",
      "arguments": [
        "[0xf702040500000000000000000000000051f6983a5f0602b10ca772bfb50eaffa1822cb98000000000000000000000000ddac1165475ac243ea39915b62cd0092f24ae931000000000000000000000000000000000000000000000000000000000080000000000000000000000000000000000000000000000000000000000000000000010000000000000000000000002b78900ca4e5b16803433ad903256e838eada0880000000000000000000000000000000000000000fffddbdd2aff804ca3c14cc200000000000000000000000000000000000000000000000000000000000000e00000000000000000000000000000000000000000000000000000000000000000, 0xdd46508f00000000000000000000000000000000000000000000000000000000000000400000000000000000000000000000000000000000000000000000000068553fc20000000000000000000000000000000000000000000000000000000000000400000000000000000000000000000000000000000000000000000000000000004000000000000000000000000000000000000000000000000000000000000000800000000000000000000000000000000000000000000000000000000000000004020d14140000000000000000000000000000000000000000000000000000000000000000000000000000000000000000000000000000000000000000000000040000000000000000000000000000000000000000000000000000000000000080000000000000000000000000000000000000000000000000000000000000024000000000000000000000000000000000000000000000000000000000000002a0000000000000000000000000000000000000000000000000000000000000030000000000000000000000000000000000000000000000000000000000000001a000000000000000000000000051f6983a5f0602b10ca772bfb50eaffa1822cb98000000000000000000000000ddac1165475ac243ea39915b62cd0092f24ae931000000000000000000000000000000000000000000000000000000000080000000000000000000000000000000000000000000000000000000000000000000010000000000000000000000002b78900ca4e5b16803433ad903256e838eada088fffffffffffffffffffffffffffffffffffffffffffffffffffffffffffffd1100000000000000000000000000000000000000000000000000000000000002ed0000000000000000000000000000000000000000000000000000000652d818e1000000000000000000000000000000000000000000000000000000003b9aca01000000000000000000000000000000000000000000000000000000003b9aca01000000000000000000000000f39fd6e51aad88f6f4ce6ab8827279cfffb9226600000000000000000000000000000000000000000000000000000000000001800000000000000000000000000000000000000000000000000000000000000000000000000000000000000000000000000000000000000000000000000000004000000000000000000000000051f6983a5f0602b10ca772bfb50eaffa1822cb98000000000000000000000000ddac1165475ac243ea39915b62cd0092f24ae931000000000000000000000000000000000000000000000000000000000000004000000000000000000000000051f6983a5f0602b10ca772bfb50eaffa1822cb98000000000000000000000000f39fd6e51aad88f6f4ce6ab8827279cfffb922660000000000000000000000000000000000000000000000000000000000000040000000000000000000000000ddac1165475ac243ea39915b62cd0092f24ae931000000000000000000000000f39fd6e51aad88f6f4ce6ab8827279cfffb92266]"
      ],
      "transaction": {
        "from": "0xf39fd6e51aad88f6f4ce6ab8827279cfffb92266",
        "to": "0x7c5f5a4bbd8fd63184577525326123b519429bdc",
        "gas": "0xaf0b3",
        "value": "0x0",
        "input": "0xac9650d800000000000000000000000000000000000000000000000000000000000000200000000000000000000000000000000000000000000000000000000000000002000000000000000000000000000000000000000000000000000000000000004000000000000000000000000000000000000000000000000000000000000001800000000000000000000000000000000000000000000000000000000000000104f702040500000000000000000000000051f6983a5f0602b10ca772bfb50eaffa1822cb98000000000000000000000000ddac1165475ac243ea39915b62cd0092f24ae931000000000000000000000000000000000000000000000000000000000080000000000000000000000000000000000000000000000000000000000000000000010000000000000000000000002b78900ca4e5b16803433ad903256e838eada0880000000000000000000000000000000000000000fffddbdd2aff804ca3c14cc200000000000000000000000000000000000000000000000000000000000000e00000000000000000000000000000000000000000000000000000000000000000000000000000000000000000000000000000000000000000000000000000000000000000000000000000000000000000000000000000000000000464dd46508f00000000000000000000000000000000000000000000000000000000000000400000000000000000000000000000000000000000000000000000000068553fc20000000000000000000000000000000000000000000000000000000000000400000000000000000000000000000000000000000000000000000000000000004000000000000000000000000000000000000000000000000000000000000000800000000000000000000000000000000000000000000000000000000000000004020d14140000000000000000000000000000000000000000000000000000000000000000000000000000000000000000000000000000000000000000000000040000000000000000000000000000000000000000000000000000000000000080000000000000000000000000000000000000000000000000000000000000024000000000000000000000000000000000000000000000000000000000000002a0000000000000000000000000000000000000000000000000000000000000030000000000000000000000000000000000000000000000000000000000000001a000000000000000000000000051f6983a5f0602b10ca772bfb50eaffa1822cb98000000000000000000000000ddac1165475ac243ea39915b62cd0092f24ae931000000000000000000000000000000000000000000000000000000000080000000000000000000000000000000000000000000000000000000000000000000010000000000000000000000002b78900ca4e5b16803433ad903256e838eada088fffffffffffffffffffffffffffffffffffffffffffffffffffffffffffffd1100000000000000000000000000000000000000000000000000000000000002ed0000000000000000000000000000000000000000000000000000000652d818e1000000000000000000000000000000000000000000000000000000003b9aca01000000000000000000000000000000000000000000000000000000003b9aca01000000000000000000000000f39fd6e51aad88f6f4ce6ab8827279cfffb9226600000000000000000000000000000000000000000000000000000000000001800000000000000000000000000000000000000000000000000000000000000000000000000000000000000000000000000000000000000000000000000000004000000000000000000000000051f6983a5f0602b10ca772bfb50eaffa1822cb98000000000000000000000000ddac1165475ac243ea39915b62cd0092f24ae931000000000000000000000000000000000000000000000000000000000000004000000000000000000000000051f6983a5f0602b10ca772bfb50eaffa1822cb98000000000000000000000000f39fd6e51aad88f6f4ce6ab8827279cfffb922660000000000000000000000000000000000000000000000000000000000000040000000000000000000000000ddac1165475ac243ea39915b62cd0092f24ae931000000000000000000000000f39fd6e51aad88f6f4ce6ab8827279cfffb9226600000000000000000000000000000000000000000000000000000000",
        "nonce": "0x640",
        "chainId": "0x2105"
      },
      "additionalContracts": [],
      "isFixedGasLimit": false
    }
  ],
  "receipts": [
    {
      "status": "0x1",
      "cumulativeGasUsed": "0xb9a00",
      "logs": [],
      "logsBloom": "0x00000000000000000000000000000000000000000000000000000000000000000000000000000000000000000000000000000000000000000000000000000000000000000000000000000000000000000000000000000000000000000000000000000000000000000000000000000000000000000000000000000000000000000000000000000000000000000000000000000000000000000000000000000000000000000000000000000000000000000000000000000000000000000000000000000000000000000000000000000000000000000000000000000000000000000000000000000000000000000000000000000000000000000000000000000000",
      "type": "0x2",
      "transactionHash": "0x993637ed076337b9a58e805fdd5d312d585e08c40f3aa62709a7baabf532dbab",
      "transactionIndex": "0x0",
      "blockHash": "0x60445b3f2cde5eede3be55a357e90cd48765414e1bdb4ccafdcadd5229d2587b",
      "blockNumber": "0x1e567f8",
      "gasUsed": "0xb9a00",
      "effectiveGasPrice": "0x46a1b",
      "blobGasPrice": "0x1",
      "from": "0xf39fd6e51aad88f6f4ce6ab8827279cfffb92266",
      "to": null,
      "contractAddress": "0x51f6983a5f0602b10ca772bfb50eaffa1822cb98"
    },
    {
      "status": "0x1",
      "cumulativeGasUsed": "0x10aab",
      "logs": [
        {
          "address": "0x51f6983a5f0602b10ca772bfb50eaffa1822cb98",
          "topics": [
            "0xddf252ad1be2c89b69c2b068fc378daa952ba7f163c4a11628f55a4df523b3ef",
            "0x0000000000000000000000000000000000000000000000000000000000000000",
            "0x000000000000000000000000f39fd6e51aad88f6f4ce6ab8827279cfffb92266"
          ],
          "data": "0x000000000000000000000000000000000000000000000000000000e8d4a51000",
          "blockHash": "0xafcf93dd8ada58efe3ab28f97336626c4ce5630a6721e8cb59b1990436bf519d",
          "blockNumber": "0x1e567f9",
          "blockTimestamp": "0x6855349a",
          "transactionHash": "0xde3d79b43533de4f9cbd0956bb0a049f3f6cc2599a5391395663401fd8bae81a",
          "transactionIndex": "0x0",
          "logIndex": "0x0",
          "removed": false
        }
      ],
      "logsBloom": "0x00000000000000000000000000000000000000000000000000000000000000000000000000000000000000000000000000000000000000000000000000000000000000000000000000000008000000000000000000000000000000000000000000000000020000200000000100000800000000000000000000000010020000000000000000000000000000000000000000000000000000000000010000000000000000000000000000000000000000000000000000000000000000000000000000000002000000200000000000000000000000002000000000000000000020000000000000000000000000000000000000000000000000000000000000000000",
      "type": "0x2",
      "transactionHash": "0xde3d79b43533de4f9cbd0956bb0a049f3f6cc2599a5391395663401fd8bae81a",
      "transactionIndex": "0x0",
      "blockHash": "0xafcf93dd8ada58efe3ab28f97336626c4ce5630a6721e8cb59b1990436bf519d",
      "blockNumber": "0x1e567f9",
      "gasUsed": "0x10aab",
      "effectiveGasPrice": "0x3ecc7",
      "blobGasPrice": "0x1",
      "from": "0xf39fd6e51aad88f6f4ce6ab8827279cfffb92266",
      "to": "0x51f6983a5f0602b10ca772bfb50eaffa1822cb98",
      "contractAddress": null
    },
    {
      "status": "0x1",
      "cumulativeGasUsed": "0xb9a00",
      "logs": [],
      "logsBloom": "0x00000000000000000000000000000000000000000000000000000000000000000000000000000000000000000000000000000000000000000000000000000000000000000000000000000000000000000000000000000000000000000000000000000000000000000000000000000000000000000000000000000000000000000000000000000000000000000000000000000000000000000000000000000000000000000000000000000000000000000000000000000000000000000000000000000000000000000000000000000000000000000000000000000000000000000000000000000000000000000000000000000000000000000000000000000000",
      "type": "0x2",
      "transactionHash": "0x09578f17f8011071a1b809ba4c834dc41c1ea52f717b51b6654792cfe7748d51",
      "transactionIndex": "0x0",
      "blockHash": "0xf0698b1f359f0aa6b73de9e5105495d92ea2b80e9d058b4d979982b863a551f2",
      "blockNumber": "0x1e567fa",
      "gasUsed": "0xb9a00",
      "effectiveGasPrice": "0x37dee",
      "blobGasPrice": "0x1",
      "from": "0xf39fd6e51aad88f6f4ce6ab8827279cfffb92266",
      "to": null,
      "contractAddress": "0xddac1165475ac243ea39915b62cd0092f24ae931"
    },
    {
      "status": "0x1",
      "cumulativeGasUsed": "0x10aab",
      "logs": [
        {
          "address": "0xddac1165475ac243ea39915b62cd0092f24ae931",
          "topics": [
            "0xddf252ad1be2c89b69c2b068fc378daa952ba7f163c4a11628f55a4df523b3ef",
            "0x0000000000000000000000000000000000000000000000000000000000000000",
            "0x000000000000000000000000f39fd6e51aad88f6f4ce6ab8827279cfffb92266"
          ],
          "data": "0x000000000000000000000000000000000000000000000000000000e8d4a51000",
          "blockHash": "0xfb4a22f83f119ece38aa565572f6b1146bb8cbb4227a41b58cfbf8b8d27c10b4",
          "blockNumber": "0x1e567fb",
          "blockTimestamp": "0x6855349a",
          "transactionHash": "0x4b0f85fa8d783fb1262710892ce12f57d06e4c9f637ab9c3bbc53c194de4c659",
          "transactionIndex": "0x0",
          "logIndex": "0x0",
          "removed": false
        }
      ],
      "logsBloom": "0x00000000000000000000000000000000000000000000000000000000000000000000000080004000000000000000000000000000000000000000000000000000000000000000000000000008000000000000000000000000000000000000000000000000020000000000000100000800000000000000000000000010000000000000000000000000000000000000000000000000000000000000000000000000000000000000000000000000000000000000000000000000000000000000000000000002000000200000000000000000000000002000000000000000000020000000000000000000000000000000000000000000000040000000000000000000",
      "type": "0x2",
      "transactionHash": "0x4b0f85fa8d783fb1262710892ce12f57d06e4c9f637ab9c3bbc53c194de4c659",
      "transactionIndex": "0x0",
      "blockHash": "0xfb4a22f83f119ece38aa565572f6b1146bb8cbb4227a41b58cfbf8b8d27c10b4",
      "blockNumber": "0x1e567fb",
      "gasUsed": "0x10aab",
      "effectiveGasPrice": "0x31dd3",
      "blobGasPrice": "0x1",
      "from": "0xf39fd6e51aad88f6f4ce6ab8827279cfffb92266",
      "to": "0xddac1165475ac243ea39915b62cd0092f24ae931",
      "contractAddress": null
    },
    {
      "status": "0x1",
      "cumulativeGasUsed": "0xb55b",
      "logs": [
        {
          "address": "0xddac1165475ac243ea39915b62cd0092f24ae931",
          "topics": [
            "0x8c5be1e5ebec7d5bd14f71427d1e84f3dd0314c0f7b2291e5b200ac8c7c3b925",
            "0x000000000000000000000000f39fd6e51aad88f6f4ce6ab8827279cfffb92266",
            "0x000000000000000000000000000000000022d473030f116ddee9f6b43ac78ba3"
          ],
          "data": "0xffffffffffffffffffffffffffffffffffffffffffffffffffffffffffffffff",
          "blockHash": "0xa05639c5dc861360fa07c8499e360e97d02b698a653c515387a2a92e39da7599",
          "blockNumber": "0x1e567fc",
          "blockTimestamp": "0x6855349a",
          "transactionHash": "0x3adc88e291ec51cf9ff3f4463f44b78876e69b954ca618cd4b5856f6e8af17aa",
          "transactionIndex": "0x0",
          "logIndex": "0x0",
          "removed": false
        }
      ],
      "logsBloom": "0x00000000000000000000000000000000000000000000000000000000000000000000000080004000000000000000000000000000800000000000000000200000000000000000000000004000000000000000000000000800000000000000000000000000000000000000000100000000000000000000000000000000000000000000000000000000000000000000000000000000000000000000000000000000020000000000000000000000000000000000000000000000000000000000000000000000000000200000000000000000000000002000000000000000000000000010000000000000000000000000000000000000000040000000000000000000",
      "type": "0x2",
      "transactionHash": "0x3adc88e291ec51cf9ff3f4463f44b78876e69b954ca618cd4b5856f6e8af17aa",
      "transactionIndex": "0x0",
      "blockHash": "0xa05639c5dc861360fa07c8499e360e97d02b698a653c515387a2a92e39da7599",
      "blockNumber": "0x1e567fc",
      "gasUsed": "0xb55b",
      "effectiveGasPrice": "0x2c8d3",
      "blobGasPrice": "0x1",
      "from": "0xf39fd6e51aad88f6f4ce6ab8827279cfffb92266",
      "to": "0xddac1165475ac243ea39915b62cd0092f24ae931",
      "contractAddress": null
    },
    {
      "status": "0x1",
      "cumulativeGasUsed": "0x17019",
      "logs": [
        {
          "address": "0x000000000022d473030f116ddee9f6b43ac78ba3",
          "topics": [
            "0xda9fa7c1b00402c17d0161b249b1ab8bbec047c5a52207b9c112deffd817036b",
            "0x000000000000000000000000f39fd6e51aad88f6f4ce6ab8827279cfffb92266",
            "0x000000000000000000000000ddac1165475ac243ea39915b62cd0092f24ae931",
            "0x0000000000000000000000007c5f5a4bbd8fd63184577525326123b519429bdc"
          ],
          "data": "0x000000000000000000000000ffffffffffffffffffffffffffffffffffffffff0000000000000000000000000000000000000000000000000000ffffffffffff",
          "blockHash": "0xa05639c5dc861360fa07c8499e360e97d02b698a653c515387a2a92e39da7599",
          "blockNumber": "0x1e567fc",
          "blockTimestamp": "0x6855349a",
          "transactionHash": "0xf8cc19489d1775cac6e80aeecb2f81b1426a82d2db9529476f201349e0876ace",
          "transactionIndex": "0x1",
          "logIndex": "0x1",
          "removed": false
        }
      ],
      "logsBloom": "0x00010000000000000000000000000000000000000000000000000000000000000000000000000000000000000000000000000000000000000000000000082000000000000000000000000000000000000000000000000000000000000000000000000000000000000000000100000000000000000000000000000000000000000020000000000000040000000000000000000000000000000000080000000000000000000000000000000000000000000000000000000000000000080000000200000000000000200000000000000000000000002002000040000000000000000000000000000000000000000000000000000000002000000000000000000400",
      "type": "0x2",
      "transactionHash": "0xf8cc19489d1775cac6e80aeecb2f81b1426a82d2db9529476f201349e0876ace",
      "transactionIndex": "0x1",
      "blockHash": "0xa05639c5dc861360fa07c8499e360e97d02b698a653c515387a2a92e39da7599",
      "blockNumber": "0x1e567fc",
      "gasUsed": "0xbabe",
      "effectiveGasPrice": "0x2c8d3",
      "blobGasPrice": "0x1",
      "from": "0xf39fd6e51aad88f6f4ce6ab8827279cfffb92266",
      "to": "0x000000000022d473030f116ddee9f6b43ac78ba3",
      "contractAddress": null
    },
    {
      "status": "0x1",
      "cumulativeGasUsed": "0xb55b",
      "logs": [
        {
          "address": "0x51f6983a5f0602b10ca772bfb50eaffa1822cb98",
          "topics": [
            "0x8c5be1e5ebec7d5bd14f71427d1e84f3dd0314c0f7b2291e5b200ac8c7c3b925",
            "0x000000000000000000000000f39fd6e51aad88f6f4ce6ab8827279cfffb92266",
            "0x000000000000000000000000000000000022d473030f116ddee9f6b43ac78ba3"
          ],
          "data": "0xffffffffffffffffffffffffffffffffffffffffffffffffffffffffffffffff",
          "blockHash": "0x6b998ca0bf4b9d5c68be6fac712e154af4848c50614ae4c8f6b76b27857f918a",
          "blockNumber": "0x1e567fd",
          "blockTimestamp": "0x6855349a",
          "transactionHash": "0xf500c1c5a65051ddd8a22de457ccfe310eec3d114b14dfdb368bdedc24cb3aeb",
          "transactionIndex": "0x0",
          "logIndex": "0x0",
          "removed": false
        }
      ],
      "logsBloom": "0x00000000000000000000000000000000000000000000000000000000000000000000000000000000000000000000000000000000800000000000000000200000000000000000000000004000000000000000000000000800000000000000000000000000000000200000000100000000000000000000000000000000020000000000000000000000000000000000000000000000000000000000010000000000020000000000000000000000000000000000000000000000000000000000000000000000000000200000000000000000000000002000000000000000000000000010000000000000000000000000000000000000000000000000000000000000",
      "type": "0x2",
      "transactionHash": "0xf500c1c5a65051ddd8a22de457ccfe310eec3d114b14dfdb368bdedc24cb3aeb",
      "transactionIndex": "0x0",
      "blockHash": "0x6b998ca0bf4b9d5c68be6fac712e154af4848c50614ae4c8f6b76b27857f918a",
      "blockNumber": "0x1e567fd",
      "gasUsed": "0xb55b",
      "effectiveGasPrice": "0x27e77",
      "blobGasPrice": "0x1",
      "from": "0xf39fd6e51aad88f6f4ce6ab8827279cfffb92266",
      "to": "0x51f6983a5f0602b10ca772bfb50eaffa1822cb98",
      "contractAddress": null
    },
    {
      "status": "0x1",
      "cumulativeGasUsed": "0x17025",
      "logs": [
        {
          "address": "0x000000000022d473030f116ddee9f6b43ac78ba3",
          "topics": [
            "0xda9fa7c1b00402c17d0161b249b1ab8bbec047c5a52207b9c112deffd817036b",
            "0x000000000000000000000000f39fd6e51aad88f6f4ce6ab8827279cfffb92266",
            "0x00000000000000000000000051f6983a5f0602b10ca772bfb50eaffa1822cb98",
            "0x0000000000000000000000007c5f5a4bbd8fd63184577525326123b519429bdc"
          ],
          "data": "0x000000000000000000000000ffffffffffffffffffffffffffffffffffffffff0000000000000000000000000000000000000000000000000000ffffffffffff",
          "blockHash": "0x6b998ca0bf4b9d5c68be6fac712e154af4848c50614ae4c8f6b76b27857f918a",
          "blockNumber": "0x1e567fd",
          "blockTimestamp": "0x6855349a",
          "transactionHash": "0x3190473128afe3a2cb3c1907494f5b16f3ad3a31b365fa8ffb03b3f907029b9b",
          "transactionIndex": "0x1",
          "logIndex": "0x1",
          "removed": false
        }
      ],
      "logsBloom": "0x00010000000000000000000000000000000000000000000000000000000000000000000000000000000000000000000000000000000000000000000000082000000000000000000800000000000000000000000000000000000000000000000000000000000000000000000100000000000000000000000000000000000000000020000000000000000000000000000000000000000000000000000000000000000000000000000000000000000000000000000000000000000400080000000200000000000000200000000000000000000000002000000040000000000000010000000000000000000000000000000000000000002000000000000000000400",
      "type": "0x2",
      "transactionHash": "0x3190473128afe3a2cb3c1907494f5b16f3ad3a31b365fa8ffb03b3f907029b9b",
      "transactionIndex": "0x1",
      "blockHash": "0x6b998ca0bf4b9d5c68be6fac712e154af4848c50614ae4c8f6b76b27857f918a",
      "blockNumber": "0x1e567fd",
      "gasUsed": "0xbaca",
      "effectiveGasPrice": "0x27e77",
      "blobGasPrice": "0x1",
      "from": "0xf39fd6e51aad88f6f4ce6ab8827279cfffb92266",
      "to": "0x000000000022d473030f116ddee9f6b43ac78ba3",
      "contractAddress": null
    },
    {
      "status": "0x1",
      "cumulativeGasUsed": "0x8eb28",
      "logs": [
        {
          "address": "0x498581ff718922c3f8e6a244956af099b2652b2b",
          "topics": [
            "0xdd466e674ea557f56295e2d0218a125ea4b4f0f6f3307b95f85e6110838d6438",
            "0x39f82d44452d8749977cb2293b936f33d0bf831e2a53944490181f008fbf82f6",
            "0x00000000000000000000000051f6983a5f0602b10ca772bfb50eaffa1822cb98",
            "0x000000000000000000000000ddac1165475ac243ea39915b62cd0092f24ae931"
          ],
          "data": "0x000000000000000000000000000000000000000000000000000000000080000000000000000000000000000000000000000000000000000000000000000000010000000000000000000000002b78900ca4e5b16803433ad903256e838eada0880000000000000000000000000000000000000000fffddbdd2aff804ca3c14cc2ffffffffffffffffffffffffffffffffffffffffffffffffffffffffffffffff",
          "blockHash": "0x6b998ca0bf4b9d5c68be6fac712e154af4848c50614ae4c8f6b76b27857f918a",
          "blockNumber": "0x1e567fd",
          "blockTimestamp": "0x6855349a",
          "transactionHash": "0x15b8925de56d744f397913bd8a1734f07e7ef2bb72fa2ef4e4c4431b3938e7bf",
          "transactionIndex": "0x2",
          "logIndex": "0x2",
          "removed": false
        },
        {
          "address": "0x7c5f5a4bbd8fd63184577525326123b519429bdc",
          "topics": [
            "0xddf252ad1be2c89b69c2b068fc378daa952ba7f163c4a11628f55a4df523b3ef",
            "0x0000000000000000000000000000000000000000000000000000000000000000",
            "0x000000000000000000000000f39fd6e51aad88f6f4ce6ab8827279cfffb92266",
            "0x0000000000000000000000000000000000000000000000000000000000011f53"
          ],
          "data": "0x",
          "blockHash": "0x6b998ca0bf4b9d5c68be6fac712e154af4848c50614ae4c8f6b76b27857f918a",
          "blockNumber": "0x1e567fd",
          "blockTimestamp": "0x6855349a",
          "transactionHash": "0x15b8925de56d744f397913bd8a1734f07e7ef2bb72fa2ef4e4c4431b3938e7bf",
          "transactionIndex": "0x2",
          "logIndex": "0x3",
          "removed": false
        },
        {
          "address": "0x498581ff718922c3f8e6a244956af099b2652b2b",
          "topics": [
            "0xf208f4912782fd25c7f114ca3723a2d5dd6f3bcc3ac8db5af63baa85f711d5ec",
            "0x39f82d44452d8749977cb2293b936f33d0bf831e2a53944490181f008fbf82f6",
            "0x0000000000000000000000007c5f5a4bbd8fd63184577525326123b519429bdc"
          ],
          "data": "0xfffffffffffffffffffffffffffffffffffffffffffffffffffffffffffffd1100000000000000000000000000000000000000000000000000000000000002ed0000000000000000000000000000000000000000000000000000000652d818e10000000000000000000000000000000000000000000000000000000000011f53",
          "blockHash": "0x6b998ca0bf4b9d5c68be6fac712e154af4848c50614ae4c8f6b76b27857f918a",
          "blockNumber": "0x1e567fd",
          "blockTimestamp": "0x6855349a",
          "transactionHash": "0x15b8925de56d744f397913bd8a1734f07e7ef2bb72fa2ef4e4c4431b3938e7bf",
          "transactionIndex": "0x2",
          "logIndex": "0x4",
          "removed": false
        },
        {
          "address": "0x51f6983a5f0602b10ca772bfb50eaffa1822cb98",
          "topics": [
            "0xddf252ad1be2c89b69c2b068fc378daa952ba7f163c4a11628f55a4df523b3ef",
            "0x000000000000000000000000f39fd6e51aad88f6f4ce6ab8827279cfffb92266",
            "0x000000000000000000000000498581ff718922c3f8e6a244956af099b2652b2b"
          ],
          "data": "0x000000000000000000000000000000000000000000000000000000003b8df43a",
          "blockHash": "0x6b998ca0bf4b9d5c68be6fac712e154af4848c50614ae4c8f6b76b27857f918a",
          "blockNumber": "0x1e567fd",
          "blockTimestamp": "0x6855349a",
          "transactionHash": "0x15b8925de56d744f397913bd8a1734f07e7ef2bb72fa2ef4e4c4431b3938e7bf",
          "transactionIndex": "0x2",
          "logIndex": "0x5",
          "removed": false
        },
        {
          "address": "0xddac1165475ac243ea39915b62cd0092f24ae931",
          "topics": [
            "0xddf252ad1be2c89b69c2b068fc378daa952ba7f163c4a11628f55a4df523b3ef",
            "0x000000000000000000000000f39fd6e51aad88f6f4ce6ab8827279cfffb92266",
            "0x000000000000000000000000498581ff718922c3f8e6a244956af099b2652b2b"
          ],
          "data": "0x000000000000000000000000000000000000000000000000000000003b9aca00",
          "blockHash": "0x6b998ca0bf4b9d5c68be6fac712e154af4848c50614ae4c8f6b76b27857f918a",
          "blockNumber": "0x1e567fd",
          "blockTimestamp": "0x6855349a",
          "transactionHash": "0x15b8925de56d744f397913bd8a1734f07e7ef2bb72fa2ef4e4c4431b3938e7bf",
          "transactionIndex": "0x2",
          "logIndex": "0x6",
          "removed": false
        }
      ],
      "logsBloom": "0x00000000000100000000000000000000000000000000000000000000000000000020000080004000000000000000000000000000000000000000000000002000000000000000000800000008000000002000000000000000000000000000000000000000020000200000000110000800040001000000000000000010020000000001000001004008040000000000000000000001000000000000090400200000004004000000000008000000000000000000000000000000000400000000000200000002000001200000000000000000000800002002000000000000000020010000000000000000000000000000000004000400002040000000000000100000",
      "type": "0x2",
      "transactionHash": "0x15b8925de56d744f397913bd8a1734f07e7ef2bb72fa2ef4e4c4431b3938e7bf",
      "transactionIndex": "0x2",
      "blockHash": "0x6b998ca0bf4b9d5c68be6fac712e154af4848c50614ae4c8f6b76b27857f918a",
      "blockNumber": "0x1e567fd",
      "gasUsed": "0x77b03",
      "effectiveGasPrice": "0x27e77",
      "blobGasPrice": "0x1",
      "from": "0xf39fd6e51aad88f6f4ce6ab8827279cfffb92266",
      "to": "0x7c5f5a4bbd8fd63184577525326123b519429bdc",
      "contractAddress": null
    }
  ],
  "libraries": [],
  "pending": [],
  "returns": {},
  "timestamp": 1750414492,
  "chain": 8453,
  "commit": "872d4a5"
}