{
  "transactions": [
    {
      "hash": "0x125df55de81201628c89b4f777571d4421abd2850aa14da195d817933b7fb15b",
      "transactionType": "CALL",
      "contractName": null,
      "contractAddress": "0x833589fcd6edb6e08f4c7c32d4f71b54bda02913",
      "function": "approve(address,uint256)",
      "arguments": [
        "0x000000000022D473030F116dDEE9F6B43aC78BA3",
        "115792089237316195423570985008687907853269984665640564039457584007913129639935"
      ],
      "transaction": {
        "from": "0xf39fd6e51aad88f6f4ce6ab8827279cfffb92266",
        "to": "0x833589fcd6edb6e08f4c7c32d4f71b54bda02913",
        "gas": "0x12ca9",
        "value": "0x0",
        "input": "0x095ea7b3000000000000000000000000000000000022d473030f116ddee9f6b43ac78ba3ffffffffffffffffffffffffffffffffffffffffffffffffffffffffffffffff",
        "nonce": "0x61e",
        "chainId": "0x2105"
      },
      "additionalContracts": [],
      "isFixedGasLimit": false
    },
    {
      "hash": "0xc1e10817d4b46ed44c772e1bc599fa6905d1c28d7f630a4b0bde3ccbf700a61f",
      "transactionType": "CALL",
      "contractName": null,
      "contractAddress": "0x000000000022d473030f116ddee9f6b43ac78ba3",
      "function": "approve(address,address,uint160,uint48)",
      "arguments": [
        "0x833589fCD6eDb6E08f4c7C32D4f71b54bdA02913",
        "0x7C5f5A4bBd8fD63184577525326123B519429bDc",
        "1461501637330902918203684832716283019655932542975",
        "281474976710655"
      ],
      "transaction": {
        "from": "0xf39fd6e51aad88f6f4ce6ab8827279cfffb92266",
        "to": "0x000000000022d473030f116ddee9f6b43ac78ba3",
        "gas": "0x1112d",
        "value": "0x0",
        "input": "0x87517c45000000000000000000000000833589fcd6edb6e08f4c7c32d4f71b54bda029130000000000000000000000007c5f5a4bbd8fd63184577525326123b519429bdc000000000000000000000000ffffffffffffffffffffffffffffffffffffffff0000000000000000000000000000000000000000000000000000ffffffffffff",
        "nonce": "0x61f",
        "chainId": "0x2105"
      },
      "additionalContracts": [],
      "isFixedGasLimit": false
    },
    {
      "hash": "0xadceb2eef8d03e255655818a595ecf67ecbcd618f9d57d9f90a38c638a40b4b6",
      "transactionType": "CALL",
      "contractName": null,
      "contractAddress": "0x7c5f5a4bbd8fd63184577525326123b519429bdc",
      "function": "initializePool((address,address,uint24,int24,address),uint160)",
      "arguments": [
        "(0x0000000000000000000000000000000000000000, 0x833589fCD6eDb6E08f4c7C32D4f71b54bdA02913, 8388608, 60, 0xA539C69F12cf98A10Dc8b168459CCA89e4Cae088)",
        "3946950329895447449397620"
      ],
      "transaction": {
        "from": "0xf39fd6e51aad88f6f4ce6ab8827279cfffb92266",
        "to": "0x7c5f5a4bbd8fd63184577525326123b519429bdc",
        "gas": "0xb494",
        "value": "0x0",
        "input": "0xf70204050000000000000000000000000000000000000000000000000000000000000000000000000000000000000000833589fcd6edb6e08f4c7c32d4f71b54bda029130000000000000000000000000000000000000000000000000000000000800000000000000000000000000000000000000000000000000000000000000000003c000000000000000000000000a539c69f12cf98a10dc8b168459cca89e4cae0880000000000000000000000000000000000000000000343cc9b2a90d219956974",
        "nonce": "0x620",
        "chainId": "0x2105"
      },
      "additionalContracts": [],
      "isFixedGasLimit": false
    }
  ],
  "receipts": [
    {
      "status": "0x1",
      "cumulativeGasUsed": "0xd9ad",
      "logs": [
        {
          "address": "0x833589fcd6edb6e08f4c7c32d4f71b54bda02913",
          "topics": [
            "0x8c5be1e5ebec7d5bd14f71427d1e84f3dd0314c0f7b2291e5b200ac8c7c3b925",
            "0x000000000000000000000000f39fd6e51aad88f6f4ce6ab8827279cfffb92266",
            "0x000000000000000000000000000000000022d473030f116ddee9f6b43ac78ba3"
          ],
          "data": "0xffffffffffffffffffffffffffffffffffffffffffffffffffffffffffffffff",
          "blockHash": "0xdc902afebcabad40a62311c13913ecaf822974d78b5135482e39a92a6b904b40",
          "blockNumber": "0x1e3a622",
          "blockTimestamp": "0x6851a94f",
          "transactionHash": "0x125df55de81201628c89b4f777571d4421abd2850aa14da195d817933b7fb15b",
          "transactionIndex": "0x0",
          "logIndex": "0x0",
          "removed": false
        }
      ],
      "logsBloom": "0x00000000000000000000000000000000000000000000000000000000000000000000000000000000000000000000100000000000800000000000000000200000000000000000000000004000000000000000000000080800000000000000000000800000000000000000000100000000000000000000000000000000000000000000000000000000000000000000000000000000000000000000000000000000020000000000000000000000000000000000000000000000000000000000000000000000000000200000000000000000000000002000000000000000000000000010000000000000000000000000000000000000000000000000000000000000",
      "type": "0x2",
      "transactionHash": "0x125df55de81201628c89b4f777571d4421abd2850aa14da195d817933b7fb15b",
      "transactionIndex": "0x0",
      "blockHash": "0xdc902afebcabad40a62311c13913ecaf822974d78b5135482e39a92a6b904b40",
      "blockNumber": "0x1e3a622",
      "gasUsed": "0xd9ad",
      "effectiveGasPrice": "0x5a71e9",
      "blobGasPrice": "0x1",
      "from": "0xf39fd6e51aad88f6f4ce6ab8827279cfffb92266",
      "to": "0x833589fcd6edb6e08f4c7c32d4f71b54bda02913",
      "contractAddress": null
    },
    {
      "status": "0x1",
      "cumulativeGasUsed": "0xbaca",
      "logs": [
        {
          "address": "0x000000000022d473030f116ddee9f6b43ac78ba3",
          "topics": [
            "0xda9fa7c1b00402c17d0161b249b1ab8bbec047c5a52207b9c112deffd817036b",
            "0x000000000000000000000000f39fd6e51aad88f6f4ce6ab8827279cfffb92266",
            "0x000000000000000000000000833589fcd6edb6e08f4c7c32d4f71b54bda02913",
            "0x0000000000000000000000007c5f5a4bbd8fd63184577525326123b519429bdc"
          ],
          "data": "0x000000000000000000000000ffffffffffffffffffffffffffffffffffffffff0000000000000000000000000000000000000000000000000000ffffffffffff",
          "blockHash": "0x6cf4516c22317297a987505ea069dffd8418953b3779a886ab31c9f2bc9d4708",
          "blockNumber": "0x1e3a623",
          "blockTimestamp": "0x6851a94f",
          "transactionHash": "0xc1e10817d4b46ed44c772e1bc599fa6905d1c28d7f630a4b0bde3ccbf700a61f",
          "transactionIndex": "0x0",
          "logIndex": "0x0",
          "removed": false
        }
      ],
      "logsBloom": "0x00010000000000000000000000000000000000000000000000000000000000000000000000000000000000000000000000000000000000000000000000082000000000000000040000000000000000000000000000000000000000000000000000000000000000000000000100000000010000000000000000000000000000000020000000000000400000000000000000000000000000000000000000000000000000000000000000000000000000000000000000000000000000080000000200000000000000200000000000000000000000002000000040000000000000000000000000000000000000000000000000000000002000000000000000000400",
      "type": "0x2",
      "transactionHash": "0xc1e10817d4b46ed44c772e1bc599fa6905d1c28d7f630a4b0bde3ccbf700a61f",
      "transactionIndex": "0x0",
      "blockHash": "0x6cf4516c22317297a987505ea069dffd8418953b3779a886ab31c9f2bc9d4708",
      "blockNumber": "0x1e3a623",
      "gasUsed": "0xbaca",
      "effectiveGasPrice": "0x4fa1d4",
      "blobGasPrice": "0x1",
      "from": "0xf39fd6e51aad88f6f4ce6ab8827279cfffb92266",
      "to": "0x000000000022d473030f116ddee9f6b43ac78ba3",
      "contractAddress": null
    },
    {
      "status": "0x1",
      "cumulativeGasUsed": "0x7b79",
      "logs": [],
      "logsBloom": "0x00000000000000000000000000000000000000000000000000000000000000000000000000000000000000000000000000000000000000000000000000000000000000000000000000000000000000000000000000000000000000000000000000000000000000000000000000000000000000000000000000000000000000000000000000000000000000000000000000000000000000000000000000000000000000000000000000000000000000000000000000000000000000000000000000000000000000000000000000000000000000000000000000000000000000000000000000000000000000000000000000000000000000000000000000000000",
      "type": "0x2",
      "transactionHash": "0xadceb2eef8d03e255655818a595ecf67ecbcd618f9d57d9f90a38c638a40b4b6",
      "transactionIndex": "0x0",
      "blockHash": "0x654a0845ed4acd873ba2654feedba8dfa7b28bb75070ec989da1dbef500b0bd6",
      "blockNumber": "0x1e3a624",
      "gasUsed": "0x7b79",
      "effectiveGasPrice": "0x462b35",
      "blobGasPrice": "0x1",
      "from": "0xf39fd6e51aad88f6f4ce6ab8827279cfffb92266",
      "to": "0x7c5f5a4bbd8fd63184577525326123b519429bdc",
      "contractAddress": null
    }
  ],
  "libraries": [],
  "pending": [],
  "returns": {},
  "timestamp": 1750182226,
  "chain": 8453,
  "commit": "75205e2"
}