{
  "transactions": [
    {
      "hash": "0x6fa04b52549981894c63580c66dd315c82209104a7108a5003ba0a133037eed1",
      "transactionType": "CREATE",
      "contractName": "MockERC20",
      "contractAddress": "0x4735b6aee529640b265d50d1409c4503e4ef2c23",
      "function": null,
      "arguments": [
        "MockUSDT",
        "USDTm",
        "6"
      ],
      "transaction": {
        "from": "0xf39fd6e51aad88f6f4ce6ab8827279cfffb92266",
        "gas": "0xf1500",
        "value": "0x0",
        "input": "0x60e060405234801561000f575f80fd5b50604051610f9d380380610f9d83398101604081905261002e916101a1565b8282825f61003c84826102a2565b50600161004983826102a2565b5060ff81166080524660a05261005d61006c565b60c052506103cd945050505050565b5f7f8b73c3c69bb8fe3d512ecc4cf759cc79239f7b179b0ffacaa9a75d522b39400f5f60405161009c919061035c565b6040805191829003822060208301939093528101919091527fc89efdaa54c0f20c7adf612882df0950f5a951637e0307cdcb4c672f298b8bc660608201524660808201523060a082015260c00160405160208183030381529060405280519060200120905090565b634e487b7160e01b5f52604160045260245ffd5b5f82601f830112610127575f80fd5b81516001600160401b0381111561014057610140610104565b604051601f8201601f19908116603f011681016001600160401b038111828210171561016e5761016e610104565b604052818152838201602001851015610185575f80fd5b8160208501602083015e5f918101602001919091529392505050565b5f805f606084860312156101b3575f80fd5b83516001600160401b038111156101c8575f80fd5b6101d486828701610118565b602086015190945090506001600160401b038111156101f1575f80fd5b6101fd86828701610118565b925050604084015160ff81168114610213575f80fd5b809150509250925092565b600181811c9082168061023257607f821691505b60208210810361025057634e487b7160e01b5f52602260045260245ffd5b50919050565b601f82111561029d57805f5260205f20601f840160051c8101602085101561027b5750805b601f840160051c820191505b8181101561029a575f8155600101610287565b50505b505050565b81516001600160401b038111156102bb576102bb610104565b6102cf816102c9845461021e565b84610256565b6020601f821160018114610301575f83156102ea5750848201515b5f19600385901b1c1916600184901b17845561029a565b5f84815260208120601f198516915b828110156103305787850151825560209485019460019092019101610310565b508482101561034d57868401515f19600387901b60f8161c191681555b50505050600190811b01905550565b5f8083546103698161021e565b6001821680156103805760018114610395576103c2565b60ff19831686528115158202860193506103c2565b865f5260205f205f5b838110156103ba5781548882015260019091019060200161039e565b505081860193505b509195945050505050565b60805160a05160c051610ba66103f75f395f61046f01525f61043a01525f6101590152610ba65ff3fe608060405234801561000f575f80fd5b50600436106100e5575f3560e01c806370a08231116100885780639dc29fac116100635780639dc29fac146101f0578063a9059cbb14610203578063d505accf14610216578063dd62ed3e14610229575f80fd5b806370a08231146101aa5780637ecebe00146101c957806395d89b41146101e8575f80fd5b806323b872dd116100c357806323b872dd14610141578063313ce567146101545780633644e5151461018d57806340c10f1914610195575f80fd5b806306fdde03146100e9578063095ea7b31461010757806318160ddd1461012a575b5f80fd5b6100f1610253565b6040516100fe91906108f2565b60405180910390f35b61011a610115366004610942565b6102de565b60405190151581526020016100fe565b61013360025481565b6040519081526020016100fe565b61011a61014f36600461096a565b61034a565b61017b7f000000000000000000000000000000000000000000000000000000000000000081565b60405160ff90911681526020016100fe565b610133610437565b6101a86101a3366004610942565b610491565b005b6101336101b83660046109a4565b60036020525f908152604090205481565b6101336101d73660046109a4565b60056020525f908152604090205481565b6100f161049f565b6101a86101fe366004610942565b6104ac565b61011a610211366004610942565b6104b6565b6101a86102243660046109c4565b61052c565b610133610237366004610a31565b600460209081525f928352604080842090915290825290205481565b5f805461025f90610a62565b80601f016020809104026020016040519081016040528092919081815260200182805461028b90610a62565b80156102d65780601f106102ad576101008083540402835291602001916102d6565b820191905f5260205f20905b8154815290600101906020018083116102b957829003601f168201915b505050505081565b335f8181526004602090815260408083206001600160a01b038716808552925280832085905551919290917f8c5be1e5ebec7d5bd14f71427d1e84f3dd0314c0f7b2291e5b200ac8c7c3b925906103389086815260200190565b60405180910390a35060015b92915050565b6001600160a01b0383165f9081526004602090815260408083203384529091528120545f1981146103a35761037f8382610aae565b6001600160a01b0386165f9081526004602090815260408083203384529091529020555b6001600160a01b0385165f90815260036020526040812080548592906103ca908490610aae565b90915550506001600160a01b038085165f81815260036020526040908190208054870190555190918716907fddf252ad1be2c89b69c2b068fc378daa952ba7f163c4a11628f55a4df523b3ef906104249087815260200190565b60405180910390a3506001949350505050565b5f7f0000000000000000000000000000000000000000000000000000000000000000461461046c5761046761077e565b905090565b507f000000000000000000000000000000000000000000000000000000000000000090565b61049b8282610816565b5050565b6001805461025f90610a62565b61049b8282610880565b335f908152600360205260408120805483919083906104d6908490610aae565b90915550506001600160a01b0383165f81815260036020526040908190208054850190555133907fddf252ad1be2c89b69c2b068fc378daa952ba7f163c4a11628f55a4df523b3ef906103389086815260200190565b428410156105815760405162461bcd60e51b815260206004820152601760248201527f5045524d49545f444541444c494e455f4558504952454400000000000000000060448201526064015b60405180910390fd5b5f600161058c610437565b6001600160a01b038a81165f8181526005602090815260409182902080546001810190915582517f6e71edae12b1b97f4d1f60370fef10105fa2faae0126114a169c64845d6126c98184015280840194909452938d166060840152608083018c905260a083019390935260c08083018b90528151808403909101815260e08301909152805192019190912061190160f01b6101008301526101028201929092526101228101919091526101420160408051601f1981840301815282825280516020918201205f84529083018083525260ff871690820152606081018590526080810184905260a0016020604051602081039080840390855afa158015610694573d5f803e3d5ffd5b5050604051601f1901519150506001600160a01b038116158015906106ca5750876001600160a01b0316816001600160a01b0316145b6107165760405162461bcd60e51b815260206004820152600e60248201527f494e56414c49445f5349474e45520000000000000000000000000000000000006044820152606401610578565b6001600160a01b039081165f9081526004602090815260408083208a8516808552908352928190208990555188815291928a16917f8c5be1e5ebec7d5bd14f71427d1e84f3dd0314c0f7b2291e5b200ac8c7c3b925910160405180910390a350505050505050565b5f7f8b73c3c69bb8fe3d512ecc4cf759cc79239f7b179b0ffacaa9a75d522b39400f5f6040516107ae9190610ac1565b6040805191829003822060208301939093528101919091527fc89efdaa54c0f20c7adf612882df0950f5a951637e0307cdcb4c672f298b8bc660608201524660808201523060a082015260c00160405160208183030381529060405280519060200120905090565b8060025f8282546108279190610b5d565b90915550506001600160a01b0382165f818152600360209081526040808320805486019055518481527fddf252ad1be2c89b69c2b068fc378daa952ba7f163c4a11628f55a4df523b3ef91015b60405180910390a35050565b6001600160a01b0382165f90815260036020526040812080548392906108a7908490610aae565b90915550506002805482900390556040518181525f906001600160a01b038416907fddf252ad1be2c89b69c2b068fc378daa952ba7f163c4a11628f55a4df523b3ef90602001610874565b602081525f82518060208401528060208501604085015e5f604082850101526040601f19601f83011684010191505092915050565b80356001600160a01b038116811461093d575f80fd5b919050565b5f8060408385031215610953575f80fd5b61095c83610927565b946020939093013593505050565b5f805f6060848603121561097c575f80fd5b61098584610927565b925061099360208501610927565b929592945050506040919091013590565b5f602082840312156109b4575f80fd5b6109bd82610927565b9392505050565b5f805f805f805f60e0888a0312156109da575f80fd5b6109e388610927565b96506109f160208901610927565b95506040880135945060608801359350608088013560ff81168114610a14575f80fd5b9699959850939692959460a0840135945060c09093013592915050565b5f8060408385031215610a42575f80fd5b610a4b83610927565b9150610a5960208401610927565b90509250929050565b600181811c90821680610a7657607f821691505b602082108103610a9457634e487b7160e01b5f52602260045260245ffd5b50919050565b634e487b7160e01b5f52601160045260245ffd5b8181038181111561034457610344610a9a565b5f8083545f8160011c90506001821680610adc57607f821691505b602082108103610afa57634e487b7160e01b5f52602260045260245ffd5b808015610b0e5760018114610b2357610b51565b60ff1984168752821515830287019450610b51565b5f888152602090205f5b84811015610b4957815489820152600190910190602001610b2d565b505082870194505b50929695505050505050565b8082018082111561034457610344610a9a56fea2646970667358221220a05e34ddb48f52d405fa6fda9fc084c0c8c8c01a5ff05e21be9990d65a0fb21664736f6c634300081a0033000000000000000000000000000000000000000000000000000000000000006000000000000000000000000000000000000000000000000000000000000000a0000000000000000000000000000000000000000000000000000000000000000600000000000000000000000000000000000000000000000000000000000000084d6f636b555344540000000000000000000000000000000000000000000000000000000000000000000000000000000000000000000000000000000000000005555344546d000000000000000000000000000000000000000000000000000000",
        "nonce": "0x641",
        "chainId": "0x2105"
      },
      "additionalContracts": [],
      "isFixedGasLimit": false
    },
    {
      "hash": "0xdb46535ea8be08cca5ab7b06ae0abac24b46ed56642b749e2f4315daeb1c562d",
      "transactionType": "CALL",
      "contractName": "MockERC20",
      "contractAddress": "0x4735b6aee529640b265d50d1409c4503e4ef2c23",
      "function": "mint(address,uint256)",
      "arguments": [
        "0xf39Fd6e51aad88F6F4ce6aB8827279cffFb92266",
        "1000000000000"
      ],
      "transaction": {
        "from": "0xf39fd6e51aad88f6f4ce6ab8827279cfffb92266",
        "to": "0x4735b6aee529640b265d50d1409c4503e4ef2c23",
        "gas": "0x18600",
        "value": "0x0",
        "input": "0x40c10f19000000000000000000000000f39fd6e51aad88f6f4ce6ab8827279cfffb92266000000000000000000000000000000000000000000000000000000e8d4a51000",
        "nonce": "0x642",
        "chainId": "0x2105"
      },
      "additionalContracts": [],
      "isFixedGasLimit": false
    },
    {
      "hash": "0xc934790062e5061bc86835c03efac1b3b4a087eb00969e086ca3095cf945bdd3",
      "transactionType": "CREATE",
      "contractName": "MockERC20",
      "contractAddress": "0x4ff1e057f891060ff6837567c65aa8364d11eabd",
      "function": null,
      "arguments": [
        "MockUSDC",
        "USDCm",
        "6"
      ],
      "transaction": {
        "from": "0xf39fd6e51aad88f6f4ce6ab8827279cfffb92266",
        "gas": "0xf1500",
        "value": "0x0",
        "input": "0x60e060405234801561000f575f80fd5b50604051610f9d380380610f9d83398101604081905261002e916101a1565b8282825f61003c84826102a2565b50600161004983826102a2565b5060ff81166080524660a05261005d61006c565b60c052506103cd945050505050565b5f7f8b73c3c69bb8fe3d512ecc4cf759cc79239f7b179b0ffacaa9a75d522b39400f5f60405161009c919061035c565b6040805191829003822060208301939093528101919091527fc89efdaa54c0f20c7adf612882df0950f5a951637e0307cdcb4c672f298b8bc660608201524660808201523060a082015260c00160405160208183030381529060405280519060200120905090565b634e487b7160e01b5f52604160045260245ffd5b5f82601f830112610127575f80fd5b81516001600160401b0381111561014057610140610104565b604051601f8201601f19908116603f011681016001600160401b038111828210171561016e5761016e610104565b604052818152838201602001851015610185575f80fd5b8160208501602083015e5f918101602001919091529392505050565b5f805f606084860312156101b3575f80fd5b83516001600160401b038111156101c8575f80fd5b6101d486828701610118565b602086015190945090506001600160401b038111156101f1575f80fd5b6101fd86828701610118565b925050604084015160ff81168114610213575f80fd5b809150509250925092565b600181811c9082168061023257607f821691505b60208210810361025057634e487b7160e01b5f52602260045260245ffd5b50919050565b601f82111561029d57805f5260205f20601f840160051c8101602085101561027b5750805b601f840160051c820191505b8181101561029a575f8155600101610287565b50505b505050565b81516001600160401b038111156102bb576102bb610104565b6102cf816102c9845461021e565b84610256565b6020601f821160018114610301575f83156102ea5750848201515b5f19600385901b1c1916600184901b17845561029a565b5f84815260208120601f198516915b828110156103305787850151825560209485019460019092019101610310565b508482101561034d57868401515f19600387901b60f8161c191681555b50505050600190811b01905550565b5f8083546103698161021e565b6001821680156103805760018114610395576103c2565b60ff19831686528115158202860193506103c2565b865f5260205f205f5b838110156103ba5781548882015260019091019060200161039e565b505081860193505b509195945050505050565b60805160a05160c051610ba66103f75f395f61046f01525f61043a01525f6101590152610ba65ff3fe608060405234801561000f575f80fd5b50600436106100e5575f3560e01c806370a08231116100885780639dc29fac116100635780639dc29fac146101f0578063a9059cbb14610203578063d505accf14610216578063dd62ed3e14610229575f80fd5b806370a08231146101aa5780637ecebe00146101c957806395d89b41146101e8575f80fd5b806323b872dd116100c357806323b872dd14610141578063313ce567146101545780633644e5151461018d57806340c10f1914610195575f80fd5b806306fdde03146100e9578063095ea7b31461010757806318160ddd1461012a575b5f80fd5b6100f1610253565b6040516100fe91906108f2565b60405180910390f35b61011a610115366004610942565b6102de565b60405190151581526020016100fe565b61013360025481565b6040519081526020016100fe565b61011a61014f36600461096a565b61034a565b61017b7f000000000000000000000000000000000000000000000000000000000000000081565b60405160ff90911681526020016100fe565b610133610437565b6101a86101a3366004610942565b610491565b005b6101336101b83660046109a4565b60036020525f908152604090205481565b6101336101d73660046109a4565b60056020525f908152604090205481565b6100f161049f565b6101a86101fe366004610942565b6104ac565b61011a610211366004610942565b6104b6565b6101a86102243660046109c4565b61052c565b610133610237366004610a31565b600460209081525f928352604080842090915290825290205481565b5f805461025f90610a62565b80601f016020809104026020016040519081016040528092919081815260200182805461028b90610a62565b80156102d65780601f106102ad576101008083540402835291602001916102d6565b820191905f5260205f20905b8154815290600101906020018083116102b957829003601f168201915b505050505081565b335f8181526004602090815260408083206001600160a01b038716808552925280832085905551919290917f8c5be1e5ebec7d5bd14f71427d1e84f3dd0314c0f7b2291e5b200ac8c7c3b925906103389086815260200190565b60405180910390a35060015b92915050565b6001600160a01b0383165f9081526004602090815260408083203384529091528120545f1981146103a35761037f8382610aae565b6001600160a01b0386165f9081526004602090815260408083203384529091529020555b6001600160a01b0385165f90815260036020526040812080548592906103ca908490610aae565b90915550506001600160a01b038085165f81815260036020526040908190208054870190555190918716907fddf252ad1be2c89b69c2b068fc378daa952ba7f163c4a11628f55a4df523b3ef906104249087815260200190565b60405180910390a3506001949350505050565b5f7f0000000000000000000000000000000000000000000000000000000000000000461461046c5761046761077e565b905090565b507f000000000000000000000000000000000000000000000000000000000000000090565b61049b8282610816565b5050565b6001805461025f90610a62565b61049b8282610880565b335f908152600360205260408120805483919083906104d6908490610aae565b90915550506001600160a01b0383165f81815260036020526040908190208054850190555133907fddf252ad1be2c89b69c2b068fc378daa952ba7f163c4a11628f55a4df523b3ef906103389086815260200190565b428410156105815760405162461bcd60e51b815260206004820152601760248201527f5045524d49545f444541444c494e455f4558504952454400000000000000000060448201526064015b60405180910390fd5b5f600161058c610437565b6001600160a01b038a81165f8181526005602090815260409182902080546001810190915582517f6e71edae12b1b97f4d1f60370fef10105fa2faae0126114a169c64845d6126c98184015280840194909452938d166060840152608083018c905260a083019390935260c08083018b90528151808403909101815260e08301909152805192019190912061190160f01b6101008301526101028201929092526101228101919091526101420160408051601f1981840301815282825280516020918201205f84529083018083525260ff871690820152606081018590526080810184905260a0016020604051602081039080840390855afa158015610694573d5f803e3d5ffd5b5050604051601f1901519150506001600160a01b038116158015906106ca5750876001600160a01b0316816001600160a01b0316145b6107165760405162461bcd60e51b815260206004820152600e60248201527f494e56414c49445f5349474e45520000000000000000000000000000000000006044820152606401610578565b6001600160a01b039081165f9081526004602090815260408083208a8516808552908352928190208990555188815291928a16917f8c5be1e5ebec7d5bd14f71427d1e84f3dd0314c0f7b2291e5b200ac8c7c3b925910160405180910390a350505050505050565b5f7f8b73c3c69bb8fe3d512ecc4cf759cc79239f7b179b0ffacaa9a75d522b39400f5f6040516107ae9190610ac1565b6040805191829003822060208301939093528101919091527fc89efdaa54c0f20c7adf612882df0950f5a951637e0307cdcb4c672f298b8bc660608201524660808201523060a082015260c00160405160208183030381529060405280519060200120905090565b8060025f8282546108279190610b5d565b90915550506001600160a01b0382165f818152600360209081526040808320805486019055518481527fddf252ad1be2c89b69c2b068fc378daa952ba7f163c4a11628f55a4df523b3ef91015b60405180910390a35050565b6001600160a01b0382165f90815260036020526040812080548392906108a7908490610aae565b90915550506002805482900390556040518181525f906001600160a01b038416907fddf252ad1be2c89b69c2b068fc378daa952ba7f163c4a11628f55a4df523b3ef90602001610874565b602081525f82518060208401528060208501604085015e5f604082850101526040601f19601f83011684010191505092915050565b80356001600160a01b038116811461093d575f80fd5b919050565b5f8060408385031215610953575f80fd5b61095c83610927565b946020939093013593505050565b5f805f6060848603121561097c575f80fd5b61098584610927565b925061099360208501610927565b929592945050506040919091013590565b5f602082840312156109b4575f80fd5b6109bd82610927565b9392505050565b5f805f805f805f60e0888a0312156109da575f80fd5b6109e388610927565b96506109f160208901610927565b95506040880135945060608801359350608088013560ff81168114610a14575f80fd5b9699959850939692959460a0840135945060c09093013592915050565b5f8060408385031215610a42575f80fd5b610a4b83610927565b9150610a5960208401610927565b90509250929050565b600181811c90821680610a7657607f821691505b602082108103610a9457634e487b7160e01b5f52602260045260245ffd5b50919050565b634e487b7160e01b5f52601160045260245ffd5b8181038181111561034457610344610a9a565b5f8083545f8160011c90506001821680610adc57607f821691505b602082108103610afa57634e487b7160e01b5f52602260045260245ffd5b808015610b0e5760018114610b2357610b51565b60ff1984168752821515830287019450610b51565b5f888152602090205f5b84811015610b4957815489820152600190910190602001610b2d565b505082870194505b50929695505050505050565b8082018082111561034457610344610a9a56fea2646970667358221220a05e34ddb48f52d405fa6fda9fc084c0c8c8c01a5ff05e21be9990d65a0fb21664736f6c634300081a0033000000000000000000000000000000000000000000000000000000000000006000000000000000000000000000000000000000000000000000000000000000a0000000000000000000000000000000000000000000000000000000000000000600000000000000000000000000000000000000000000000000000000000000084d6f636b555344430000000000000000000000000000000000000000000000000000000000000000000000000000000000000000000000000000000000000005555344436d000000000000000000000000000000000000000000000000000000",
        "nonce": "0x643",
        "chainId": "0x2105"
      },
      "additionalContracts": [],
      "isFixedGasLimit": false
    },
    {
      "hash": "0xcb2fb5014c459fd96a0ca524dc87f630d79164f1bd153ec532caa9424443362d",
      "transactionType": "CALL",
      "contractName": "MockERC20",
      "contractAddress": "0x4ff1e057f891060ff6837567c65aa8364d11eabd",
      "function": "mint(address,uint256)",
      "arguments": [
        "0xf39Fd6e51aad88F6F4ce6aB8827279cffFb92266",
        "1000000000000"
      ],
      "transaction": {
        "from": "0xf39fd6e51aad88f6f4ce6ab8827279cfffb92266",
        "to": "0x4ff1e057f891060ff6837567c65aa8364d11eabd",
        "gas": "0x18600",
        "value": "0x0",
        "input": "0x40c10f19000000000000000000000000f39fd6e51aad88f6f4ce6ab8827279cfffb92266000000000000000000000000000000000000000000000000000000e8d4a51000",
        "nonce": "0x644",
        "chainId": "0x2105"
      },
      "additionalContracts": [],
      "isFixedGasLimit": false
    },
    {
      "hash": "0xaaff53380137160375495cd12a8d8fc86d411a8c6bed841864d52b4381d1d0ab",
      "transactionType": "CALL",
      "contractName": "MockERC20",
      "contractAddress": "0x4ff1e057f891060ff6837567c65aa8364d11eabd",
      "function": "approve(address,uint256)",
      "arguments": [
        "0x000000000022D473030F116dDEE9F6B43aC78BA3",
        "115792089237316195423570985008687907853269984665640564039457584007913129639935"
      ],
      "transaction": {
        "from": "0xf39fd6e51aad88f6f4ce6ab8827279cfffb92266",
        "to": "0x4ff1e057f891060ff6837567c65aa8364d11eabd",
        "gas": "0x1093b",
        "value": "0x0",
        "input": "0x095ea7b3000000000000000000000000000000000022d473030f116ddee9f6b43ac78ba3ffffffffffffffffffffffffffffffffffffffffffffffffffffffffffffffff",
        "nonce": "0x645",
        "chainId": "0x2105"
      },
      "additionalContracts": [],
      "isFixedGasLimit": false
    },
    {
      "hash": "0x7c3e941910660de311228048ffe7269d167acbee4f51980c70cc6b0ba7fa3574",
      "transactionType": "CALL",
      "contractName": null,
      "contractAddress": "0x000000000022d473030f116ddee9f6b43ac78ba3",
      "function": "approve(address,address,uint160,uint48)",
      "arguments": [
        "0x4fF1E057f891060Ff6837567C65AA8364D11EaBd",
        "0x7C5f5A4bBd8fD63184577525326123B519429bDc",
        "1461501637330902918203684832716283019655932542975",
        "281474976710655"
      ],
      "transaction": {
        "from": "0xf39fd6e51aad88f6f4ce6ab8827279cfffb92266",
        "to": "0x000000000022d473030f116ddee9f6b43ac78ba3",
        "gas": "0x1112d",
        "value": "0x0",
        "input": "0x87517c450000000000000000000000004ff1e057f891060ff6837567c65aa8364d11eabd0000000000000000000000007c5f5a4bbd8fd63184577525326123b519429bdc000000000000000000000000ffffffffffffffffffffffffffffffffffffffff0000000000000000000000000000000000000000000000000000ffffffffffff",
        "nonce": "0x646",
        "chainId": "0x2105"
      },
      "additionalContracts": [],
      "isFixedGasLimit": false
    },
    {
      "hash": "0x21d07f13cc679a609c1aefa27793e11f6b3be8154c4bd2f36fffb24c53dd1ba4",
      "transactionType": "CALL",
      "contractName": "MockERC20",
      "contractAddress": "0x4735b6aee529640b265d50d1409c4503e4ef2c23",
      "function": "approve(address,uint256)",
      "arguments": [
        "0x000000000022D473030F116dDEE9F6B43aC78BA3",
        "115792089237316195423570985008687907853269984665640564039457584007913129639935"
      ],
      "transaction": {
        "from": "0xf39fd6e51aad88f6f4ce6ab8827279cfffb92266",
        "to": "0x4735b6aee529640b265d50d1409c4503e4ef2c23",
        "gas": "0x1093b",
        "value": "0x0",
        "input": "0x095ea7b3000000000000000000000000000000000022d473030f116ddee9f6b43ac78ba3ffffffffffffffffffffffffffffffffffffffffffffffffffffffffffffffff",
        "nonce": "0x647",
        "chainId": "0x2105"
      },
      "additionalContracts": [],
      "isFixedGasLimit": false
    },
    {
      "hash": "0xec074c524af5e1b3b45e46cbee70552544fce7c3acfdf09b52e8d2bbb7266630",
      "transactionType": "CALL",
      "contractName": null,
      "contractAddress": "0x000000000022d473030f116ddee9f6b43ac78ba3",
      "function": "approve(address,address,uint160,uint48)",
      "arguments": [
        "0x4735b6AEe529640b265D50d1409c4503e4Ef2c23",
        "0x7C5f5A4bBd8fD63184577525326123B519429bDc",
        "1461501637330902918203684832716283019655932542975",
        "281474976710655"
      ],
      "transaction": {
        "from": "0xf39fd6e51aad88f6f4ce6ab8827279cfffb92266",
        "to": "0x000000000022d473030f116ddee9f6b43ac78ba3",
        "gas": "0x1112d",
        "value": "0x0",
        "input": "0x87517c450000000000000000000000004735b6aee529640b265d50d1409c4503e4ef2c230000000000000000000000007c5f5a4bbd8fd63184577525326123b519429bdc000000000000000000000000ffffffffffffffffffffffffffffffffffffffff0000000000000000000000000000000000000000000000000000ffffffffffff",
        "nonce": "0x648",
        "chainId": "0x2105"
      },
      "additionalContracts": [],
      "isFixedGasLimit": false
    },
    {
      "hash": "0x5c4001c3ff8a1b8eb825ca9d0eddd523098b4753b3d104216df69e0228601c04",
      "transactionType": "CALL",
      "contractName": null,
      "contractAddress": "0x7c5f5a4bbd8fd63184577525326123b519429bdc",
      "function": "multicall(bytes[])",
      "arguments": [
        "[0xf70204050000000000000000000000004735b6aee529640b265d50d1409c4503e4ef2c230000000000000000000000004ff1e057f891060ff6837567c65aa8364d11eabd000000000000000000000000000000000000000000000000000000000080000000000000000000000000000000000000000000000000000000000000000000010000000000000000000000002b78900ca4e5b16803433ad903256e838eada0880000000000000000000000000000000000000000fffddbdd2aff804ca3c14cc200000000000000000000000000000000000000000000000000000000000000e00000000000000000000000000000000000000000000000000000000000000000, 0xdd46508f000000000000000000000000000000000000000000000000000000000000004000000000000000000000000000000000000000000000000000000000685542aa0000000000000000000000000000000000000000000000000000000000000400000000000000000000000000000000000000000000000000000000000000004000000000000000000000000000000000000000000000000000000000000000800000000000000000000000000000000000000000000000000000000000000004020d14140000000000000000000000000000000000000000000000000000000000000000000000000000000000000000000000000000000000000000000000040000000000000000000000000000000000000000000000000000000000000080000000000000000000000000000000000000000000000000000000000000024000000000000000000000000000000000000000000000000000000000000002a0000000000000000000000000000000000000000000000000000000000000030000000000000000000000000000000000000000000000000000000000000001a00000000000000000000000004735b6aee529640b265d50d1409c4503e4ef2c230000000000000000000000004ff1e057f891060ff6837567c65aa8364d11eabd000000000000000000000000000000000000000000000000000000000080000000000000000000000000000000000000000000000000000000000000000000010000000000000000000000002b78900ca4e5b16803433ad903256e838eada088fffffffffffffffffffffffffffffffffffffffffffffffffffffffffffffd1100000000000000000000000000000000000000000000000000000000000002ed0000000000000000000000000000000000000000000000000000000652d818e1000000000000000000000000000000000000000000000000000000003b9aca01000000000000000000000000000000000000000000000000000000003b9aca01000000000000000000000000f39fd6e51aad88f6f4ce6ab8827279cfffb922660000000000000000000000000000000000000000000000000000000000000180000000000000000000000000000000000000000000000000000000000000000000000000000000000000000000000000000000000000000000000000000000400000000000000000000000004735b6aee529640b265d50d1409c4503e4ef2c230000000000000000000000004ff1e057f891060ff6837567c65aa8364d11eabd00000000000000000000000000000000000000000000000000000000000000400000000000000000000000004735b6aee529640b265d50d1409c4503e4ef2c23000000000000000000000000f39fd6e51aad88f6f4ce6ab8827279cfffb9226600000000000000000000000000000000000000000000000000000000000000400000000000000000000000004ff1e057f891060ff6837567c65aa8364d11eabd000000000000000000000000f39fd6e51aad88f6f4ce6ab8827279cfffb92266]"
      ],
      "transaction": {
        "from": "0xf39fd6e51aad88f6f4ce6ab8827279cfffb92266",
        "to": "0x7c5f5a4bbd8fd63184577525326123b519429bdc",
        "gas": "0x9f91a",
        "value": "0x0",
        "input": "0xac9650d800000000000000000000000000000000000000000000000000000000000000200000000000000000000000000000000000000000000000000000000000000002000000000000000000000000000000000000000000000000000000000000004000000000000000000000000000000000000000000000000000000000000001800000000000000000000000000000000000000000000000000000000000000104f70204050000000000000000000000004735b6aee529640b265d50d1409c4503e4ef2c230000000000000000000000004ff1e057f891060ff6837567c65aa8364d11eabd000000000000000000000000000000000000000000000000000000000080000000000000000000000000000000000000000000000000000000000000000000010000000000000000000000002b78900ca4e5b16803433ad903256e838eada0880000000000000000000000000000000000000000fffddbdd2aff804ca3c14cc200000000000000000000000000000000000000000000000000000000000000e00000000000000000000000000000000000000000000000000000000000000000000000000000000000000000000000000000000000000000000000000000000000000000000000000000000000000000000000000000000000000464dd46508f000000000000000000000000000000000000000000000000000000000000004000000000000000000000000000000000000000000000000000000000685542aa0000000000000000000000000000000000000000000000000000000000000400000000000000000000000000000000000000000000000000000000000000004000000000000000000000000000000000000000000000000000000000000000800000000000000000000000000000000000000000000000000000000000000004020d14140000000000000000000000000000000000000000000000000000000000000000000000000000000000000000000000000000000000000000000000040000000000000000000000000000000000000000000000000000000000000080000000000000000000000000000000000000000000000000000000000000024000000000000000000000000000000000000000000000000000000000000002a0000000000000000000000000000000000000000000000000000000000000030000000000000000000000000000000000000000000000000000000000000001a00000000000000000000000004735b6aee529640b265d50d1409c4503e4ef2c230000000000000000000000004ff1e057f891060ff6837567c65aa8364d11eabd000000000000000000000000000000000000000000000000000000000080000000000000000000000000000000000000000000000000000000000000000000010000000000000000000000002b78900ca4e5b16803433ad903256e838eada088fffffffffffffffffffffffffffffffffffffffffffffffffffffffffffffd1100000000000000000000000000000000000000000000000000000000000002ed0000000000000000000000000000000000000000000000000000000652d818e1000000000000000000000000000000000000000000000000000000003b9aca01000000000000000000000000000000000000000000000000000000003b9aca01000000000000000000000000f39fd6e51aad88f6f4ce6ab8827279cfffb922660000000000000000000000000000000000000000000000000000000000000180000000000000000000000000000000000000000000000000000000000000000000000000000000000000000000000000000000000000000000000000000000400000000000000000000000004735b6aee529640b265d50d1409c4503e4ef2c230000000000000000000000004ff1e057f891060ff6837567c65aa8364d11eabd00000000000000000000000000000000000000000000000000000000000000400000000000000000000000004735b6aee529640b265d50d1409c4503e4ef2c23000000000000000000000000f39fd6e51aad88f6f4ce6ab8827279cfffb9226600000000000000000000000000000000000000000000000000000000000000400000000000000000000000004ff1e057f891060ff6837567c65aa8364d11eabd000000000000000000000000f39fd6e51aad88f6f4ce6ab8827279cfffb9226600000000000000000000000000000000000000000000000000000000",
        "nonce": "0x649",
        "chainId": "0x2105"
      },
      "additionalContracts": [],
      "isFixedGasLimit": false
    }
  ],
  "receipts": [
    {
      "status": "0x1",
      "cumulativeGasUsed": "0xb9a00",
      "logs": [],
      "logsBloom": "0x00000000000000000000000000000000000000000000000000000000000000000000000000000000000000000000000000000000000000000000000000000000000000000000000000000000000000000000000000000000000000000000000000000000000000000000000000000000000000000000000000000000000000000000000000000000000000000000000000000000000000000000000000000000000000000000000000000000000000000000000000000000000000000000000000000000000000000000000000000000000000000000000000000000000000000000000000000000000000000000000000000000000000000000000000000000",
      "type": "0x2",
      "transactionHash": "0x6fa04b52549981894c63580c66dd315c82209104a7108a5003ba0a133037eed1",
      "transactionIndex": "0x0",
      "blockHash": "0x9901b67a4ed1e8240ba51b951b297ea98deb048da5cfe89493a184d63809167f",
      "blockNumber": "0x1e567fe",
      "gasUsed": "0xb9a00",
      "effectiveGasPrice": "0x23dd1",
      "blobGasPrice": "0x1",
      "from": "0xf39fd6e51aad88f6f4ce6ab8827279cfffb92266",
      "to": null,
      "contractAddress": "0x4735b6aee529640b265d50d1409c4503e4ef2c23"
    },
    {
      "status": "0x1",
      "cumulativeGasUsed": "0x10aab",
      "logs": [
        {
          "address": "0x4735b6aee529640b265d50d1409c4503e4ef2c23",
          "topics": [
            "0xddf252ad1be2c89b69c2b068fc378daa952ba7f163c4a11628f55a4df523b3ef",
            "0x0000000000000000000000000000000000000000000000000000000000000000",
            "0x000000000000000000000000f39fd6e51aad88f6f4ce6ab8827279cfffb92266"
          ],
          "data": "0x000000000000000000000000000000000000000000000000000000e8d4a51000",
          "blockHash": "0xa6f9a62fdba23a15c06798d611628bfae3e77f11978f17cd72b916fcc7378d19",
          "blockNumber": "0x1e567ff",
          "blockTimestamp": "0x6855351d",
          "transactionHash": "0xdb46535ea8be08cca5ab7b06ae0abac24b46ed56642b749e2f4315daeb1c562d",
          "transactionIndex": "0x0",
          "logIndex": "0x0",
          "removed": false
        }
      ],
      "logsBloom": "0x00000000000000000000000000000000000000000000000000000000000000000000000000000000000000000000000000000000000000000000000000000000000000000000000000000008000000000000000000000010000000000000000000000000020000000000000100000800000000000000000000000010000000000000000000000000000000000000000000000000000000000000000000000000000000000000000000000000000000400000000000000000000000000000000000000002000000200400000000000000000000002000000000000000000020000000000000000000000000000000000000000000000000000000000000000000",
      "type": "0x2",
      "transactionHash": "0xdb46535ea8be08cca5ab7b06ae0abac24b46ed56642b749e2f4315daeb1c562d",
      "transactionIndex": "0x0",
      "blockHash": "0xa6f9a62fdba23a15c06798d611628bfae3e77f11978f17cd72b916fcc7378d19",
      "blockNumber": "0x1e567ff",
      "gasUsed": "0x10aab",
      "effectiveGasPrice": "0x20552",
      "blobGasPrice": "0x1",
      "from": "0xf39fd6e51aad88f6f4ce6ab8827279cfffb92266",
      "to": "0x4735b6aee529640b265d50d1409c4503e4ef2c23",
      "contractAddress": null
    },
    {
      "status": "0x1",
      "cumulativeGasUsed": "0xb9a00",
      "logs": [],
      "logsBloom": "0x00000000000000000000000000000000000000000000000000000000000000000000000000000000000000000000000000000000000000000000000000000000000000000000000000000000000000000000000000000000000000000000000000000000000000000000000000000000000000000000000000000000000000000000000000000000000000000000000000000000000000000000000000000000000000000000000000000000000000000000000000000000000000000000000000000000000000000000000000000000000000000000000000000000000000000000000000000000000000000000000000000000000000000000000000000000",
      "type": "0x2",
      "transactionHash": "0xc934790062e5061bc86835c03efac1b3b4a087eb00969e086ca3095cf945bdd3",
      "transactionIndex": "0x0",
      "blockHash": "0xd7a4ab90c57adb474bd69453717139f50158bbaa0b32b598675e1ca5a23aad33",
      "blockNumber": "0x1e56800",
      "gasUsed": "0xb9a00",
      "effectiveGasPrice": "0x1d35a",
      "blobGasPrice": "0x1",
      "from": "0xf39fd6e51aad88f6f4ce6ab8827279cfffb92266",
      "to": null,
      "contractAddress": "0x4ff1e057f891060ff6837567c65aa8364d11eabd"
    },
    {
      "status": "0x1",
      "cumulativeGasUsed": "0x10aab",
      "logs": [
        {
          "address": "0x4ff1e057f891060ff6837567c65aa8364d11eabd",
          "topics": [
            "0xddf252ad1be2c89b69c2b068fc378daa952ba7f163c4a11628f55a4df523b3ef",
            "0x0000000000000000000000000000000000000000000000000000000000000000",
            "0x000000000000000000000000f39fd6e51aad88f6f4ce6ab8827279cfffb92266"
          ],
          "data": "0x000000000000000000000000000000000000000000000000000000e8d4a51000",
          "blockHash": "0x62f75464696cc9eb13cd3865022d66720acd476c0ba12bf4d4b273997dff24ef",
          "blockNumber": "0x1e56801",
          "blockTimestamp": "0x6855351d",
          "transactionHash": "0xcb2fb5014c459fd96a0ca524dc87f630d79164f1bd153ec532caa9424443362d",
          "transactionIndex": "0x0",
          "logIndex": "0x0",
          "removed": false
        }
      ],
      "logsBloom": "0x00000000000000000000000000000000000000000000000000000000000000000000000000000000000000000000000000000000000000000000000000000000000000000000000000000008000000000000000000000000000000000000000000000000020000000000000100000800000000000000000000000010000000000000000000000000000000000000000000000000000000000000000000000000000000000000000000000000000000000000000000000000000000000000000000000002000000200000000000000000000000002000000000010200000020000000000000000400000000000000000000000000000000000000000000000000",
      "type": "0x2",
      "transactionHash": "0xcb2fb5014c459fd96a0ca524dc87f630d79164f1bd153ec532caa9424443362d",
      "transactionIndex": "0x0",
      "blockHash": "0x62f75464696cc9eb13cd3865022d66720acd476c0ba12bf4d4b273997dff24ef",
      "blockNumber": "0x1e56801",
      "gasUsed": "0x10aab",
      "effectiveGasPrice": "0x1a807",
      "blobGasPrice": "0x1",
      "from": "0xf39fd6e51aad88f6f4ce6ab8827279cfffb92266",
      "to": "0x4ff1e057f891060ff6837567c65aa8364d11eabd",
      "contractAddress": null
    },
    {
      "status": "0x1",
      "cumulativeGasUsed": "0xb55b",
      "logs": [
        {
          "address": "0x4ff1e057f891060ff6837567c65aa8364d11eabd",
          "topics": [
            "0x8c5be1e5ebec7d5bd14f71427d1e84f3dd0314c0f7b2291e5b200ac8c7c3b925",
            "0x000000000000000000000000f39fd6e51aad88f6f4ce6ab8827279cfffb92266",
            "0x000000000000000000000000000000000022d473030f116ddee9f6b43ac78ba3"
          ],
          "data": "0xffffffffffffffffffffffffffffffffffffffffffffffffffffffffffffffff",
          "blockHash": "0xf53e358b7b88c1d3652b5a0c9e7151a506bff44a569c11afad7524f97ce572ba",
          "blockNumber": "0x1e56802",
          "blockTimestamp": "0x6855351d",
          "transactionHash": "0xaaff53380137160375495cd12a8d8fc86d411a8c6bed841864d52b4381d1d0ab",
          "transactionIndex": "0x0",
          "logIndex": "0x0",
          "removed": false
        }
      ],
      "logsBloom": "0x00000000000000000000000000000000000000000000000000000000000000000000000000000000000000000000000000000000800000000000000000200000000000000000000000004000000000000000000000000800000000000000000000000000000000000000000100000000000000000000000000000000000000000000000000000000000000000000000000000000000000000000000000000000020000000000000000000000000000000000000000000000000000000000000000000000000000200000000000000000000000002000000000010200000000000010000000000400000000000000000000000000000000000000000000000000",
      "type": "0x2",
      "transactionHash": "0xaaff53380137160375495cd12a8d8fc86d411a8c6bed841864d52b4381d1d0ab",
      "transactionIndex": "0x0",
      "blockHash": "0xf53e358b7b88c1d3652b5a0c9e7151a506bff44a569c11afad7524f97ce572ba",
      "blockNumber": "0x1e56802",
      "gasUsed": "0xb55b",
      "effectiveGasPrice": "0x181b6",
      "blobGasPrice": "0x1",
      "from": "0xf39fd6e51aad88f6f4ce6ab8827279cfffb92266",
      "to": "0x4ff1e057f891060ff6837567c65aa8364d11eabd",
      "contractAddress": null
    },
    {
      "status": "0x1",
      "cumulativeGasUsed": "0xbaca",
      "logs": [
        {
          "address": "0x000000000022d473030f116ddee9f6b43ac78ba3",
          "topics": [
            "0xda9fa7c1b00402c17d0161b249b1ab8bbec047c5a52207b9c112deffd817036b",
            "0x000000000000000000000000f39fd6e51aad88f6f4ce6ab8827279cfffb92266",
            "0x0000000000000000000000004ff1e057f891060ff6837567c65aa8364d11eabd",
            "0x0000000000000000000000007c5f5a4bbd8fd63184577525326123b519429bdc"
          ],
          "data": "0x000000000000000000000000ffffffffffffffffffffffffffffffffffffffff0000000000000000000000000000000000000000000000000000ffffffffffff",
          "blockHash": "0x3af5240fbc9da1d8c4e6f0367f3f62c74f6410014b3f5731f6f0f738d310a130",
          "blockNumber": "0x1e56803",
          "blockTimestamp": "0x6855351d",
          "transactionHash": "0x7c3e941910660de311228048ffe7269d167acbee4f51980c70cc6b0ba7fa3574",
          "transactionIndex": "0x0",
          "logIndex": "0x0",
          "removed": false
        }
      ],
      "logsBloom": "0x00010000000000000000000000000000000000000000000000000000000000000000000000000000000000000000000000000000000000000000000000082000000000000000000000000000000000000000000000000000000000000000000000800000000000000000000100000000000000000000000000000000008000000020000000000000000000000000000000000000000000000000000000000000000000000000000000000000000000000000000000000000000000080000000200000000000000200000000000000000000000082000000040000000000000000000000000000000000000000000000000000000002000000000000000000400",
      "type": "0x2",
      "transactionHash": "0x7c3e941910660de311228048ffe7269d167acbee4f51980c70cc6b0ba7fa3574",
      "transactionIndex": "0x0",
      "blockHash": "0x3af5240fbc9da1d8c4e6f0367f3f62c74f6410014b3f5731f6f0f738d310a130",
      "blockNumber": "0x1e56803",
      "gasUsed": "0xbaca",
      "effectiveGasPrice": "0x1602b",
      "blobGasPrice": "0x1",
      "from": "0xf39fd6e51aad88f6f4ce6ab8827279cfffb92266",
      "to": "0x000000000022d473030f116ddee9f6b43ac78ba3",
      "contractAddress": null
    },
    {
      "status": "0x1",
      "cumulativeGasUsed": "0x17025",
      "logs": [
        {
          "address": "0x4735b6aee529640b265d50d1409c4503e4ef2c23",
          "topics": [
            "0x8c5be1e5ebec7d5bd14f71427d1e84f3dd0314c0f7b2291e5b200ac8c7c3b925",
            "0x000000000000000000000000f39fd6e51aad88f6f4ce6ab8827279cfffb92266",
            "0x000000000000000000000000000000000022d473030f116ddee9f6b43ac78ba3"
          ],
          "data": "0xffffffffffffffffffffffffffffffffffffffffffffffffffffffffffffffff",
          "blockHash": "0x3af5240fbc9da1d8c4e6f0367f3f62c74f6410014b3f5731f6f0f738d310a130",
          "blockNumber": "0x1e56803",
          "blockTimestamp": "0x6855351d",
          "transactionHash": "0x21d07f13cc679a609c1aefa27793e11f6b3be8154c4bd2f36fffb24c53dd1ba4",
          "transactionIndex": "0x1",
          "logIndex": "0x1",
          "removed": false
        }
      ],
      "logsBloom": "0x00000000000000000000000000000000000000000000000000000000000000000000000000000000000000000000000000000000800000000000000000200000000000000000000000004000000000000000000000000810000000000000000000000000000000000000000100000000000000000000000000000000000000000000000000000000000000000000000000000000000000000000000000000000020000000000000000000000000000400000000000000000000000000000000000000000000000200400000000000000000000002000000000000000000000000010000000000000000000000000000000000000000000000000000000000000",
      "type": "0x2",
      "transactionHash": "0x21d07f13cc679a609c1aefa27793e11f6b3be8154c4bd2f36fffb24c53dd1ba4",
      "transactionIndex": "0x1",
      "blockHash": "0x3af5240fbc9da1d8c4e6f0367f3f62c74f6410014b3f5731f6f0f738d310a130",
      "blockNumber": "0x1e56803",
      "gasUsed": "0xb55b",
      "effectiveGasPrice": "0x1602b",
      "blobGasPrice": "0x1",
      "from": "0xf39fd6e51aad88f6f4ce6ab8827279cfffb92266",
      "to": "0x4735b6aee529640b265d50d1409c4503e4ef2c23",
      "contractAddress": null
    },
    {
      "status": "0x1",
      "cumulativeGasUsed": "0xbaca",
      "logs": [
        {
          "address": "0x000000000022d473030f116ddee9f6b43ac78ba3",
          "topics": [
            "0xda9fa7c1b00402c17d0161b249b1ab8bbec047c5a52207b9c112deffd817036b",
            "0x000000000000000000000000f39fd6e51aad88f6f4ce6ab8827279cfffb92266",
            "0x0000000000000000000000004735b6aee529640b265d50d1409c4503e4ef2c23",
            "0x0000000000000000000000007c5f5a4bbd8fd63184577525326123b519429bdc"
          ],
          "data": "0x000000000000000000000000ffffffffffffffffffffffffffffffffffffffff0000000000000000000000000000000000000000000000000000ffffffffffff",
          "blockHash": "0x18d71d8a36b16a7515da9fbaa1c345d6aa7086693d398b308d774937de3254d3",
          "blockNumber": "0x1e56804",
          "blockTimestamp": "0x6855351d",
          "transactionHash": "0xec074c524af5e1b3b45e46cbee70552544fce7c3acfdf09b52e8d2bbb7266630",
          "transactionIndex": "0x0",
          "logIndex": "0x0",
          "removed": false
        }
      ],
      "logsBloom": "0x00010000000000000000000000000000000000000000000000000000000000000000000000000000000000000000000000000000000000000000000000082000000000000100000000000000000000000000000000000000000000000000000000000000000000000000000100000000000000000000000000000000000000000020000000000000000000000000000000000000000000000000000000000000000000000010000000000000000000000000000008000000000000080000000200000000000000200000000000000000000000002000000040000000000000000000000000000000000000000000000000000000002000000000000000000400",
      "type": "0x2",
      "transactionHash": "0xec074c524af5e1b3b45e46cbee70552544fce7c3acfdf09b52e8d2bbb7266630",
      "transactionIndex": "0x0",
      "blockHash": "0x18d71d8a36b16a7515da9fbaa1c345d6aa7086693d398b308d774937de3254d3",
      "blockNumber": "0x1e56804",
      "gasUsed": "0xbaca",
      "effectiveGasPrice": "0x142d6",
      "blobGasPrice": "0x1",
      "from": "0xf39fd6e51aad88f6f4ce6ab8827279cfffb92266",
      "to": "0x000000000022d473030f116ddee9f6b43ac78ba3",
      "contractAddress": null
    },
    {
      "status": "0x1",
      "cumulativeGasUsed": "0x7f331",
      "logs": [
        {
          "address": "0x498581ff718922c3f8e6a244956af099b2652b2b",
          "topics": [
            "0xdd466e674ea557f56295e2d0218a125ea4b4f0f6f3307b95f85e6110838d6438",
            "0x02358c43e21c7a481fe659cf5e6a2396c6f654456842f3788805bd3dceebc7e4",
            "0x0000000000000000000000004735b6aee529640b265d50d1409c4503e4ef2c23",
            "0x0000000000000000000000004ff1e057f891060ff6837567c65aa8364d11eabd"
          ],
          "data": "0x000000000000000000000000000000000000000000000000000000000080000000000000000000000000000000000000000000000000000000000000000000010000000000000000000000002b78900ca4e5b16803433ad903256e838eada0880000000000000000000000000000000000000000fffddbdd2aff804ca3c14cc2ffffffffffffffffffffffffffffffffffffffffffffffffffffffffffffffff",
          "blockHash": "0x18d71d8a36b16a7515da9fbaa1c345d6aa7086693d398b308d774937de3254d3",
          "blockNumber": "0x1e56804",
          "blockTimestamp": "0x6855351d",
          "transactionHash": "0x5c4001c3ff8a1b8eb825ca9d0eddd523098b4753b3d104216df69e0228601c04",
          "transactionIndex": "0x1",
          "logIndex": "0x1",
          "removed": false
        },
        {
          "address": "0x7c5f5a4bbd8fd63184577525326123b519429bdc",
          "topics": [
            "0xddf252ad1be2c89b69c2b068fc378daa952ba7f163c4a11628f55a4df523b3ef",
            "0x0000000000000000000000000000000000000000000000000000000000000000",
            "0x000000000000000000000000f39fd6e51aad88f6f4ce6ab8827279cfffb92266",
            "0x0000000000000000000000000000000000000000000000000000000000011f54"
          ],
          "data": "0x",
          "blockHash": "0x18d71d8a36b16a7515da9fbaa1c345d6aa7086693d398b308d774937de3254d3",
          "blockNumber": "0x1e56804",
          "blockTimestamp": "0x6855351d",
          "transactionHash": "0x5c4001c3ff8a1b8eb825ca9d0eddd523098b4753b3d104216df69e0228601c04",
          "transactionIndex": "0x1",
          "logIndex": "0x2",
          "removed": false
        },
        {
          "address": "0x498581ff718922c3f8e6a244956af099b2652b2b",
          "topics": [
            "0xf208f4912782fd25c7f114ca3723a2d5dd6f3bcc3ac8db5af63baa85f711d5ec",
            "0x02358c43e21c7a481fe659cf5e6a2396c6f654456842f3788805bd3dceebc7e4",
            "0x0000000000000000000000007c5f5a4bbd8fd63184577525326123b519429bdc"
          ],
          "data": "0xfffffffffffffffffffffffffffffffffffffffffffffffffffffffffffffd1100000000000000000000000000000000000000000000000000000000000002ed0000000000000000000000000000000000000000000000000000000652d818e10000000000000000000000000000000000000000000000000000000000011f54",
          "blockHash": "0x18d71d8a36b16a7515da9fbaa1c345d6aa7086693d398b308d774937de3254d3",
          "blockNumber": "0x1e56804",
          "blockTimestamp": "0x6855351d",
          "transactionHash": "0x5c4001c3ff8a1b8eb825ca9d0eddd523098b4753b3d104216df69e0228601c04",
          "transactionIndex": "0x1",
          "logIndex": "0x3",
          "removed": false
        },
        {
          "address": "0x4735b6aee529640b265d50d1409c4503e4ef2c23",
          "topics": [
            "0xddf252ad1be2c89b69c2b068fc378daa952ba7f163c4a11628f55a4df523b3ef",
            "0x000000000000000000000000f39fd6e51aad88f6f4ce6ab8827279cfffb92266",
            "0x000000000000000000000000498581ff718922c3f8e6a244956af099b2652b2b"
          ],
          "data": "0x000000000000000000000000000000000000000000000000000000003b8df43a",
          "blockHash": "0x18d71d8a36b16a7515da9fbaa1c345d6aa7086693d398b308d774937de3254d3",
          "blockNumber": "0x1e56804",
          "blockTimestamp": "0x6855351d",
          "transactionHash": "0x5c4001c3ff8a1b8eb825ca9d0eddd523098b4753b3d104216df69e0228601c04",
          "transactionIndex": "0x1",
          "logIndex": "0x4",
          "removed": false
        },
        {
          "address": "0x4ff1e057f891060ff6837567c65aa8364d11eabd",
          "topics": [
            "0xddf252ad1be2c89b69c2b068fc378daa952ba7f163c4a11628f55a4df523b3ef",
            "0x000000000000000000000000f39fd6e51aad88f6f4ce6ab8827279cfffb92266",
            "0x000000000000000000000000498581ff718922c3f8e6a244956af099b2652b2b"
          ],
          "data": "0x000000000000000000000000000000000000000000000000000000003b9aca00",
          "blockHash": "0x18d71d8a36b16a7515da9fbaa1c345d6aa7086693d398b308d774937de3254d3",
          "blockNumber": "0x1e56804",
          "blockTimestamp": "0x6855351d",
          "transactionHash": "0x5c4001c3ff8a1b8eb825ca9d0eddd523098b4753b3d104216df69e0228601c04",
          "transactionIndex": "0x1",
          "logIndex": "0x5",
          "removed": false
        }
      ],
      "logsBloom": "0x00000000001000000000000000000000000000000000000000000000000000000020000000000000000000000000000000000000000000000000000000002000000000000100000000000008000000000000000000000010000000000000000000800000820000000000000100000800040000000000000000000010008000000000000001004008000000000000000000000001000000000000000400200000004004000010000008000000000000400000000008000000000000000000200200000082000001a00400000000000000000800082000000000010200000020000000000000000400000000000000000004000400002000000000000000000000",
      "type": "0x2",
      "transactionHash": "0x5c4001c3ff8a1b8eb825ca9d0eddd523098b4753b3d104216df69e0228601c04",
      "transactionIndex": "0x1",
      "blockHash": "0x18d71d8a36b16a7515da9fbaa1c345d6aa7086693d398b308d774937de3254d3",
      "blockNumber": "0x1e56804",
      "gasUsed": "0x73867",
      "effectiveGasPrice": "0x142d6",
      "blobGasPrice": "0x1",
      "from": "0xf39fd6e51aad88f6f4ce6ab8827279cfffb92266",
      "to": "0x7c5f5a4bbd8fd63184577525326123b519429bdc",
      "contractAddress": null
    }
  ],
  "libraries": [],
  "pending": [],
  "returns": {},
  "timestamp": 1750414623,
  "chain": 8453,
  "commit": "872d4a5"
}