{
  "transactions": [
    {
      "hash": "0x61daedb7093e635674ddfeccc52733415bcfe620e6e44db140169f91ed35f370",
      "transactionType": "CREATE",
      "contractName": "MockERC20",
      "contractAddress": "0xef2d70e4a7297b31a1245253904a4ca975ca7e12",
      "function": null,
      "arguments": [
        "MockUSDT",
        "USDTm",
        "6"
      ],
      "transaction": {
        "from": "0xf39fd6e51aad88f6f4ce6ab8827279cfffb92266",
        "gas": "0xf1500",
        "value": "0x0",
        "input": "0x60e060405234801561000f575f80fd5b50604051610f9d380380610f9d83398101604081905261002e916101a1565b8282825f61003c84826102a2565b50600161004983826102a2565b5060ff81166080524660a05261005d61006c565b60c052506103cd945050505050565b5f7f8b73c3c69bb8fe3d512ecc4cf759cc79239f7b179b0ffacaa9a75d522b39400f5f60405161009c919061035c565b6040805191829003822060208301939093528101919091527fc89efdaa54c0f20c7adf612882df0950f5a951637e0307cdcb4c672f298b8bc660608201524660808201523060a082015260c00160405160208183030381529060405280519060200120905090565b634e487b7160e01b5f52604160045260245ffd5b5f82601f830112610127575f80fd5b81516001600160401b0381111561014057610140610104565b604051601f8201601f19908116603f011681016001600160401b038111828210171561016e5761016e610104565b604052818152838201602001851015610185575f80fd5b8160208501602083015e5f918101602001919091529392505050565b5f805f606084860312156101b3575f80fd5b83516001600160401b038111156101c8575f80fd5b6101d486828701610118565b602086015190945090506001600160401b038111156101f1575f80fd5b6101fd86828701610118565b925050604084015160ff81168114610213575f80fd5b809150509250925092565b600181811c9082168061023257607f821691505b60208210810361025057634e487b7160e01b5f52602260045260245ffd5b50919050565b601f82111561029d57805f5260205f20601f840160051c8101602085101561027b5750805b601f840160051c820191505b8181101561029a575f8155600101610287565b50505b505050565b81516001600160401b038111156102bb576102bb610104565b6102cf816102c9845461021e565b84610256565b6020601f821160018114610301575f83156102ea5750848201515b5f19600385901b1c1916600184901b17845561029a565b5f84815260208120601f198516915b828110156103305787850151825560209485019460019092019101610310565b508482101561034d57868401515f19600387901b60f8161c191681555b50505050600190811b01905550565b5f8083546103698161021e565b6001821680156103805760018114610395576103c2565b60ff19831686528115158202860193506103c2565b865f5260205f205f5b838110156103ba5781548882015260019091019060200161039e565b505081860193505b509195945050505050565b60805160a05160c051610ba66103f75f395f61046f01525f61043a01525f6101590152610ba65ff3fe608060405234801561000f575f80fd5b50600436106100e5575f3560e01c806370a08231116100885780639dc29fac116100635780639dc29fac146101f0578063a9059cbb14610203578063d505accf14610216578063dd62ed3e14610229575f80fd5b806370a08231146101aa5780637ecebe00146101c957806395d89b41146101e8575f80fd5b806323b872dd116100c357806323b872dd14610141578063313ce567146101545780633644e5151461018d57806340c10f1914610195575f80fd5b806306fdde03146100e9578063095ea7b31461010757806318160ddd1461012a575b5f80fd5b6100f1610253565b6040516100fe91906108f2565b60405180910390f35b61011a610115366004610942565b6102de565b60405190151581526020016100fe565b61013360025481565b6040519081526020016100fe565b61011a61014f36600461096a565b61034a565b61017b7f000000000000000000000000000000000000000000000000000000000000000081565b60405160ff90911681526020016100fe565b610133610437565b6101a86101a3366004610942565b610491565b005b6101336101b83660046109a4565b60036020525f908152604090205481565b6101336101d73660046109a4565b60056020525f908152604090205481565b6100f161049f565b6101a86101fe366004610942565b6104ac565b61011a610211366004610942565b6104b6565b6101a86102243660046109c4565b61052c565b610133610237366004610a31565b600460209081525f928352604080842090915290825290205481565b5f805461025f90610a62565b80601f016020809104026020016040519081016040528092919081815260200182805461028b90610a62565b80156102d65780601f106102ad576101008083540402835291602001916102d6565b820191905f5260205f20905b8154815290600101906020018083116102b957829003601f168201915b505050505081565b335f8181526004602090815260408083206001600160a01b038716808552925280832085905551919290917f8c5be1e5ebec7d5bd14f71427d1e84f3dd0314c0f7b2291e5b200ac8c7c3b925906103389086815260200190565b60405180910390a35060015b92915050565b6001600160a01b0383165f9081526004602090815260408083203384529091528120545f1981146103a35761037f8382610aae565b6001600160a01b0386165f9081526004602090815260408083203384529091529020555b6001600160a01b0385165f90815260036020526040812080548592906103ca908490610aae565b90915550506001600160a01b038085165f81815260036020526040908190208054870190555190918716907fddf252ad1be2c89b69c2b068fc378daa952ba7f163c4a11628f55a4df523b3ef906104249087815260200190565b60405180910390a3506001949350505050565b5f7f0000000000000000000000000000000000000000000000000000000000000000461461046c5761046761077e565b905090565b507f000000000000000000000000000000000000000000000000000000000000000090565b61049b8282610816565b5050565b6001805461025f90610a62565b61049b8282610880565b335f908152600360205260408120805483919083906104d6908490610aae565b90915550506001600160a01b0383165f81815260036020526040908190208054850190555133907fddf252ad1be2c89b69c2b068fc378daa952ba7f163c4a11628f55a4df523b3ef906103389086815260200190565b428410156105815760405162461bcd60e51b815260206004820152601760248201527f5045524d49545f444541444c494e455f4558504952454400000000000000000060448201526064015b60405180910390fd5b5f600161058c610437565b6001600160a01b038a81165f8181526005602090815260409182902080546001810190915582517f6e71edae12b1b97f4d1f60370fef10105fa2faae0126114a169c64845d6126c98184015280840194909452938d166060840152608083018c905260a083019390935260c08083018b90528151808403909101815260e08301909152805192019190912061190160f01b6101008301526101028201929092526101228101919091526101420160408051601f1981840301815282825280516020918201205f84529083018083525260ff871690820152606081018590526080810184905260a0016020604051602081039080840390855afa158015610694573d5f803e3d5ffd5b5050604051601f1901519150506001600160a01b038116158015906106ca5750876001600160a01b0316816001600160a01b0316145b6107165760405162461bcd60e51b815260206004820152600e60248201527f494e56414c49445f5349474e45520000000000000000000000000000000000006044820152606401610578565b6001600160a01b039081165f9081526004602090815260408083208a8516808552908352928190208990555188815291928a16917f8c5be1e5ebec7d5bd14f71427d1e84f3dd0314c0f7b2291e5b200ac8c7c3b925910160405180910390a350505050505050565b5f7f8b73c3c69bb8fe3d512ecc4cf759cc79239f7b179b0ffacaa9a75d522b39400f5f6040516107ae9190610ac1565b6040805191829003822060208301939093528101919091527fc89efdaa54c0f20c7adf612882df0950f5a951637e0307cdcb4c672f298b8bc660608201524660808201523060a082015260c00160405160208183030381529060405280519060200120905090565b8060025f8282546108279190610b5d565b90915550506001600160a01b0382165f818152600360209081526040808320805486019055518481527fddf252ad1be2c89b69c2b068fc378daa952ba7f163c4a11628f55a4df523b3ef91015b60405180910390a35050565b6001600160a01b0382165f90815260036020526040812080548392906108a7908490610aae565b90915550506002805482900390556040518181525f906001600160a01b038416907fddf252ad1be2c89b69c2b068fc378daa952ba7f163c4a11628f55a4df523b3ef90602001610874565b602081525f82518060208401528060208501604085015e5f604082850101526040601f19601f83011684010191505092915050565b80356001600160a01b038116811461093d575f80fd5b919050565b5f8060408385031215610953575f80fd5b61095c83610927565b946020939093013593505050565b5f805f6060848603121561097c575f80fd5b61098584610927565b925061099360208501610927565b929592945050506040919091013590565b5f602082840312156109b4575f80fd5b6109bd82610927565b9392505050565b5f805f805f805f60e0888a0312156109da575f80fd5b6109e388610927565b96506109f160208901610927565b95506040880135945060608801359350608088013560ff81168114610a14575f80fd5b9699959850939692959460a0840135945060c09093013592915050565b5f8060408385031215610a42575f80fd5b610a4b83610927565b9150610a5960208401610927565b90509250929050565b600181811c90821680610a7657607f821691505b602082108103610a9457634e487b7160e01b5f52602260045260245ffd5b50919050565b634e487b7160e01b5f52601160045260245ffd5b8181038181111561034457610344610a9a565b5f8083545f8160011c90506001821680610adc57607f821691505b602082108103610afa57634e487b7160e01b5f52602260045260245ffd5b808015610b0e5760018114610b2357610b51565b60ff1984168752821515830287019450610b51565b5f888152602090205f5b84811015610b4957815489820152600190910190602001610b2d565b505082870194505b50929695505050505050565b8082018082111561034457610344610a9a56fea2646970667358221220a05e34ddb48f52d405fa6fda9fc084c0c8c8c01a5ff05e21be9990d65a0fb21664736f6c634300081a0033000000000000000000000000000000000000000000000000000000000000006000000000000000000000000000000000000000000000000000000000000000a0000000000000000000000000000000000000000000000000000000000000000600000000000000000000000000000000000000000000000000000000000000084d6f636b555344540000000000000000000000000000000000000000000000000000000000000000000000000000000000000000000000000000000000000005555344546d000000000000000000000000000000000000000000000000000000",
        "nonce": "0x64a",
        "chainId": "0x2105"
      },
      "additionalContracts": [],
      "isFixedGasLimit": false
    },
    {
      "hash": "0xe5960a80db274f4a0d1a448489f2cf19e2ae1680c52030deecf21efd9c9d1e79",
      "transactionType": "CALL",
      "contractName": "MockERC20",
      "contractAddress": "0xef2d70e4a7297b31a1245253904a4ca975ca7e12",
      "function": "mint(address,uint256)",
      "arguments": [
        "0xf39Fd6e51aad88F6F4ce6aB8827279cffFb92266",
        "1000000000000"
      ],
      "transaction": {
        "from": "0xf39fd6e51aad88f6f4ce6ab8827279cfffb92266",
        "to": "0xef2d70e4a7297b31a1245253904a4ca975ca7e12",
        "gas": "0x18600",
        "value": "0x0",
        "input": "0x40c10f19000000000000000000000000f39fd6e51aad88f6f4ce6ab8827279cfffb92266000000000000000000000000000000000000000000000000000000e8d4a51000",
        "nonce": "0x64b",
        "chainId": "0x2105"
      },
      "additionalContracts": [],
      "isFixedGasLimit": false
    },
    {
      "hash": "0xeb575313b6ed4a602ecad61a637442aec6f5ad3f51dec30390434a9e7131702d",
      "transactionType": "CREATE",
      "contractName": "MockERC20",
      "contractAddress": "0xca64ca47364ac2b3caa3522169712fa830865809",
      "function": null,
      "arguments": [
        "MockUSDC",
        "USDCm",
        "6"
      ],
      "transaction": {
        "from": "0xf39fd6e51aad88f6f4ce6ab8827279cfffb92266",
        "gas": "0xf1500",
        "value": "0x0",
        "input": "0x60e060405234801561000f575f80fd5b50604051610f9d380380610f9d83398101604081905261002e916101a1565b8282825f61003c84826102a2565b50600161004983826102a2565b5060ff81166080524660a05261005d61006c565b60c052506103cd945050505050565b5f7f8b73c3c69bb8fe3d512ecc4cf759cc79239f7b179b0ffacaa9a75d522b39400f5f60405161009c919061035c565b6040805191829003822060208301939093528101919091527fc89efdaa54c0f20c7adf612882df0950f5a951637e0307cdcb4c672f298b8bc660608201524660808201523060a082015260c00160405160208183030381529060405280519060200120905090565b634e487b7160e01b5f52604160045260245ffd5b5f82601f830112610127575f80fd5b81516001600160401b0381111561014057610140610104565b604051601f8201601f19908116603f011681016001600160401b038111828210171561016e5761016e610104565b604052818152838201602001851015610185575f80fd5b8160208501602083015e5f918101602001919091529392505050565b5f805f606084860312156101b3575f80fd5b83516001600160401b038111156101c8575f80fd5b6101d486828701610118565b602086015190945090506001600160401b038111156101f1575f80fd5b6101fd86828701610118565b925050604084015160ff81168114610213575f80fd5b809150509250925092565b600181811c9082168061023257607f821691505b60208210810361025057634e487b7160e01b5f52602260045260245ffd5b50919050565b601f82111561029d57805f5260205f20601f840160051c8101602085101561027b5750805b601f840160051c820191505b8181101561029a575f8155600101610287565b50505b505050565b81516001600160401b038111156102bb576102bb610104565b6102cf816102c9845461021e565b84610256565b6020601f821160018114610301575f83156102ea5750848201515b5f19600385901b1c1916600184901b17845561029a565b5f84815260208120601f198516915b828110156103305787850151825560209485019460019092019101610310565b508482101561034d57868401515f19600387901b60f8161c191681555b50505050600190811b01905550565b5f8083546103698161021e565b6001821680156103805760018114610395576103c2565b60ff19831686528115158202860193506103c2565b865f5260205f205f5b838110156103ba5781548882015260019091019060200161039e565b505081860193505b509195945050505050565b60805160a05160c051610ba66103f75f395f61046f01525f61043a01525f6101590152610ba65ff3fe608060405234801561000f575f80fd5b50600436106100e5575f3560e01c806370a08231116100885780639dc29fac116100635780639dc29fac146101f0578063a9059cbb14610203578063d505accf14610216578063dd62ed3e14610229575f80fd5b806370a08231146101aa5780637ecebe00146101c957806395d89b41146101e8575f80fd5b806323b872dd116100c357806323b872dd14610141578063313ce567146101545780633644e5151461018d57806340c10f1914610195575f80fd5b806306fdde03146100e9578063095ea7b31461010757806318160ddd1461012a575b5f80fd5b6100f1610253565b6040516100fe91906108f2565b60405180910390f35b61011a610115366004610942565b6102de565b60405190151581526020016100fe565b61013360025481565b6040519081526020016100fe565b61011a61014f36600461096a565b61034a565b61017b7f000000000000000000000000000000000000000000000000000000000000000081565b60405160ff90911681526020016100fe565b610133610437565b6101a86101a3366004610942565b610491565b005b6101336101b83660046109a4565b60036020525f908152604090205481565b6101336101d73660046109a4565b60056020525f908152604090205481565b6100f161049f565b6101a86101fe366004610942565b6104ac565b61011a610211366004610942565b6104b6565b6101a86102243660046109c4565b61052c565b610133610237366004610a31565b600460209081525f928352604080842090915290825290205481565b5f805461025f90610a62565b80601f016020809104026020016040519081016040528092919081815260200182805461028b90610a62565b80156102d65780601f106102ad576101008083540402835291602001916102d6565b820191905f5260205f20905b8154815290600101906020018083116102b957829003601f168201915b505050505081565b335f8181526004602090815260408083206001600160a01b038716808552925280832085905551919290917f8c5be1e5ebec7d5bd14f71427d1e84f3dd0314c0f7b2291e5b200ac8c7c3b925906103389086815260200190565b60405180910390a35060015b92915050565b6001600160a01b0383165f9081526004602090815260408083203384529091528120545f1981146103a35761037f8382610aae565b6001600160a01b0386165f9081526004602090815260408083203384529091529020555b6001600160a01b0385165f90815260036020526040812080548592906103ca908490610aae565b90915550506001600160a01b038085165f81815260036020526040908190208054870190555190918716907fddf252ad1be2c89b69c2b068fc378daa952ba7f163c4a11628f55a4df523b3ef906104249087815260200190565b60405180910390a3506001949350505050565b5f7f0000000000000000000000000000000000000000000000000000000000000000461461046c5761046761077e565b905090565b507f000000000000000000000000000000000000000000000000000000000000000090565b61049b8282610816565b5050565b6001805461025f90610a62565b61049b8282610880565b335f908152600360205260408120805483919083906104d6908490610aae565b90915550506001600160a01b0383165f81815260036020526040908190208054850190555133907fddf252ad1be2c89b69c2b068fc378daa952ba7f163c4a11628f55a4df523b3ef906103389086815260200190565b428410156105815760405162461bcd60e51b815260206004820152601760248201527f5045524d49545f444541444c494e455f4558504952454400000000000000000060448201526064015b60405180910390fd5b5f600161058c610437565b6001600160a01b038a81165f8181526005602090815260409182902080546001810190915582517f6e71edae12b1b97f4d1f60370fef10105fa2faae0126114a169c64845d6126c98184015280840194909452938d166060840152608083018c905260a083019390935260c08083018b90528151808403909101815260e08301909152805192019190912061190160f01b6101008301526101028201929092526101228101919091526101420160408051601f1981840301815282825280516020918201205f84529083018083525260ff871690820152606081018590526080810184905260a0016020604051602081039080840390855afa158015610694573d5f803e3d5ffd5b5050604051601f1901519150506001600160a01b038116158015906106ca5750876001600160a01b0316816001600160a01b0316145b6107165760405162461bcd60e51b815260206004820152600e60248201527f494e56414c49445f5349474e45520000000000000000000000000000000000006044820152606401610578565b6001600160a01b039081165f9081526004602090815260408083208a8516808552908352928190208990555188815291928a16917f8c5be1e5ebec7d5bd14f71427d1e84f3dd0314c0f7b2291e5b200ac8c7c3b925910160405180910390a350505050505050565b5f7f8b73c3c69bb8fe3d512ecc4cf759cc79239f7b179b0ffacaa9a75d522b39400f5f6040516107ae9190610ac1565b6040805191829003822060208301939093528101919091527fc89efdaa54c0f20c7adf612882df0950f5a951637e0307cdcb4c672f298b8bc660608201524660808201523060a082015260c00160405160208183030381529060405280519060200120905090565b8060025f8282546108279190610b5d565b90915550506001600160a01b0382165f818152600360209081526040808320805486019055518481527fddf252ad1be2c89b69c2b068fc378daa952ba7f163c4a11628f55a4df523b3ef91015b60405180910390a35050565b6001600160a01b0382165f90815260036020526040812080548392906108a7908490610aae565b90915550506002805482900390556040518181525f906001600160a01b038416907fddf252ad1be2c89b69c2b068fc378daa952ba7f163c4a11628f55a4df523b3ef90602001610874565b602081525f82518060208401528060208501604085015e5f604082850101526040601f19601f83011684010191505092915050565b80356001600160a01b038116811461093d575f80fd5b919050565b5f8060408385031215610953575f80fd5b61095c83610927565b946020939093013593505050565b5f805f6060848603121561097c575f80fd5b61098584610927565b925061099360208501610927565b929592945050506040919091013590565b5f602082840312156109b4575f80fd5b6109bd82610927565b9392505050565b5f805f805f805f60e0888a0312156109da575f80fd5b6109e388610927565b96506109f160208901610927565b95506040880135945060608801359350608088013560ff81168114610a14575f80fd5b9699959850939692959460a0840135945060c09093013592915050565b5f8060408385031215610a42575f80fd5b610a4b83610927565b9150610a5960208401610927565b90509250929050565b600181811c90821680610a7657607f821691505b602082108103610a9457634e487b7160e01b5f52602260045260245ffd5b50919050565b634e487b7160e01b5f52601160045260245ffd5b8181038181111561034457610344610a9a565b5f8083545f8160011c90506001821680610adc57607f821691505b602082108103610afa57634e487b7160e01b5f52602260045260245ffd5b808015610b0e5760018114610b2357610b51565b60ff1984168752821515830287019450610b51565b5f888152602090205f5b84811015610b4957815489820152600190910190602001610b2d565b505082870194505b50929695505050505050565b8082018082111561034457610344610a9a56fea2646970667358221220a05e34ddb48f52d405fa6fda9fc084c0c8c8c01a5ff05e21be9990d65a0fb21664736f6c634300081a0033000000000000000000000000000000000000000000000000000000000000006000000000000000000000000000000000000000000000000000000000000000a0000000000000000000000000000000000000000000000000000000000000000600000000000000000000000000000000000000000000000000000000000000084d6f636b555344430000000000000000000000000000000000000000000000000000000000000000000000000000000000000000000000000000000000000005555344436d000000000000000000000000000000000000000000000000000000",
        "nonce": "0x64c",
        "chainId": "0x2105"
      },
      "additionalContracts": [],
      "isFixedGasLimit": false
    },
    {
      "hash": "0x032063b0d6cb9164f36cca5a91bbdf6b131cb3907ab7b03f69ed99de2948abcd",
      "transactionType": "CALL",
      "contractName": "MockERC20",
      "contractAddress": "0xca64ca47364ac2b3caa3522169712fa830865809",
      "function": "mint(address,uint256)",
      "arguments": [
        "0xf39Fd6e51aad88F6F4ce6aB8827279cffFb92266",
        "1000000000000"
      ],
      "transaction": {
        "from": "0xf39fd6e51aad88f6f4ce6ab8827279cfffb92266",
        "to": "0xca64ca47364ac2b3caa3522169712fa830865809",
        "gas": "0x18600",
        "value": "0x0",
        "input": "0x40c10f19000000000000000000000000f39fd6e51aad88f6f4ce6ab8827279cfffb92266000000000000000000000000000000000000000000000000000000e8d4a51000",
        "nonce": "0x64d",
        "chainId": "0x2105"
      },
      "additionalContracts": [],
      "isFixedGasLimit": false
    },
    {
      "hash": "0xf936f06ca546a03d9dea1b3954660e62b321e51800e240c3172fea64610f643b",
      "transactionType": "CALL",
      "contractName": "MockERC20",
      "contractAddress": "0xca64ca47364ac2b3caa3522169712fa830865809",
      "function": "approve(address,uint256)",
      "arguments": [
        "0x000000000022D473030F116dDEE9F6B43aC78BA3",
        "115792089237316195423570985008687907853269984665640564039457584007913129639935"
      ],
      "transaction": {
        "from": "0xf39fd6e51aad88f6f4ce6ab8827279cfffb92266",
        "to": "0xca64ca47364ac2b3caa3522169712fa830865809",
        "gas": "0x1093b",
        "value": "0x0",
        "input": "0x095ea7b3000000000000000000000000000000000022d473030f116ddee9f6b43ac78ba3ffffffffffffffffffffffffffffffffffffffffffffffffffffffffffffffff",
        "nonce": "0x64e",
        "chainId": "0x2105"
      },
      "additionalContracts": [],
      "isFixedGasLimit": false
    },
    {
      "hash": "0xb4ac72111e0fb466798adc1d75e95171f6f87d7bd5f594a6c4a9a9367ebef1c2",
      "transactionType": "CALL",
      "contractName": null,
      "contractAddress": "0x000000000022d473030f116ddee9f6b43ac78ba3",
      "function": "approve(address,address,uint160,uint48)",
      "arguments": [
        "0xca64cA47364ac2B3CAa3522169712FA830865809",
        "0x7C5f5A4bBd8fD63184577525326123B519429bDc",
        "1461501637330902918203684832716283019655932542975",
        "281474976710655"
      ],
      "transaction": {
        "from": "0xf39fd6e51aad88f6f4ce6ab8827279cfffb92266",
        "to": "0x000000000022d473030f116ddee9f6b43ac78ba3",
        "gas": "0x1112d",
        "value": "0x0",
        "input": "0x87517c45000000000000000000000000ca64ca47364ac2b3caa3522169712fa8308658090000000000000000000000007c5f5a4bbd8fd63184577525326123b519429bdc000000000000000000000000ffffffffffffffffffffffffffffffffffffffff0000000000000000000000000000000000000000000000000000ffffffffffff",
        "nonce": "0x64f",
        "chainId": "0x2105"
      },
      "additionalContracts": [],
      "isFixedGasLimit": false
    },
    {
      "hash": "0x40d9cd8d2a5de880ff99f77e2981783e020674f4962eba05be472f9818595d71",
      "transactionType": "CALL",
      "contractName": "MockERC20",
      "contractAddress": "0xef2d70e4a7297b31a1245253904a4ca975ca7e12",
      "function": "approve(address,uint256)",
      "arguments": [
        "0x000000000022D473030F116dDEE9F6B43aC78BA3",
        "115792089237316195423570985008687907853269984665640564039457584007913129639935"
      ],
      "transaction": {
        "from": "0xf39fd6e51aad88f6f4ce6ab8827279cfffb92266",
        "to": "0xef2d70e4a7297b31a1245253904a4ca975ca7e12",
        "gas": "0x1093b",
        "value": "0x0",
        "input": "0x095ea7b3000000000000000000000000000000000022d473030f116ddee9f6b43ac78ba3ffffffffffffffffffffffffffffffffffffffffffffffffffffffffffffffff",
        "nonce": "0x650",
        "chainId": "0x2105"
      },
      "additionalContracts": [],
      "isFixedGasLimit": false
    },
    {
      "hash": "0x5075fc7fc731f4ec4771ecce419564930b8f59868902bf0293fe9f9b7f88e200",
      "transactionType": "CALL",
      "contractName": null,
      "contractAddress": "0x000000000022d473030f116ddee9f6b43ac78ba3",
      "function": "approve(address,address,uint160,uint48)",
      "arguments": [
        "0xEf2d70E4a7297B31A1245253904a4cA975CA7e12",
        "0x7C5f5A4bBd8fD63184577525326123B519429bDc",
        "1461501637330902918203684832716283019655932542975",
        "281474976710655"
      ],
      "transaction": {
        "from": "0xf39fd6e51aad88f6f4ce6ab8827279cfffb92266",
        "to": "0x000000000022d473030f116ddee9f6b43ac78ba3",
        "gas": "0x1112d",
        "value": "0x0",
        "input": "0x87517c45000000000000000000000000ef2d70e4a7297b31a1245253904a4ca975ca7e120000000000000000000000007c5f5a4bbd8fd63184577525326123b519429bdc000000000000000000000000ffffffffffffffffffffffffffffffffffffffff0000000000000000000000000000000000000000000000000000ffffffffffff",
        "nonce": "0x651",
        "chainId": "0x2105"
      },
      "additionalContracts": [],
      "isFixedGasLimit": false
    },
    {
      "hash": "0x6d806b2927c5eb73dcdcceb59c6f5fc25fd3520deb9fc7b0639a4b281d4309f6",
      "transactionType": "CALL",
      "contractName": null,
      "contractAddress": "0x7c5f5a4bbd8fd63184577525326123b519429bdc",
      "function": "multicall(bytes[])",
      "arguments": [
        "[0xf7020405000000000000000000000000ca64ca47364ac2b3caa3522169712fa830865809000000000000000000000000ef2d70e4a7297b31a1245253904a4ca975ca7e12000000000000000000000000000000000000000000000000000000000080000000000000000000000000000000000000000000000000000000000000000000010000000000000000000000002b78900ca4e5b16803433ad903256e838eada0880000000000000000000000000000000000000000fffddbdd2aff804ca3c14cc200000000000000000000000000000000000000000000000000000000000000e00000000000000000000000000000000000000000000000000000000000000000, 0xdd46508f0000000000000000000000000000000000000000000000000000000000000040000000000000000000000000000000000000000000000000000000006855432d0000000000000000000000000000000000000000000000000000000000000400000000000000000000000000000000000000000000000000000000000000004000000000000000000000000000000000000000000000000000000000000000800000000000000000000000000000000000000000000000000000000000000004020d14140000000000000000000000000000000000000000000000000000000000000000000000000000000000000000000000000000000000000000000000040000000000000000000000000000000000000000000000000000000000000080000000000000000000000000000000000000000000000000000000000000024000000000000000000000000000000000000000000000000000000000000002a0000000000000000000000000000000000000000000000000000000000000030000000000000000000000000000000000000000000000000000000000000001a0000000000000000000000000ca64ca47364ac2b3caa3522169712fa830865809000000000000000000000000ef2d70e4a7297b31a1245253904a4ca975ca7e12000000000000000000000000000000000000000000000000000000000080000000000000000000000000000000000000000000000000000000000000000000010000000000000000000000002b78900ca4e5b16803433ad903256e838eada088fffffffffffffffffffffffffffffffffffffffffffffffffffffffffffffd1100000000000000000000000000000000000000000000000000000000000002ed0000000000000000000000000000000000000000000000000000000652d818e1000000000000000000000000000000000000000000000000000000003b9aca01000000000000000000000000000000000000000000000000000000003b9aca01000000000000000000000000f39fd6e51aad88f6f4ce6ab8827279cfffb92266000000000000000000000000000000000000000000000000000000000000018000000000000000000000000000000000000000000000000000000000000000000000000000000000000000000000000000000000000000000000000000000040000000000000000000000000ca64ca47364ac2b3caa3522169712fa830865809000000000000000000000000ef2d70e4a7297b31a1245253904a4ca975ca7e120000000000000000000000000000000000000000000000000000000000000040000000000000000000000000ca64ca47364ac2b3caa3522169712fa830865809000000000000000000000000f39fd6e51aad88f6f4ce6ab8827279cfffb922660000000000000000000000000000000000000000000000000000000000000040000000000000000000000000ef2d70e4a7297b31a1245253904a4ca975ca7e12000000000000000000000000f39fd6e51aad88f6f4ce6ab8827279cfffb92266]"
      ],
      "transaction": {
        "from": "0xf39fd6e51aad88f6f4ce6ab8827279cfffb92266",
        "to": "0x7c5f5a4bbd8fd63184577525326123b519429bdc",
        "gas": "0x9f91a",
        "value": "0x0",
        "input": "0xac9650d800000000000000000000000000000000000000000000000000000000000000200000000000000000000000000000000000000000000000000000000000000002000000000000000000000000000000000000000000000000000000000000004000000000000000000000000000000000000000000000000000000000000001800000000000000000000000000000000000000000000000000000000000000104f7020405000000000000000000000000ca64ca47364ac2b3caa3522169712fa830865809000000000000000000000000ef2d70e4a7297b31a1245253904a4ca975ca7e12000000000000000000000000000000000000000000000000000000000080000000000000000000000000000000000000000000000000000000000000000000010000000000000000000000002b78900ca4e5b16803433ad903256e838eada0880000000000000000000000000000000000000000fffddbdd2aff804ca3c14cc200000000000000000000000000000000000000000000000000000000000000e00000000000000000000000000000000000000000000000000000000000000000000000000000000000000000000000000000000000000000000000000000000000000000000000000000000000000000000000000000000000000464dd46508f0000000000000000000000000000000000000000000000000000000000000040000000000000000000000000000000000000000000000000000000006855432d0000000000000000000000000000000000000000000000000000000000000400000000000000000000000000000000000000000000000000000000000000004000000000000000000000000000000000000000000000000000000000000000800000000000000000000000000000000000000000000000000000000000000004020d14140000000000000000000000000000000000000000000000000000000000000000000000000000000000000000000000000000000000000000000000040000000000000000000000000000000000000000000000000000000000000080000000000000000000000000000000000000000000000000000000000000024000000000000000000000000000000000000000000000000000000000000002a0000000000000000000000000000000000000000000000000000000000000030000000000000000000000000000000000000000000000000000000000000001a0000000000000000000000000ca64ca47364ac2b3caa3522169712fa830865809000000000000000000000000ef2d70e4a7297b31a1245253904a4ca975ca7e12000000000000000000000000000000000000000000000000000000000080000000000000000000000000000000000000000000000000000000000000000000010000000000000000000000002b78900ca4e5b16803433ad903256e838eada088fffffffffffffffffffffffffffffffffffffffffffffffffffffffffffffd1100000000000000000000000000000000000000000000000000000000000002ed0000000000000000000000000000000000000000000000000000000652d818e1000000000000000000000000000000000000000000000000000000003b9aca01000000000000000000000000000000000000000000000000000000003b9aca01000000000000000000000000f39fd6e51aad88f6f4ce6ab8827279cfffb92266000000000000000000000000000000000000000000000000000000000000018000000000000000000000000000000000000000000000000000000000000000000000000000000000000000000000000000000000000000000000000000000040000000000000000000000000ca64ca47364ac2b3caa3522169712fa830865809000000000000000000000000ef2d70e4a7297b31a1245253904a4ca975ca7e120000000000000000000000000000000000000000000000000000000000000040000000000000000000000000ca64ca47364ac2b3caa3522169712fa830865809000000000000000000000000f39fd6e51aad88f6f4ce6ab8827279cfffb922660000000000000000000000000000000000000000000000000000000000000040000000000000000000000000ef2d70e4a7297b31a1245253904a4ca975ca7e12000000000000000000000000f39fd6e51aad88f6f4ce6ab8827279cfffb9226600000000000000000000000000000000000000000000000000000000",
        "nonce": "0x652",
        "chainId": "0x2105"
      },
      "additionalContracts": [],
      "isFixedGasLimit": false
    }
  ],
  "receipts": [
    {
      "status": "0x1",
      "cumulativeGasUsed": "0xb9a00",
      "logs": [],
      "logsBloom": "0x00000000000000000000000000000000000000000000000000000000000000000000000000000000000000000000000000000000000000000000000000000000000000000000000000000000000000000000000000000000000000000000000000000000000000000000000000000000000000000000000000000000000000000000000000000000000000000000000000000000000000000000000000000000000000000000000000000000000000000000000000000000000000000000000000000000000000000000000000000000000000000000000000000000000000000000000000000000000000000000000000000000000000000000000000000000",
      "type": "0x2",
      "transactionHash": "0x61daedb7093e635674ddfeccc52733415bcfe620e6e44db140169f91ed35f370",
      "transactionIndex": "0x0",
      "blockHash": "0xc5a0813a8e4955bcd5b2c6df3ff65ed8c34a26aaa102a50208f0935ab71c5dbe",
      "blockNumber": "0x1e56805",
      "gasUsed": "0xb9a00",
      "effectiveGasPrice": "0x1294f",
      "blobGasPrice": "0x1",
      "from": "0xf39fd6e51aad88f6f4ce6ab8827279cfffb92266",
      "to": null,
      "contractAddress": "0xef2d70e4a7297b31a1245253904a4ca975ca7e12"
    },
    {
      "status": "0x1",
      "cumulativeGasUsed": "0x10aab",
      "logs": [
        {
          "address": "0xef2d70e4a7297b31a1245253904a4ca975ca7e12",
          "topics": [
            "0xddf252ad1be2c89b69c2b068fc378daa952ba7f163c4a11628f55a4df523b3ef",
            "0x0000000000000000000000000000000000000000000000000000000000000000",
            "0x000000000000000000000000f39fd6e51aad88f6f4ce6ab8827279cfffb92266"
          ],
          "data": "0x000000000000000000000000000000000000000000000000000000e8d4a51000",
          "blockHash": "0xe9aafb2c26a03d4283a5930fcca60d17661187a5abc3bd21486f1e66dd0f0f58",
          "blockNumber": "0x1e56806",
          "blockTimestamp": "0x685536a5",
          "transactionHash": "0xe5960a80db274f4a0d1a448489f2cf19e2ae1680c52030deecf21efd9c9d1e79",
          "transactionIndex": "0x0",
          "logIndex": "0x0",
          "removed": false
        }
      ],
      "logsBloom": "0x00000000000000000000000000000000000000000000000000000000000000000000000000000000000000000000000000000000000000000000000000000000000000000000000000000008000000000000000000000000000000000000000000000000060000000000000100000800000000000400000000000010008000000000000000000000000000000000000000000000000000000000000000000000000000000000000000000000000000000000000000000000000000000000000000000002000000200000000000000000000000002000000000000000000020000000000000000000000000000000000000000000000000000000000000000000",
      "type": "0x2",
      "transactionHash": "0xe5960a80db274f4a0d1a448489f2cf19e2ae1680c52030deecf21efd9c9d1e79",
      "transactionIndex": "0x0",
      "blockHash": "0xe9aafb2c26a03d4283a5930fcca60d17661187a5abc3bd21486f1e66dd0f0f58",
      "blockNumber": "0x1e56806",
      "gasUsed": "0x10aab",
      "effectiveGasPrice": "0x11306",
      "blobGasPrice": "0x1",
      "from": "0xf39fd6e51aad88f6f4ce6ab8827279cfffb92266",
      "to": "0xef2d70e4a7297b31a1245253904a4ca975ca7e12",
      "contractAddress": null
    },
    {
      "status": "0x1",
      "cumulativeGasUsed": "0xb9a00",
      "logs": [],
      "logsBloom": "0x00000000000000000000000000000000000000000000000000000000000000000000000000000000000000000000000000000000000000000000000000000000000000000000000000000000000000000000000000000000000000000000000000000000000000000000000000000000000000000000000000000000000000000000000000000000000000000000000000000000000000000000000000000000000000000000000000000000000000000000000000000000000000000000000000000000000000000000000000000000000000000000000000000000000000000000000000000000000000000000000000000000000000000000000000000000",
      "type": "0x2",
      "transactionHash": "0xeb575313b6ed4a602ecad61a637442aec6f5ad3f51dec30390434a9e7131702d",
      "transactionIndex": "0x0",
      "blockHash": "0x7f24d205c44f57299b7c5d41cec89138080f78c93f839691a4f64c50aaed52c9",
      "blockNumber": "0x1e56807",
      "gasUsed": "0xb9a00",
      "effectiveGasPrice": "0xff50",
      "blobGasPrice": "0x1",
      "from": "0xf39fd6e51aad88f6f4ce6ab8827279cfffb92266",
      "to": null,
      "contractAddress": "0xca64ca47364ac2b3caa3522169712fa830865809"
    },
    {
      "status": "0x1",
      "cumulativeGasUsed": "0x10aab",
      "logs": [
        {
          "address": "0xca64ca47364ac2b3caa3522169712fa830865809",
          "topics": [
            "0xddf252ad1be2c89b69c2b068fc378daa952ba7f163c4a11628f55a4df523b3ef",
            "0x0000000000000000000000000000000000000000000000000000000000000000",
            "0x000000000000000000000000f39fd6e51aad88f6f4ce6ab8827279cfffb92266"
          ],
          "data": "0x000000000000000000000000000000000000000000000000000000e8d4a51000",
          "blockHash": "0x1e2578f92ef459b5acef8b2eac5ab287b755ed475da677fc8f4f66976ed009f9",
          "blockNumber": "0x1e56808",
          "blockTimestamp": "0x685536a5",
          "transactionHash": "0x032063b0d6cb9164f36cca5a91bbdf6b131cb3907ab7b03f69ed99de2948abcd",
          "transactionIndex": "0x0",
          "logIndex": "0x0",
          "removed": false
        }
      ],
      "logsBloom": "0x00000000000000000000000000000000000000000000000000000000000000000000000000000000000000000000000000001000000000000000000000000000000000000000000000000008000000000000000000000000000000000000000000000000020000000000000100000900000000000000000000000010000000000000000000000000000000000000000000000000000004000000000000000000000000000000000000000000000000000000000000000000000000000000000000000002000000200000000000000000000000002000000000000000000020000000000000000000000000000000000000000000000000000000000000000000",
      "type": "0x2",
      "transactionHash": "0x032063b0d6cb9164f36cca5a91bbdf6b131cb3907ab7b03f69ed99de2948abcd",
      "transactionIndex": "0x0",
      "blockHash": "0x1e2578f92ef459b5acef8b2eac5ab287b755ed475da677fc8f4f66976ed009f9",
      "blockNumber": "0x1e56808",
      "gasUsed": "0x10aab",
      "effectiveGasPrice": "0xee39",
      "blobGasPrice": "0x1",
      "from": "0xf39fd6e51aad88f6f4ce6ab8827279cfffb92266",
      "to": "0xca64ca47364ac2b3caa3522169712fa830865809",
      "contractAddress": null
    },
    {
      "status": "0x1",
      "cumulativeGasUsed": "0xb55b",
      "logs": [
        {
          "address": "0xca64ca47364ac2b3caa3522169712fa830865809",
          "topics": [
            "0x8c5be1e5ebec7d5bd14f71427d1e84f3dd0314c0f7b2291e5b200ac8c7c3b925",
            "0x000000000000000000000000f39fd6e51aad88f6f4ce6ab8827279cfffb92266",
            "0x000000000000000000000000000000000022d473030f116ddee9f6b43ac78ba3"
          ],
          "data": "0xffffffffffffffffffffffffffffffffffffffffffffffffffffffffffffffff",
          "blockHash": "0x9bb7229b027386eaec0c8f1b9887167b7092177acf918d82a7b1192760e8628d",
          "blockNumber": "0x1e56809",
          "blockTimestamp": "0x685536a5",
          "transactionHash": "0xf936f06ca546a03d9dea1b3954660e62b321e51800e240c3172fea64610f643b",
          "transactionIndex": "0x0",
          "logIndex": "0x0",
          "removed": false
        }
      ],
      "logsBloom": "0x00000000000000000000000000000000000000000000000000000000000000000000000000000000000000000000000000001000800000000000000000200000000000000000000000004000000000000000000000000800000000000000000000000000000000000000000100000100000000000000000000000000000000000000000000000000000000000000000000000000000004000000000000000000020000000000000000000000000000000000000000000000000000000000000000000000000000200000000000000000000000002000000000000000000000000010000000000000000000000000000000000000000000000000000000000000",
      "type": "0x2",
      "transactionHash": "0xf936f06ca546a03d9dea1b3954660e62b321e51800e240c3172fea64610f643b",
      "transactionIndex": "0x0",
      "blockHash": "0x9bb7229b027386eaec0c8f1b9887167b7092177acf918d82a7b1192760e8628d",
      "blockNumber": "0x1e56809",
      "gasUsed": "0xb55b",
      "effectiveGasPrice": "0xdf1c",
      "blobGasPrice": "0x1",
      "from": "0xf39fd6e51aad88f6f4ce6ab8827279cfffb92266",
      "to": "0xca64ca47364ac2b3caa3522169712fa830865809",
      "contractAddress": null
    },
    {
      "status": "0x1",
      "cumulativeGasUsed": "0xbaca",
      "logs": [
        {
          "address": "0x000000000022d473030f116ddee9f6b43ac78ba3",
          "topics": [
            "0xda9fa7c1b00402c17d0161b249b1ab8bbec047c5a52207b9c112deffd817036b",
            "0x000000000000000000000000f39fd6e51aad88f6f4ce6ab8827279cfffb92266",
            "0x000000000000000000000000ca64ca47364ac2b3caa3522169712fa830865809",
            "0x0000000000000000000000007c5f5a4bbd8fd63184577525326123b519429bdc"
          ],
          "data": "0x000000000000000000000000ffffffffffffffffffffffffffffffffffffffff0000000000000000000000000000000000000000000000000000ffffffffffff",
          "blockHash": "0x64c56e6076b04bf0c9ec6fea44ea27739581b7c74315aa9fcbdba3093ddd8566",
          "blockNumber": "0x1e5680a",
          "blockTimestamp": "0x685536a5",
          "transactionHash": "0xb4ac72111e0fb466798adc1d75e95171f6f87d7bd5f594a6c4a9a9367ebef1c2",
          "transactionIndex": "0x0",
          "logIndex": "0x0",
          "removed": false
        }
      ],
      "logsBloom": "0x00010000000000000000000000000000000000000000000000000000000000000000000000000000000800000000000000000000000000000000000000082000000000000000000000000000000000000000000000100000000000000000000000000000000000000000000100000000000000000000000000000000000000000020000000000000000000000000000000000000000000000000000000000000000000000000000000000000000000000000000000000000000000080000000200000000000000200000000000000000000000002000000040000000000000000000000000000000000000000000000000000000002000000001000000000400",
      "type": "0x2",
      "transactionHash": "0xb4ac72111e0fb466798adc1d75e95171f6f87d7bd5f594a6c4a9a9367ebef1c2",
      "transactionIndex": "0x0",
      "blockHash": "0x64c56e6076b04bf0c9ec6fea44ea27739581b7c74315aa9fcbdba3093ddd8566",
      "blockNumber": "0x1e5680a",
      "gasUsed": "0xbaca",
      "effectiveGasPrice": "0xd1e1",
      "blobGasPrice": "0x1",
      "from": "0xf39fd6e51aad88f6f4ce6ab8827279cfffb92266",
      "to": "0x000000000022d473030f116ddee9f6b43ac78ba3",
      "contractAddress": null
    },
    {
      "status": "0x1",
      "cumulativeGasUsed": "0xb55b",
      "logs": [
        {
          "address": "0xef2d70e4a7297b31a1245253904a4ca975ca7e12",
          "topics": [
            "0x8c5be1e5ebec7d5bd14f71427d1e84f3dd0314c0f7b2291e5b200ac8c7c3b925",
            "0x000000000000000000000000f39fd6e51aad88f6f4ce6ab8827279cfffb92266",
            "0x000000000000000000000000000000000022d473030f116ddee9f6b43ac78ba3"
          ],
          "data": "0xffffffffffffffffffffffffffffffffffffffffffffffffffffffffffffffff",
          "blockHash": "0xf38ff083a2dc739359eedf6455b871d96e6e4bd34102219bdec26521002bd082",
          "blockNumber": "0x1e5680b",
          "blockTimestamp": "0x685536a5",
          "transactionHash": "0x40d9cd8d2a5de880ff99f77e2981783e020674f4962eba05be472f9818595d71",
          "transactionIndex": "0x0",
          "logIndex": "0x0",
          "removed": false
        }
      ],
      "logsBloom": "0x00000000000000000000000000000000000000000000000000000000000000000000000000000000000000000000000000000000800000000000000000200000000000000000000000004000000000000000000000000800000000000000000000000000040000000000000100000000000000000400000000000000008000000000000000000000000000000000000000000000000000000000000000000000020000000000000000000000000000000000000000000000000000000000000000000000000000200000000000000000000000002000000000000000000000000010000000000000000000000000000000000000000000000000000000000000",
      "type": "0x2",
      "transactionHash": "0x40d9cd8d2a5de880ff99f77e2981783e020674f4962eba05be472f9818595d71",
      "transactionIndex": "0x0",
      "blockHash": "0xf38ff083a2dc739359eedf6455b871d96e6e4bd34102219bdec26521002bd082",
      "blockNumber": "0x1e5680b",
      "gasUsed": "0xb55b",
      "effectiveGasPrice": "0xc64d",
      "blobGasPrice": "0x1",
      "from": "0xf39fd6e51aad88f6f4ce6ab8827279cfffb92266",
      "to": "0xef2d70e4a7297b31a1245253904a4ca975ca7e12",
      "contractAddress": null
    },
    {
      "status": "0x1",
      "cumulativeGasUsed": "0xbaca",
      "logs": [
        {
          "address": "0x000000000022d473030f116ddee9f6b43ac78ba3",
          "topics": [
            "0xda9fa7c1b00402c17d0161b249b1ab8bbec047c5a52207b9c112deffd817036b",
            "0x000000000000000000000000f39fd6e51aad88f6f4ce6ab8827279cfffb92266",
            "0x000000000000000000000000ef2d70e4a7297b31a1245253904a4ca975ca7e12",
            "0x0000000000000000000000007c5f5a4bbd8fd63184577525326123b519429bdc"
          ],
          "data": "0x000000000000000000000000ffffffffffffffffffffffffffffffffffffffff0000000000000000000000000000000000000000000000000000ffffffffffff",
          "blockHash": "0xed632eff9121a999da7915f0a2892e9742cfe118e8b84d2697070407961b44f7",
          "blockNumber": "0x1e5680c",
          "blockTimestamp": "0x685536a5",
          "transactionHash": "0x5075fc7fc731f4ec4771ecce419564930b8f59868902bf0293fe9f9b7f88e200",
          "transactionIndex": "0x0",
          "logIndex": "0x0",
          "removed": false
        }
      ],
      "logsBloom": "0x00010000000000000000000000000000000000000000000000000000000000000000000000000000000000000000000000000000000000000000000000082000000000000000000000000000000000000000000000000000000000000000000000000000000000000000000100000000000000000000000000000000000000000020000000000000000000000000000000000000000000000000000000000000100000000000000000000000000000000000000000000000000000080000000200000000000000200000008000000000000000002000000040000000000000000000000000000000000000000000000000000000002000000000000000000402",
      "type": "0x2",
      "transactionHash": "0x5075fc7fc731f4ec4771ecce419564930b8f59868902bf0293fe9f9b7f88e200",
      "transactionIndex": "0x0",
      "blockHash": "0xed632eff9121a999da7915f0a2892e9742cfe118e8b84d2697070407961b44f7",
      "blockNumber": "0x1e5680c",
      "gasUsed": "0xbaca",
      "effectiveGasPrice": "0xbc2b",
      "blobGasPrice": "0x1",
      "from": "0xf39fd6e51aad88f6f4ce6ab8827279cfffb92266",
      "to": "0x000000000022d473030f116ddee9f6b43ac78ba3",
      "contractAddress": null
    },
    {
      "status": "0x1",
      "cumulativeGasUsed": "0x73867",
      "logs": [
        {
          "address": "0x498581ff718922c3f8e6a244956af099b2652b2b",
          "topics": [
            "0xdd466e674ea557f56295e2d0218a125ea4b4f0f6f3307b95f85e6110838d6438",
            "0xf54c8a38b7ec3a73f9fd3f17b34cd3cb2338a7c0404000ec4145890ed75eb6cd",
            "0x000000000000000000000000ca64ca47364ac2b3caa3522169712fa830865809",
            "0x000000000000000000000000ef2d70e4a7297b31a1245253904a4ca975ca7e12"
          ],
          "data": "0x000000000000000000000000000000000000000000000000000000000080000000000000000000000000000000000000000000000000000000000000000000010000000000000000000000002b78900ca4e5b16803433ad903256e838eada0880000000000000000000000000000000000000000fffddbdd2aff804ca3c14cc2ffffffffffffffffffffffffffffffffffffffffffffffffffffffffffffffff",
          "blockHash": "0x8060e72719aff312f734dda1583046e7223eaf9922c80cfe18d6604efe212ff6",
          "blockNumber": "0x1e5680d",
          "blockTimestamp": "0x685536a5",
          "transactionHash": "0x6d806b2927c5eb73dcdcceb59c6f5fc25fd3520deb9fc7b0639a4b281d4309f6",
          "transactionIndex": "0x0",
          "logIndex": "0x0",
          "removed": false
        },
        {
          "address": "0x7c5f5a4bbd8fd63184577525326123b519429bdc",
          "topics": [
            "0xddf252ad1be2c89b69c2b068fc378daa952ba7f163c4a11628f55a4df523b3ef",
            "0x0000000000000000000000000000000000000000000000000000000000000000",
            "0x000000000000000000000000f39fd6e51aad88f6f4ce6ab8827279cfffb92266",
            "0x0000000000000000000000000000000000000000000000000000000000011f55"
          ],
          "data": "0x",
          "blockHash": "0x8060e72719aff312f734dda1583046e7223eaf9922c80cfe18d6604efe212ff6",
          "blockNumber": "0x1e5680d",
          "blockTimestamp": "0x685536a5",
          "transactionHash": "0x6d806b2927c5eb73dcdcceb59c6f5fc25fd3520deb9fc7b0639a4b281d4309f6",
          "transactionIndex": "0x0",
          "logIndex": "0x1",
          "removed": false
        },
        {
          "address": "0x498581ff718922c3f8e6a244956af099b2652b2b",
          "topics": [
            "0xf208f4912782fd25c7f114ca3723a2d5dd6f3bcc3ac8db5af63baa85f711d5ec",
            "0xf54c8a38b7ec3a73f9fd3f17b34cd3cb2338a7c0404000ec4145890ed75eb6cd",
            "0x0000000000000000000000007c5f5a4bbd8fd63184577525326123b519429bdc"
          ],
          "data": "0xfffffffffffffffffffffffffffffffffffffffffffffffffffffffffffffd1100000000000000000000000000000000000000000000000000000000000002ed0000000000000000000000000000000000000000000000000000000652d818e10000000000000000000000000000000000000000000000000000000000011f55",
          "blockHash": "0x8060e72719aff312f734dda1583046e7223eaf9922c80cfe18d6604efe212ff6",
          "blockNumber": "0x1e5680d",
          "blockTimestamp": "0x685536a5",
          "transactionHash": "0x6d806b2927c5eb73dcdcceb59c6f5fc25fd3520deb9fc7b0639a4b281d4309f6",
          "transactionIndex": "0x0",
          "logIndex": "0x2",
          "removed": false
        },
        {
          "address": "0xca64ca47364ac2b3caa3522169712fa830865809",
          "topics": [
            "0xddf252ad1be2c89b69c2b068fc378daa952ba7f163c4a11628f55a4df523b3ef",
            "0x000000000000000000000000f39fd6e51aad88f6f4ce6ab8827279cfffb92266",
            "0x000000000000000000000000498581ff718922c3f8e6a244956af099b2652b2b"
          ],
          "data": "0x000000000000000000000000000000000000000000000000000000003b8df43a",
          "blockHash": "0x8060e72719aff312f734dda1583046e7223eaf9922c80cfe18d6604efe212ff6",
          "blockNumber": "0x1e5680d",
          "blockTimestamp": "0x685536a5",
          "transactionHash": "0x6d806b2927c5eb73dcdcceb59c6f5fc25fd3520deb9fc7b0639a4b281d4309f6",
          "transactionIndex": "0x0",
          "logIndex": "0x3",
          "removed": false
        },
        {
          "address": "0xef2d70e4a7297b31a1245253904a4ca975ca7e12",
          "topics": [
            "0xddf252ad1be2c89b69c2b068fc378daa952ba7f163c4a11628f55a4df523b3ef",
            "0x000000000000000000000000f39fd6e51aad88f6f4ce6ab8827279cfffb92266",
            "0x000000000000000000000000498581ff718922c3f8e6a244956af099b2652b2b"
          ],
          "data": "0x000000000000000000000000000000000000000000000000000000003b9aca00",
          "blockHash": "0x8060e72719aff312f734dda1583046e7223eaf9922c80cfe18d6604efe212ff6",
          "blockNumber": "0x1e5680d",
          "blockTimestamp": "0x685536a5",
          "transactionHash": "0x6d806b2927c5eb73dcdcceb59c6f5fc25fd3520deb9fc7b0639a4b281d4309f6",
          "transactionIndex": "0x0",
          "logIndex": "0x4",
          "removed": false
        }
      ],
      "logsBloom": "0x00000000000000000000000000000000000000000000000000000000000000000020000000000000000800000000000000001000000000000000000000002000000000000000000000000008400000000000000000100000000000000000000000000000060000000000000100000900040400000400000000000010008000000000000001005008000000000000000000000001000004000000000400200000104004000000000008000000000000000000008000000000000000000000000200000002000001200000008000000000000800002000000000100000000020000000000002000000000000000000000004000400002000000001000000000002",
      "type": "0x2",
      "transactionHash": "0x6d806b2927c5eb73dcdcceb59c6f5fc25fd3520deb9fc7b0639a4b281d4309f6",
      "transactionIndex": "0x0",
      "blockHash": "0x8060e72719aff312f734dda1583046e7223eaf9922c80cfe18d6604efe212ff6",
      "blockNumber": "0x1e5680d",
      "gasUsed": "0x73867",
      "effectiveGasPrice": "0xb34e",
      "blobGasPrice": "0x1",
      "from": "0xf39fd6e51aad88f6f4ce6ab8827279cfffb92266",
      "to": "0x7c5f5a4bbd8fd63184577525326123b519429bdc",
      "contractAddress": null
    }
  ],
  "libraries": [],
  "pending": [],
  "returns": {},
  "timestamp": 1750415015,
  "chain": 8453,
  "commit": "872d4a5"
}