{
  "transactions": [
    {
      "hash": "0x70a229dd0cf68341ae63f4d058c3fbbbe1b812a1ee8358b1c8965b313dcc97cd",
      "transactionType": "CALL",
      "contractName": null,
      "contractAddress": "0xb9a9553e08e5afc8a7e16613572cc8f96b3143f9",
      "function": "mint(address,uint256)",
      "arguments": [
        "0x4A360497111D4888f79d7CFeC697562611b7F62f",
        "1000000000000"
      ],
      "transaction": {
        "from": "0x747481ae081a6e4e28c989eef25bc53def899ea7",
        "to": "0xb9a9553e08e5afc8a7e16613572cc8f96b3143f9",
        "gas": "0x12527",
        "value": "0x0",
        "input": "0x40c10f190000000000000000000000004a360497111d4888f79d7cfec697562611b7f62f000000000000000000000000000000000000000000000000000000e8d4a51000",
        "nonce": "0x5b",
        "chainId": "0x14a34"
      },
      "additionalContracts": [],
      "isFixedGasLimit": false
    }
  ],
  "receipts": [
    {
      "status": "0x1",
      "cumulativeGasUsed": "0x2b0941",
      "logs": [
        {
          "address": "0xb9a9553e08e5afc8a7e16613572cc8f96b3143f9",
          "topics": [
            "0xddf252ad1be2c89b69c2b068fc378daa952ba7f163c4a11628f55a4df523b3ef",
            "0x0000000000000000000000000000000000000000000000000000000000000000",
            "0x0000000000000000000000004a360497111d4888f79d7cfec697562611b7f62f"
          ],
          "data": "0x000000000000000000000000000000000000000000000000000000e8d4a51000",
          "blockHash": "0x4b9e6264877dd85e0b3a8b09e1f1fe6dface2b368c8804b26056e096d5a2e4f6",
          "blockNumber": "0x1a30103",
          "blockTimestamp": "0x685960e6",
          "transactionHash": "0x70a229dd0cf68341ae63f4d058c3fbbbe1b812a1ee8358b1c8965b313dcc97cd",
          "transactionIndex": "0xb",
          "logIndex": "0x51",
          "removed": false
        }
      ],
      "logsBloom": "0x00800000000000000000000000800000000000000000000000000000000000000000000000000000000000000000000000000000000000000000000000000000000000000000000000000008100000000000000000000000000000000000000000000000020000000000000000000800800000000000000000000010000000000000000000000000000000000008000000000000000000000000000000000000000000000000000000000000000000000000000000000000000000000000000000002002000000000000000000000000000000000000000000000000000020000000000000000000000000000000000000000000000000000000000000000000",
      "type": "0x2",
      "transactionHash": "0x70a229dd0cf68341ae63f4d058c3fbbbe1b812a1ee8358b1c8965b313dcc97cd",
      "transactionIndex": "0xb",
      "blockHash": "0x4b9e6264877dd85e0b3a8b09e1f1fe6dface2b368c8804b26056e096d5a2e4f6",
      "blockNumber": "0x1a30103",
      "gasUsed": "0xc873",
      "effectiveGasPrice": "0x372",
      "from": "0x747481ae081a6e4e28c989eef25bc53def899ea7",
      "to": "0xb9a9553e08e5afc8a7e16613572cc8f96b3143f9",
      "contractAddress": null,
      "l1BaseFeeScalar": "0x44d",
      "l1BlobBaseFee": "0x1",
      "l1BlobBaseFeeScalar": "0xa118b",
      "l1Fee": "0x33f91073",
      "l1GasPrice": "0x1d80d42e",
      "l1GasUsed": "0x640"
    }
  ],
  "libraries": [],
  "pending": [],
  "returns": {},
  "timestamp": 1750687972,
  "chain": 84532,
  "commit": "38a295e"
}