{
  "transactions": [
    {
      "hash": "0x121aeb8c3b42de6e1b869566967da8f6f4028318739af9d9ef5cc53df0bc3886",
      "transactionType": "CALL",
      "contractName": null,
      "contractAddress": "0x6c75e190ff828e05e27d7dc059dd7a692884a6e7",
      "function": "mint(address,uint256)",
      "arguments": [
        "0x4B132611cdD369384A3CAB8104baAB0279dA9bdE",
        "1000000000000"
      ],
      "transaction": {
        "from": "0x747481ae081a6e4e28c989eef25bc53def899ea7",
        "to": "0x6c75e190ff828e05e27d7dc059dd7a692884a6e7",
        "gas": "0x12527",
        "value": "0x0",
        "input": "0x40c10f190000000000000000000000004b132611cdd369384a3cab8104baab0279da9bde000000000000000000000000000000000000000000000000000000e8d4a51000",
        "nonce": "0x16",
        "chainId": "0x14a34"
      },
      "additionalContracts": [],
      "isFixedGasLimit": false
    },
    {
      "hash": "0x25730d802468d12f923275308648a26615c21863b154ff431287c6b35b3dfde6",
      "transactionType": "CALL",
      "contractName": null,
      "contractAddress": "0x8524282267080ab2ac08445889fe19616ca8cc89",
      "function": "mint(address,uint256)",
      "arguments": [
        "0x4B132611cdD369384A3CAB8104baAB0279dA9bdE",
        "1000000000000"
      ],
      "transaction": {
        "from": "0x747481ae081a6e4e28c989eef25bc53def899ea7",
        "to": "0x8524282267080ab2ac08445889fe19616ca8cc89",
        "gas": "0x12527",
        "value": "0x0",
        "input": "0x40c10f190000000000000000000000004b132611cdd369384a3cab8104baab0279da9bde000000000000000000000000000000000000000000000000000000e8d4a51000",
        "nonce": "0x17",
        "chainId": "0x14a34"
      },
      "additionalContracts": [],
      "isFixedGasLimit": false
    }
  ],
  "receipts": [
    {
      "status": "0x1",
      "cumulativeGasUsed": "0x7c9638",
      "logs": [
        {
          "address": "0x6c75e190ff828e05e27d7dc059dd7a692884a6e7",
          "topics": [
            "0xddf252ad1be2c89b69c2b068fc378daa952ba7f163c4a11628f55a4df523b3ef",
            "0x0000000000000000000000000000000000000000000000000000000000000000",
            "0x0000000000000000000000004b132611cdd369384a3cab8104baab0279da9bde"
          ],
          "data": "0x000000000000000000000000000000000000000000000000000000e8d4a51000",
          "blockHash": "0x24f8d809dfdcbf99163f062454eea1ce9c735569b54c4c3e91e99b9fb773ea24",
          "blockNumber": "0x1a10ec7",
          "blockTimestamp": "0x68557c6e",
          "transactionHash": "0x121aeb8c3b42de6e1b869566967da8f6f4028318739af9d9ef5cc53df0bc3886",
          "transactionIndex": "0x22",
          "logIndex": "0x139",
          "removed": false
        }
      ],
      "logsBloom": "0x00000000000000000000000000000000000000000000000000000200000000000000000000000000000000000000000000000000000000000000000000000000000000000000000000000008000000000000000000008000000000000000000000000000020000000000000000008800000000000000000000000010000000000000000000000000000000000000000000000000000000000000000004000000000000000000000000000000000000000000000000000000000000000000000000000002000000000004000000000000000000000000000000000000000020000000000000000000000000000000000000000000000000000000002000000000",
      "type": "0x2",
      "transactionHash": "0x121aeb8c3b42de6e1b869566967da8f6f4028318739af9d9ef5cc53df0bc3886",
      "transactionIndex": "0x22",
      "blockHash": "0x24f8d809dfdcbf99163f062454eea1ce9c735569b54c4c3e91e99b9fb773ea24",
      "blockNumber": "0x1a10ec7",
      "gasUsed": "0xc873",
      "effectiveGasPrice": "0x267",
      "from": "0x747481ae081a6e4e28c989eef25bc53def899ea7",
      "to": "0x6c75e190ff828e05e27d7dc059dd7a692884a6e7",
      "contractAddress": null,
      "l1BaseFeeScalar": "0x44d",
      "l1BlobBaseFee": "0x1",
      "l1BlobBaseFeeScalar": "0xa118b",
      "l1Fee": "0x19c8dc",
      "l1GasPrice": "0xea2f0",
      "l1GasUsed": "0x640"
    },
    {
      "status": "0x1",
      "cumulativeGasUsed": "0x7d5eab",
      "logs": [
        {
          "address": "0x8524282267080ab2ac08445889fe19616ca8cc89",
          "topics": [
            "0xddf252ad1be2c89b69c2b068fc378daa952ba7f163c4a11628f55a4df523b3ef",
            "0x0000000000000000000000000000000000000000000000000000000000000000",
            "0x0000000000000000000000004b132611cdd369384a3cab8104baab0279da9bde"
          ],
          "data": "0x000000000000000000000000000000000000000000000000000000e8d4a51000",
          "blockHash": "0x24f8d809dfdcbf99163f062454eea1ce9c735569b54c4c3e91e99b9fb773ea24",
          "blockNumber": "0x1a10ec7",
          "blockTimestamp": "0x68557c6e",
          "transactionHash": "0x25730d802468d12f923275308648a26615c21863b154ff431287c6b35b3dfde6",
          "transactionIndex": "0x23",
          "logIndex": "0x13a",
          "removed": false
        }
      ],
      "logsBloom": "0x00000000000000000000000000000400000000000000000000000200000000000000000000000000000000000000000000000000000000000000000000000000000000000000000000000008000000000000000000008000000000000000000000000000020000000000000000000800000000000000000000000010000000000000000000000000000000000000000000000000000002000000000000000000000000000000000000000000000000000000000000000000000000000000000000000002000000000004000000000001000000000000000000000000000020000000000000000000000000000000000000000000000000000000000000000000",
      "type": "0x2",
      "transactionHash": "0x25730d802468d12f923275308648a26615c21863b154ff431287c6b35b3dfde6",
      "transactionIndex": "0x23",
      "blockHash": "0x24f8d809dfdcbf99163f062454eea1ce9c735569b54c4c3e91e99b9fb773ea24",
      "blockNumber": "0x1a10ec7",
      "gasUsed": "0xc873",
      "effectiveGasPrice": "0x267",
      "from": "0x747481ae081a6e4e28c989eef25bc53def899ea7",
      "to": "0x8524282267080ab2ac08445889fe19616ca8cc89",
      "contractAddress": null,
      "l1BaseFeeScalar": "0x44d",
      "l1BlobBaseFee": "0x1",
      "l1BlobBaseFeeScalar": "0xa118b",
      "l1Fee": "0x19c8dc",
      "l1GasPrice": "0xea2f0",
      "l1GasUsed": "0x640"
    }
  ],
  "libraries": [],
  "pending": [],
  "returns": {},
  "timestamp": 1750432877,
  "chain": 84532,
  "commit": "872d4a5"
}