{
  "transactions": [
    {
      "hash": "0xf9a5f68a06fd7b8ec6d802b9455b672a23528a643767b89f3c392500aaa8783a",
      "transactionType": "CALL",
      "contractName": null,
      "contractAddress": "0x4a360497111d4888f79d7cfec697562611b7f62f",
      "function": "setWhiteListRampHook((address,address,uint24,int24,address))",
      "arguments": [
        "(0xB9a9553E08e5AFc8a7E16613572CC8F96B3143F9, 0xDFB44df01A97Ff7Fd0Df16872193ceCB3A8C1ac3, 8388608, 1, 0xA11444D0C7085ce34D8CCcEd3fe543B658246088)"
      ],
      "transaction": {
        "from": "0x747481ae081a6e4e28c989eef25bc53def899ea7",
        "to": "0x4a360497111d4888f79d7cfec697562611b7f62f",
        "gas": "0x1036a",
        "value": "0x0",
        "input": "0xdc2f0167000000000000000000000000b9a9553e08e5afc8a7e16613572cc8f96b3143f9000000000000000000000000dfb44df01a97ff7fd0df16872193cecb3a8c1ac300000000000000000000000000000000000000000000000000000000008000000000000000000000000000000000000000000000000000000000000000000001000000000000000000000000a11444d0c7085ce34d8ccced3fe543b658246088",
        "nonce": "0x59",
        "chainId": "0x14a34"
      },
      "additionalContracts": [],
      "isFixedGasLimit": false
    },
    {
      "hash": "0x455028c3d949c22d4bcfd4d45b35c0406e3ee31228b96a870f8aba47b54f8393",
      "transactionType": "CALL",
      "contractName": null,
      "contractAddress": "0x4a360497111d4888f79d7cfec697562611b7f62f",
      "function": "setPoolKey(address,address,(address,address,uint24,int24,address))",
      "arguments": [
        "0xB9a9553E08e5AFc8a7E16613572CC8F96B3143F9",
        "0xDFB44df01A97Ff7Fd0Df16872193ceCB3A8C1ac3",
        "(0xB9a9553E08e5AFc8a7E16613572CC8F96B3143F9, 0xDFB44df01A97Ff7Fd0Df16872193ceCB3A8C1ac3, 8388608, 1, 0xA11444D0C7085ce34D8CCcEd3fe543B658246088)"
      ],
      "transaction": {
        "from": "0x747481ae081a6e4e28c989eef25bc53def899ea7",
        "to": "0x4a360497111d4888f79d7cfec697562611b7f62f",
        "gas": "0x1fb37",
        "value": "0x0",
        "input": "0xf1e27e19000000000000000000000000b9a9553e08e5afc8a7e16613572cc8f96b3143f9000000000000000000000000dfb44df01a97ff7fd0df16872193cecb3a8c1ac3000000000000000000000000b9a9553e08e5afc8a7e16613572cc8f96b3143f9000000000000000000000000dfb44df01a97ff7fd0df16872193cecb3a8c1ac300000000000000000000000000000000000000000000000000000000008000000000000000000000000000000000000000000000000000000000000000000001000000000000000000000000a11444d0c7085ce34d8ccced3fe543b658246088",
        "nonce": "0x5a",
        "chainId": "0x14a34"
      },
      "additionalContracts": [],
      "isFixedGasLimit": false
    }
  ],
  "receipts": [
    {
      "status": "0x1",
      "cumulativeGasUsed": "0x43cc7f",
      "logs": [],
      "logsBloom": "0x00000000000000000000000000000000000000000000000000000000000000000000000000000000000000000000000000000000000000000000000000000000000000000000000000000000000000000000000000000000000000000000000000000000000000000000000000000000000000000000000000000000000000000000000000000000000000000000000000000000000000000000000000000000000000000000000000000000000000000000000000000000000000000000000000000000000000000000000000000000000000000000000000000000000000000000000000000000000000000000000000000000000000000000000000000000",
      "type": "0x2",
      "transactionHash": "0xf9a5f68a06fd7b8ec6d802b9455b672a23528a643767b89f3c392500aaa8783a",
      "transactionIndex": "0xf",
      "blockHash": "0xc46aa09b50387f03d01be294046273a2bdda8bb415f92fba2530898b61c81022",
      "blockNumber": "0x1a1b7b4",
      "gasUsed": "0xbbd0",
      "effectiveGasPrice": "0x273",
      "from": "0x747481ae081a6e4e28c989eef25bc53def899ea7",
      "to": "0x4a360497111d4888f79d7cfec697562611b7f62f",
      "contractAddress": null,
      "l1BaseFeeScalar": "0x44d",
      "l1BlobBaseFee": "0x1",
      "l1BlobBaseFeeScalar": "0xa118b",
      "l1Fee": "0x80c3b",
      "l1GasPrice": "0x379dc",
      "l1GasUsed": "0x836"
    },
    {
      "status": "0x1",
      "cumulativeGasUsed": "0x453bb7",
      "logs": [],
      "logsBloom": "0x00000000000000000000000000000000000000000000000000000000000000000000000000000000000000000000000000000000000000000000000000000000000000000000000000000000000000000000000000000000000000000000000000000000000000000000000000000000000000000000000000000000000000000000000000000000000000000000000000000000000000000000000000000000000000000000000000000000000000000000000000000000000000000000000000000000000000000000000000000000000000000000000000000000000000000000000000000000000000000000000000000000000000000000000000000000",
      "type": "0x2",
      "transactionHash": "0x455028c3d949c22d4bcfd4d45b35c0406e3ee31228b96a870f8aba47b54f8393",
      "transactionIndex": "0x10",
      "blockHash": "0xc46aa09b50387f03d01be294046273a2bdda8bb415f92fba2530898b61c81022",
      "blockNumber": "0x1a1b7b4",
      "gasUsed": "0x16f38",
      "effectiveGasPrice": "0x273",
      "from": "0x747481ae081a6e4e28c989eef25bc53def899ea7",
      "to": "0x4a360497111d4888f79d7cfec697562611b7f62f",
      "contractAddress": null,
      "l1BaseFeeScalar": "0x44d",
      "l1BlobBaseFee": "0x1",
      "l1BlobBaseFeeScalar": "0xa118b",
      "l1Fee": "0x85aec",
      "l1GasPrice": "0x379dc",
      "l1GasUsed": "0x886"
    }
  ],
  "libraries": [],
  "pending": [],
  "returns": {},
  "timestamp": 1750519366,
  "chain": 84532,
  "commit": "38a295e"
}