{
  "transactions": [
    {
      "hash": "0x7ad1840e2002026172d25da324cf078c31a0d3c77e0566d183bad8b029c2a90b",
      "transactionType": "CALL",
      "contractName": null,
      "contractAddress": "0x096b36810d4e9243318f0cd4c18a2dbd1661470c",
      "function": "approve(address,uint256)",
      "arguments": [
        "0x47e2fD55a1D27CB322533c9b0C2AeAcB36d58c72",
        "700000000"
      ],
      "transaction": {
        "from": "0x4b132611cdd369384a3cab8104baab0279da9bde",
        "to": "0x096b36810d4e9243318f0cd4c18a2dbd1661470c",
        "gas": "0x108d0",
        "value": "0x0",
        "input": "0x095ea7b300000000000000000000000047e2fd55a1d27cb322533c9b0c2aeacb36d58c720000000000000000000000000000000000000000000000000000000029b92700",
        "nonce": "0x19",
        "chainId": "0x14a34"
      },
      "additionalContracts": [],
      "isFixedGasLimit": false
    },
    {
      "hash": "0x4a6b4a3edf92eae30bad115ffd6906f61e406fca497f5646baf8b6a52a43e3dc",
      "transactionType": "CALL",
      "contractName": null,
      "contractAddress": "0x47e2fd55a1d27cb322533c9b0c2aeacb36d58c72",
      "function": "swap((address,address,uint24,int24,address),(bool,int256,uint160),(bool,bool),bytes)",
      "arguments": [
        "(0x096b36810d4E9243318f0Cd4C18a2dbd1661470C, 0xC3726B8054f88FD63F9268c0ab21667083D01414, 8388608, 1, 0xA11C7Faf1b89B9173B5d7137591Ccb51D2F96088)",
        "(true, -700000000, 4295128740)",
        "(false, false)",
        "0x"
      ],
      "transaction": {
        "from": "0x4b132611cdd369384a3cab8104baab0279da9bde",
        "to": "0x47e2fd55a1d27cb322533c9b0c2aeacb36d58c72",
        "gas": "0x2d4e0",
        "value": "0x0",
        "input": "0x2229d0b4000000000000000000000000096b36810d4e9243318f0cd4c18a2dbd1661470c000000000000000000000000c3726b8054f88fd63f9268c0ab21667083d0141400000000000000000000000000000000000000000000000000000000008000000000000000000000000000000000000000000000000000000000000000000001000000000000000000000000a11c7faf1b89b9173b5d7137591ccb51d2f960880000000000000000000000000000000000000000000000000000000000000001ffffffffffffffffffffffffffffffffffffffffffffffffffffffffd646d90000000000000000000000000000000000000000000000000000000001000276a40000000000000000000000000000000000000000000000000000000000000000000000000000000000000000000000000000000000000000000000000000000000000000000000000000000000000000000000000000000000000000000001600000000000000000000000000000000000000000000000000000000000000000",
        "nonce": "0x1a",
        "chainId": "0x14a34"
      },
      "additionalContracts": [],
      "isFixedGasLimit": false
    }
  ],
  "receipts": [
    {
      "status": "0x1",
      "cumulativeGasUsed": "0x3d8338",
      "logs": [
        {
          "address": "0x096b36810d4e9243318f0cd4c18a2dbd1661470c",
          "topics": [
            "0x8c5be1e5ebec7d5bd14f71427d1e84f3dd0314c0f7b2291e5b200ac8c7c3b925",
            "0x0000000000000000000000004b132611cdd369384a3cab8104baab0279da9bde",
            "0x00000000000000000000000047e2fd55a1d27cb322533c9b0c2aeacb36d58c72"
          ],
          "data": "0x0000000000000000000000000000000000000000000000000000000029b92700",
          "blockHash": "0x1489d50dbd8d705368826ec18ec768fb6a508bc8c9a5358a47d341f7b4c67770",
          "blockNumber": "0x1a3c970",
          "blockTimestamp": "0x685af1c0",
          "transactionHash": "0x7ad1840e2002026172d25da324cf078c31a0d3c77e0566d183bad8b029c2a90b",
          "transactionIndex": "0x9",
          "logIndex": "0xb0",
          "removed": false
        }
      ],
      "logsBloom": "0x00000000000000010000000000000000000000040000000000000200000000000000000000000000000000000000000000000000000000000000000000200000000000000000000000000000000000000000000000008000000000000000000000000000000000000000000000000000002000000000000000000000000000000000000000000000000000000000000000000000000000000000000000020000020000000000000000000000000000100000000000000000000000000000000000000000000000000004000000000100000000000000000000000000000000000010000000000000000000000000000000000000000000000000000000000000",
      "type": "0x2",
      "transactionHash": "0x7ad1840e2002026172d25da324cf078c31a0d3c77e0566d183bad8b029c2a90b",
      "transactionIndex": "0x9",
      "blockHash": "0x1489d50dbd8d705368826ec18ec768fb6a508bc8c9a5358a47d341f7b4c67770",
      "blockNumber": "0x1a3c970",
      "gasUsed": "0xb512",
      "effectiveGasPrice": "0xf42b8",
      "from": "0x4b132611cdd369384a3cab8104baab0279da9bde",
      "to": "0x096b36810d4e9243318f0cd4c18a2dbd1661470c",
      "contractAddress": null,
      "l1BaseFeeScalar": "0x44d",
      "l1BlobBaseFee": "0x1",
      "l1BlobBaseFeeScalar": "0xa118b",
      "l1Fee": "0x398db156",
      "l1GasPrice": "0x20abcff2",
      "l1GasUsed": "0x640"
    },
    {
      "status": "0x1",
      "cumulativeGasUsed": "0x3f9005",
      "logs": [
        {
          "address": "0x05e73354cfdd6745c338b50bcfdfa3aa6fa03408",
          "topics": [
            "0x40e9cecb9f5f1f1c5b9c97dec2917b7ee92e57ba5563708daca94dd84ad7112f",
            "0x3e7638d5e29a1349206663ee3ad808803424390874598e075cec31fed954ddcb",
            "0x00000000000000000000000047e2fd55a1d27cb322533c9b0c2aeacb36d58c72"
          ],
          "data": "0xffffffffffffffffffffffffffffffffffffffffffffffffffffffffd646d900000000000000000000000000000000000000000000000000000000002976eced0000000000000000000000000000000000000000ffd010cf75693d9cac05614b000000000000000000000000000000000000000000000000000002786ad1c1ecfffffffffffffffffffffffffffffffffffffffffffffffffffffffffffffff10000000000000000000000000000000000000000000000000000000000001388",
          "blockHash": "0xdb9947adff5d4ab8525d1314262d0d63541d3418f01cb0c1bd3b85d702791217",
          "blockNumber": "0x1a3c970",
          "blockTimestamp": "0x685af1c0",
          "transactionHash": "0x4a6b4a3edf92eae30bad115ffd6906f61e406fca497f5646baf8b6a52a43e3dc",
          "transactionIndex": "0xa",
          "logIndex": "0xb1",
          "removed": false
        },
        {
          "address": "0x096b36810d4e9243318f0cd4c18a2dbd1661470c",
          "topics": [
            "0xddf252ad1be2c89b69c2b068fc378daa952ba7f163c4a11628f55a4df523b3ef",
            "0x0000000000000000000000004b132611cdd369384a3cab8104baab0279da9bde",
            "0x00000000000000000000000005e73354cfdd6745c338b50bcfdfa3aa6fa03408"
          ],
          "data": "0x0000000000000000000000000000000000000000000000000000000029b92700",
          "blockHash": "0xdb9947adff5d4ab8525d1314262d0d63541d3418f01cb0c1bd3b85d702791217",
          "blockNumber": "0x1a3c970",
          "blockTimestamp": "0x685af1c0",
          "transactionHash": "0x4a6b4a3edf92eae30bad115ffd6906f61e406fca497f5646baf8b6a52a43e3dc",
          "transactionIndex": "0xa",
          "logIndex": "0xb2",
          "removed": false
        },
        {
          "address": "0xc3726b8054f88fd63f9268c0ab21667083d01414",
          "topics": [
            "0xddf252ad1be2c89b69c2b068fc378daa952ba7f163c4a11628f55a4df523b3ef",
            "0x00000000000000000000000005e73354cfdd6745c338b50bcfdfa3aa6fa03408",
            "0x0000000000000000000000004b132611cdd369384a3cab8104baab0279da9bde"
          ],
          "data": "0x000000000000000000000000000000000000000000000000000000002976eced",
          "blockHash": "0xdb9947adff5d4ab8525d1314262d0d63541d3418f01cb0c1bd3b85d702791217",
          "blockNumber": "0x1a3c970",
          "blockTimestamp": "0x685af1c0",
          "transactionHash": "0x4a6b4a3edf92eae30bad115ffd6906f61e406fca497f5646baf8b6a52a43e3dc",
          "transactionIndex": "0xa",
          "logIndex": "0xb3",
          "removed": false
        }
      ],
      "logsBloom": "0x00000000000000010000000000000200000000040000000000000200000000000000000100000000000000000000000000000000040000000000000000000000000000000010000000000008000000000000000000108020000000000000000000000400000000000008000000000000002000000000000000000010000000000000000004000010000000000000000000000000000000000000000000020008000000000000000000000000000000108000000000000000000000000000000000000002001000000004000000000100000000000000000000000000000000000000000000000000004000000800000000000000000000000000000000000000",
      "type": "0x2",
      "transactionHash": "0x4a6b4a3edf92eae30bad115ffd6906f61e406fca497f5646baf8b6a52a43e3dc",
      "transactionIndex": "0xa",
      "blockHash": "0xdb9947adff5d4ab8525d1314262d0d63541d3418f01cb0c1bd3b85d702791217",
      "blockNumber": "0x1a3c970",
      "gasUsed": "0x20ccd",
      "effectiveGasPrice": "0xf42b8",
      "from": "0x4b132611cdd369384a3cab8104baab0279da9bde",
      "to": "0x47e2fd55a1d27cb322533c9b0c2aeacb36d58c72",
      "contractAddress": null,
      "l1BaseFeeScalar": "0x44d",
      "l1BlobBaseFee": "0x1",
      "l1BlobBaseFeeScalar": "0xa118b",
      "l1Fee": "0x5ee2e8a6",
      "l1GasPrice": "0x20abcff2",
      "l1GasUsed": "0xa4d"
    }
  ],
  "libraries": [],
  "pending": [],
  "returns": {},
  "timestamp": 1750790592,
  "chain": 84532,
  "commit": "38a295e"
}