{
  "transactions": [
    {
      "hash": "0x669d2d50d5d05afd6598a431d9166f2ba1fc374682c814492772bb53214068d9",
      "transactionType": "CALL",
      "contractName": null,
      "contractAddress": "0x096b36810d4e9243318f0cd4c18a2dbd1661470c",
      "function": "approve(address,uint256)",
      "arguments": [
        "0x47e2fD55a1D27CB322533c9b0C2AeAcB36d58c72",
        "700000000"
      ],
      "transaction": {
        "from": "0x4b132611cdd369384a3cab8104baab0279da9bde",
        "to": "0x096b36810d4e9243318f0cd4c18a2dbd1661470c",
        "gas": "0x108d0",
        "value": "0x0",
        "input": "0x095ea7b300000000000000000000000047e2fd55a1d27cb322533c9b0c2aeacb36d58c720000000000000000000000000000000000000000000000000000000029b92700",
        "nonce": "0x21",
        "chainId": "0x14a34"
      },
      "additionalContracts": [],
      "isFixedGasLimit": false
    },
    {
      "hash": "0x12f12c88a599a4af49e88870e0fa6360baf8c2733a1980f4007e0b4346e32a48",
      "transactionType": "CALL",
      "contractName": null,
      "contractAddress": "0x47e2fd55a1d27cb322533c9b0c2aeacb36d58c72",
      "function": "swap((address,address,uint24,int24,address),(bool,int256,uint160),(bool,bool),bytes)",
      "arguments": [
        "(0x096b36810d4E9243318f0Cd4C18a2dbd1661470C, 0xC3726B8054f88FD63F9268c0ab21667083D01414, 8388608, 1, 0xA11C7Faf1b89B9173B5d7137591Ccb51D2F96088)",
        "(true, -700000000, 4295128740)",
        "(false, false)",
        "0x"
      ],
      "transaction": {
        "from": "0x4b132611cdd369384a3cab8104baab0279da9bde",
        "to": "0x47e2fd55a1d27cb322533c9b0c2aeacb36d58c72",
        "gas": "0x2ff6a",
        "value": "0x0",
        "input": "0x2229d0b4000000000000000000000000096b36810d4e9243318f0cd4c18a2dbd1661470c000000000000000000000000c3726b8054f88fd63f9268c0ab21667083d0141400000000000000000000000000000000000000000000000000000000008000000000000000000000000000000000000000000000000000000000000000000001000000000000000000000000a11c7faf1b89b9173b5d7137591ccb51d2f960880000000000000000000000000000000000000000000000000000000000000001ffffffffffffffffffffffffffffffffffffffffffffffffffffffffd646d90000000000000000000000000000000000000000000000000000000001000276a40000000000000000000000000000000000000000000000000000000000000000000000000000000000000000000000000000000000000000000000000000000000000000000000000000000000000000000000000000000000000000000001600000000000000000000000000000000000000000000000000000000000000000",
        "nonce": "0x22",
        "chainId": "0x14a34"
      },
      "additionalContracts": [],
      "isFixedGasLimit": false
    }
  ],
  "receipts": [
    {
      "status": "0x1",
      "cumulativeGasUsed": "0x219fb8",
      "logs": [
        {
          "address": "0x096b36810d4e9243318f0cd4c18a2dbd1661470c",
          "topics": [
            "0x8c5be1e5ebec7d5bd14f71427d1e84f3dd0314c0f7b2291e5b200ac8c7c3b925",
            "0x0000000000000000000000004b132611cdd369384a3cab8104baab0279da9bde",
            "0x00000000000000000000000047e2fd55a1d27cb322533c9b0c2aeacb36d58c72"
          ],
          "data": "0x0000000000000000000000000000000000000000000000000000000029b92700",
          "blockHash": "0x7d2a14cacf726face9cdb7008349517bf720911e3ef8e90887407be485480745",
          "blockNumber": "0x1a3d01f",
          "blockTimestamp": "0x685aff1e",
          "transactionHash": "0x669d2d50d5d05afd6598a431d9166f2ba1fc374682c814492772bb53214068d9",
          "transactionIndex": "0x6",
          "logIndex": "0x46",
          "removed": false
        }
      ],
      "logsBloom": "0x00000000000000010000000000000000000000040000000000000200000000000000000000000000000000000000000000000000000000000000000000200000000000000000000000000000000000000000000000008000000000000000000000000000000000000000000000000000002000000000000000000000000000000000000000000000000000000000000000000000000000000000000000020000020000000000000000000000000000100000000000000000000000000000000000000000000000000004000000000100000000000000000000000000000000000010000000000000000000000000000000000000000000000000000000000000",
      "type": "0x2",
      "transactionHash": "0x669d2d50d5d05afd6598a431d9166f2ba1fc374682c814492772bb53214068d9",
      "transactionIndex": "0x6",
      "blockHash": "0x7d2a14cacf726face9cdb7008349517bf720911e3ef8e90887407be485480745",
      "blockNumber": "0x1a3d01f",
      "gasUsed": "0xb512",
      "effectiveGasPrice": "0xf42c2",
      "from": "0x4b132611cdd369384a3cab8104baab0279da9bde",
      "to": "0x096b36810d4e9243318f0cd4c18a2dbd1661470c",
      "contractAddress": null,
      "l1BaseFeeScalar": "0x44d",
      "l1BlobBaseFee": "0x10",
      "l1BlobBaseFeeScalar": "0xa118b",
      "l1Fee": "0x3607fe2c",
      "l1GasPrice": "0x1eabf088",
      "l1GasUsed": "0x640"
    },
    {
      "status": "0x1",
      "cumulativeGasUsed": "0x4575d4",
      "logs": [
        {
          "address": "0x05e73354cfdd6745c338b50bcfdfa3aa6fa03408",
          "topics": [
            "0x40e9cecb9f5f1f1c5b9c97dec2917b7ee92e57ba5563708daca94dd84ad7112f",
            "0x3e7638d5e29a1349206663ee3ad808803424390874598e075cec31fed954ddcb",
            "0x00000000000000000000000047e2fd55a1d27cb322533c9b0c2aeacb36d58c72"
          ],
          "data": "0xffffffffffffffffffffffffffffffffffffffffffffffffffffffffd646d9000000000000000000000000000000000000000000000000000000000029717caf0000000000000000000000000000000000000000ffbf4a21d1a5feeb79cd5d11000000000000000000000000000000000000000000000000000002786ad1c1ecffffffffffffffffffffffffffffffffffffffffffffffffffffffffffffffec0000000000000000000000000000000000000000000000000000000000001388",
          "blockHash": "0x7d2a14cacf726face9cdb7008349517bf720911e3ef8e90887407be485480745",
          "blockNumber": "0x1a3d01f",
          "blockTimestamp": "0x685aff1e",
          "transactionHash": "0x12f12c88a599a4af49e88870e0fa6360baf8c2733a1980f4007e0b4346e32a48",
          "transactionIndex": "0xe",
          "logIndex": "0x95",
          "removed": false
        },
        {
          "address": "0x096b36810d4e9243318f0cd4c18a2dbd1661470c",
          "topics": [
            "0xddf252ad1be2c89b69c2b068fc378daa952ba7f163c4a11628f55a4df523b3ef",
            "0x0000000000000000000000004b132611cdd369384a3cab8104baab0279da9bde",
            "0x00000000000000000000000005e73354cfdd6745c338b50bcfdfa3aa6fa03408"
          ],
          "data": "0x0000000000000000000000000000000000000000000000000000000029b92700",
          "blockHash": "0x7d2a14cacf726face9cdb7008349517bf720911e3ef8e90887407be485480745",
          "blockNumber": "0x1a3d01f",
          "blockTimestamp": "0x685aff1e",
          "transactionHash": "0x12f12c88a599a4af49e88870e0fa6360baf8c2733a1980f4007e0b4346e32a48",
          "transactionIndex": "0xe",
          "logIndex": "0x96",
          "removed": false
        },
        {
          "address": "0xc3726b8054f88fd63f9268c0ab21667083d01414",
          "topics": [
            "0xddf252ad1be2c89b69c2b068fc378daa952ba7f163c4a11628f55a4df523b3ef",
            "0x00000000000000000000000005e73354cfdd6745c338b50bcfdfa3aa6fa03408",
            "0x0000000000000000000000004b132611cdd369384a3cab8104baab0279da9bde"
          ],
          "data": "0x0000000000000000000000000000000000000000000000000000000029717caf",
          "blockHash": "0x7d2a14cacf726face9cdb7008349517bf720911e3ef8e90887407be485480745",
          "blockNumber": "0x1a3d01f",
          "blockTimestamp": "0x685aff1e",
          "transactionHash": "0x12f12c88a599a4af49e88870e0fa6360baf8c2733a1980f4007e0b4346e32a48",
          "transactionIndex": "0xe",
          "logIndex": "0x97",
          "removed": false
        }
      ],
      "logsBloom": "0x00000000000000010000000000000200000000040000000000000200000000000000000100000000000000000000000000000000040000000000000000000000000000000010000000000008000000000000000000108020000000000000000000000400000000000008000000000000002000000000000000000010000000000000000004000010000000000000000000000000000000000000000000020008000000000000000000000000000000108000000000000000000000000000000000000002001000000004000000000100000000000000000000000000000000000000000000000000004000000800000000000000000000000000000000000000",
      "type": "0x2",
      "transactionHash": "0x12f12c88a599a4af49e88870e0fa6360baf8c2733a1980f4007e0b4346e32a48",
      "transactionIndex": "0xe",
      "blockHash": "0x7d2a14cacf726face9cdb7008349517bf720911e3ef8e90887407be485480745",
      "blockNumber": "0x1a3d01f",
      "gasUsed": "0x20cbb",
      "effectiveGasPrice": "0xf42c2",
      "from": "0x4b132611cdd369384a3cab8104baab0279da9bde",
      "to": "0x47e2fd55a1d27cb322533c9b0c2aeacb36d58c72",
      "contractAddress": null,
      "l1BaseFeeScalar": "0x44d",
      "l1BlobBaseFee": "0x10",
      "l1BlobBaseFeeScalar": "0xa118b",
      "l1Fee": "0x59144f05",
      "l1GasPrice": "0x1eabf088",
      "l1GasUsed": "0xa4d"
    }
  ],
  "libraries": [],
  "pending": [],
  "returns": {},
  "timestamp": 1750794012,
  "chain": 84532,
  "commit": "38a295e"
}