{
  "transactions": [
    {
      "hash": "0x2d62bec12c12a53720e7ef8f18cc8e96335a2576f9ef7cd90ac117f7a629ea33",
      "transactionType": "CREATE",
      "contractName": "CustomERC20",
      "contractAddress": "0xd3776c418d76b45b117bdcfe14a61956910a0006",
      "function": null,
      "arguments": [
        "USD Coin Mock",
        "USDCm",
        "6"
      ],
      "transaction": {
        "from": "0x747481ae081a6e4e28c989eef25bc53def899ea7",
        "gas": "0xaca0b",
        "value": "0x0",
        "input": "0x608060405234801561000f575f80fd5b50604051610a38380380610a3883398101604081905261002e91610106565b8282600361003c8382610207565b5060046100498282610207565b50506005805460ff191660ff9390931692909217909155506102c1915050565b634e487b7160e01b5f52604160045260245ffd5b5f82601f83011261008c575f80fd5b81516001600160401b038111156100a5576100a5610069565b604051601f8201601f19908116603f011681016001600160401b03811182821017156100d3576100d3610069565b6040528181528382016020018510156100ea575f80fd5b8160208501602083015e5f918101602001919091529392505050565b5f805f60608486031215610118575f80fd5b83516001600160401b0381111561012d575f80fd5b6101398682870161007d565b602086015190945090506001600160401b03811115610156575f80fd5b6101628682870161007d565b925050604084015160ff81168114610178575f80fd5b809150509250925092565b600181811c9082168061019757607f821691505b6020821081036101b557634e487b7160e01b5f52602260045260245ffd5b50919050565b601f82111561020257805f5260205f20601f840160051c810160208510156101e05750805b601f840160051c820191505b818110156101ff575f81556001016101ec565b50505b505050565b81516001600160401b0381111561022057610220610069565b6102348161022e8454610183565b846101bb565b6020601f821160018114610266575f831561024f5750848201515b5f19600385901b1c1916600184901b1784556101ff565b5f84815260208120601f198516915b828110156102955787850151825560209485019460019092019101610275565b50848210156102b257868401515f19600387901b60f8161c191681555b50505050600190811b01905550565b61076a806102ce5f395ff3fe608060405234801561000f575f80fd5b50600436106100b9575f3560e01c806340c10f191161007257806395d89b411161005857806395d89b4114610175578063a9059cbb1461017d578063dd62ed3e14610190575f80fd5b806340c10f191461013857806370a082311461014d575f80fd5b806318160ddd116100a257806318160ddd146100fe57806323b872dd14610110578063313ce56714610123575f80fd5b806306fdde03146100bd578063095ea7b3146100db575b5f80fd5b6100c56101c8565b6040516100d291906105da565b60405180910390f35b6100ee6100e936600461062a565b610258565b60405190151581526020016100d2565b6002545b6040519081526020016100d2565b6100ee61011e366004610652565b610271565b60055460405160ff90911681526020016100d2565b61014b61014636600461062a565b610294565b005b61010261015b36600461068c565b6001600160a01b03165f9081526020819052604090205490565b6100c56102a2565b6100ee61018b36600461062a565b6102b1565b61010261019e3660046106ac565b6001600160a01b039182165f90815260016020908152604080832093909416825291909152205490565b6060600380546101d7906106dd565b80601f0160208091040260200160405190810160405280929190818152602001828054610203906106dd565b801561024e5780601f106102255761010080835404028352916020019161024e565b820191905f5260205f20905b81548152906001019060200180831161023157829003601f168201915b5050505050905090565b5f336102658185856102be565b60019150505b92915050565b5f3361027e8582856102d0565b610289858585610351565b506001949350505050565b61029e82826103ae565b5050565b6060600480546101d7906106dd565b5f33610265818585610351565b6102cb83838360016103e2565b505050565b6001600160a01b038381165f908152600160209081526040808320938616835292905220545f1981101561034b578181101561033d57604051637dc7a0d960e11b81526001600160a01b038416600482015260248101829052604481018390526064015b60405180910390fd5b61034b84848484035f6103e2565b50505050565b6001600160a01b03831661037a57604051634b637e8f60e11b81525f6004820152602401610334565b6001600160a01b0382166103a35760405163ec442f0560e01b81525f6004820152602401610334565b6102cb8383836104b4565b6001600160a01b0382166103d75760405163ec442f0560e01b81525f6004820152602401610334565b61029e5f83836104b4565b6001600160a01b03841661040b5760405163e602df0560e01b81525f6004820152602401610334565b6001600160a01b03831661043457604051634a1406b160e11b81525f6004820152602401610334565b6001600160a01b038085165f908152600160209081526040808320938716835292905220829055801561034b57826001600160a01b0316846001600160a01b03167f8c5be1e5ebec7d5bd14f71427d1e84f3dd0314c0f7b2291e5b200ac8c7c3b925846040516104a691815260200190565b60405180910390a350505050565b6001600160a01b0383166104de578060025f8282546104d39190610715565b9091555061054e9050565b6001600160a01b0383165f90815260208190526040902054818110156105305760405163391434e360e21b81526001600160a01b03851660048201526024810182905260448101839052606401610334565b6001600160a01b0384165f9081526020819052604090209082900390555b6001600160a01b03821661056a57600280548290039055610588565b6001600160a01b0382165f9081526020819052604090208054820190555b816001600160a01b0316836001600160a01b03167fddf252ad1be2c89b69c2b068fc378daa952ba7f163c4a11628f55a4df523b3ef836040516105cd91815260200190565b60405180910390a3505050565b602081525f82518060208401528060208501604085015e5f604082850101526040601f19601f83011684010191505092915050565b80356001600160a01b0381168114610625575f80fd5b919050565b5f806040838503121561063b575f80fd5b6106448361060f565b946020939093013593505050565b5f805f60608486031215610664575f80fd5b61066d8461060f565b925061067b6020850161060f565b929592945050506040919091013590565b5f6020828403121561069c575f80fd5b6106a58261060f565b9392505050565b5f80604083850312156106bd575f80fd5b6106c68361060f565b91506106d46020840161060f565b90509250929050565b600181811c908216806106f157607f821691505b60208210810361070f57634e487b7160e01b5f52602260045260245ffd5b50919050565b8082018082111561026b57634e487b7160e01b5f52601160045260245ffdfea2646970667358221220bbc108e43d39812599a18502dc4118a219bed4e13976a9445fefe3076fe0d95264736f6c634300081a0033000000000000000000000000000000000000000000000000000000000000006000000000000000000000000000000000000000000000000000000000000000a00000000000000000000000000000000000000000000000000000000000000006000000000000000000000000000000000000000000000000000000000000000d55534420436f696e204d6f636b000000000000000000000000000000000000000000000000000000000000000000000000000000000000000000000000000005555344436d000000000000000000000000000000000000000000000000000000",
        "nonce": "0x5d",
        "chainId": "0x14a34"
      },
      "additionalContracts": [],
      "isFixedGasLimit": false
    },
    {
      "hash": "0xed31004fe0c9770de363e281366661f4b4862cebdf96a83606a6d6d29336b584",
      "transactionType": "CALL",
      "contractName": "CustomERC20",
      "contractAddress": "0xd3776c418d76b45b117bdcfe14a61956910a0006",
      "function": "mint(address,uint256)",
      "arguments": [
        "0x747481ae081A6e4E28c989eEf25Bc53DeF899Ea7",
        "1000000000000"
      ],
      "transaction": {
        "from": "0x747481ae081a6e4e28c989eef25bc53def899ea7",
        "to": "0xd3776c418d76b45b117bdcfe14a61956910a0006",
        "gas": "0x17121",
        "value": "0x0",
        "input": "0x40c10f19000000000000000000000000747481ae081a6e4e28c989eef25bc53def899ea7000000000000000000000000000000000000000000000000000000e8d4a51000",
        "nonce": "0x5e",
        "chainId": "0x14a34"
      },
      "additionalContracts": [],
      "isFixedGasLimit": false
    },
    {
      "hash": "0x7e03c628b3b9ed41f6146f873b12082cb77e0c06343a003a98acedff8d117586",
      "transactionType": "CALL",
      "contractName": "CustomERC20",
      "contractAddress": "0xd3776c418d76b45b117bdcfe14a61956910a0006",
      "function": "mint(address,uint256)",
      "arguments": [
        "0x4B132611cdD369384A3CAB8104baAB0279dA9bdE",
        "1000000000000"
      ],
      "transaction": {
        "from": "0x747481ae081a6e4e28c989eef25bc53def899ea7",
        "to": "0xd3776c418d76b45b117bdcfe14a61956910a0006",
        "gas": "0x12527",
        "value": "0x0",
        "input": "0x40c10f190000000000000000000000004b132611cdd369384a3cab8104baab0279da9bde000000000000000000000000000000000000000000000000000000e8d4a51000",
        "nonce": "0x5f",
        "chainId": "0x14a34"
      },
      "additionalContracts": [],
      "isFixedGasLimit": false
    },
    {
      "hash": "0xc57a914b12374a94b1fa5c810b5a17bb2b36799c4d4d5ce4a7f65b69e2a5e147",
      "transactionType": "CALL",
      "contractName": "CustomERC20",
      "contractAddress": "0xd3776c418d76b45b117bdcfe14a61956910a0006",
      "function": "mint(address,uint256)",
      "arguments": [
        "0xEeCdf10373bdEee9C66150443b63C15B297D6000",
        "1000000000000"
      ],
      "transaction": {
        "from": "0x747481ae081a6e4e28c989eef25bc53def899ea7",
        "to": "0xd3776c418d76b45b117bdcfe14a61956910a0006",
        "gas": "0x114cd",
        "value": "0x0",
        "input": "0x40c10f19000000000000000000000000eecdf10373bdeee9c66150443b63c15b297d6000000000000000000000000000000000000000000000000000000000e8d4a51000",
        "nonce": "0x60",
        "chainId": "0x14a34"
      },
      "additionalContracts": [],
      "isFixedGasLimit": false
    },
    {
      "hash": "0xfddf96ff63e90b484206f97c9f898d98ff2d01e1bc4234b6ea7d596865ca6f5d",
      "transactionType": "CREATE",
      "contractName": "CustomERC20",
      "contractAddress": "0xeb562ab7a402bff121425fd225bafec940a64189",
      "function": null,
      "arguments": [
        "Tether USD Mock",
        "USDTm",
        "6"
      ],
      "transaction": {
        "from": "0x747481ae081a6e4e28c989eef25bc53def899ea7",
        "gas": "0xaca2a",
        "value": "0x0",
        "input": "0x608060405234801561000f575f80fd5b50604051610a38380380610a3883398101604081905261002e91610106565b8282600361003c8382610207565b5060046100498282610207565b50506005805460ff191660ff9390931692909217909155506102c1915050565b634e487b7160e01b5f52604160045260245ffd5b5f82601f83011261008c575f80fd5b81516001600160401b038111156100a5576100a5610069565b604051601f8201601f19908116603f011681016001600160401b03811182821017156100d3576100d3610069565b6040528181528382016020018510156100ea575f80fd5b8160208501602083015e5f918101602001919091529392505050565b5f805f60608486031215610118575f80fd5b83516001600160401b0381111561012d575f80fd5b6101398682870161007d565b602086015190945090506001600160401b03811115610156575f80fd5b6101628682870161007d565b925050604084015160ff81168114610178575f80fd5b809150509250925092565b600181811c9082168061019757607f821691505b6020821081036101b557634e487b7160e01b5f52602260045260245ffd5b50919050565b601f82111561020257805f5260205f20601f840160051c810160208510156101e05750805b601f840160051c820191505b818110156101ff575f81556001016101ec565b50505b505050565b81516001600160401b0381111561022057610220610069565b6102348161022e8454610183565b846101bb565b6020601f821160018114610266575f831561024f5750848201515b5f19600385901b1c1916600184901b1784556101ff565b5f84815260208120601f198516915b828110156102955787850151825560209485019460019092019101610275565b50848210156102b257868401515f19600387901b60f8161c191681555b50505050600190811b01905550565b61076a806102ce5f395ff3fe608060405234801561000f575f80fd5b50600436106100b9575f3560e01c806340c10f191161007257806395d89b411161005857806395d89b4114610175578063a9059cbb1461017d578063dd62ed3e14610190575f80fd5b806340c10f191461013857806370a082311461014d575f80fd5b806318160ddd116100a257806318160ddd146100fe57806323b872dd14610110578063313ce56714610123575f80fd5b806306fdde03146100bd578063095ea7b3146100db575b5f80fd5b6100c56101c8565b6040516100d291906105da565b60405180910390f35b6100ee6100e936600461062a565b610258565b60405190151581526020016100d2565b6002545b6040519081526020016100d2565b6100ee61011e366004610652565b610271565b60055460405160ff90911681526020016100d2565b61014b61014636600461062a565b610294565b005b61010261015b36600461068c565b6001600160a01b03165f9081526020819052604090205490565b6100c56102a2565b6100ee61018b36600461062a565b6102b1565b61010261019e3660046106ac565b6001600160a01b039182165f90815260016020908152604080832093909416825291909152205490565b6060600380546101d7906106dd565b80601f0160208091040260200160405190810160405280929190818152602001828054610203906106dd565b801561024e5780601f106102255761010080835404028352916020019161024e565b820191905f5260205f20905b81548152906001019060200180831161023157829003601f168201915b5050505050905090565b5f336102658185856102be565b60019150505b92915050565b5f3361027e8582856102d0565b610289858585610351565b506001949350505050565b61029e82826103ae565b5050565b6060600480546101d7906106dd565b5f33610265818585610351565b6102cb83838360016103e2565b505050565b6001600160a01b038381165f908152600160209081526040808320938616835292905220545f1981101561034b578181101561033d57604051637dc7a0d960e11b81526001600160a01b038416600482015260248101829052604481018390526064015b60405180910390fd5b61034b84848484035f6103e2565b50505050565b6001600160a01b03831661037a57604051634b637e8f60e11b81525f6004820152602401610334565b6001600160a01b0382166103a35760405163ec442f0560e01b81525f6004820152602401610334565b6102cb8383836104b4565b6001600160a01b0382166103d75760405163ec442f0560e01b81525f6004820152602401610334565b61029e5f83836104b4565b6001600160a01b03841661040b5760405163e602df0560e01b81525f6004820152602401610334565b6001600160a01b03831661043457604051634a1406b160e11b81525f6004820152602401610334565b6001600160a01b038085165f908152600160209081526040808320938716835292905220829055801561034b57826001600160a01b0316846001600160a01b03167f8c5be1e5ebec7d5bd14f71427d1e84f3dd0314c0f7b2291e5b200ac8c7c3b925846040516104a691815260200190565b60405180910390a350505050565b6001600160a01b0383166104de578060025f8282546104d39190610715565b9091555061054e9050565b6001600160a01b0383165f90815260208190526040902054818110156105305760405163391434e360e21b81526001600160a01b03851660048201526024810182905260448101839052606401610334565b6001600160a01b0384165f9081526020819052604090209082900390555b6001600160a01b03821661056a57600280548290039055610588565b6001600160a01b0382165f9081526020819052604090208054820190555b816001600160a01b0316836001600160a01b03167fddf252ad1be2c89b69c2b068fc378daa952ba7f163c4a11628f55a4df523b3ef836040516105cd91815260200190565b60405180910390a3505050565b602081525f82518060208401528060208501604085015e5f604082850101526040601f19601f83011684010191505092915050565b80356001600160a01b0381168114610625575f80fd5b919050565b5f806040838503121561063b575f80fd5b6106448361060f565b946020939093013593505050565b5f805f60608486031215610664575f80fd5b61066d8461060f565b925061067b6020850161060f565b929592945050506040919091013590565b5f6020828403121561069c575f80fd5b6106a58261060f565b9392505050565b5f80604083850312156106bd575f80fd5b6106c68361060f565b91506106d46020840161060f565b90509250929050565b600181811c908216806106f157607f821691505b60208210810361070f57634e487b7160e01b5f52602260045260245ffd5b50919050565b8082018082111561026b57634e487b7160e01b5f52601160045260245ffdfea2646970667358221220bbc108e43d39812599a18502dc4118a219bed4e13976a9445fefe3076fe0d95264736f6c634300081a0033000000000000000000000000000000000000000000000000000000000000006000000000000000000000000000000000000000000000000000000000000000a00000000000000000000000000000000000000000000000000000000000000006000000000000000000000000000000000000000000000000000000000000000f54657468657220555344204d6f636b00000000000000000000000000000000000000000000000000000000000000000000000000000000000000000000000005555344546d000000000000000000000000000000000000000000000000000000",
        "nonce": "0x61",
        "chainId": "0x14a34"
      },
      "additionalContracts": [],
      "isFixedGasLimit": false
    },
    {
      "hash": "0xd5f4da79370673da16432222c3e967102ea2b9e1bb5ac22742784419a37f8d84",
      "transactionType": "CALL",
      "contractName": "CustomERC20",
      "contractAddress": "0xeb562ab7a402bff121425fd225bafec940a64189",
      "function": "mint(address,uint256)",
      "arguments": [
        "0x747481ae081A6e4E28c989eEf25Bc53DeF899Ea7",
        "1000000000000"
      ],
      "transaction": {
        "from": "0x747481ae081a6e4e28c989eef25bc53def899ea7",
        "to": "0xeb562ab7a402bff121425fd225bafec940a64189",
        "gas": "0x17121",
        "value": "0x0",
        "input": "0x40c10f19000000000000000000000000747481ae081a6e4e28c989eef25bc53def899ea7000000000000000000000000000000000000000000000000000000e8d4a51000",
        "nonce": "0x62",
        "chainId": "0x14a34"
      },
      "additionalContracts": [],
      "isFixedGasLimit": false
    },
    {
      "hash": "0xbda28ead0fb5d45097f62235c3e72b46cbc4329029c0267199dd23fbaab5acc1",
      "transactionType": "CALL",
      "contractName": "CustomERC20",
      "contractAddress": "0xeb562ab7a402bff121425fd225bafec940a64189",
      "function": "mint(address,uint256)",
      "arguments": [
        "0x4B132611cdD369384A3CAB8104baAB0279dA9bdE",
        "1000000000000"
      ],
      "transaction": {
        "from": "0x747481ae081a6e4e28c989eef25bc53def899ea7",
        "to": "0xeb562ab7a402bff121425fd225bafec940a64189",
        "gas": "0x12527",
        "value": "0x0",
        "input": "0x40c10f190000000000000000000000004b132611cdd369384a3cab8104baab0279da9bde000000000000000000000000000000000000000000000000000000e8d4a51000",
        "nonce": "0x63",
        "chainId": "0x14a34"
      },
      "additionalContracts": [],
      "isFixedGasLimit": false
    },
    {
      "hash": "0x6b263eb34de900e59faeed1abf1801e471db38a82c41df234ff5baabced691d2",
      "transactionType": "CALL",
      "contractName": "CustomERC20",
      "contractAddress": "0xeb562ab7a402bff121425fd225bafec940a64189",
      "function": "mint(address,uint256)",
      "arguments": [
        "0xEeCdf10373bdEee9C66150443b63C15B297D6000",
        "1000000000000"
      ],
      "transaction": {
        "from": "0x747481ae081a6e4e28c989eef25bc53def899ea7",
        "to": "0xeb562ab7a402bff121425fd225bafec940a64189",
        "gas": "0x114cd",
        "value": "0x0",
        "input": "0x40c10f19000000000000000000000000eecdf10373bdeee9c66150443b63c15b297d6000000000000000000000000000000000000000000000000000000000e8d4a51000",
        "nonce": "0x64",
        "chainId": "0x14a34"
      },
      "additionalContracts": [],
      "isFixedGasLimit": false
    }
  ],
  "receipts": [
    {
      "status": "0x1",
      "cumulativeGasUsed": "0x100edb",
      "logs": [],
      "logsBloom": "0x00000000000000000000000000000000000000000000000000000000000000000000000000000000000000000000000000000000000000000000000000000000000000000000000000000000000000000000000000000000000000000000000000000000000000000000000000000000000000000000000000000000000000000000000000000000000000000000000000000000000000000000000000000000000000000000000000000000000000000000000000000000000000000000000000000000000000000000000000000000000000000000000000000000000000000000000000000000000000000000000000000000000000000000000000000000",
      "type": "0x2",
      "transactionHash": "0x2d62bec12c12a53720e7ef8f18cc8e96335a2576f9ef7cd90ac117f7a629ea33",
      "transactionIndex": "0x3",
      "blockHash": "0xb7134bd9b5668ec7ddd587ad4de0c006e92b53c3f4f0b1863f86e67071fb9866",
      "blockNumber": "0x1a3093e",
      "gasUsed": "0x84ca6",
      "effectiveGasPrice": "0x241",
      "from": "0x747481ae081a6e4e28c989eef25bc53def899ea7",
      "to": null,
      "contractAddress": "0xd3776c418d76b45b117bdcfe14a61956910a0006",
      "l1BaseFeeScalar": "0x44d",
      "l1BlobBaseFee": "0x1",
      "l1BlobBaseFeeScalar": "0xa118b",
      "l1Fee": "0x3efd06c00",
      "l1GasPrice": "0x21df710e",
      "l1GasUsed": "0x698f"
    },
    {
      "status": "0x1",
      "cumulativeGasUsed": "0x1a46d8",
      "logs": [
        {
          "address": "0xd3776c418d76b45b117bdcfe14a61956910a0006",
          "topics": [
            "0xddf252ad1be2c89b69c2b068fc378daa952ba7f163c4a11628f55a4df523b3ef",
            "0x0000000000000000000000000000000000000000000000000000000000000000",
            "0x000000000000000000000000747481ae081a6e4e28c989eef25bc53def899ea7"
          ],
          "data": "0x000000000000000000000000000000000000000000000000000000e8d4a51000",
          "blockHash": "0xb7134bd9b5668ec7ddd587ad4de0c006e92b53c3f4f0b1863f86e67071fb9866",
          "blockNumber": "0x1a3093e",
          "blockTimestamp": "0x6859715c",
          "transactionHash": "0xed31004fe0c9770de363e281366661f4b4862cebdf96a83606a6d6d29336b584",
          "transactionIndex": "0x5",
          "logIndex": "0x17",
          "removed": false
        }
      ],
      "logsBloom": "0x00000000000000000000000000000000000000000000000000000000000000000000000000000000000000000000000000000000010004000000000000000000000000000000000000000008000000000000000000000000000000000000000000000000020000000000000000000800000000000000000000000010000000000000000000000000000000000000000000010000000000000000000000000000000000000000000000040000000008000000000000000000000000000000000000000002000000000000000000000000000000000000000000000000000020080000000000000000000000000000000000000000000000000000000000000000",
      "type": "0x2",
      "transactionHash": "0xed31004fe0c9770de363e281366661f4b4862cebdf96a83606a6d6d29336b584",
      "transactionIndex": "0x5",
      "blockHash": "0xb7134bd9b5668ec7ddd587ad4de0c006e92b53c3f4f0b1863f86e67071fb9866",
      "blockNumber": "0x1a3093e",
      "gasUsed": "0x10b3f",
      "effectiveGasPrice": "0x241",
      "from": "0x747481ae081a6e4e28c989eef25bc53def899ea7",
      "to": "0xd3776c418d76b45b117bdcfe14a61956910a0006",
      "contractAddress": null,
      "l1BaseFeeScalar": "0x44d",
      "l1BlobBaseFee": "0x1",
      "l1BlobBaseFeeScalar": "0xa118b",
      "l1Fee": "0x3bab9cd1",
      "l1GasPrice": "0x21df710e",
      "l1GasUsed": "0x640"
    },
    {
      "status": "0x1",
      "cumulativeGasUsed": "0x1b0f4b",
      "logs": [
        {
          "address": "0xd3776c418d76b45b117bdcfe14a61956910a0006",
          "topics": [
            "0xddf252ad1be2c89b69c2b068fc378daa952ba7f163c4a11628f55a4df523b3ef",
            "0x0000000000000000000000000000000000000000000000000000000000000000",
            "0x0000000000000000000000004b132611cdd369384a3cab8104baab0279da9bde"
          ],
          "data": "0x000000000000000000000000000000000000000000000000000000e8d4a51000",
          "blockHash": "0xb7134bd9b5668ec7ddd587ad4de0c006e92b53c3f4f0b1863f86e67071fb9866",
          "blockNumber": "0x1a3093e",
          "blockTimestamp": "0x6859715c",
          "transactionHash": "0x7e03c628b3b9ed41f6146f873b12082cb77e0c06343a003a98acedff8d117586",
          "transactionIndex": "0x6",
          "logIndex": "0x18",
          "removed": false
        }
      ],
      "logsBloom": "0x00000000000000000000000000000000000000000000000000000200000000000000000000000000000000000000000000000000010004000000000000000000000000000000000000000008000000000000000000008000000000000000000000000000020000000000000000000800000000000000000000000010000000000000000000000000000000000000000000000000000000000000000000000000000000000000000000040000000000000000000000000000000000000000000000000002000000000004000000000000000000000000000000000000000020000000000000000000000000000000000000000000000000000000000000000000",
      "type": "0x2",
      "transactionHash": "0x7e03c628b3b9ed41f6146f873b12082cb77e0c06343a003a98acedff8d117586",
      "transactionIndex": "0x6",
      "blockHash": "0xb7134bd9b5668ec7ddd587ad4de0c006e92b53c3f4f0b1863f86e67071fb9866",
      "blockNumber": "0x1a3093e",
      "gasUsed": "0xc873",
      "effectiveGasPrice": "0x241",
      "from": "0x747481ae081a6e4e28c989eef25bc53def899ea7",
      "to": "0xd3776c418d76b45b117bdcfe14a61956910a0006",
      "contractAddress": null,
      "l1BaseFeeScalar": "0x44d",
      "l1BlobBaseFee": "0x1",
      "l1BlobBaseFeeScalar": "0xa118b",
      "l1Fee": "0x3bab9cd1",
      "l1GasPrice": "0x21df710e",
      "l1GasUsed": "0x640"
    },
    {
      "status": "0x1",
      "cumulativeGasUsed": "0x1bd7b2",
      "logs": [
        {
          "address": "0xd3776c418d76b45b117bdcfe14a61956910a0006",
          "topics": [
            "0xddf252ad1be2c89b69c2b068fc378daa952ba7f163c4a11628f55a4df523b3ef",
            "0x0000000000000000000000000000000000000000000000000000000000000000",
            "0x000000000000000000000000eecdf10373bdeee9c66150443b63c15b297d6000"
          ],
          "data": "0x000000000000000000000000000000000000000000000000000000e8d4a51000",
          "blockHash": "0xb7134bd9b5668ec7ddd587ad4de0c006e92b53c3f4f0b1863f86e67071fb9866",
          "blockNumber": "0x1a3093e",
          "blockTimestamp": "0x6859715c",
          "transactionHash": "0xc57a914b12374a94b1fa5c810b5a17bb2b36799c4d4d5ce4a7f65b69e2a5e147",
          "transactionIndex": "0x7",
          "logIndex": "0x19",
          "removed": false
        }
      ],
      "logsBloom": "0x00000000000000000000000000000000000000000000000000000000080000000000000000000000000000000000000000000000010004100000400000000000000000000000000000000008000000000000000000000000000000000000000000000000020000000000000000000800000000000000000000000010000000000000000000000000000000000000000000000000000000000000000000000000000000000000000000040000000000000000000000000000000000000000000000000002000000000000000000000000000000000000000000000000000020000000000000000000000000000000000000000000000000000000000000000000",
      "type": "0x2",
      "transactionHash": "0xc57a914b12374a94b1fa5c810b5a17bb2b36799c4d4d5ce4a7f65b69e2a5e147",
      "transactionIndex": "0x7",
      "blockHash": "0xb7134bd9b5668ec7ddd587ad4de0c006e92b53c3f4f0b1863f86e67071fb9866",
      "blockNumber": "0x1a3093e",
      "gasUsed": "0xc867",
      "effectiveGasPrice": "0x241",
      "from": "0x747481ae081a6e4e28c989eef25bc53def899ea7",
      "to": "0xd3776c418d76b45b117bdcfe14a61956910a0006",
      "contractAddress": null,
      "l1BaseFeeScalar": "0x44d",
      "l1BlobBaseFee": "0x1",
      "l1BlobBaseFeeScalar": "0xa118b",
      "l1Fee": "0x3bab9cd1",
      "l1GasPrice": "0x21df710e",
      "l1GasUsed": "0x640"
    },
    {
      "status": "0x1",
      "cumulativeGasUsed": "0x242470",
      "logs": [],
      "logsBloom": "0x00000000000000000000000000000000000000000000000000000000000000000000000000000000000000000000000000000000000000000000000000000000000000000000000000000000000000000000000000000000000000000000000000000000000000000000000000000000000000000000000000000000000000000000000000000000000000000000000000000000000000000000000000000000000000000000000000000000000000000000000000000000000000000000000000000000000000000000000000000000000000000000000000000000000000000000000000000000000000000000000000000000000000000000000000000000",
      "type": "0x2",
      "transactionHash": "0xfddf96ff63e90b484206f97c9f898d98ff2d01e1bc4234b6ea7d596865ca6f5d",
      "transactionIndex": "0x8",
      "blockHash": "0xb7134bd9b5668ec7ddd587ad4de0c006e92b53c3f4f0b1863f86e67071fb9866",
      "blockNumber": "0x1a3093e",
      "gasUsed": "0x84cbe",
      "effectiveGasPrice": "0x241",
      "from": "0x747481ae081a6e4e28c989eef25bc53def899ea7",
      "to": null,
      "contractAddress": "0xeb562ab7a402bff121425fd225bafec940a64189",
      "l1BaseFeeScalar": "0x44d",
      "l1BlobBaseFee": "0x1",
      "l1BlobBaseFeeScalar": "0xa118b",
      "l1Fee": "0x3f0cffb9d",
      "l1GasPrice": "0x21df710e",
      "l1GasUsed": "0x69aa"
    },
    {
      "status": "0x1",
      "cumulativeGasUsed": "0x252faf",
      "logs": [
        {
          "address": "0xeb562ab7a402bff121425fd225bafec940a64189",
          "topics": [
            "0xddf252ad1be2c89b69c2b068fc378daa952ba7f163c4a11628f55a4df523b3ef",
            "0x0000000000000000000000000000000000000000000000000000000000000000",
            "0x000000000000000000000000747481ae081a6e4e28c989eef25bc53def899ea7"
          ],
          "data": "0x000000000000000000000000000000000000000000000000000000e8d4a51000",
          "blockHash": "0xb7134bd9b5668ec7ddd587ad4de0c006e92b53c3f4f0b1863f86e67071fb9866",
          "blockNumber": "0x1a3093e",
          "blockTimestamp": "0x6859715c",
          "transactionHash": "0xd5f4da79370673da16432222c3e967102ea2b9e1bb5ac22742784419a37f8d84",
          "transactionIndex": "0x9",
          "logIndex": "0x1a",
          "removed": false
        }
      ],
      "logsBloom": "0x00000000000000000000000000000000000000000000000000000000000000000000000000000000000000000000000000000000000000000000000000000000000000000000000000000008000000000000000000000000000000000000000000000000022000000000000000000800000000000000000000000018000000000000000000000000000000000000000000010000000000000000000000000000000000000000000000000000000008000000000000000000000000000000000000000002000000000000000000000000000000000000000000000000000020080000000000000000000000000000000000000000000000000000000000400000",
      "type": "0x2",
      "transactionHash": "0xd5f4da79370673da16432222c3e967102ea2b9e1bb5ac22742784419a37f8d84",
      "transactionIndex": "0x9",
      "blockHash": "0xb7134bd9b5668ec7ddd587ad4de0c006e92b53c3f4f0b1863f86e67071fb9866",
      "blockNumber": "0x1a3093e",
      "gasUsed": "0x10b3f",
      "effectiveGasPrice": "0x241",
      "from": "0x747481ae081a6e4e28c989eef25bc53def899ea7",
      "to": "0xeb562ab7a402bff121425fd225bafec940a64189",
      "contractAddress": null,
      "l1BaseFeeScalar": "0x44d",
      "l1BlobBaseFee": "0x1",
      "l1BlobBaseFeeScalar": "0xa118b",
      "l1Fee": "0x3bab9cd1",
      "l1GasPrice": "0x21df710e",
      "l1GasUsed": "0x640"
    },
    {
      "status": "0x1",
      "cumulativeGasUsed": "0x25f822",
      "logs": [
        {
          "address": "0xeb562ab7a402bff121425fd225bafec940a64189",
          "topics": [
            "0xddf252ad1be2c89b69c2b068fc378daa952ba7f163c4a11628f55a4df523b3ef",
            "0x0000000000000000000000000000000000000000000000000000000000000000",
            "0x0000000000000000000000004b132611cdd369384a3cab8104baab0279da9bde"
          ],
          "data": "0x000000000000000000000000000000000000000000000000000000e8d4a51000",
          "blockHash": "0xb7134bd9b5668ec7ddd587ad4de0c006e92b53c3f4f0b1863f86e67071fb9866",
          "blockNumber": "0x1a3093e",
          "blockTimestamp": "0x6859715c",
          "transactionHash": "0xbda28ead0fb5d45097f62235c3e72b46cbc4329029c0267199dd23fbaab5acc1",
          "transactionIndex": "0xa",
          "logIndex": "0x1b",
          "removed": false
        }
      ],
      "logsBloom": "0x00000000000000000000000000000000000000000000000000000200000000000000000000000000000000000000000000000000000000000000000000000000000000000000000000000008000000000000000000008000000000000000000000000000022000000000000000000800000000000000000000000018000000000000000000000000000000000000000000000000000000000000000000000000000000000000000000000000000000000000000000000000000000000000000000000002000000000004000000000000000000000000000000000000000020000000000000000000000000000000000000000000000000000000000000400000",
      "type": "0x2",
      "transactionHash": "0xbda28ead0fb5d45097f62235c3e72b46cbc4329029c0267199dd23fbaab5acc1",
      "transactionIndex": "0xa",
      "blockHash": "0xb7134bd9b5668ec7ddd587ad4de0c006e92b53c3f4f0b1863f86e67071fb9866",
      "blockNumber": "0x1a3093e",
      "gasUsed": "0xc873",
      "effectiveGasPrice": "0x241",
      "from": "0x747481ae081a6e4e28c989eef25bc53def899ea7",
      "to": "0xeb562ab7a402bff121425fd225bafec940a64189",
      "contractAddress": null,
      "l1BaseFeeScalar": "0x44d",
      "l1BlobBaseFee": "0x1",
      "l1BlobBaseFeeScalar": "0xa118b",
      "l1Fee": "0x3bab9cd1",
      "l1GasPrice": "0x21df710e",
      "l1GasUsed": "0x640"
    },
    {
      "status": "0x1",
      "cumulativeGasUsed": "0x26c089",
      "logs": [
        {
          "address": "0xeb562ab7a402bff121425fd225bafec940a64189",
          "topics": [
            "0xddf252ad1be2c89b69c2b068fc378daa952ba7f163c4a11628f55a4df523b3ef",
            "0x0000000000000000000000000000000000000000000000000000000000000000",
            "0x000000000000000000000000eecdf10373bdeee9c66150443b63c15b297d6000"
          ],
          "data": "0x000000000000000000000000000000000000000000000000000000e8d4a51000",
          "blockHash": "0xb7134bd9b5668ec7ddd587ad4de0c006e92b53c3f4f0b1863f86e67071fb9866",
          "blockNumber": "0x1a3093e",
          "blockTimestamp": "0x6859715c",
          "transactionHash": "0x6b263eb34de900e59faeed1abf1801e471db38a82c41df234ff5baabced691d2",
          "transactionIndex": "0xb",
          "logIndex": "0x1c",
          "removed": false
        }
      ],
      "logsBloom": "0x00000000000000000000000000000000000000000000000000000000080000000000000000000000000000000000000000000000000000100000400000000000000000000000000000000008000000000000000000000000000000000000000000000000022000000000000000000800000000000000000000000018000000000000000000000000000000000000000000000000000000000000000000000000000000000000000000000000000000000000000000000000000000000000000000000002000000000000000000000000000000000000000000000000000020000000000000000000000000000000000000000000000000000000000000400000",
      "type": "0x2",
      "transactionHash": "0x6b263eb34de900e59faeed1abf1801e471db38a82c41df234ff5baabced691d2",
      "transactionIndex": "0xb",
      "blockHash": "0xb7134bd9b5668ec7ddd587ad4de0c006e92b53c3f4f0b1863f86e67071fb9866",
      "blockNumber": "0x1a3093e",
      "gasUsed": "0xc867",
      "effectiveGasPrice": "0x241",
      "from": "0x747481ae081a6e4e28c989eef25bc53def899ea7",
      "to": "0xeb562ab7a402bff121425fd225bafec940a64189",
      "contractAddress": null,
      "l1BaseFeeScalar": "0x44d",
      "l1BlobBaseFee": "0x1",
      "l1BlobBaseFeeScalar": "0xa118b",
      "l1Fee": "0x3bab9cd1",
      "l1GasPrice": "0x21df710e",
      "l1GasUsed": "0x640"
    }
  ],
  "libraries": [],
  "pending": [],
  "returns": {},
  "timestamp": 1750692186,
  "chain": 84532,
  "commit": "38a295e"
}