{
  "transactions": [
    {
      "hash": "0xd90a0d4d10ea0dfd43c8a97742f2154cd5f7b87ad898d756b92ab3728626f647",
      "transactionType": "CALL",
      "contractName": null,
      "contractAddress": "0x833589fcd6edb6e08f4c7c32d4f71b54bda02913",
      "function": "approve(address,uint256)",
      "arguments": [
        "0x000000000022D473030F116dDEE9F6B43aC78BA3",
        "115792089237316195423570985008687907853269984665640564039457584007913129639935"
      ],
      "transaction": {
        "from": "0xf39fd6e51aad88f6f4ce6ab8827279cfffb92266",
        "to": "0x833589fcd6edb6e08f4c7c32d4f71b54bda02913",
        "gas": "0x12ca9",
        "value": "0x0",
        "input": "0x095ea7b3000000000000000000000000000000000022d473030f116ddee9f6b43ac78ba3ffffffffffffffffffffffffffffffffffffffffffffffffffffffffffffffff",
        "nonce": "0x61e",
        "chainId": "0x2105"
      },
      "additionalContracts": [],
      "isFixedGasLimit": false
    },
    {
      "hash": "0xd5fc7eb9f98f531581dd5b61c91d16c25af32342d24070643f4a47b7cd863e57",
      "transactionType": "CALL",
      "contractName": null,
      "contractAddress": "0x000000000022d473030f116ddee9f6b43ac78ba3",
      "function": "approve(address,address,uint160,uint48)",
      "arguments": [
        "0x833589fCD6eDb6E08f4c7C32D4f71b54bdA02913",
        "0x7C5f5A4bBd8fD63184577525326123B519429bDc",
        "1461501637330902918203684832716283019655932542975",
        "281474976710655"
      ],
      "transaction": {
        "from": "0xf39fd6e51aad88f6f4ce6ab8827279cfffb92266",
        "to": "0x000000000022d473030f116ddee9f6b43ac78ba3",
        "gas": "0x1112d",
        "value": "0x0",
        "input": "0x87517c45000000000000000000000000833589fcd6edb6e08f4c7c32d4f71b54bda029130000000000000000000000007c5f5a4bbd8fd63184577525326123b519429bdc000000000000000000000000ffffffffffffffffffffffffffffffffffffffff0000000000000000000000000000000000000000000000000000ffffffffffff",
        "nonce": "0x61f",
        "chainId": "0x2105"
      },
      "additionalContracts": [],
      "isFixedGasLimit": false
    },
    {
      "hash": "0xb57982b74aa74cc0668c5ec0ca698dde6b716c5cb92c7bf3f413bd2fd65abc04",
      "transactionType": "CALL",
      "contractName": null,
      "contractAddress": "0x7c5f5a4bbd8fd63184577525326123b519429bdc",
      "function": "initializePool((address,address,uint24,int24,address),uint160)",
      "arguments": [
        "(0x0000000000000000000000000000000000000000, 0x833589fCD6eDb6E08f4c7C32D4f71b54bdA02913, 8388608, 60, 0xDff183B65b532b15E0917D0AA1a9e15e1f086088)",
        "3943642258079625821290496"
      ],
      "transaction": {
        "from": "0xf39fd6e51aad88f6f4ce6ab8827279cfffb92266",
        "to": "0x7c5f5a4bbd8fd63184577525326123b519429bdc",
        "gas": "0x14684",
        "value": "0x0",
        "input": "0xf70204050000000000000000000000000000000000000000000000000000000000000000000000000000000000000000833589fcd6edb6e08f4c7c32d4f71b54bda029130000000000000000000000000000000000000000000000000000000000800000000000000000000000000000000000000000000000000000000000000000003c000000000000000000000000dff183b65b532b15e0917d0aa1a9e15e1f0860880000000000000000000000000000000000000000000343194672933f20000000",
        "nonce": "0x620",
        "chainId": "0x2105"
      },
      "additionalContracts": [],
      "isFixedGasLimit": false
    }
  ],
  "receipts": [
    {
      "status": "0x1",
      "cumulativeGasUsed": "0xd9ad",
      "logs": [
        {
          "address": "0x833589fcd6edb6e08f4c7c32d4f71b54bda02913",
          "topics": [
            "0x8c5be1e5ebec7d5bd14f71427d1e84f3dd0314c0f7b2291e5b200ac8c7c3b925",
            "0x000000000000000000000000f39fd6e51aad88f6f4ce6ab8827279cfffb92266",
            "0x000000000000000000000000000000000022d473030f116ddee9f6b43ac78ba3"
          ],
          "data": "0xffffffffffffffffffffffffffffffffffffffffffffffffffffffffffffffff",
          "blockHash": "0x618dcd18e3ec79c0152601e266d9530006ffca47d3dd38f4229195915f6a0bbc",
          "blockNumber": "0x1e3a655",
          "blockTimestamp": "0x6851a9c1",
          "transactionHash": "0xd90a0d4d10ea0dfd43c8a97742f2154cd5f7b87ad898d756b92ab3728626f647",
          "transactionIndex": "0x0",
          "logIndex": "0x0",
          "removed": false
        }
      ],
      "logsBloom": "0x00000000000000000000000000000000000000000000000000000000000000000000000000000000000000000000100000000000800000000000000000200000000000000000000000004000000000000000000000080800000000000000000000800000000000000000000100000000000000000000000000000000000000000000000000000000000000000000000000000000000000000000000000000000020000000000000000000000000000000000000000000000000000000000000000000000000000200000000000000000000000002000000000000000000000000010000000000000000000000000000000000000000000000000000000000000",
      "type": "0x2",
      "transactionHash": "0xd90a0d4d10ea0dfd43c8a97742f2154cd5f7b87ad898d756b92ab3728626f647",
      "transactionIndex": "0x0",
      "blockHash": "0x618dcd18e3ec79c0152601e266d9530006ffca47d3dd38f4229195915f6a0bbc",
      "blockNumber": "0x1e3a655",
      "gasUsed": "0xd9ad",
      "effectiveGasPrice": "0x5bd4bc",
      "blobGasPrice": "0x1",
      "from": "0xf39fd6e51aad88f6f4ce6ab8827279cfffb92266",
      "to": "0x833589fcd6edb6e08f4c7c32d4f71b54bda02913",
      "contractAddress": null
    },
    {
      "status": "0x1",
      "cumulativeGasUsed": "0xbaca",
      "logs": [
        {
          "address": "0x000000000022d473030f116ddee9f6b43ac78ba3",
          "topics": [
            "0xda9fa7c1b00402c17d0161b249b1ab8bbec047c5a52207b9c112deffd817036b",
            "0x000000000000000000000000f39fd6e51aad88f6f4ce6ab8827279cfffb92266",
            "0x000000000000000000000000833589fcd6edb6e08f4c7c32d4f71b54bda02913",
            "0x0000000000000000000000007c5f5a4bbd8fd63184577525326123b519429bdc"
          ],
          "data": "0x000000000000000000000000ffffffffffffffffffffffffffffffffffffffff0000000000000000000000000000000000000000000000000000ffffffffffff",
          "blockHash": "0x10e2810499deb8c1b01eef9a5869f73dcc20e7f08e420f17ad1b1cf113691862",
          "blockNumber": "0x1e3a656",
          "blockTimestamp": "0x6851a9c1",
          "transactionHash": "0xd5fc7eb9f98f531581dd5b61c91d16c25af32342d24070643f4a47b7cd863e57",
          "transactionIndex": "0x0",
          "logIndex": "0x0",
          "removed": false
        }
      ],
      "logsBloom": "0x00010000000000000000000000000000000000000000000000000000000000000000000000000000000000000000000000000000000000000000000000082000000000000000040000000000000000000000000000000000000000000000000000000000000000000000000100000000010000000000000000000000000000000020000000000000400000000000000000000000000000000000000000000000000000000000000000000000000000000000000000000000000000080000000200000000000000200000000000000000000000002000000040000000000000000000000000000000000000000000000000000000002000000000000000000400",
      "type": "0x2",
      "transactionHash": "0xd5fc7eb9f98f531581dd5b61c91d16c25af32342d24070643f4a47b7cd863e57",
      "transactionIndex": "0x0",
      "blockHash": "0x10e2810499deb8c1b01eef9a5869f73dcc20e7f08e420f17ad1b1cf113691862",
      "blockNumber": "0x1e3a656",
      "gasUsed": "0xbaca",
      "effectiveGasPrice": "0x50cb7f",
      "blobGasPrice": "0x1",
      "from": "0xf39fd6e51aad88f6f4ce6ab8827279cfffb92266",
      "to": "0x000000000022d473030f116ddee9f6b43ac78ba3",
      "contractAddress": null
    },
    {
      "status": "0x1",
      "cumulativeGasUsed": "0xec65",
      "logs": [
        {
          "address": "0x498581ff718922c3f8e6a244956af099b2652b2b",
          "topics": [
            "0xdd466e674ea557f56295e2d0218a125ea4b4f0f6f3307b95f85e6110838d6438",
            "0x7ff3f070eef7d5d6cdef95a11646e85685f5e03f63dc784a7d98ca0afc3db1e4",
            "0x0000000000000000000000000000000000000000000000000000000000000000",
            "0x000000000000000000000000833589fcd6edb6e08f4c7c32d4f71b54bda02913"
          ],
          "data": "0x0000000000000000000000000000000000000000000000000000000000800000000000000000000000000000000000000000000000000000000000000000003c000000000000000000000000dff183b65b532b15e0917d0aa1a9e15e1f0860880000000000000000000000000000000000000000000343194672933f20000000fffffffffffffffffffffffffffffffffffffffffffffffffffffffffffcf9e6",
          "blockHash": "0xad26acfa68f76337000aab8806006b89d5ce9e18f36303b44b916d7ff18b70a4",
          "blockNumber": "0x1e3a657",
          "blockTimestamp": "0x6851a9c1",
          "transactionHash": "0xb57982b74aa74cc0668c5ec0ca698dde6b716c5cb92c7bf3f413bd2fd65abc04",
          "transactionIndex": "0x0",
          "logIndex": "0x0",
          "removed": false
        }
      ],
      "logsBloom": "0x00000000000000000000000000000000000000000000000000000000000000000000000000000000000000000000000000000000000000000000000000000000000000000000040000000000000000000000000000000000000000000000000000000000020000000000000000000800010000000000000000000000000000000000000000004008400008000000000000000001000000000002000000200000000000000000000000000000000000000000000000000000000000000000000000000000000000000000000000010000000800000000000000000000000020000000000000000000000000000000000000000400000000000000000000000000",
      "type": "0x2",
      "transactionHash": "0xb57982b74aa74cc0668c5ec0ca698dde6b716c5cb92c7bf3f413bd2fd65abc04",
      "transactionIndex": "0x0",
      "blockHash": "0xad26acfa68f76337000aab8806006b89d5ce9e18f36303b44b916d7ff18b70a4",
      "blockNumber": "0x1e3a657",
      "gasUsed": "0xec65",
      "effectiveGasPrice": "0x4722da",
      "blobGasPrice": "0x1",
      "from": "0xf39fd6e51aad88f6f4ce6ab8827279cfffb92266",
      "to": "0x7c5f5a4bbd8fd63184577525326123b519429bdc",
      "contractAddress": null
    }
  ],
  "libraries": [],
  "pending": [],
  "returns": {},
  "timestamp": 1750182339,
  "chain": 8453,
  "commit": "75205e2"
}